{
	"VOTACION/votacion.sol": {
		"votacion": {
			"abi": [
				{
					"inputs": [],
					"stateMutability": "nonpayable",
					"type": "constructor"
				},
				{
					"inputs": [],
					"name": "Ganador",
					"outputs": [
						{
							"internalType": "string",
							"name": "",
							"type": "string"
						}
					],
					"stateMutability": "view",
					"type": "function"
				},
				{
					"inputs": [
						{
							"internalType": "string",
							"name": "_nombre",
							"type": "string"
						},
						{
							"internalType": "uint256",
							"name": "_edad",
							"type": "uint256"
						},
						{
							"internalType": "string",
							"name": "_id_persona",
							"type": "string"
						}
					],
					"name": "Representar",
					"outputs": [],
					"stateMutability": "nonpayable",
					"type": "function"
				},
				{
					"inputs": [],
					"name": "verCandidatos",
					"outputs": [
						{
							"internalType": "string[]",
							"name": "",
							"type": "string[]"
						}
					],
					"stateMutability": "view",
					"type": "function"
				},
				{
					"inputs": [],
					"name": "verResultados",
					"outputs": [
						{
							"internalType": "string",
							"name": "",
							"type": "string"
						}
					],
					"stateMutability": "view",
					"type": "function"
				},
				{
					"inputs": [
						{
							"internalType": "string",
							"name": "_candidato",
							"type": "string"
						}
					],
					"name": "verVotos",
					"outputs": [
						{
							"internalType": "uint256",
							"name": "",
							"type": "uint256"
						}
					],
					"stateMutability": "view",
					"type": "function"
				},
				{
					"inputs": [
						{
							"internalType": "string",
							"name": "_candidato",
							"type": "string"
						}
					],
					"name": "votar",
					"outputs": [],
					"stateMutability": "nonpayable",
					"type": "function"
				}
			],
			"devdoc": {
				"kind": "dev",
				"methods": {},
				"version": 1
			},
			"evm": {
				"assembly": "    /* \"VOTACION/votacion.sol\":90:2250  contract votacion {... */\n  mstore(0x40, 0x80)\n    /* \"VOTACION/votacion.sol\":179:228  constructor() {... */\n  callvalue\n  dup1\n  iszero\n  tag_1\n  jumpi\n  0x00\n  dup1\n  revert\ntag_1:\n  pop\n    /* \"VOTACION/votacion.sol\":211:221  msg.sender */\n  caller\n    /* \"VOTACION/votacion.sol\":203:208  owner */\n  0x00\n  dup1\n    /* \"VOTACION/votacion.sol\":203:221  owner = msg.sender */\n  0x0100\n  exp\n  dup2\n  sload\n  dup2\n  0xffffffffffffffffffffffffffffffffffffffff\n  mul\n  not\n  and\n  swap1\n  dup4\n  0xffffffffffffffffffffffffffffffffffffffff\n  and\n  mul\n  or\n  swap1\n  sstore\n  pop\n    /* \"VOTACION/votacion.sol\":90:2250  contract votacion {... */\n  dataSize(sub_0)\n  dup1\n  dataOffset(sub_0)\n  0x00\n  codecopy\n  0x00\n  return\nstop\n\nsub_0: assembly {\n        /* \"VOTACION/votacion.sol\":90:2250  contract votacion {... */\n      mstore(0x40, 0x80)\n      callvalue\n      dup1\n      iszero\n      tag_1\n      jumpi\n      0x00\n      dup1\n      revert\n    tag_1:\n      pop\n      jumpi(tag_2, lt(calldatasize, 0x04))\n      shr(0xe0, calldataload(0x00))\n      dup1\n      0x55911cc1\n      eq\n      tag_3\n      jumpi\n      dup1\n      0x58c6414f\n      eq\n      tag_4\n      jumpi\n      dup1\n      0x60df75d4\n      eq\n      tag_5\n      jumpi\n      dup1\n      0xcaaa49a6\n      eq\n      tag_6\n      jumpi\n      dup1\n      0xce3fe641\n      eq\n      tag_7\n      jumpi\n      dup1\n      0xf01ca6b7\n      eq\n      tag_8\n      jumpi\n    tag_2:\n      0x00\n      dup1\n      revert\n        /* \"VOTACION/votacion.sol\":1929:2246  function Ganador() public view returns(string memory){... */\n    tag_3:\n      tag_9\n      tag_10\n      jump\t// in\n    tag_9:\n      mload(0x40)\n      tag_11\n      swap2\n      swap1\n      tag_12\n      jump\t// in\n    tag_11:\n      mload(0x40)\n      dup1\n      swap2\n      sub\n      swap1\n      return\n        /* \"VOTACION/votacion.sol\":1430:1923  function verResultados() public view returns (string memory) {... */\n    tag_4:\n      tag_13\n      tag_14\n      jump\t// in\n    tag_13:\n      mload(0x40)\n      tag_15\n      swap2\n      swap1\n      tag_12\n      jump\t// in\n    tag_15:\n      mload(0x40)\n      dup1\n      swap2\n      sub\n      swap1\n      return\n        /* \"VOTACION/votacion.sol\":1299:1424  function verVotos(string memory _candidato) public view returns (uint256) {... */\n    tag_5:\n      tag_16\n      0x04\n      dup1\n      calldatasize\n      sub\n      dup2\n      add\n      swap1\n      tag_17\n      swap2\n      swap1\n      tag_18\n      jump\t// in\n    tag_17:\n      tag_19\n      jump\t// in\n    tag_16:\n      mload(0x40)\n      tag_20\n      swap2\n      swap1\n      tag_21\n      jump\t// in\n    tag_20:\n      mload(0x40)\n      dup1\n      swap2\n      sub\n      swap1\n      return\n        /* \"VOTACION/votacion.sol\":843:940  function verCandidatos() public view returns (string[] memory) {... */\n    tag_6:\n      tag_22\n      tag_23\n      jump\t// in\n    tag_22:\n      mload(0x40)\n      tag_24\n      swap2\n      swap1\n      tag_25\n      jump\t// in\n    tag_24:\n      mload(0x40)\n      dup1\n      swap2\n      sub\n      swap1\n      return\n        /* \"VOTACION/votacion.sol\":946:1293  function votar(string memory _candidato) public {... */\n    tag_7:\n      tag_26\n      0x04\n      dup1\n      calldatasize\n      sub\n      dup2\n      add\n      swap1\n      tag_27\n      swap2\n      swap1\n      tag_18\n      jump\t// in\n    tag_27:\n      tag_28\n      jump\t// in\n    tag_26:\n      stop\n        /* \"VOTACION/votacion.sol\":512:837  function Representar(... */\n    tag_8:\n      tag_29\n      0x04\n      dup1\n      calldatasize\n      sub\n      dup2\n      add\n      swap1\n      tag_30\n      swap2\n      swap1\n      tag_31\n      jump\t// in\n    tag_30:\n      tag_32\n      jump\t// in\n    tag_29:\n      stop\n        /* \"VOTACION/votacion.sol\":1929:2246  function Ganador() public view returns(string memory){... */\n    tag_10:\n        /* \"VOTACION/votacion.sol\":1968:1981  string memory */\n      0x60\n        /* \"VOTACION/votacion.sol\":1992:2013  string memory ganador */\n      0x00\n        /* \"VOTACION/votacion.sol\":2015:2025  candidatos */\n      0x03\n        /* \"VOTACION/votacion.sol\":2026:2027  0 */\n      0x00\n        /* \"VOTACION/votacion.sol\":2015:2028  candidatos[0] */\n      dup2\n      sload\n      dup2\n      lt\n      tag_34\n      jumpi\n      tag_35\n      tag_36\n      jump\t// in\n    tag_35:\n    tag_34:\n      swap1\n      0x00\n      mstore\n      keccak256(0x00, 0x20)\n      add\n        /* \"VOTACION/votacion.sol\":1992:2028  string memory ganador= candidatos[0] */\n      dup1\n      sload\n      tag_38\n      swap1\n      tag_39\n      jump\t// in\n    tag_38:\n      dup1\n      0x1f\n      add\n      0x20\n      dup1\n      swap2\n      div\n      mul\n      0x20\n      add\n      mload(0x40)\n      swap1\n      dup2\n      add\n      0x40\n      mstore\n      dup1\n      swap3\n      swap2\n      swap1\n      dup2\n      dup2\n      mstore\n      0x20\n      add\n      dup3\n      dup1\n      sload\n      tag_40\n      swap1\n      tag_39\n      jump\t// in\n    tag_40:\n      dup1\n      iszero\n      tag_41\n      jumpi\n      dup1\n      0x1f\n      lt\n      tag_42\n      jumpi\n      0x0100\n      dup1\n      dup4\n      sload\n      div\n      mul\n      dup4\n      mstore\n      swap2\n      0x20\n      add\n      swap2\n      jump(tag_41)\n    tag_42:\n      dup3\n      add\n      swap2\n      swap1\n      0x00\n      mstore\n      keccak256(0x00, 0x20)\n      swap1\n    tag_43:\n      dup2\n      sload\n      dup2\n      mstore\n      swap1\n      0x01\n      add\n      swap1\n      0x20\n      add\n      dup1\n      dup4\n      gt\n      tag_43\n      jumpi\n      dup3\n      swap1\n      sub\n      0x1f\n      and\n      dup3\n      add\n      swap2\n    tag_41:\n      pop\n      pop\n      pop\n      pop\n      pop\n      swap1\n      pop\n        /* \"VOTACION/votacion.sol\":2042:2048  uint i */\n      0x00\n        /* \"VOTACION/votacion.sol\":2049:2050  1 */\n      0x01\n        /* \"VOTACION/votacion.sol\":2042:2050  uint i=1 */\n      swap1\n      pop\n        /* \"VOTACION/votacion.sol\":2038:2215  for(uint i=1;i<candidatos.length;i++){... */\n    tag_44:\n        /* \"VOTACION/votacion.sol\":2053:2063  candidatos */\n      0x03\n        /* \"VOTACION/votacion.sol\":2053:2070  candidatos.length */\n      dup1\n      sload\n      swap1\n      pop\n        /* \"VOTACION/votacion.sol\":2051:2052  i */\n      dup2\n        /* \"VOTACION/votacion.sol\":2051:2070  i<candidatos.length */\n      lt\n        /* \"VOTACION/votacion.sol\":2038:2215  for(uint i=1;i<candidatos.length;i++){... */\n      iszero\n      tag_45\n      jumpi\n        /* \"VOTACION/votacion.sol\":2120:2135  votos_candidato */\n      0x02\n        /* \"VOTACION/votacion.sol\":2136:2146  candidatos */\n      0x03\n        /* \"VOTACION/votacion.sol\":2147:2148  i */\n      dup3\n        /* \"VOTACION/votacion.sol\":2136:2149  candidatos[i] */\n      dup2\n      sload\n      dup2\n      lt\n      tag_47\n      jumpi\n      tag_48\n      tag_36\n      jump\t// in\n    tag_48:\n    tag_47:\n      swap1\n      0x00\n      mstore\n      keccak256(0x00, 0x20)\n      add\n        /* \"VOTACION/votacion.sol\":2120:2150  votos_candidato[candidatos[i]] */\n      mload(0x40)\n      tag_50\n      swap2\n      swap1\n      tag_51\n      jump\t// in\n    tag_50:\n      swap1\n      dup2\n      mstore\n      0x20\n      add\n      mload(0x40)\n      dup1\n      swap2\n      sub\n      swap1\n      keccak256\n      sload\n        /* \"VOTACION/votacion.sol\":2095:2110  votos_candidato */\n      0x02\n        /* \"VOTACION/votacion.sol\":2111:2118  ganador */\n      dup4\n        /* \"VOTACION/votacion.sol\":2095:2119  votos_candidato[ganador] */\n      mload(0x40)\n      tag_52\n      swap2\n      swap1\n      tag_53\n      jump\t// in\n    tag_52:\n      swap1\n      dup2\n      mstore\n      0x20\n      add\n      mload(0x40)\n      dup1\n      swap2\n      sub\n      swap1\n      keccak256\n      sload\n        /* \"VOTACION/votacion.sol\":2095:2150  votos_candidato[ganador]<votos_candidato[candidatos[i]] */\n      lt\n        /* \"VOTACION/votacion.sol\":2092:2205  if(votos_candidato[ganador]<votos_candidato[candidatos[i]]){... */\n      iszero\n      tag_54\n      jumpi\n        /* \"VOTACION/votacion.sol\":2177:2187  candidatos */\n      0x03\n        /* \"VOTACION/votacion.sol\":2188:2189  i */\n      dup2\n        /* \"VOTACION/votacion.sol\":2177:2190  candidatos[i] */\n      dup2\n      sload\n      dup2\n      lt\n      tag_55\n      jumpi\n      tag_56\n      tag_36\n      jump\t// in\n    tag_56:\n    tag_55:\n      swap1\n      0x00\n      mstore\n      keccak256(0x00, 0x20)\n      add\n        /* \"VOTACION/votacion.sol\":2169:2190  ganador=candidatos[i] */\n      dup1\n      sload\n      tag_58\n      swap1\n      tag_39\n      jump\t// in\n    tag_58:\n      dup1\n      0x1f\n      add\n      0x20\n      dup1\n      swap2\n      div\n      mul\n      0x20\n      add\n      mload(0x40)\n      swap1\n      dup2\n      add\n      0x40\n      mstore\n      dup1\n      swap3\n      swap2\n      swap1\n      dup2\n      dup2\n      mstore\n      0x20\n      add\n      dup3\n      dup1\n      sload\n      tag_59\n      swap1\n      tag_39\n      jump\t// in\n    tag_59:\n      dup1\n      iszero\n      tag_60\n      jumpi\n      dup1\n      0x1f\n      lt\n      tag_61\n      jumpi\n      0x0100\n      dup1\n      dup4\n      sload\n      div\n      mul\n      dup4\n      mstore\n      swap2\n      0x20\n      add\n      swap2\n      jump(tag_60)\n    tag_61:\n      dup3\n      add\n      swap2\n      swap1\n      0x00\n      mstore\n      keccak256(0x00, 0x20)\n      swap1\n    tag_62:\n      dup2\n      sload\n      dup2\n      mstore\n      swap1\n      0x01\n      add\n      swap1\n      0x20\n      add\n      dup1\n      dup4\n      gt\n      tag_62\n      jumpi\n      dup3\n      swap1\n      sub\n      0x1f\n      and\n      dup3\n      add\n      swap2\n    tag_60:\n      pop\n      pop\n      pop\n      pop\n      pop\n      swap2\n      pop\n        /* \"VOTACION/votacion.sol\":2092:2205  if(votos_candidato[ganador]<votos_candidato[candidatos[i]]){... */\n    tag_54:\n        /* \"VOTACION/votacion.sol\":2071:2074  i++ */\n      dup1\n      dup1\n      0x01\n      add\n      swap2\n      pop\n      pop\n        /* \"VOTACION/votacion.sol\":2038:2215  for(uint i=1;i<candidatos.length;i++){... */\n      jump(tag_44)\n    tag_45:\n      pop\n        /* \"VOTACION/votacion.sol\":2231:2238  ganador */\n      dup1\n        /* \"VOTACION/votacion.sol\":2224:2238  return ganador */\n      swap2\n      pop\n      pop\n        /* \"VOTACION/votacion.sol\":1929:2246  function Ganador() public view returns(string memory){... */\n      swap1\n      jump\t// out\n        /* \"VOTACION/votacion.sol\":1430:1923  function verResultados() public view returns (string memory) {... */\n    tag_14:\n        /* \"VOTACION/votacion.sol\":1476:1489  string memory */\n      0x60\n        /* \"VOTACION/votacion.sol\":1501:1525  string memory resultados */\n      0x00\n        /* \"VOTACION/votacion.sol\":1501:1530  string memory resultados = \"\" */\n      mload(0x40)\n      dup1\n      0x20\n      add\n      0x40\n      mstore\n      dup1\n      0x00\n      dup2\n      mstore\n      pop\n      swap1\n      pop\n        /* \"VOTACION/votacion.sol\":1545:1554  uint256 i */\n      0x00\n        /* \"VOTACION/votacion.sol\":1540:1889  for (uint256 i = 0; i < candidatos.length; i++) {... */\n    tag_64:\n        /* \"VOTACION/votacion.sol\":1564:1574  candidatos */\n      0x03\n        /* \"VOTACION/votacion.sol\":1564:1581  candidatos.length */\n      dup1\n      sload\n      swap1\n      pop\n        /* \"VOTACION/votacion.sol\":1560:1561  i */\n      dup2\n        /* \"VOTACION/votacion.sol\":1560:1581  i < candidatos.length */\n      lt\n        /* \"VOTACION/votacion.sol\":1540:1889  for (uint256 i = 0; i < candidatos.length; i++) {... */\n      iszero\n      tag_65\n      jumpi\n        /* \"VOTACION/votacion.sol\":1677:1687  resultados */\n      dup2\n        /* \"VOTACION/votacion.sol\":1735:1745  candidatos */\n      0x03\n        /* \"VOTACION/votacion.sol\":1746:1747  i */\n      dup3\n        /* \"VOTACION/votacion.sol\":1735:1748  candidatos[i] */\n      dup2\n      sload\n      dup2\n      lt\n      tag_67\n      jumpi\n      tag_68\n      tag_36\n      jump\t// in\n    tag_68:\n    tag_67:\n      swap1\n      0x00\n      mstore\n      keccak256(0x00, 0x20)\n      add\n        /* \"VOTACION/votacion.sol\":1796:1819  verVotos(candidatos[i]) */\n      tag_70\n        /* \"VOTACION/votacion.sol\":1805:1815  candidatos */\n      0x03\n        /* \"VOTACION/votacion.sol\":1816:1817  i */\n      dup5\n        /* \"VOTACION/votacion.sol\":1805:1818  candidatos[i] */\n      dup2\n      sload\n      dup2\n      lt\n      tag_71\n      jumpi\n      tag_72\n      tag_36\n      jump\t// in\n    tag_72:\n    tag_71:\n      swap1\n      0x00\n      mstore\n      keccak256(0x00, 0x20)\n      add\n        /* \"VOTACION/votacion.sol\":1796:1819  verVotos(candidatos[i]) */\n      dup1\n      sload\n      tag_74\n      swap1\n      tag_39\n      jump\t// in\n    tag_74:\n      dup1\n      0x1f\n      add\n      0x20\n      dup1\n      swap2\n      div\n      mul\n      0x20\n      add\n      mload(0x40)\n      swap1\n      dup2\n      add\n      0x40\n      mstore\n      dup1\n      swap3\n      swap2\n      swap1\n      dup2\n      dup2\n      mstore\n      0x20\n      add\n      dup3\n      dup1\n      sload\n      tag_75\n      swap1\n      tag_39\n      jump\t// in\n    tag_75:\n      dup1\n      iszero\n      tag_76\n      jumpi\n      dup1\n      0x1f\n      lt\n      tag_77\n      jumpi\n      0x0100\n      dup1\n      dup4\n      sload\n      div\n      mul\n      dup4\n      mstore\n      swap2\n      0x20\n      add\n      swap2\n      jump(tag_76)\n    tag_77:\n      dup3\n      add\n      swap2\n      swap1\n      0x00\n      mstore\n      keccak256(0x00, 0x20)\n      swap1\n    tag_78:\n      dup2\n      sload\n      dup2\n      mstore\n      swap1\n      0x01\n      add\n      swap1\n      0x20\n      add\n      dup1\n      dup4\n      gt\n      tag_78\n      jumpi\n      dup3\n      swap1\n      sub\n      0x1f\n      and\n      dup3\n      add\n      swap2\n    tag_76:\n      pop\n      pop\n      pop\n      pop\n      pop\n        /* \"VOTACION/votacion.sol\":1796:1804  verVotos */\n      tag_19\n        /* \"VOTACION/votacion.sol\":1796:1819  verVotos(candidatos[i]) */\n      jump\t// in\n    tag_70:\n        /* \"VOTACION/votacion.sol\":1639:1864  abi.encodePacked(... */\n      add(0x20, mload(0x40))\n      tag_79\n      swap4\n      swap3\n      swap2\n      swap1\n      tag_80\n      jump\t// in\n    tag_79:\n      mload(0x40)\n      0x20\n      dup2\n      dup4\n      sub\n      sub\n      dup2\n      mstore\n      swap1\n      0x40\n      mstore\n        /* \"VOTACION/votacion.sol\":1602:1878  resultados = string(... */\n      swap2\n      pop\n        /* \"VOTACION/votacion.sol\":1583:1586  i++ */\n      dup1\n      dup1\n      0x01\n      add\n      swap2\n      pop\n      pop\n        /* \"VOTACION/votacion.sol\":1540:1889  for (uint256 i = 0; i < candidatos.length; i++) {... */\n      jump(tag_64)\n    tag_65:\n      pop\n        /* \"VOTACION/votacion.sol\":1906:1916  resultados */\n      dup1\n        /* \"VOTACION/votacion.sol\":1899:1916  return resultados */\n      swap2\n      pop\n      pop\n        /* \"VOTACION/votacion.sol\":1430:1923  function verResultados() public view returns (string memory) {... */\n      swap1\n      jump\t// out\n        /* \"VOTACION/votacion.sol\":1299:1424  function verVotos(string memory _candidato) public view returns (uint256) {... */\n    tag_19:\n        /* \"VOTACION/votacion.sol\":1364:1371  uint256 */\n      0x00\n        /* \"VOTACION/votacion.sol\":1390:1405  votos_candidato */\n      0x02\n        /* \"VOTACION/votacion.sol\":1406:1416  _candidato */\n      dup3\n        /* \"VOTACION/votacion.sol\":1390:1417  votos_candidato[_candidato] */\n      mload(0x40)\n      tag_82\n      swap2\n      swap1\n      tag_53\n      jump\t// in\n    tag_82:\n      swap1\n      dup2\n      mstore\n      0x20\n      add\n      mload(0x40)\n      dup1\n      swap2\n      sub\n      swap1\n      keccak256\n      sload\n        /* \"VOTACION/votacion.sol\":1383:1417  return votos_candidato[_candidato] */\n      swap1\n      pop\n        /* \"VOTACION/votacion.sol\":1299:1424  function verVotos(string memory _candidato) public view returns (uint256) {... */\n      swap2\n      swap1\n      pop\n      jump\t// out\n        /* \"VOTACION/votacion.sol\":843:940  function verCandidatos() public view returns (string[] memory) {... */\n    tag_23:\n        /* \"VOTACION/votacion.sol\":889:904  string[] memory */\n      0x60\n        /* \"VOTACION/votacion.sol\":923:933  candidatos */\n      0x03\n        /* \"VOTACION/votacion.sol\":916:933  return candidatos */\n      dup1\n      sload\n      dup1\n      0x20\n      mul\n      0x20\n      add\n      mload(0x40)\n      swap1\n      dup2\n      add\n      0x40\n      mstore\n      dup1\n      swap3\n      swap2\n      swap1\n      dup2\n      dup2\n      mstore\n      0x20\n      add\n      0x00\n      swap1\n    tag_84:\n      dup3\n      dup3\n      lt\n      iszero\n      tag_85\n      jumpi\n      dup4\n      dup3\n      swap1\n      0x00\n      mstore\n      keccak256(0x00, 0x20)\n      add\n      dup1\n      sload\n      tag_87\n      swap1\n      tag_39\n      jump\t// in\n    tag_87:\n      dup1\n      0x1f\n      add\n      0x20\n      dup1\n      swap2\n      div\n      mul\n      0x20\n      add\n      mload(0x40)\n      swap1\n      dup2\n      add\n      0x40\n      mstore\n      dup1\n      swap3\n      swap2\n      swap1\n      dup2\n      dup2\n      mstore\n      0x20\n      add\n      dup3\n      dup1\n      sload\n      tag_88\n      swap1\n      tag_39\n      jump\t// in\n    tag_88:\n      dup1\n      iszero\n      tag_89\n      jumpi\n      dup1\n      0x1f\n      lt\n      tag_90\n      jumpi\n      0x0100\n      dup1\n      dup4\n      sload\n      div\n      mul\n      dup4\n      mstore\n      swap2\n      0x20\n      add\n      swap2\n      jump(tag_89)\n    tag_90:\n      dup3\n      add\n      swap2\n      swap1\n      0x00\n      mstore\n      keccak256(0x00, 0x20)\n      swap1\n    tag_91:\n      dup2\n      sload\n      dup2\n      mstore\n      swap1\n      0x01\n      add\n      swap1\n      0x20\n      add\n      dup1\n      dup4\n      gt\n      tag_91\n      jumpi\n      dup3\n      swap1\n      sub\n      0x1f\n      and\n      dup3\n      add\n      swap2\n    tag_89:\n      pop\n      pop\n      pop\n      pop\n      pop\n      dup2\n      mstore\n      0x20\n      add\n      swap1\n      0x01\n      add\n      swap1\n      jump(tag_84)\n    tag_85:\n      pop\n      pop\n      pop\n      pop\n      swap1\n      pop\n        /* \"VOTACION/votacion.sol\":843:940  function verCandidatos() public view returns (string[] memory) {... */\n      swap1\n      jump\t// out\n        /* \"VOTACION/votacion.sol\":946:1293  function votar(string memory _candidato) public {... */\n    tag_28:\n        /* \"VOTACION/votacion.sol\":1004:1024  bytes32 hash_votante */\n      0x00\n        /* \"VOTACION/votacion.sol\":1054:1064  msg.sender */\n      caller\n        /* \"VOTACION/votacion.sol\":1037:1065  abi.encodePacked(msg.sender) */\n      add(0x20, mload(0x40))\n      tag_93\n      swap2\n      swap1\n      tag_94\n      jump\t// in\n    tag_93:\n      mload(0x40)\n      0x20\n      dup2\n      dup4\n      sub\n      sub\n      dup2\n      mstore\n      swap1\n      0x40\n      mstore\n        /* \"VOTACION/votacion.sol\":1027:1066  keccak256(abi.encodePacked(msg.sender)) */\n      dup1\n      mload\n      swap1\n      0x20\n      add\n      keccak256\n        /* \"VOTACION/votacion.sol\":1004:1066  bytes32 hash_votante = keccak256(abi.encodePacked(msg.sender)) */\n      swap1\n      pop\n        /* \"VOTACION/votacion.sol\":1081:1090  uint256 i */\n      0x00\n        /* \"VOTACION/votacion.sol\":1076:1210  for (uint256 i = 0; i < votantes.length; i++) {... */\n    tag_95:\n        /* \"VOTACION/votacion.sol\":1100:1108  votantes */\n      0x04\n        /* \"VOTACION/votacion.sol\":1100:1115  votantes.length */\n      dup1\n      sload\n      swap1\n      pop\n        /* \"VOTACION/votacion.sol\":1096:1097  i */\n      dup2\n        /* \"VOTACION/votacion.sol\":1096:1115  i < votantes.length */\n      lt\n        /* \"VOTACION/votacion.sol\":1076:1210  for (uint256 i = 0; i < votantes.length; i++) {... */\n      iszero\n      tag_96\n      jumpi\n        /* \"VOTACION/votacion.sol\":1159:1171  hash_votante */\n      dup2\n        /* \"VOTACION/votacion.sol\":1144:1152  votantes */\n      0x04\n        /* \"VOTACION/votacion.sol\":1153:1154  i */\n      dup3\n        /* \"VOTACION/votacion.sol\":1144:1155  votantes[i] */\n      dup2\n      sload\n      dup2\n      lt\n      tag_98\n      jumpi\n      tag_99\n      tag_36\n      jump\t// in\n    tag_99:\n    tag_98:\n      swap1\n      0x00\n      mstore\n      keccak256(0x00, 0x20)\n      add\n      sload\n        /* \"VOTACION/votacion.sol\":1144:1171  votantes[i] != hash_votante */\n      sub\n        /* \"VOTACION/votacion.sol\":1136:1199  require(votantes[i] != hash_votante, \"El votante ya ha votado\") */\n      tag_101\n      jumpi\n      mload(0x40)\n      0x08c379a000000000000000000000000000000000000000000000000000000000\n      dup2\n      mstore\n      0x04\n      add\n      tag_102\n      swap1\n      tag_103\n      jump\t// in\n    tag_102:\n      mload(0x40)\n      dup1\n      swap2\n      sub\n      swap1\n      revert\n    tag_101:\n        /* \"VOTACION/votacion.sol\":1117:1120  i++ */\n      dup1\n      dup1\n      0x01\n      add\n      swap2\n      pop\n      pop\n        /* \"VOTACION/votacion.sol\":1076:1210  for (uint256 i = 0; i < votantes.length; i++) {... */\n      jump(tag_95)\n    tag_96:\n      pop\n        /* \"VOTACION/votacion.sol\":1220:1228  votantes */\n      0x04\n        /* \"VOTACION/votacion.sol\":1234:1246  hash_votante */\n      dup2\n        /* \"VOTACION/votacion.sol\":1220:1247  votantes.push(hash_votante) */\n      swap1\n      dup1\n      0x01\n      dup2\n      sload\n      add\n      dup1\n      dup3\n      sstore\n      dup1\n      swap2\n      pop\n      pop\n      0x01\n      swap1\n      sub\n      swap1\n      0x00\n      mstore\n      keccak256(0x00, 0x20)\n      add\n      0x00\n      swap1\n      swap2\n      swap1\n      swap2\n      swap1\n      swap2\n      pop\n      sstore\n        /* \"VOTACION/votacion.sol\":1257:1272  votos_candidato */\n      0x02\n        /* \"VOTACION/votacion.sol\":1273:1283  _candidato */\n      dup3\n        /* \"VOTACION/votacion.sol\":1257:1284  votos_candidato[_candidato] */\n      mload(0x40)\n      tag_105\n      swap2\n      swap1\n      tag_53\n      jump\t// in\n    tag_105:\n      swap1\n      dup2\n      mstore\n      0x20\n      add\n      mload(0x40)\n      dup1\n      swap2\n      sub\n      swap1\n      keccak256\n      0x00\n        /* \"VOTACION/votacion.sol\":1257:1286  votos_candidato[_candidato]++ */\n      dup2\n      sload\n      dup1\n      swap3\n      swap2\n      swap1\n      tag_106\n      swap1\n      tag_107\n      jump\t// in\n    tag_106:\n      swap2\n      swap1\n      pop\n      sstore\n      pop\n        /* \"VOTACION/votacion.sol\":994:1293  {... */\n      pop\n        /* \"VOTACION/votacion.sol\":946:1293  function votar(string memory _candidato) public {... */\n      pop\n      jump\t// out\n        /* \"VOTACION/votacion.sol\":512:837  function Representar(... */\n    tag_32:\n        /* \"VOTACION/votacion.sol\":645:667  bytes32 hash_candidato */\n      0x00\n        /* \"VOTACION/votacion.sol\":710:717  _nombre */\n      dup4\n        /* \"VOTACION/votacion.sol\":719:724  _edad */\n      dup4\n        /* \"VOTACION/votacion.sol\":726:737  _id_persona */\n      dup4\n        /* \"VOTACION/votacion.sol\":693:738  abi.encodePacked(_nombre, _edad, _id_persona) */\n      add(0x20, mload(0x40))\n      tag_109\n      swap4\n      swap3\n      swap2\n      swap1\n      tag_110\n      jump\t// in\n    tag_109:\n      mload(0x40)\n      0x20\n      dup2\n      dup4\n      sub\n      sub\n      dup2\n      mstore\n      swap1\n      0x40\n      mstore\n        /* \"VOTACION/votacion.sol\":670:748  keccak256(... */\n      dup1\n      mload\n      swap1\n      0x20\n      add\n      keccak256\n        /* \"VOTACION/votacion.sol\":645:748  bytes32 hash_candidato = keccak256(... */\n      swap1\n      pop\n        /* \"VOTACION/votacion.sol\":782:796  hash_candidato */\n      dup1\n        /* \"VOTACION/votacion.sol\":758:770  id_candidato */\n      0x01\n        /* \"VOTACION/votacion.sol\":771:778  _nombre */\n      dup6\n        /* \"VOTACION/votacion.sol\":758:779  id_candidato[_nombre] */\n      mload(0x40)\n      tag_111\n      swap2\n      swap1\n      tag_53\n      jump\t// in\n    tag_111:\n      swap1\n      dup2\n      mstore\n      0x20\n      add\n      mload(0x40)\n      dup1\n      swap2\n      sub\n      swap1\n      keccak256\n        /* \"VOTACION/votacion.sol\":758:796  id_candidato[_nombre] = hash_candidato */\n      dup2\n      swap1\n      sstore\n      pop\n        /* \"VOTACION/votacion.sol\":806:816  candidatos */\n      0x03\n        /* \"VOTACION/votacion.sol\":822:829  _nombre */\n      dup5\n        /* \"VOTACION/votacion.sol\":806:830  candidatos.push(_nombre) */\n      swap1\n      dup1\n      0x01\n      dup2\n      sload\n      add\n      dup1\n      dup3\n      sstore\n      dup1\n      swap2\n      pop\n      pop\n      0x01\n      swap1\n      sub\n      swap1\n      0x00\n      mstore\n      keccak256(0x00, 0x20)\n      add\n      0x00\n      swap1\n      swap2\n      swap1\n      swap2\n      swap1\n      swap2\n      pop\n      swap1\n      dup2\n      tag_113\n      swap2\n      swap1\n      tag_114\n      jump\t// in\n    tag_113:\n      pop\n        /* \"VOTACION/votacion.sol\":635:837  {... */\n      pop\n        /* \"VOTACION/votacion.sol\":512:837  function Representar(... */\n      pop\n      pop\n      pop\n      jump\t// out\n        /* \"#utility.yul\":7:106   */\n    tag_115:\n        /* \"#utility.yul\":59:65   */\n      0x00\n        /* \"#utility.yul\":93:98   */\n      dup2\n        /* \"#utility.yul\":87:99   */\n      mload\n        /* \"#utility.yul\":77:99   */\n      swap1\n      pop\n        /* \"#utility.yul\":7:106   */\n      swap2\n      swap1\n      pop\n      jump\t// out\n        /* \"#utility.yul\":112:281   */\n    tag_116:\n        /* \"#utility.yul\":196:207   */\n      0x00\n        /* \"#utility.yul\":230:236   */\n      dup3\n        /* \"#utility.yul\":225:228   */\n      dup3\n        /* \"#utility.yul\":218:237   */\n      mstore\n        /* \"#utility.yul\":270:274   */\n      0x20\n        /* \"#utility.yul\":265:268   */\n      dup3\n        /* \"#utility.yul\":261:275   */\n      add\n        /* \"#utility.yul\":246:275   */\n      swap1\n      pop\n        /* \"#utility.yul\":112:281   */\n      swap3\n      swap2\n      pop\n      pop\n      jump\t// out\n        /* \"#utility.yul\":287:533   */\n    tag_117:\n        /* \"#utility.yul\":368:369   */\n      0x00\n        /* \"#utility.yul\":378:491   */\n    tag_184:\n        /* \"#utility.yul\":392:398   */\n      dup4\n        /* \"#utility.yul\":389:390   */\n      dup2\n        /* \"#utility.yul\":386:399   */\n      lt\n        /* \"#utility.yul\":378:491   */\n      iszero\n      tag_186\n      jumpi\n        /* \"#utility.yul\":477:478   */\n      dup1\n        /* \"#utility.yul\":472:475   */\n      dup3\n        /* \"#utility.yul\":468:479   */\n      add\n        /* \"#utility.yul\":462:480   */\n      mload\n        /* \"#utility.yul\":458:459   */\n      dup2\n        /* \"#utility.yul\":453:456   */\n      dup5\n        /* \"#utility.yul\":449:460   */\n      add\n        /* \"#utility.yul\":442:481   */\n      mstore\n        /* \"#utility.yul\":414:416   */\n      0x20\n        /* \"#utility.yul\":411:412   */\n      dup2\n        /* \"#utility.yul\":407:417   */\n      add\n        /* \"#utility.yul\":402:417   */\n      swap1\n      pop\n        /* \"#utility.yul\":378:491   */\n      jump(tag_184)\n    tag_186:\n        /* \"#utility.yul\":525:526   */\n      0x00\n        /* \"#utility.yul\":516:522   */\n      dup5\n        /* \"#utility.yul\":511:514   */\n      dup5\n        /* \"#utility.yul\":507:523   */\n      add\n        /* \"#utility.yul\":500:527   */\n      mstore\n        /* \"#utility.yul\":349:533   */\n      pop\n        /* \"#utility.yul\":287:533   */\n      pop\n      pop\n      pop\n      jump\t// out\n        /* \"#utility.yul\":539:641   */\n    tag_118:\n        /* \"#utility.yul\":580:586   */\n      0x00\n        /* \"#utility.yul\":631:633   */\n      0x1f\n        /* \"#utility.yul\":627:634   */\n      not\n        /* \"#utility.yul\":622:624   */\n      0x1f\n        /* \"#utility.yul\":615:620   */\n      dup4\n        /* \"#utility.yul\":611:625   */\n      add\n        /* \"#utility.yul\":607:635   */\n      and\n        /* \"#utility.yul\":597:635   */\n      swap1\n      pop\n        /* \"#utility.yul\":539:641   */\n      swap2\n      swap1\n      pop\n      jump\t// out\n        /* \"#utility.yul\":647:1024   */\n    tag_119:\n        /* \"#utility.yul\":735:738   */\n      0x00\n        /* \"#utility.yul\":763:802   */\n      tag_189\n        /* \"#utility.yul\":796:801   */\n      dup3\n        /* \"#utility.yul\":763:802   */\n      tag_115\n      jump\t// in\n    tag_189:\n        /* \"#utility.yul\":818:889   */\n      tag_190\n        /* \"#utility.yul\":882:888   */\n      dup2\n        /* \"#utility.yul\":877:880   */\n      dup6\n        /* \"#utility.yul\":818:889   */\n      tag_116\n      jump\t// in\n    tag_190:\n        /* \"#utility.yul\":811:889   */\n      swap4\n      pop\n        /* \"#utility.yul\":898:963   */\n      tag_191\n        /* \"#utility.yul\":956:962   */\n      dup2\n        /* \"#utility.yul\":951:954   */\n      dup6\n        /* \"#utility.yul\":944:948   */\n      0x20\n        /* \"#utility.yul\":937:942   */\n      dup7\n        /* \"#utility.yul\":933:949   */\n      add\n        /* \"#utility.yul\":898:963   */\n      tag_117\n      jump\t// in\n    tag_191:\n        /* \"#utility.yul\":988:1017   */\n      tag_192\n        /* \"#utility.yul\":1010:1016   */\n      dup2\n        /* \"#utility.yul\":988:1017   */\n      tag_118\n      jump\t// in\n    tag_192:\n        /* \"#utility.yul\":983:986   */\n      dup5\n        /* \"#utility.yul\":979:1018   */\n      add\n        /* \"#utility.yul\":972:1018   */\n      swap2\n      pop\n        /* \"#utility.yul\":739:1024   */\n      pop\n        /* \"#utility.yul\":647:1024   */\n      swap3\n      swap2\n      pop\n      pop\n      jump\t// out\n        /* \"#utility.yul\":1030:1343   */\n    tag_12:\n        /* \"#utility.yul\":1143:1147   */\n      0x00\n        /* \"#utility.yul\":1181:1183   */\n      0x20\n        /* \"#utility.yul\":1170:1179   */\n      dup3\n        /* \"#utility.yul\":1166:1184   */\n      add\n        /* \"#utility.yul\":1158:1184   */\n      swap1\n      pop\n        /* \"#utility.yul\":1230:1239   */\n      dup2\n        /* \"#utility.yul\":1224:1228   */\n      dup2\n        /* \"#utility.yul\":1220:1240   */\n      sub\n        /* \"#utility.yul\":1216:1217   */\n      0x00\n        /* \"#utility.yul\":1205:1214   */\n      dup4\n        /* \"#utility.yul\":1201:1218   */\n      add\n        /* \"#utility.yul\":1194:1241   */\n      mstore\n        /* \"#utility.yul\":1258:1336   */\n      tag_194\n        /* \"#utility.yul\":1331:1335   */\n      dup2\n        /* \"#utility.yul\":1322:1328   */\n      dup5\n        /* \"#utility.yul\":1258:1336   */\n      tag_119\n      jump\t// in\n    tag_194:\n        /* \"#utility.yul\":1250:1336   */\n      swap1\n      pop\n        /* \"#utility.yul\":1030:1343   */\n      swap3\n      swap2\n      pop\n      pop\n      jump\t// out\n        /* \"#utility.yul\":1349:1424   */\n    tag_120:\n        /* \"#utility.yul\":1382:1388   */\n      0x00\n        /* \"#utility.yul\":1415:1417   */\n      0x40\n        /* \"#utility.yul\":1409:1418   */\n      mload\n        /* \"#utility.yul\":1399:1418   */\n      swap1\n      pop\n        /* \"#utility.yul\":1349:1424   */\n      swap1\n      jump\t// out\n        /* \"#utility.yul\":1430:1547   */\n    tag_121:\n        /* \"#utility.yul\":1539:1540   */\n      0x00\n        /* \"#utility.yul\":1536:1537   */\n      dup1\n        /* \"#utility.yul\":1529:1541   */\n      revert\n        /* \"#utility.yul\":1553:1670   */\n    tag_122:\n        /* \"#utility.yul\":1662:1663   */\n      0x00\n        /* \"#utility.yul\":1659:1660   */\n      dup1\n        /* \"#utility.yul\":1652:1664   */\n      revert\n        /* \"#utility.yul\":1676:1793   */\n    tag_123:\n        /* \"#utility.yul\":1785:1786   */\n      0x00\n        /* \"#utility.yul\":1782:1783   */\n      dup1\n        /* \"#utility.yul\":1775:1787   */\n      revert\n        /* \"#utility.yul\":1799:1916   */\n    tag_124:\n        /* \"#utility.yul\":1908:1909   */\n      0x00\n        /* \"#utility.yul\":1905:1906   */\n      dup1\n        /* \"#utility.yul\":1898:1910   */\n      revert\n        /* \"#utility.yul\":1922:2102   */\n    tag_125:\n        /* \"#utility.yul\":1970:2047   */\n      0x4e487b7100000000000000000000000000000000000000000000000000000000\n        /* \"#utility.yul\":1967:1968   */\n      0x00\n        /* \"#utility.yul\":1960:2048   */\n      mstore\n        /* \"#utility.yul\":2067:2071   */\n      0x41\n        /* \"#utility.yul\":2064:2065   */\n      0x04\n        /* \"#utility.yul\":2057:2072   */\n      mstore\n        /* \"#utility.yul\":2091:2095   */\n      0x24\n        /* \"#utility.yul\":2088:2089   */\n      0x00\n        /* \"#utility.yul\":2081:2096   */\n      revert\n        /* \"#utility.yul\":2108:2389   */\n    tag_126:\n        /* \"#utility.yul\":2191:2218   */\n      tag_202\n        /* \"#utility.yul\":2213:2217   */\n      dup3\n        /* \"#utility.yul\":2191:2218   */\n      tag_118\n      jump\t// in\n    tag_202:\n        /* \"#utility.yul\":2183:2189   */\n      dup2\n        /* \"#utility.yul\":2179:2219   */\n      add\n        /* \"#utility.yul\":2321:2327   */\n      dup2\n        /* \"#utility.yul\":2309:2319   */\n      dup2\n        /* \"#utility.yul\":2306:2328   */\n      lt\n        /* \"#utility.yul\":2285:2303   */\n      0xffffffffffffffff\n        /* \"#utility.yul\":2273:2283   */\n      dup3\n        /* \"#utility.yul\":2270:2304   */\n      gt\n        /* \"#utility.yul\":2267:2329   */\n      or\n        /* \"#utility.yul\":2264:2352   */\n      iszero\n      tag_203\n      jumpi\n        /* \"#utility.yul\":2332:2350   */\n      tag_204\n      tag_125\n      jump\t// in\n    tag_204:\n        /* \"#utility.yul\":2264:2352   */\n    tag_203:\n        /* \"#utility.yul\":2372:2382   */\n      dup1\n        /* \"#utility.yul\":2368:2370   */\n      0x40\n        /* \"#utility.yul\":2361:2383   */\n      mstore\n        /* \"#utility.yul\":2151:2389   */\n      pop\n        /* \"#utility.yul\":2108:2389   */\n      pop\n      pop\n      jump\t// out\n        /* \"#utility.yul\":2395:2524   */\n    tag_127:\n        /* \"#utility.yul\":2429:2435   */\n      0x00\n        /* \"#utility.yul\":2456:2476   */\n      tag_206\n      tag_120\n      jump\t// in\n    tag_206:\n        /* \"#utility.yul\":2446:2476   */\n      swap1\n      pop\n        /* \"#utility.yul\":2485:2518   */\n      tag_207\n        /* \"#utility.yul\":2513:2517   */\n      dup3\n        /* \"#utility.yul\":2505:2511   */\n      dup3\n        /* \"#utility.yul\":2485:2518   */\n      tag_126\n      jump\t// in\n    tag_207:\n        /* \"#utility.yul\":2395:2524   */\n      swap2\n      swap1\n      pop\n      jump\t// out\n        /* \"#utility.yul\":2530:2838   */\n    tag_128:\n        /* \"#utility.yul\":2592:2596   */\n      0x00\n        /* \"#utility.yul\":2682:2700   */\n      0xffffffffffffffff\n        /* \"#utility.yul\":2674:2680   */\n      dup3\n        /* \"#utility.yul\":2671:2701   */\n      gt\n        /* \"#utility.yul\":2668:2724   */\n      iszero\n      tag_209\n      jumpi\n        /* \"#utility.yul\":2704:2722   */\n      tag_210\n      tag_125\n      jump\t// in\n    tag_210:\n        /* \"#utility.yul\":2668:2724   */\n    tag_209:\n        /* \"#utility.yul\":2742:2771   */\n      tag_211\n        /* \"#utility.yul\":2764:2770   */\n      dup3\n        /* \"#utility.yul\":2742:2771   */\n      tag_118\n      jump\t// in\n    tag_211:\n        /* \"#utility.yul\":2734:2771   */\n      swap1\n      pop\n        /* \"#utility.yul\":2826:2830   */\n      0x20\n        /* \"#utility.yul\":2820:2824   */\n      dup2\n        /* \"#utility.yul\":2816:2831   */\n      add\n        /* \"#utility.yul\":2808:2831   */\n      swap1\n      pop\n        /* \"#utility.yul\":2530:2838   */\n      swap2\n      swap1\n      pop\n      jump\t// out\n        /* \"#utility.yul\":2844:2990   */\n    tag_129:\n        /* \"#utility.yul\":2941:2947   */\n      dup3\n        /* \"#utility.yul\":2936:2939   */\n      dup2\n        /* \"#utility.yul\":2931:2934   */\n      dup4\n        /* \"#utility.yul\":2918:2948   */\n      calldatacopy\n        /* \"#utility.yul\":2982:2983   */\n      0x00\n        /* \"#utility.yul\":2973:2979   */\n      dup4\n        /* \"#utility.yul\":2968:2971   */\n      dup4\n        /* \"#utility.yul\":2964:2980   */\n      add\n        /* \"#utility.yul\":2957:2984   */\n      mstore\n        /* \"#utility.yul\":2844:2990   */\n      pop\n      pop\n      pop\n      jump\t// out\n        /* \"#utility.yul\":2996:3421   */\n    tag_130:\n        /* \"#utility.yul\":3074:3079   */\n      0x00\n        /* \"#utility.yul\":3099:3165   */\n      tag_214\n        /* \"#utility.yul\":3115:3164   */\n      tag_215\n        /* \"#utility.yul\":3157:3163   */\n      dup5\n        /* \"#utility.yul\":3115:3164   */\n      tag_128\n      jump\t// in\n    tag_215:\n        /* \"#utility.yul\":3099:3165   */\n      tag_127\n      jump\t// in\n    tag_214:\n        /* \"#utility.yul\":3090:3165   */\n      swap1\n      pop\n        /* \"#utility.yul\":3188:3194   */\n      dup3\n        /* \"#utility.yul\":3181:3186   */\n      dup2\n        /* \"#utility.yul\":3174:3195   */\n      mstore\n        /* \"#utility.yul\":3226:3230   */\n      0x20\n        /* \"#utility.yul\":3219:3224   */\n      dup2\n        /* \"#utility.yul\":3215:3231   */\n      add\n        /* \"#utility.yul\":3264:3267   */\n      dup5\n        /* \"#utility.yul\":3255:3261   */\n      dup5\n        /* \"#utility.yul\":3250:3253   */\n      dup5\n        /* \"#utility.yul\":3246:3262   */\n      add\n        /* \"#utility.yul\":3243:3268   */\n      gt\n        /* \"#utility.yul\":3240:3352   */\n      iszero\n      tag_216\n      jumpi\n        /* \"#utility.yul\":3271:3350   */\n      tag_217\n      tag_124\n      jump\t// in\n    tag_217:\n        /* \"#utility.yul\":3240:3352   */\n    tag_216:\n        /* \"#utility.yul\":3361:3415   */\n      tag_218\n        /* \"#utility.yul\":3408:3414   */\n      dup5\n        /* \"#utility.yul\":3403:3406   */\n      dup3\n        /* \"#utility.yul\":3398:3401   */\n      dup6\n        /* \"#utility.yul\":3361:3415   */\n      tag_129\n      jump\t// in\n    tag_218:\n        /* \"#utility.yul\":3080:3421   */\n      pop\n        /* \"#utility.yul\":2996:3421   */\n      swap4\n      swap3\n      pop\n      pop\n      pop\n      jump\t// out\n        /* \"#utility.yul\":3441:3781   */\n    tag_131:\n        /* \"#utility.yul\":3497:3502   */\n      0x00\n        /* \"#utility.yul\":3546:3549   */\n      dup3\n        /* \"#utility.yul\":3539:3543   */\n      0x1f\n        /* \"#utility.yul\":3531:3537   */\n      dup4\n        /* \"#utility.yul\":3527:3544   */\n      add\n        /* \"#utility.yul\":3523:3550   */\n      slt\n        /* \"#utility.yul\":3513:3635   */\n      tag_220\n      jumpi\n        /* \"#utility.yul\":3554:3633   */\n      tag_221\n      tag_123\n      jump\t// in\n    tag_221:\n        /* \"#utility.yul\":3513:3635   */\n    tag_220:\n        /* \"#utility.yul\":3671:3677   */\n      dup2\n        /* \"#utility.yul\":3658:3678   */\n      calldataload\n        /* \"#utility.yul\":3696:3775   */\n      tag_222\n        /* \"#utility.yul\":3771:3774   */\n      dup5\n        /* \"#utility.yul\":3763:3769   */\n      dup3\n        /* \"#utility.yul\":3756:3760   */\n      0x20\n        /* \"#utility.yul\":3748:3754   */\n      dup7\n        /* \"#utility.yul\":3744:3761   */\n      add\n        /* \"#utility.yul\":3696:3775   */\n      tag_130\n      jump\t// in\n    tag_222:\n        /* \"#utility.yul\":3687:3775   */\n      swap2\n      pop\n        /* \"#utility.yul\":3503:3781   */\n      pop\n        /* \"#utility.yul\":3441:3781   */\n      swap3\n      swap2\n      pop\n      pop\n      jump\t// out\n        /* \"#utility.yul\":3787:4296   */\n    tag_18:\n        /* \"#utility.yul\":3856:3862   */\n      0x00\n        /* \"#utility.yul\":3905:3907   */\n      0x20\n        /* \"#utility.yul\":3893:3902   */\n      dup3\n        /* \"#utility.yul\":3884:3891   */\n      dup5\n        /* \"#utility.yul\":3880:3903   */\n      sub\n        /* \"#utility.yul\":3876:3908   */\n      slt\n        /* \"#utility.yul\":3873:3992   */\n      iszero\n      tag_224\n      jumpi\n        /* \"#utility.yul\":3911:3990   */\n      tag_225\n      tag_121\n      jump\t// in\n    tag_225:\n        /* \"#utility.yul\":3873:3992   */\n    tag_224:\n        /* \"#utility.yul\":4059:4060   */\n      0x00\n        /* \"#utility.yul\":4048:4057   */\n      dup3\n        /* \"#utility.yul\":4044:4061   */\n      add\n        /* \"#utility.yul\":4031:4062   */\n      calldataload\n        /* \"#utility.yul\":4089:4107   */\n      0xffffffffffffffff\n        /* \"#utility.yul\":4081:4087   */\n      dup2\n        /* \"#utility.yul\":4078:4108   */\n      gt\n        /* \"#utility.yul\":4075:4192   */\n      iszero\n      tag_226\n      jumpi\n        /* \"#utility.yul\":4111:4190   */\n      tag_227\n      tag_122\n      jump\t// in\n    tag_227:\n        /* \"#utility.yul\":4075:4192   */\n    tag_226:\n        /* \"#utility.yul\":4216:4279   */\n      tag_228\n        /* \"#utility.yul\":4271:4278   */\n      dup5\n        /* \"#utility.yul\":4262:4268   */\n      dup3\n        /* \"#utility.yul\":4251:4260   */\n      dup6\n        /* \"#utility.yul\":4247:4269   */\n      add\n        /* \"#utility.yul\":4216:4279   */\n      tag_131\n      jump\t// in\n    tag_228:\n        /* \"#utility.yul\":4206:4279   */\n      swap2\n      pop\n        /* \"#utility.yul\":4002:4289   */\n      pop\n        /* \"#utility.yul\":3787:4296   */\n      swap3\n      swap2\n      pop\n      pop\n      jump\t// out\n        /* \"#utility.yul\":4302:4379   */\n    tag_132:\n        /* \"#utility.yul\":4339:4346   */\n      0x00\n        /* \"#utility.yul\":4368:4373   */\n      dup2\n        /* \"#utility.yul\":4357:4373   */\n      swap1\n      pop\n        /* \"#utility.yul\":4302:4379   */\n      swap2\n      swap1\n      pop\n      jump\t// out\n        /* \"#utility.yul\":4385:4503   */\n    tag_133:\n        /* \"#utility.yul\":4472:4496   */\n      tag_231\n        /* \"#utility.yul\":4490:4495   */\n      dup2\n        /* \"#utility.yul\":4472:4496   */\n      tag_132\n      jump\t// in\n    tag_231:\n        /* \"#utility.yul\":4467:4470   */\n      dup3\n        /* \"#utility.yul\":4460:4497   */\n      mstore\n        /* \"#utility.yul\":4385:4503   */\n      pop\n      pop\n      jump\t// out\n        /* \"#utility.yul\":4509:4731   */\n    tag_21:\n        /* \"#utility.yul\":4602:4606   */\n      0x00\n        /* \"#utility.yul\":4640:4642   */\n      0x20\n        /* \"#utility.yul\":4629:4638   */\n      dup3\n        /* \"#utility.yul\":4625:4643   */\n      add\n        /* \"#utility.yul\":4617:4643   */\n      swap1\n      pop\n        /* \"#utility.yul\":4653:4724   */\n      tag_233\n        /* \"#utility.yul\":4721:4722   */\n      0x00\n        /* \"#utility.yul\":4710:4719   */\n      dup4\n        /* \"#utility.yul\":4706:4723   */\n      add\n        /* \"#utility.yul\":4697:4703   */\n      dup5\n        /* \"#utility.yul\":4653:4724   */\n      tag_133\n      jump\t// in\n    tag_233:\n        /* \"#utility.yul\":4509:4731   */\n      swap3\n      swap2\n      pop\n      pop\n      jump\t// out\n        /* \"#utility.yul\":4737:4861   */\n    tag_134:\n        /* \"#utility.yul\":4814:4820   */\n      0x00\n        /* \"#utility.yul\":4848:4853   */\n      dup2\n        /* \"#utility.yul\":4842:4854   */\n      mload\n        /* \"#utility.yul\":4832:4854   */\n      swap1\n      pop\n        /* \"#utility.yul\":4737:4861   */\n      swap2\n      swap1\n      pop\n      jump\t// out\n        /* \"#utility.yul\":4867:5061   */\n    tag_135:\n        /* \"#utility.yul\":4976:4987   */\n      0x00\n        /* \"#utility.yul\":5010:5016   */\n      dup3\n        /* \"#utility.yul\":5005:5008   */\n      dup3\n        /* \"#utility.yul\":4998:5017   */\n      mstore\n        /* \"#utility.yul\":5050:5054   */\n      0x20\n        /* \"#utility.yul\":5045:5048   */\n      dup3\n        /* \"#utility.yul\":5041:5055   */\n      add\n        /* \"#utility.yul\":5026:5055   */\n      swap1\n      pop\n        /* \"#utility.yul\":4867:5061   */\n      swap3\n      swap2\n      pop\n      pop\n      jump\t// out\n        /* \"#utility.yul\":5067:5209   */\n    tag_136:\n        /* \"#utility.yul\":5144:5148   */\n      0x00\n        /* \"#utility.yul\":5167:5170   */\n      dup2\n        /* \"#utility.yul\":5159:5170   */\n      swap1\n      pop\n        /* \"#utility.yul\":5197:5201   */\n      0x20\n        /* \"#utility.yul\":5192:5195   */\n      dup3\n        /* \"#utility.yul\":5188:5202   */\n      add\n        /* \"#utility.yul\":5180:5202   */\n      swap1\n      pop\n        /* \"#utility.yul\":5067:5209   */\n      swap2\n      swap1\n      pop\n      jump\t// out\n        /* \"#utility.yul\":5215:5374   */\n    tag_137:\n        /* \"#utility.yul\":5289:5300   */\n      0x00\n        /* \"#utility.yul\":5323:5329   */\n      dup3\n        /* \"#utility.yul\":5318:5321   */\n      dup3\n        /* \"#utility.yul\":5311:5330   */\n      mstore\n        /* \"#utility.yul\":5363:5367   */\n      0x20\n        /* \"#utility.yul\":5358:5361   */\n      dup3\n        /* \"#utility.yul\":5354:5368   */\n      add\n        /* \"#utility.yul\":5339:5368   */\n      swap1\n      pop\n        /* \"#utility.yul\":5215:5374   */\n      swap3\n      swap2\n      pop\n      pop\n      jump\t// out\n        /* \"#utility.yul\":5380:5737   */\n    tag_138:\n        /* \"#utility.yul\":5458:5461   */\n      0x00\n        /* \"#utility.yul\":5486:5525   */\n      tag_239\n        /* \"#utility.yul\":5519:5524   */\n      dup3\n        /* \"#utility.yul\":5486:5525   */\n      tag_115\n      jump\t// in\n    tag_239:\n        /* \"#utility.yul\":5541:5602   */\n      tag_240\n        /* \"#utility.yul\":5595:5601   */\n      dup2\n        /* \"#utility.yul\":5590:5593   */\n      dup6\n        /* \"#utility.yul\":5541:5602   */\n      tag_137\n      jump\t// in\n    tag_240:\n        /* \"#utility.yul\":5534:5602   */\n      swap4\n      pop\n        /* \"#utility.yul\":5611:5676   */\n      tag_241\n        /* \"#utility.yul\":5669:5675   */\n      dup2\n        /* \"#utility.yul\":5664:5667   */\n      dup6\n        /* \"#utility.yul\":5657:5661   */\n      0x20\n        /* \"#utility.yul\":5650:5655   */\n      dup7\n        /* \"#utility.yul\":5646:5662   */\n      add\n        /* \"#utility.yul\":5611:5676   */\n      tag_117\n      jump\t// in\n    tag_241:\n        /* \"#utility.yul\":5701:5730   */\n      tag_242\n        /* \"#utility.yul\":5723:5729   */\n      dup2\n        /* \"#utility.yul\":5701:5730   */\n      tag_118\n      jump\t// in\n    tag_242:\n        /* \"#utility.yul\":5696:5699   */\n      dup5\n        /* \"#utility.yul\":5692:5731   */\n      add\n        /* \"#utility.yul\":5685:5731   */\n      swap2\n      pop\n        /* \"#utility.yul\":5462:5737   */\n      pop\n        /* \"#utility.yul\":5380:5737   */\n      swap3\n      swap2\n      pop\n      pop\n      jump\t// out\n        /* \"#utility.yul\":5743:5939   */\n    tag_139:\n        /* \"#utility.yul\":5832:5842   */\n      0x00\n        /* \"#utility.yul\":5867:5933   */\n      tag_244\n        /* \"#utility.yul\":5929:5932   */\n      dup4\n        /* \"#utility.yul\":5921:5927   */\n      dup4\n        /* \"#utility.yul\":5867:5933   */\n      tag_138\n      jump\t// in\n    tag_244:\n        /* \"#utility.yul\":5853:5933   */\n      swap1\n      pop\n        /* \"#utility.yul\":5743:5939   */\n      swap3\n      swap2\n      pop\n      pop\n      jump\t// out\n        /* \"#utility.yul\":5945:6068   */\n    tag_140:\n        /* \"#utility.yul\":6025:6029   */\n      0x00\n        /* \"#utility.yul\":6057:6061   */\n      0x20\n        /* \"#utility.yul\":6052:6055   */\n      dup3\n        /* \"#utility.yul\":6048:6062   */\n      add\n        /* \"#utility.yul\":6040:6062   */\n      swap1\n      pop\n        /* \"#utility.yul\":5945:6068   */\n      swap2\n      swap1\n      pop\n      jump\t// out\n        /* \"#utility.yul\":6102:7093   */\n    tag_141:\n        /* \"#utility.yul\":6241:6244   */\n      0x00\n        /* \"#utility.yul\":6270:6334   */\n      tag_247\n        /* \"#utility.yul\":6328:6333   */\n      dup3\n        /* \"#utility.yul\":6270:6334   */\n      tag_134\n      jump\t// in\n    tag_247:\n        /* \"#utility.yul\":6350:6446   */\n      tag_248\n        /* \"#utility.yul\":6439:6445   */\n      dup2\n        /* \"#utility.yul\":6434:6437   */\n      dup6\n        /* \"#utility.yul\":6350:6446   */\n      tag_135\n      jump\t// in\n    tag_248:\n        /* \"#utility.yul\":6343:6446   */\n      swap4\n      pop\n        /* \"#utility.yul\":6472:6475   */\n      dup4\n        /* \"#utility.yul\":6517:6521   */\n      0x20\n        /* \"#utility.yul\":6509:6515   */\n      dup3\n        /* \"#utility.yul\":6505:6522   */\n      mul\n        /* \"#utility.yul\":6500:6503   */\n      dup6\n        /* \"#utility.yul\":6496:6523   */\n      add\n        /* \"#utility.yul\":6547:6613   */\n      tag_249\n        /* \"#utility.yul\":6607:6612   */\n      dup6\n        /* \"#utility.yul\":6547:6613   */\n      tag_136\n      jump\t// in\n    tag_249:\n        /* \"#utility.yul\":6636:6643   */\n      dup1\n        /* \"#utility.yul\":6667:6668   */\n      0x00\n        /* \"#utility.yul\":6652:7048   */\n    tag_250:\n        /* \"#utility.yul\":6677:6683   */\n      dup6\n        /* \"#utility.yul\":6674:6675   */\n      dup2\n        /* \"#utility.yul\":6671:6684   */\n      lt\n        /* \"#utility.yul\":6652:7048   */\n      iszero\n      tag_252\n      jumpi\n        /* \"#utility.yul\":6748:6757   */\n      dup5\n        /* \"#utility.yul\":6742:6746   */\n      dup5\n        /* \"#utility.yul\":6738:6758   */\n      sub\n        /* \"#utility.yul\":6733:6736   */\n      dup10\n        /* \"#utility.yul\":6726:6759   */\n      mstore\n        /* \"#utility.yul\":6799:6805   */\n      dup2\n        /* \"#utility.yul\":6793:6806   */\n      mload\n        /* \"#utility.yul\":6827:6911   */\n      tag_253\n        /* \"#utility.yul\":6906:6910   */\n      dup6\n        /* \"#utility.yul\":6891:6904   */\n      dup3\n        /* \"#utility.yul\":6827:6911   */\n      tag_139\n      jump\t// in\n    tag_253:\n        /* \"#utility.yul\":6819:6911   */\n      swap5\n      pop\n        /* \"#utility.yul\":6934:7004   */\n      tag_254\n        /* \"#utility.yul\":6997:7003   */\n      dup4\n        /* \"#utility.yul\":6934:7004   */\n      tag_140\n      jump\t// in\n    tag_254:\n        /* \"#utility.yul\":6924:7004   */\n      swap3\n      pop\n        /* \"#utility.yul\":7033:7037   */\n      0x20\n        /* \"#utility.yul\":7028:7031   */\n      dup11\n        /* \"#utility.yul\":7024:7038   */\n      add\n        /* \"#utility.yul\":7017:7038   */\n      swap10\n      pop\n        /* \"#utility.yul\":6712:7048   */\n      pop\n        /* \"#utility.yul\":6699:6700   */\n      0x01\n        /* \"#utility.yul\":6696:6697   */\n      dup2\n        /* \"#utility.yul\":6692:6701   */\n      add\n        /* \"#utility.yul\":6687:6701   */\n      swap1\n      pop\n        /* \"#utility.yul\":6652:7048   */\n      jump(tag_250)\n    tag_252:\n        /* \"#utility.yul\":6656:6670   */\n      pop\n        /* \"#utility.yul\":7064:7068   */\n      dup3\n        /* \"#utility.yul\":7057:7068   */\n      swap8\n      pop\n        /* \"#utility.yul\":7084:7087   */\n      dup8\n        /* \"#utility.yul\":7077:7087   */\n      swap6\n      pop\n        /* \"#utility.yul\":6246:7093   */\n      pop\n      pop\n      pop\n      pop\n      pop\n        /* \"#utility.yul\":6102:7093   */\n      swap3\n      swap2\n      pop\n      pop\n      jump\t// out\n        /* \"#utility.yul\":7099:7512   */\n    tag_25:\n        /* \"#utility.yul\":7262:7266   */\n      0x00\n        /* \"#utility.yul\":7300:7302   */\n      0x20\n        /* \"#utility.yul\":7289:7298   */\n      dup3\n        /* \"#utility.yul\":7285:7303   */\n      add\n        /* \"#utility.yul\":7277:7303   */\n      swap1\n      pop\n        /* \"#utility.yul\":7349:7358   */\n      dup2\n        /* \"#utility.yul\":7343:7347   */\n      dup2\n        /* \"#utility.yul\":7339:7359   */\n      sub\n        /* \"#utility.yul\":7335:7336   */\n      0x00\n        /* \"#utility.yul\":7324:7333   */\n      dup4\n        /* \"#utility.yul\":7320:7337   */\n      add\n        /* \"#utility.yul\":7313:7360   */\n      mstore\n        /* \"#utility.yul\":7377:7505   */\n      tag_256\n        /* \"#utility.yul\":7500:7504   */\n      dup2\n        /* \"#utility.yul\":7491:7497   */\n      dup5\n        /* \"#utility.yul\":7377:7505   */\n      tag_141\n      jump\t// in\n    tag_256:\n        /* \"#utility.yul\":7369:7505   */\n      swap1\n      pop\n        /* \"#utility.yul\":7099:7512   */\n      swap3\n      swap2\n      pop\n      pop\n      jump\t// out\n        /* \"#utility.yul\":7518:7640   */\n    tag_142:\n        /* \"#utility.yul\":7591:7615   */\n      tag_258\n        /* \"#utility.yul\":7609:7614   */\n      dup2\n        /* \"#utility.yul\":7591:7615   */\n      tag_132\n      jump\t// in\n    tag_258:\n        /* \"#utility.yul\":7584:7589   */\n      dup2\n        /* \"#utility.yul\":7581:7616   */\n      eq\n        /* \"#utility.yul\":7571:7634   */\n      tag_259\n      jumpi\n        /* \"#utility.yul\":7630:7631   */\n      0x00\n        /* \"#utility.yul\":7627:7628   */\n      dup1\n        /* \"#utility.yul\":7620:7632   */\n      revert\n        /* \"#utility.yul\":7571:7634   */\n    tag_259:\n        /* \"#utility.yul\":7518:7640   */\n      pop\n      jump\t// out\n        /* \"#utility.yul\":7646:7785   */\n    tag_143:\n        /* \"#utility.yul\":7692:7697   */\n      0x00\n        /* \"#utility.yul\":7730:7736   */\n      dup2\n        /* \"#utility.yul\":7717:7737   */\n      calldataload\n        /* \"#utility.yul\":7708:7737   */\n      swap1\n      pop\n        /* \"#utility.yul\":7746:7779   */\n      tag_261\n        /* \"#utility.yul\":7773:7778   */\n      dup2\n        /* \"#utility.yul\":7746:7779   */\n      tag_142\n      jump\t// in\n    tag_261:\n        /* \"#utility.yul\":7646:7785   */\n      swap3\n      swap2\n      pop\n      pop\n      jump\t// out\n        /* \"#utility.yul\":7791:8770   */\n    tag_31:\n        /* \"#utility.yul\":7888:7894   */\n      0x00\n        /* \"#utility.yul\":7896:7902   */\n      dup1\n        /* \"#utility.yul\":7904:7910   */\n      0x00\n        /* \"#utility.yul\":7953:7955   */\n      0x60\n        /* \"#utility.yul\":7941:7950   */\n      dup5\n        /* \"#utility.yul\":7932:7939   */\n      dup7\n        /* \"#utility.yul\":7928:7951   */\n      sub\n        /* \"#utility.yul\":7924:7956   */\n      slt\n        /* \"#utility.yul\":7921:8040   */\n      iszero\n      tag_263\n      jumpi\n        /* \"#utility.yul\":7959:8038   */\n      tag_264\n      tag_121\n      jump\t// in\n    tag_264:\n        /* \"#utility.yul\":7921:8040   */\n    tag_263:\n        /* \"#utility.yul\":8107:8108   */\n      0x00\n        /* \"#utility.yul\":8096:8105   */\n      dup5\n        /* \"#utility.yul\":8092:8109   */\n      add\n        /* \"#utility.yul\":8079:8110   */\n      calldataload\n        /* \"#utility.yul\":8137:8155   */\n      0xffffffffffffffff\n        /* \"#utility.yul\":8129:8135   */\n      dup2\n        /* \"#utility.yul\":8126:8156   */\n      gt\n        /* \"#utility.yul\":8123:8240   */\n      iszero\n      tag_265\n      jumpi\n        /* \"#utility.yul\":8159:8238   */\n      tag_266\n      tag_122\n      jump\t// in\n    tag_266:\n        /* \"#utility.yul\":8123:8240   */\n    tag_265:\n        /* \"#utility.yul\":8264:8327   */\n      tag_267\n        /* \"#utility.yul\":8319:8326   */\n      dup7\n        /* \"#utility.yul\":8310:8316   */\n      dup3\n        /* \"#utility.yul\":8299:8308   */\n      dup8\n        /* \"#utility.yul\":8295:8317   */\n      add\n        /* \"#utility.yul\":8264:8327   */\n      tag_131\n      jump\t// in\n    tag_267:\n        /* \"#utility.yul\":8254:8327   */\n      swap4\n      pop\n        /* \"#utility.yul\":8050:8337   */\n      pop\n        /* \"#utility.yul\":8376:8378   */\n      0x20\n        /* \"#utility.yul\":8402:8455   */\n      tag_268\n        /* \"#utility.yul\":8447:8454   */\n      dup7\n        /* \"#utility.yul\":8438:8444   */\n      dup3\n        /* \"#utility.yul\":8427:8436   */\n      dup8\n        /* \"#utility.yul\":8423:8445   */\n      add\n        /* \"#utility.yul\":8402:8455   */\n      tag_143\n      jump\t// in\n    tag_268:\n        /* \"#utility.yul\":8392:8455   */\n      swap3\n      pop\n        /* \"#utility.yul\":8347:8465   */\n      pop\n        /* \"#utility.yul\":8532:8534   */\n      0x40\n        /* \"#utility.yul\":8521:8530   */\n      dup5\n        /* \"#utility.yul\":8517:8535   */\n      add\n        /* \"#utility.yul\":8504:8536   */\n      calldataload\n        /* \"#utility.yul\":8563:8581   */\n      0xffffffffffffffff\n        /* \"#utility.yul\":8555:8561   */\n      dup2\n        /* \"#utility.yul\":8552:8582   */\n      gt\n        /* \"#utility.yul\":8549:8666   */\n      iszero\n      tag_269\n      jumpi\n        /* \"#utility.yul\":8585:8664   */\n      tag_270\n      tag_122\n      jump\t// in\n    tag_270:\n        /* \"#utility.yul\":8549:8666   */\n    tag_269:\n        /* \"#utility.yul\":8690:8753   */\n      tag_271\n        /* \"#utility.yul\":8745:8752   */\n      dup7\n        /* \"#utility.yul\":8736:8742   */\n      dup3\n        /* \"#utility.yul\":8725:8734   */\n      dup8\n        /* \"#utility.yul\":8721:8743   */\n      add\n        /* \"#utility.yul\":8690:8753   */\n      tag_131\n      jump\t// in\n    tag_271:\n        /* \"#utility.yul\":8680:8753   */\n      swap2\n      pop\n        /* \"#utility.yul\":8475:8763   */\n      pop\n        /* \"#utility.yul\":7791:8770   */\n      swap3\n      pop\n      swap3\n      pop\n      swap3\n      jump\t// out\n        /* \"#utility.yul\":8776:8956   */\n    tag_36:\n        /* \"#utility.yul\":8824:8901   */\n      0x4e487b7100000000000000000000000000000000000000000000000000000000\n        /* \"#utility.yul\":8821:8822   */\n      0x00\n        /* \"#utility.yul\":8814:8902   */\n      mstore\n        /* \"#utility.yul\":8921:8925   */\n      0x32\n        /* \"#utility.yul\":8918:8919   */\n      0x04\n        /* \"#utility.yul\":8911:8926   */\n      mstore\n        /* \"#utility.yul\":8945:8949   */\n      0x24\n        /* \"#utility.yul\":8942:8943   */\n      0x00\n        /* \"#utility.yul\":8935:8950   */\n      revert\n        /* \"#utility.yul\":8962:9142   */\n    tag_144:\n        /* \"#utility.yul\":9010:9087   */\n      0x4e487b7100000000000000000000000000000000000000000000000000000000\n        /* \"#utility.yul\":9007:9008   */\n      0x00\n        /* \"#utility.yul\":9000:9088   */\n      mstore\n        /* \"#utility.yul\":9107:9111   */\n      0x22\n        /* \"#utility.yul\":9104:9105   */\n      0x04\n        /* \"#utility.yul\":9097:9112   */\n      mstore\n        /* \"#utility.yul\":9131:9135   */\n      0x24\n        /* \"#utility.yul\":9128:9129   */\n      0x00\n        /* \"#utility.yul\":9121:9136   */\n      revert\n        /* \"#utility.yul\":9148:9468   */\n    tag_39:\n        /* \"#utility.yul\":9192:9198   */\n      0x00\n        /* \"#utility.yul\":9229:9230   */\n      0x02\n        /* \"#utility.yul\":9223:9227   */\n      dup3\n        /* \"#utility.yul\":9219:9231   */\n      div\n        /* \"#utility.yul\":9209:9231   */\n      swap1\n      pop\n        /* \"#utility.yul\":9276:9277   */\n      0x01\n        /* \"#utility.yul\":9270:9274   */\n      dup3\n        /* \"#utility.yul\":9266:9278   */\n      and\n        /* \"#utility.yul\":9297:9315   */\n      dup1\n        /* \"#utility.yul\":9287:9368   */\n      tag_275\n      jumpi\n        /* \"#utility.yul\":9353:9357   */\n      0x7f\n        /* \"#utility.yul\":9345:9351   */\n      dup3\n        /* \"#utility.yul\":9341:9358   */\n      and\n        /* \"#utility.yul\":9331:9358   */\n      swap2\n      pop\n        /* \"#utility.yul\":9287:9368   */\n    tag_275:\n        /* \"#utility.yul\":9415:9417   */\n      0x20\n        /* \"#utility.yul\":9407:9413   */\n      dup3\n        /* \"#utility.yul\":9404:9418   */\n      lt\n        /* \"#utility.yul\":9384:9402   */\n      dup2\n        /* \"#utility.yul\":9381:9419   */\n      sub\n        /* \"#utility.yul\":9378:9462   */\n      tag_276\n      jumpi\n        /* \"#utility.yul\":9434:9452   */\n      tag_277\n      tag_144\n      jump\t// in\n    tag_277:\n        /* \"#utility.yul\":9378:9462   */\n    tag_276:\n        /* \"#utility.yul\":9199:9468   */\n      pop\n        /* \"#utility.yul\":9148:9468   */\n      swap2\n      swap1\n      pop\n      jump\t// out\n        /* \"#utility.yul\":9474:9622   */\n    tag_145:\n        /* \"#utility.yul\":9576:9587   */\n      0x00\n        /* \"#utility.yul\":9613:9616   */\n      dup2\n        /* \"#utility.yul\":9598:9616   */\n      swap1\n      pop\n        /* \"#utility.yul\":9474:9622   */\n      swap3\n      swap2\n      pop\n      pop\n      jump\t// out\n        /* \"#utility.yul\":9628:9769   */\n    tag_146:\n        /* \"#utility.yul\":9677:9681   */\n      0x00\n        /* \"#utility.yul\":9700:9703   */\n      dup2\n        /* \"#utility.yul\":9692:9703   */\n      swap1\n      pop\n        /* \"#utility.yul\":9723:9726   */\n      dup2\n        /* \"#utility.yul\":9720:9721   */\n      0x00\n        /* \"#utility.yul\":9713:9727   */\n      mstore\n        /* \"#utility.yul\":9757:9761   */\n      0x20\n        /* \"#utility.yul\":9754:9755   */\n      0x00\n        /* \"#utility.yul\":9744:9762   */\n      keccak256\n        /* \"#utility.yul\":9736:9762   */\n      swap1\n      pop\n        /* \"#utility.yul\":9628:9769   */\n      swap2\n      swap1\n      pop\n      jump\t// out\n        /* \"#utility.yul\":9799:10673   */\n    tag_147:\n        /* \"#utility.yul\":9902:9905   */\n      0x00\n        /* \"#utility.yul\":9939:9944   */\n      dup2\n        /* \"#utility.yul\":9933:9945   */\n      sload\n        /* \"#utility.yul\":9968:10004   */\n      tag_281\n        /* \"#utility.yul\":9994:10003   */\n      dup2\n        /* \"#utility.yul\":9968:10004   */\n      tag_39\n      jump\t// in\n    tag_281:\n        /* \"#utility.yul\":10020:10109   */\n      tag_282\n        /* \"#utility.yul\":10102:10108   */\n      dup2\n        /* \"#utility.yul\":10097:10100   */\n      dup7\n        /* \"#utility.yul\":10020:10109   */\n      tag_145\n      jump\t// in\n    tag_282:\n        /* \"#utility.yul\":10013:10109   */\n      swap5\n      pop\n        /* \"#utility.yul\":10140:10141   */\n      0x01\n        /* \"#utility.yul\":10129:10138   */\n      dup3\n        /* \"#utility.yul\":10125:10142   */\n      and\n        /* \"#utility.yul\":10156:10157   */\n      0x00\n        /* \"#utility.yul\":10151:10317   */\n      dup2\n      eq\n      tag_284\n      jumpi\n        /* \"#utility.yul\":10331:10332   */\n      0x01\n        /* \"#utility.yul\":10326:10667   */\n      dup2\n      eq\n      tag_285\n      jumpi\n        /* \"#utility.yul\":10118:10667   */\n      jump(tag_283)\n        /* \"#utility.yul\":10151:10317   */\n    tag_284:\n        /* \"#utility.yul\":10235:10239   */\n      0xff\n        /* \"#utility.yul\":10231:10240   */\n      not\n        /* \"#utility.yul\":10220:10229   */\n      dup4\n        /* \"#utility.yul\":10216:10241   */\n      and\n        /* \"#utility.yul\":10211:10214   */\n      dup7\n        /* \"#utility.yul\":10204:10242   */\n      mstore\n        /* \"#utility.yul\":10297:10303   */\n      dup2\n        /* \"#utility.yul\":10290:10304   */\n      iszero\n        /* \"#utility.yul\":10283:10305   */\n      iszero\n        /* \"#utility.yul\":10275:10281   */\n      dup3\n        /* \"#utility.yul\":10271:10306   */\n      mul\n        /* \"#utility.yul\":10266:10269   */\n      dup7\n        /* \"#utility.yul\":10262:10307   */\n      add\n        /* \"#utility.yul\":10255:10307   */\n      swap4\n      pop\n        /* \"#utility.yul\":10151:10317   */\n      jump(tag_283)\n        /* \"#utility.yul\":10326:10667   */\n    tag_285:\n        /* \"#utility.yul\":10393:10431   */\n      tag_286\n        /* \"#utility.yul\":10425:10430   */\n      dup6\n        /* \"#utility.yul\":10393:10431   */\n      tag_146\n      jump\t// in\n    tag_286:\n        /* \"#utility.yul\":10453:10454   */\n      0x00\n        /* \"#utility.yul\":10467:10621   */\n    tag_287:\n        /* \"#utility.yul\":10481:10487   */\n      dup4\n        /* \"#utility.yul\":10478:10479   */\n      dup2\n        /* \"#utility.yul\":10475:10488   */\n      lt\n        /* \"#utility.yul\":10467:10621   */\n      iszero\n      tag_289\n      jumpi\n        /* \"#utility.yul\":10555:10562   */\n      dup2\n        /* \"#utility.yul\":10549:10563   */\n      sload\n        /* \"#utility.yul\":10545:10546   */\n      dup2\n        /* \"#utility.yul\":10540:10543   */\n      dup10\n        /* \"#utility.yul\":10536:10547   */\n      add\n        /* \"#utility.yul\":10529:10564   */\n      mstore\n        /* \"#utility.yul\":10605:10606   */\n      0x01\n        /* \"#utility.yul\":10596:10603   */\n      dup3\n        /* \"#utility.yul\":10592:10607   */\n      add\n        /* \"#utility.yul\":10581:10607   */\n      swap2\n      pop\n        /* \"#utility.yul\":10503:10507   */\n      0x20\n        /* \"#utility.yul\":10500:10501   */\n      dup2\n        /* \"#utility.yul\":10496:10508   */\n      add\n        /* \"#utility.yul\":10491:10508   */\n      swap1\n      pop\n        /* \"#utility.yul\":10467:10621   */\n      jump(tag_287)\n    tag_289:\n        /* \"#utility.yul\":10650:10656   */\n      dup4\n        /* \"#utility.yul\":10645:10648   */\n      dup9\n        /* \"#utility.yul\":10641:10657   */\n      add\n        /* \"#utility.yul\":10634:10657   */\n      swap6\n      pop\n        /* \"#utility.yul\":10333:10667   */\n      pop\n      pop\n        /* \"#utility.yul\":10118:10667   */\n    tag_283:\n      pop\n        /* \"#utility.yul\":9906:10673   */\n      pop\n      pop\n        /* \"#utility.yul\":9799:10673   */\n      swap3\n      swap2\n      pop\n      pop\n      jump\t// out\n        /* \"#utility.yul\":10679:10948   */\n    tag_51:\n        /* \"#utility.yul\":10808:10811   */\n      0x00\n        /* \"#utility.yul\":10830:10922   */\n      tag_291\n        /* \"#utility.yul\":10918:10921   */\n      dup3\n        /* \"#utility.yul\":10909:10915   */\n      dup5\n        /* \"#utility.yul\":10830:10922   */\n      tag_147\n      jump\t// in\n    tag_291:\n        /* \"#utility.yul\":10823:10922   */\n      swap2\n      pop\n        /* \"#utility.yul\":10939:10942   */\n      dup2\n        /* \"#utility.yul\":10932:10942   */\n      swap1\n      pop\n        /* \"#utility.yul\":10679:10948   */\n      swap3\n      swap2\n      pop\n      pop\n      jump\t// out\n        /* \"#utility.yul\":10954:11344   */\n    tag_148:\n        /* \"#utility.yul\":11060:11063   */\n      0x00\n        /* \"#utility.yul\":11088:11127   */\n      tag_293\n        /* \"#utility.yul\":11121:11126   */\n      dup3\n        /* \"#utility.yul\":11088:11127   */\n      tag_115\n      jump\t// in\n    tag_293:\n        /* \"#utility.yul\":11143:11232   */\n      tag_294\n        /* \"#utility.yul\":11225:11231   */\n      dup2\n        /* \"#utility.yul\":11220:11223   */\n      dup6\n        /* \"#utility.yul\":11143:11232   */\n      tag_145\n      jump\t// in\n    tag_294:\n        /* \"#utility.yul\":11136:11232   */\n      swap4\n      pop\n        /* \"#utility.yul\":11241:11306   */\n      tag_295\n        /* \"#utility.yul\":11299:11305   */\n      dup2\n        /* \"#utility.yul\":11294:11297   */\n      dup6\n        /* \"#utility.yul\":11287:11291   */\n      0x20\n        /* \"#utility.yul\":11280:11285   */\n      dup7\n        /* \"#utility.yul\":11276:11292   */\n      add\n        /* \"#utility.yul\":11241:11306   */\n      tag_117\n      jump\t// in\n    tag_295:\n        /* \"#utility.yul\":11331:11337   */\n      dup1\n        /* \"#utility.yul\":11326:11329   */\n      dup5\n        /* \"#utility.yul\":11322:11338   */\n      add\n        /* \"#utility.yul\":11315:11338   */\n      swap2\n      pop\n        /* \"#utility.yul\":11064:11344   */\n      pop\n        /* \"#utility.yul\":10954:11344   */\n      swap3\n      swap2\n      pop\n      pop\n      jump\t// out\n        /* \"#utility.yul\":11350:11625   */\n    tag_53:\n        /* \"#utility.yul\":11482:11485   */\n      0x00\n        /* \"#utility.yul\":11504:11599   */\n      tag_297\n        /* \"#utility.yul\":11595:11598   */\n      dup3\n        /* \"#utility.yul\":11586:11592   */\n      dup5\n        /* \"#utility.yul\":11504:11599   */\n      tag_148\n      jump\t// in\n    tag_297:\n        /* \"#utility.yul\":11497:11599   */\n      swap2\n      pop\n        /* \"#utility.yul\":11616:11619   */\n      dup2\n        /* \"#utility.yul\":11609:11619   */\n      swap1\n      pop\n        /* \"#utility.yul\":11350:11625   */\n      swap3\n      swap2\n      pop\n      pop\n      jump\t// out\n        /* \"#utility.yul\":11631:11787   */\n    tag_149:\n        /* \"#utility.yul\":11771:11775   */\n      0x2820000000000000000000000000000000000000000000000000000000000000\n        /* \"#utility.yul\":11767:11768   */\n      0x00\n        /* \"#utility.yul\":11759:11765   */\n      dup3\n        /* \"#utility.yul\":11755:11769   */\n      add\n        /* \"#utility.yul\":11748:11776   */\n      mstore\n        /* \"#utility.yul\":11631:11787   */\n      pop\n      jump\t// out\n        /* \"#utility.yul\":11797:12213   */\n    tag_150:\n        /* \"#utility.yul\":11957:11960   */\n      0x00\n        /* \"#utility.yul\":11982:12066   */\n      tag_300\n        /* \"#utility.yul\":12064:12065   */\n      0x02\n        /* \"#utility.yul\":12059:12062   */\n      dup4\n        /* \"#utility.yul\":11982:12066   */\n      tag_145\n      jump\t// in\n    tag_300:\n        /* \"#utility.yul\":11975:12066   */\n      swap2\n      pop\n        /* \"#utility.yul\":12079:12172   */\n      tag_301\n        /* \"#utility.yul\":12168:12171   */\n      dup3\n        /* \"#utility.yul\":12079:12172   */\n      tag_149\n      jump\t// in\n    tag_301:\n        /* \"#utility.yul\":12201:12202   */\n      0x02\n        /* \"#utility.yul\":12196:12199   */\n      dup3\n        /* \"#utility.yul\":12192:12203   */\n      add\n        /* \"#utility.yul\":12185:12203   */\n      swap1\n      pop\n        /* \"#utility.yul\":11797:12213   */\n      swap2\n      swap1\n      pop\n      jump\t// out\n        /* \"#utility.yul\":12223:12383   */\n    tag_151:\n        /* \"#utility.yul\":12367:12371   */\n      0x2c20000000000000000000000000000000000000000000000000000000000000\n        /* \"#utility.yul\":12363:12364   */\n      0x00\n        /* \"#utility.yul\":12355:12361   */\n      dup3\n        /* \"#utility.yul\":12351:12365   */\n      add\n        /* \"#utility.yul\":12344:12372   */\n      mstore\n        /* \"#utility.yul\":12223:12383   */\n      pop\n      jump\t// out\n        /* \"#utility.yul\":12393:12809   */\n    tag_152:\n        /* \"#utility.yul\":12553:12556   */\n      0x00\n        /* \"#utility.yul\":12578:12662   */\n      tag_304\n        /* \"#utility.yul\":12660:12661   */\n      0x02\n        /* \"#utility.yul\":12655:12658   */\n      dup4\n        /* \"#utility.yul\":12578:12662   */\n      tag_145\n      jump\t// in\n    tag_304:\n        /* \"#utility.yul\":12571:12662   */\n      swap2\n      pop\n        /* \"#utility.yul\":12675:12768   */\n      tag_305\n        /* \"#utility.yul\":12764:12767   */\n      dup3\n        /* \"#utility.yul\":12675:12768   */\n      tag_151\n      jump\t// in\n    tag_305:\n        /* \"#utility.yul\":12797:12798   */\n      0x02\n        /* \"#utility.yul\":12792:12795   */\n      dup3\n        /* \"#utility.yul\":12788:12799   */\n      add\n        /* \"#utility.yul\":12781:12799   */\n      swap1\n      pop\n        /* \"#utility.yul\":12393:12809   */\n      swap2\n      swap1\n      pop\n      jump\t// out\n        /* \"#utility.yul\":12819:12906   */\n    tag_153:\n        /* \"#utility.yul\":12858:12865   */\n      0x00\n        /* \"#utility.yul\":12891:12896   */\n      dup2\n        /* \"#utility.yul\":12880:12896   */\n      swap1\n      pop\n        /* \"#utility.yul\":12819:12906   */\n      swap2\n      swap1\n      pop\n      jump\t// out\n        /* \"#utility.yul\":12916:13081   */\n    tag_154:\n        /* \"#utility.yul\":13025:13070   */\n      tag_308\n        /* \"#utility.yul\":13045:13069   */\n      tag_309\n        /* \"#utility.yul\":13063:13068   */\n      dup3\n        /* \"#utility.yul\":13045:13069   */\n      tag_132\n      jump\t// in\n    tag_309:\n        /* \"#utility.yul\":13025:13070   */\n      tag_153\n      jump\t// in\n    tag_308:\n        /* \"#utility.yul\":13020:13023   */\n      dup3\n        /* \"#utility.yul\":13013:13071   */\n      mstore\n        /* \"#utility.yul\":12916:13081   */\n      pop\n      pop\n      jump\t// out\n        /* \"#utility.yul\":13091:13244   */\n    tag_155:\n        /* \"#utility.yul\":13231:13236   */\n      0x2029200000000000000000000000000000000000000000000000000000000000\n        /* \"#utility.yul\":13227:13228   */\n      0x00\n        /* \"#utility.yul\":13219:13225   */\n      dup3\n        /* \"#utility.yul\":13215:13229   */\n      add\n        /* \"#utility.yul\":13208:13237   */\n      mstore\n        /* \"#utility.yul\":13091:13244   */\n      pop\n      jump\t// out\n        /* \"#utility.yul\":13250:13650   */\n    tag_156:\n        /* \"#utility.yul\":13410:13413   */\n      0x00\n        /* \"#utility.yul\":13431:13515   */\n      tag_312\n        /* \"#utility.yul\":13513:13514   */\n      0x03\n        /* \"#utility.yul\":13508:13511   */\n      dup4\n        /* \"#utility.yul\":13431:13515   */\n      tag_145\n      jump\t// in\n    tag_312:\n        /* \"#utility.yul\":13424:13515   */\n      swap2\n      pop\n        /* \"#utility.yul\":13524:13617   */\n      tag_313\n        /* \"#utility.yul\":13613:13616   */\n      dup3\n        /* \"#utility.yul\":13524:13617   */\n      tag_155\n      jump\t// in\n    tag_313:\n        /* \"#utility.yul\":13642:13643   */\n      0x03\n        /* \"#utility.yul\":13637:13640   */\n      dup3\n        /* \"#utility.yul\":13633:13644   */\n      add\n        /* \"#utility.yul\":13626:13644   */\n      swap1\n      pop\n        /* \"#utility.yul\":13250:13650   */\n      swap2\n      swap1\n      pop\n      jump\t// out\n        /* \"#utility.yul\":13656:15024   */\n    tag_80:\n        /* \"#utility.yul\":14164:14167   */\n      0x00\n        /* \"#utility.yul\":14186:14281   */\n      tag_315\n        /* \"#utility.yul\":14277:14280   */\n      dup3\n        /* \"#utility.yul\":14268:14274   */\n      dup7\n        /* \"#utility.yul\":14186:14281   */\n      tag_148\n      jump\t// in\n    tag_315:\n        /* \"#utility.yul\":14179:14281   */\n      swap2\n      pop\n        /* \"#utility.yul\":14298:14446   */\n      tag_316\n        /* \"#utility.yul\":14442:14445   */\n      dup3\n        /* \"#utility.yul\":14298:14446   */\n      tag_150\n      jump\t// in\n    tag_316:\n        /* \"#utility.yul\":14291:14446   */\n      swap2\n      pop\n        /* \"#utility.yul\":14463:14555   */\n      tag_317\n        /* \"#utility.yul\":14551:14554   */\n      dup3\n        /* \"#utility.yul\":14542:14548   */\n      dup6\n        /* \"#utility.yul\":14463:14555   */\n      tag_147\n      jump\t// in\n    tag_317:\n        /* \"#utility.yul\":14456:14555   */\n      swap2\n      pop\n        /* \"#utility.yul\":14572:14720   */\n      tag_318\n        /* \"#utility.yul\":14716:14719   */\n      dup3\n        /* \"#utility.yul\":14572:14720   */\n      tag_152\n      jump\t// in\n    tag_318:\n        /* \"#utility.yul\":14565:14720   */\n      swap2\n      pop\n        /* \"#utility.yul\":14730:14805   */\n      tag_319\n        /* \"#utility.yul\":14801:14804   */\n      dup3\n        /* \"#utility.yul\":14792:14798   */\n      dup5\n        /* \"#utility.yul\":14730:14805   */\n      tag_154\n      jump\t// in\n    tag_319:\n        /* \"#utility.yul\":14830:14832   */\n      0x20\n        /* \"#utility.yul\":14825:14828   */\n      dup3\n        /* \"#utility.yul\":14821:14833   */\n      add\n        /* \"#utility.yul\":14814:14833   */\n      swap2\n      pop\n        /* \"#utility.yul\":14850:14998   */\n      tag_320\n        /* \"#utility.yul\":14994:14997   */\n      dup3\n        /* \"#utility.yul\":14850:14998   */\n      tag_156\n      jump\t// in\n    tag_320:\n        /* \"#utility.yul\":14843:14998   */\n      swap2\n      pop\n        /* \"#utility.yul\":15015:15018   */\n      dup2\n        /* \"#utility.yul\":15008:15018   */\n      swap1\n      pop\n        /* \"#utility.yul\":13656:15024   */\n      swap5\n      swap4\n      pop\n      pop\n      pop\n      pop\n      jump\t// out\n        /* \"#utility.yul\":15030:15156   */\n    tag_157:\n        /* \"#utility.yul\":15067:15074   */\n      0x00\n        /* \"#utility.yul\":15107:15149   */\n      0xffffffffffffffffffffffffffffffffffffffff\n        /* \"#utility.yul\":15100:15105   */\n      dup3\n        /* \"#utility.yul\":15096:15150   */\n      and\n        /* \"#utility.yul\":15085:15150   */\n      swap1\n      pop\n        /* \"#utility.yul\":15030:15156   */\n      swap2\n      swap1\n      pop\n      jump\t// out\n        /* \"#utility.yul\":15162:15258   */\n    tag_158:\n        /* \"#utility.yul\":15199:15206   */\n      0x00\n        /* \"#utility.yul\":15228:15252   */\n      tag_323\n        /* \"#utility.yul\":15246:15251   */\n      dup3\n        /* \"#utility.yul\":15228:15252   */\n      tag_157\n      jump\t// in\n    tag_323:\n        /* \"#utility.yul\":15217:15252   */\n      swap1\n      pop\n        /* \"#utility.yul\":15162:15258   */\n      swap2\n      swap1\n      pop\n      jump\t// out\n        /* \"#utility.yul\":15264:15358   */\n    tag_159:\n        /* \"#utility.yul\":15297:15305   */\n      0x00\n        /* \"#utility.yul\":15345:15350   */\n      dup2\n        /* \"#utility.yul\":15341:15343   */\n      0x60\n        /* \"#utility.yul\":15337:15351   */\n      shl\n        /* \"#utility.yul\":15316:15351   */\n      swap1\n      pop\n        /* \"#utility.yul\":15264:15358   */\n      swap2\n      swap1\n      pop\n      jump\t// out\n        /* \"#utility.yul\":15364:15458   */\n    tag_160:\n        /* \"#utility.yul\":15403:15410   */\n      0x00\n        /* \"#utility.yul\":15432:15452   */\n      tag_326\n        /* \"#utility.yul\":15446:15451   */\n      dup3\n        /* \"#utility.yul\":15432:15452   */\n      tag_159\n      jump\t// in\n    tag_326:\n        /* \"#utility.yul\":15421:15452   */\n      swap1\n      pop\n        /* \"#utility.yul\":15364:15458   */\n      swap2\n      swap1\n      pop\n      jump\t// out\n        /* \"#utility.yul\":15464:15564   */\n    tag_161:\n        /* \"#utility.yul\":15503:15510   */\n      0x00\n        /* \"#utility.yul\":15532:15558   */\n      tag_328\n        /* \"#utility.yul\":15552:15557   */\n      dup3\n        /* \"#utility.yul\":15532:15558   */\n      tag_160\n      jump\t// in\n    tag_328:\n        /* \"#utility.yul\":15521:15558   */\n      swap1\n      pop\n        /* \"#utility.yul\":15464:15564   */\n      swap2\n      swap1\n      pop\n      jump\t// out\n        /* \"#utility.yul\":15570:15727   */\n    tag_162:\n        /* \"#utility.yul\":15675:15720   */\n      tag_330\n        /* \"#utility.yul\":15695:15719   */\n      tag_331\n        /* \"#utility.yul\":15713:15718   */\n      dup3\n        /* \"#utility.yul\":15695:15719   */\n      tag_158\n      jump\t// in\n    tag_331:\n        /* \"#utility.yul\":15675:15720   */\n      tag_161\n      jump\t// in\n    tag_330:\n        /* \"#utility.yul\":15670:15673   */\n      dup3\n        /* \"#utility.yul\":15663:15721   */\n      mstore\n        /* \"#utility.yul\":15570:15727   */\n      pop\n      pop\n      jump\t// out\n        /* \"#utility.yul\":15733:15989   */\n    tag_94:\n        /* \"#utility.yul\":15845:15848   */\n      0x00\n        /* \"#utility.yul\":15860:15935   */\n      tag_333\n        /* \"#utility.yul\":15931:15934   */\n      dup3\n        /* \"#utility.yul\":15922:15928   */\n      dup5\n        /* \"#utility.yul\":15860:15935   */\n      tag_162\n      jump\t// in\n    tag_333:\n        /* \"#utility.yul\":15960:15962   */\n      0x14\n        /* \"#utility.yul\":15955:15958   */\n      dup3\n        /* \"#utility.yul\":15951:15963   */\n      add\n        /* \"#utility.yul\":15944:15963   */\n      swap2\n      pop\n        /* \"#utility.yul\":15980:15983   */\n      dup2\n        /* \"#utility.yul\":15973:15983   */\n      swap1\n      pop\n        /* \"#utility.yul\":15733:15989   */\n      swap3\n      swap2\n      pop\n      pop\n      jump\t// out\n        /* \"#utility.yul\":15995:16168   */\n    tag_163:\n        /* \"#utility.yul\":16135:16160   */\n      0x456c20766f74616e746520796120686120766f7461646f000000000000000000\n        /* \"#utility.yul\":16131:16132   */\n      0x00\n        /* \"#utility.yul\":16123:16129   */\n      dup3\n        /* \"#utility.yul\":16119:16133   */\n      add\n        /* \"#utility.yul\":16112:16161   */\n      mstore\n        /* \"#utility.yul\":15995:16168   */\n      pop\n      jump\t// out\n        /* \"#utility.yul\":16174:16540   */\n    tag_164:\n        /* \"#utility.yul\":16316:16319   */\n      0x00\n        /* \"#utility.yul\":16337:16404   */\n      tag_336\n        /* \"#utility.yul\":16401:16403   */\n      0x17\n        /* \"#utility.yul\":16396:16399   */\n      dup4\n        /* \"#utility.yul\":16337:16404   */\n      tag_116\n      jump\t// in\n    tag_336:\n        /* \"#utility.yul\":16330:16404   */\n      swap2\n      pop\n        /* \"#utility.yul\":16413:16506   */\n      tag_337\n        /* \"#utility.yul\":16502:16505   */\n      dup3\n        /* \"#utility.yul\":16413:16506   */\n      tag_163\n      jump\t// in\n    tag_337:\n        /* \"#utility.yul\":16531:16533   */\n      0x20\n        /* \"#utility.yul\":16526:16529   */\n      dup3\n        /* \"#utility.yul\":16522:16534   */\n      add\n        /* \"#utility.yul\":16515:16534   */\n      swap1\n      pop\n        /* \"#utility.yul\":16174:16540   */\n      swap2\n      swap1\n      pop\n      jump\t// out\n        /* \"#utility.yul\":16546:16965   */\n    tag_103:\n        /* \"#utility.yul\":16712:16716   */\n      0x00\n        /* \"#utility.yul\":16750:16752   */\n      0x20\n        /* \"#utility.yul\":16739:16748   */\n      dup3\n        /* \"#utility.yul\":16735:16753   */\n      add\n        /* \"#utility.yul\":16727:16753   */\n      swap1\n      pop\n        /* \"#utility.yul\":16799:16808   */\n      dup2\n        /* \"#utility.yul\":16793:16797   */\n      dup2\n        /* \"#utility.yul\":16789:16809   */\n      sub\n        /* \"#utility.yul\":16785:16786   */\n      0x00\n        /* \"#utility.yul\":16774:16783   */\n      dup4\n        /* \"#utility.yul\":16770:16787   */\n      add\n        /* \"#utility.yul\":16763:16810   */\n      mstore\n        /* \"#utility.yul\":16827:16958   */\n      tag_339\n        /* \"#utility.yul\":16953:16957   */\n      dup2\n        /* \"#utility.yul\":16827:16958   */\n      tag_164\n      jump\t// in\n    tag_339:\n        /* \"#utility.yul\":16819:16958   */\n      swap1\n      pop\n        /* \"#utility.yul\":16546:16965   */\n      swap2\n      swap1\n      pop\n      jump\t// out\n        /* \"#utility.yul\":16971:17151   */\n    tag_165:\n        /* \"#utility.yul\":17019:17096   */\n      0x4e487b7100000000000000000000000000000000000000000000000000000000\n        /* \"#utility.yul\":17016:17017   */\n      0x00\n        /* \"#utility.yul\":17009:17097   */\n      mstore\n        /* \"#utility.yul\":17116:17120   */\n      0x11\n        /* \"#utility.yul\":17113:17114   */\n      0x04\n        /* \"#utility.yul\":17106:17121   */\n      mstore\n        /* \"#utility.yul\":17140:17144   */\n      0x24\n        /* \"#utility.yul\":17137:17138   */\n      0x00\n        /* \"#utility.yul\":17130:17145   */\n      revert\n        /* \"#utility.yul\":17157:17390   */\n    tag_107:\n        /* \"#utility.yul\":17196:17199   */\n      0x00\n        /* \"#utility.yul\":17219:17243   */\n      tag_342\n        /* \"#utility.yul\":17237:17242   */\n      dup3\n        /* \"#utility.yul\":17219:17243   */\n      tag_132\n      jump\t// in\n    tag_342:\n        /* \"#utility.yul\":17210:17243   */\n      swap2\n      pop\n        /* \"#utility.yul\":17265:17331   */\n      0xffffffffffffffffffffffffffffffffffffffffffffffffffffffffffffffff\n        /* \"#utility.yul\":17258:17263   */\n      dup3\n        /* \"#utility.yul\":17255:17332   */\n      sub\n        /* \"#utility.yul\":17252:17355   */\n      tag_343\n      jumpi\n        /* \"#utility.yul\":17335:17353   */\n      tag_344\n      tag_165\n      jump\t// in\n    tag_344:\n        /* \"#utility.yul\":17252:17355   */\n    tag_343:\n        /* \"#utility.yul\":17382:17383   */\n      0x01\n        /* \"#utility.yul\":17375:17380   */\n      dup3\n        /* \"#utility.yul\":17371:17384   */\n      add\n        /* \"#utility.yul\":17364:17384   */\n      swap1\n      pop\n        /* \"#utility.yul\":17157:17390   */\n      swap2\n      swap1\n      pop\n      jump\t// out\n        /* \"#utility.yul\":17396:17972   */\n    tag_110:\n        /* \"#utility.yul\":17604:17607   */\n      0x00\n        /* \"#utility.yul\":17626:17721   */\n      tag_346\n        /* \"#utility.yul\":17717:17720   */\n      dup3\n        /* \"#utility.yul\":17708:17714   */\n      dup7\n        /* \"#utility.yul\":17626:17721   */\n      tag_148\n      jump\t// in\n    tag_346:\n        /* \"#utility.yul\":17619:17721   */\n      swap2\n      pop\n        /* \"#utility.yul\":17731:17806   */\n      tag_347\n        /* \"#utility.yul\":17802:17805   */\n      dup3\n        /* \"#utility.yul\":17793:17799   */\n      dup6\n        /* \"#utility.yul\":17731:17806   */\n      tag_154\n      jump\t// in\n    tag_347:\n        /* \"#utility.yul\":17831:17833   */\n      0x20\n        /* \"#utility.yul\":17826:17829   */\n      dup3\n        /* \"#utility.yul\":17822:17834   */\n      add\n        /* \"#utility.yul\":17815:17834   */\n      swap2\n      pop\n        /* \"#utility.yul\":17851:17946   */\n      tag_348\n        /* \"#utility.yul\":17942:17945   */\n      dup3\n        /* \"#utility.yul\":17933:17939   */\n      dup5\n        /* \"#utility.yul\":17851:17946   */\n      tag_148\n      jump\t// in\n    tag_348:\n        /* \"#utility.yul\":17844:17946   */\n      swap2\n      pop\n        /* \"#utility.yul\":17963:17966   */\n      dup2\n        /* \"#utility.yul\":17956:17966   */\n      swap1\n      pop\n        /* \"#utility.yul\":17396:17972   */\n      swap5\n      swap4\n      pop\n      pop\n      pop\n      pop\n      jump\t// out\n        /* \"#utility.yul\":17978:18071   */\n    tag_166:\n        /* \"#utility.yul\":18015:18021   */\n      0x00\n        /* \"#utility.yul\":18062:18064   */\n      0x20\n        /* \"#utility.yul\":18057:18059   */\n      0x1f\n        /* \"#utility.yul\":18050:18055   */\n      dup4\n        /* \"#utility.yul\":18046:18060   */\n      add\n        /* \"#utility.yul\":18042:18065   */\n      div\n        /* \"#utility.yul\":18032:18065   */\n      swap1\n      pop\n        /* \"#utility.yul\":17978:18071   */\n      swap2\n      swap1\n      pop\n      jump\t// out\n        /* \"#utility.yul\":18077:18184   */\n    tag_167:\n        /* \"#utility.yul\":18121:18129   */\n      0x00\n        /* \"#utility.yul\":18171:18176   */\n      dup3\n        /* \"#utility.yul\":18165:18169   */\n      dup3\n        /* \"#utility.yul\":18161:18177   */\n      shl\n        /* \"#utility.yul\":18140:18177   */\n      swap1\n      pop\n        /* \"#utility.yul\":18077:18184   */\n      swap3\n      swap2\n      pop\n      pop\n      jump\t// out\n        /* \"#utility.yul\":18190:18583   */\n    tag_168:\n        /* \"#utility.yul\":18259:18265   */\n      0x00\n        /* \"#utility.yul\":18309:18310   */\n      0x08\n        /* \"#utility.yul\":18297:18307   */\n      dup4\n        /* \"#utility.yul\":18293:18311   */\n      mul\n        /* \"#utility.yul\":18332:18429   */\n      tag_352\n        /* \"#utility.yul\":18362:18428   */\n      0xffffffffffffffffffffffffffffffffffffffffffffffffffffffffffffffff\n        /* \"#utility.yul\":18351:18360   */\n      dup3\n        /* \"#utility.yul\":18332:18429   */\n      tag_167\n      jump\t// in\n    tag_352:\n        /* \"#utility.yul\":18450:18489   */\n      tag_353\n        /* \"#utility.yul\":18480:18488   */\n      dup7\n        /* \"#utility.yul\":18469:18478   */\n      dup4\n        /* \"#utility.yul\":18450:18489   */\n      tag_167\n      jump\t// in\n    tag_353:\n        /* \"#utility.yul\":18438:18489   */\n      swap6\n      pop\n        /* \"#utility.yul\":18522:18526   */\n      dup1\n        /* \"#utility.yul\":18518:18527   */\n      not\n        /* \"#utility.yul\":18511:18516   */\n      dup5\n        /* \"#utility.yul\":18507:18528   */\n      and\n        /* \"#utility.yul\":18498:18528   */\n      swap4\n      pop\n        /* \"#utility.yul\":18571:18575   */\n      dup1\n        /* \"#utility.yul\":18561:18569   */\n      dup7\n        /* \"#utility.yul\":18557:18576   */\n      and\n        /* \"#utility.yul\":18550:18555   */\n      dup5\n        /* \"#utility.yul\":18547:18577   */\n      or\n        /* \"#utility.yul\":18537:18577   */\n      swap3\n      pop\n        /* \"#utility.yul\":18266:18583   */\n      pop\n      pop\n        /* \"#utility.yul\":18190:18583   */\n      swap4\n      swap3\n      pop\n      pop\n      pop\n      jump\t// out\n        /* \"#utility.yul\":18589:18649   */\n    tag_169:\n        /* \"#utility.yul\":18617:18620   */\n      0x00\n        /* \"#utility.yul\":18638:18643   */\n      dup2\n        /* \"#utility.yul\":18631:18643   */\n      swap1\n      pop\n        /* \"#utility.yul\":18589:18649   */\n      swap2\n      swap1\n      pop\n      jump\t// out\n        /* \"#utility.yul\":18655:18797   */\n    tag_170:\n        /* \"#utility.yul\":18705:18714   */\n      0x00\n        /* \"#utility.yul\":18738:18791   */\n      tag_356\n        /* \"#utility.yul\":18756:18790   */\n      tag_357\n        /* \"#utility.yul\":18765:18789   */\n      tag_358\n        /* \"#utility.yul\":18783:18788   */\n      dup5\n        /* \"#utility.yul\":18765:18789   */\n      tag_132\n      jump\t// in\n    tag_358:\n        /* \"#utility.yul\":18756:18790   */\n      tag_169\n      jump\t// in\n    tag_357:\n        /* \"#utility.yul\":18738:18791   */\n      tag_132\n      jump\t// in\n    tag_356:\n        /* \"#utility.yul\":18725:18791   */\n      swap1\n      pop\n        /* \"#utility.yul\":18655:18797   */\n      swap2\n      swap1\n      pop\n      jump\t// out\n        /* \"#utility.yul\":18803:18878   */\n    tag_171:\n        /* \"#utility.yul\":18846:18849   */\n      0x00\n        /* \"#utility.yul\":18867:18872   */\n      dup2\n        /* \"#utility.yul\":18860:18872   */\n      swap1\n      pop\n        /* \"#utility.yul\":18803:18878   */\n      swap2\n      swap1\n      pop\n      jump\t// out\n        /* \"#utility.yul\":18884:19153   */\n    tag_172:\n        /* \"#utility.yul\":18994:19033   */\n      tag_361\n        /* \"#utility.yul\":19025:19032   */\n      dup4\n        /* \"#utility.yul\":18994:19033   */\n      tag_170\n      jump\t// in\n    tag_361:\n        /* \"#utility.yul\":19055:19146   */\n      tag_362\n        /* \"#utility.yul\":19104:19145   */\n      tag_363\n        /* \"#utility.yul\":19128:19144   */\n      dup3\n        /* \"#utility.yul\":19104:19145   */\n      tag_171\n      jump\t// in\n    tag_363:\n        /* \"#utility.yul\":19096:19102   */\n      dup5\n        /* \"#utility.yul\":19089:19093   */\n      dup5\n        /* \"#utility.yul\":19083:19094   */\n      sload\n        /* \"#utility.yul\":19055:19146   */\n      tag_168\n      jump\t// in\n    tag_362:\n        /* \"#utility.yul\":19049:19053   */\n      dup3\n        /* \"#utility.yul\":19042:19147   */\n      sstore\n        /* \"#utility.yul\":18960:19153   */\n      pop\n        /* \"#utility.yul\":18884:19153   */\n      pop\n      pop\n      pop\n      jump\t// out\n        /* \"#utility.yul\":19159:19232   */\n    tag_173:\n        /* \"#utility.yul\":19204:19207   */\n      0x00\n        /* \"#utility.yul\":19159:19232   */\n      swap1\n      jump\t// out\n        /* \"#utility.yul\":19238:19427   */\n    tag_174:\n        /* \"#utility.yul\":19315:19347   */\n      tag_366\n      tag_173\n      jump\t// in\n    tag_366:\n        /* \"#utility.yul\":19356:19421   */\n      tag_367\n        /* \"#utility.yul\":19414:19420   */\n      dup2\n        /* \"#utility.yul\":19406:19412   */\n      dup5\n        /* \"#utility.yul\":19400:19404   */\n      dup5\n        /* \"#utility.yul\":19356:19421   */\n      tag_172\n      jump\t// in\n    tag_367:\n        /* \"#utility.yul\":19291:19427   */\n      pop\n        /* \"#utility.yul\":19238:19427   */\n      pop\n      pop\n      jump\t// out\n        /* \"#utility.yul\":19433:19619   */\n    tag_175:\n        /* \"#utility.yul\":19493:19613   */\n    tag_369:\n        /* \"#utility.yul\":19510:19513   */\n      dup2\n        /* \"#utility.yul\":19503:19508   */\n      dup2\n        /* \"#utility.yul\":19500:19514   */\n      lt\n        /* \"#utility.yul\":19493:19613   */\n      iszero\n      tag_371\n      jumpi\n        /* \"#utility.yul\":19564:19603   */\n      tag_372\n        /* \"#utility.yul\":19601:19602   */\n      0x00\n        /* \"#utility.yul\":19594:19599   */\n      dup3\n        /* \"#utility.yul\":19564:19603   */\n      tag_174\n      jump\t// in\n    tag_372:\n        /* \"#utility.yul\":19537:19538   */\n      0x01\n        /* \"#utility.yul\":19530:19535   */\n      dup2\n        /* \"#utility.yul\":19526:19539   */\n      add\n        /* \"#utility.yul\":19517:19539   */\n      swap1\n      pop\n        /* \"#utility.yul\":19493:19613   */\n      jump(tag_369)\n    tag_371:\n        /* \"#utility.yul\":19433:19619   */\n      pop\n      pop\n      jump\t// out\n        /* \"#utility.yul\":19625:20168   */\n    tag_176:\n        /* \"#utility.yul\":19726:19728   */\n      0x1f\n        /* \"#utility.yul\":19721:19724   */\n      dup3\n        /* \"#utility.yul\":19718:19729   */\n      gt\n        /* \"#utility.yul\":19715:20161   */\n      iszero\n      tag_374\n      jumpi\n        /* \"#utility.yul\":19760:19798   */\n      tag_375\n        /* \"#utility.yul\":19792:19797   */\n      dup2\n        /* \"#utility.yul\":19760:19798   */\n      tag_146\n      jump\t// in\n    tag_375:\n        /* \"#utility.yul\":19844:19873   */\n      tag_376\n        /* \"#utility.yul\":19862:19872   */\n      dup5\n        /* \"#utility.yul\":19844:19873   */\n      tag_166\n      jump\t// in\n    tag_376:\n        /* \"#utility.yul\":19834:19842   */\n      dup2\n        /* \"#utility.yul\":19830:19874   */\n      add\n        /* \"#utility.yul\":20027:20029   */\n      0x20\n        /* \"#utility.yul\":20015:20025   */\n      dup6\n        /* \"#utility.yul\":20012:20030   */\n      lt\n        /* \"#utility.yul\":20009:20058   */\n      iszero\n      tag_377\n      jumpi\n        /* \"#utility.yul\":20048:20056   */\n      dup2\n        /* \"#utility.yul\":20033:20056   */\n      swap1\n      pop\n        /* \"#utility.yul\":20009:20058   */\n    tag_377:\n        /* \"#utility.yul\":20071:20151   */\n      tag_378\n        /* \"#utility.yul\":20127:20149   */\n      tag_379\n        /* \"#utility.yul\":20145:20148   */\n      dup6\n        /* \"#utility.yul\":20127:20149   */\n      tag_166\n      jump\t// in\n    tag_379:\n        /* \"#utility.yul\":20117:20125   */\n      dup4\n        /* \"#utility.yul\":20113:20150   */\n      add\n        /* \"#utility.yul\":20100:20111   */\n      dup3\n        /* \"#utility.yul\":20071:20151   */\n      tag_175\n      jump\t// in\n    tag_378:\n        /* \"#utility.yul\":19730:20161   */\n      pop\n      pop\n        /* \"#utility.yul\":19715:20161   */\n    tag_374:\n        /* \"#utility.yul\":19625:20168   */\n      pop\n      pop\n      pop\n      jump\t// out\n        /* \"#utility.yul\":20174:20291   */\n    tag_177:\n        /* \"#utility.yul\":20228:20236   */\n      0x00\n        /* \"#utility.yul\":20278:20283   */\n      dup3\n        /* \"#utility.yul\":20272:20276   */\n      dup3\n        /* \"#utility.yul\":20268:20284   */\n      shr\n        /* \"#utility.yul\":20247:20284   */\n      swap1\n      pop\n        /* \"#utility.yul\":20174:20291   */\n      swap3\n      swap2\n      pop\n      pop\n      jump\t// out\n        /* \"#utility.yul\":20297:20466   */\n    tag_178:\n        /* \"#utility.yul\":20341:20347   */\n      0x00\n        /* \"#utility.yul\":20374:20425   */\n      tag_382\n        /* \"#utility.yul\":20422:20423   */\n      0x00\n        /* \"#utility.yul\":20418:20424   */\n      not\n        /* \"#utility.yul\":20410:20415   */\n      dup5\n        /* \"#utility.yul\":20407:20408   */\n      0x08\n        /* \"#utility.yul\":20403:20416   */\n      mul\n        /* \"#utility.yul\":20374:20425   */\n      tag_177\n      jump\t// in\n    tag_382:\n        /* \"#utility.yul\":20370:20426   */\n      not\n        /* \"#utility.yul\":20455:20459   */\n      dup1\n        /* \"#utility.yul\":20449:20453   */\n      dup4\n        /* \"#utility.yul\":20445:20460   */\n      and\n        /* \"#utility.yul\":20435:20460   */\n      swap2\n      pop\n        /* \"#utility.yul\":20348:20466   */\n      pop\n        /* \"#utility.yul\":20297:20466   */\n      swap3\n      swap2\n      pop\n      pop\n      jump\t// out\n        /* \"#utility.yul\":20471:20766   */\n    tag_179:\n        /* \"#utility.yul\":20547:20551   */\n      0x00\n        /* \"#utility.yul\":20693:20722   */\n      tag_384\n        /* \"#utility.yul\":20718:20721   */\n      dup4\n        /* \"#utility.yul\":20712:20716   */\n      dup4\n        /* \"#utility.yul\":20693:20722   */\n      tag_178\n      jump\t// in\n    tag_384:\n        /* \"#utility.yul\":20685:20722   */\n      swap2\n      pop\n        /* \"#utility.yul\":20755:20758   */\n      dup3\n        /* \"#utility.yul\":20752:20753   */\n      0x02\n        /* \"#utility.yul\":20748:20759   */\n      mul\n        /* \"#utility.yul\":20742:20746   */\n      dup3\n        /* \"#utility.yul\":20739:20760   */\n      or\n        /* \"#utility.yul\":20731:20760   */\n      swap1\n      pop\n        /* \"#utility.yul\":20471:20766   */\n      swap3\n      swap2\n      pop\n      pop\n      jump\t// out\n        /* \"#utility.yul\":20771:22166   */\n    tag_114:\n        /* \"#utility.yul\":20888:20925   */\n      tag_386\n        /* \"#utility.yul\":20921:20924   */\n      dup3\n        /* \"#utility.yul\":20888:20925   */\n      tag_115\n      jump\t// in\n    tag_386:\n        /* \"#utility.yul\":20990:21008   */\n      0xffffffffffffffff\n        /* \"#utility.yul\":20982:20988   */\n      dup2\n        /* \"#utility.yul\":20979:21009   */\n      gt\n        /* \"#utility.yul\":20976:21032   */\n      iszero\n      tag_387\n      jumpi\n        /* \"#utility.yul\":21012:21030   */\n      tag_388\n      tag_125\n      jump\t// in\n    tag_388:\n        /* \"#utility.yul\":20976:21032   */\n    tag_387:\n        /* \"#utility.yul\":21056:21094   */\n      tag_389\n        /* \"#utility.yul\":21088:21092   */\n      dup3\n        /* \"#utility.yul\":21082:21093   */\n      sload\n        /* \"#utility.yul\":21056:21094   */\n      tag_39\n      jump\t// in\n    tag_389:\n        /* \"#utility.yul\":21141:21208   */\n      tag_390\n        /* \"#utility.yul\":21201:21207   */\n      dup3\n        /* \"#utility.yul\":21193:21199   */\n      dup3\n        /* \"#utility.yul\":21187:21191   */\n      dup6\n        /* \"#utility.yul\":21141:21208   */\n      tag_176\n      jump\t// in\n    tag_390:\n        /* \"#utility.yul\":21235:21236   */\n      0x00\n        /* \"#utility.yul\":21259:21263   */\n      0x20\n        /* \"#utility.yul\":21246:21263   */\n      swap1\n      pop\n        /* \"#utility.yul\":21291:21293   */\n      0x1f\n        /* \"#utility.yul\":21283:21289   */\n      dup4\n        /* \"#utility.yul\":21280:21294   */\n      gt\n        /* \"#utility.yul\":21308:21309   */\n      0x01\n        /* \"#utility.yul\":21303:21921   */\n      dup2\n      eq\n      tag_392\n      jumpi\n        /* \"#utility.yul\":21965:21966   */\n      0x00\n        /* \"#utility.yul\":21982:21988   */\n      dup5\n        /* \"#utility.yul\":21979:22056   */\n      iszero\n      tag_393\n      jumpi\n        /* \"#utility.yul\":22031:22040   */\n      dup3\n        /* \"#utility.yul\":22026:22029   */\n      dup8\n        /* \"#utility.yul\":22022:22041   */\n      add\n        /* \"#utility.yul\":22016:22042   */\n      mload\n        /* \"#utility.yul\":22007:22042   */\n      swap1\n      pop\n        /* \"#utility.yul\":21979:22056   */\n    tag_393:\n        /* \"#utility.yul\":22082:22149   */\n      tag_394\n        /* \"#utility.yul\":22142:22148   */\n      dup6\n        /* \"#utility.yul\":22135:22140   */\n      dup3\n        /* \"#utility.yul\":22082:22149   */\n      tag_179\n      jump\t// in\n    tag_394:\n        /* \"#utility.yul\":22076:22080   */\n      dup7\n        /* \"#utility.yul\":22069:22150   */\n      sstore\n        /* \"#utility.yul\":21938:22160   */\n      pop\n        /* \"#utility.yul\":21273:22160   */\n      jump(tag_391)\n        /* \"#utility.yul\":21303:21921   */\n    tag_392:\n        /* \"#utility.yul\":21355:21359   */\n      0x1f\n        /* \"#utility.yul\":21351:21360   */\n      not\n        /* \"#utility.yul\":21343:21349   */\n      dup5\n        /* \"#utility.yul\":21339:21361   */\n      and\n        /* \"#utility.yul\":21389:21426   */\n      tag_395\n        /* \"#utility.yul\":21421:21425   */\n      dup7\n        /* \"#utility.yul\":21389:21426   */\n      tag_146\n      jump\t// in\n    tag_395:\n        /* \"#utility.yul\":21448:21449   */\n      0x00\n        /* \"#utility.yul\":21462:21670   */\n    tag_396:\n        /* \"#utility.yul\":21476:21483   */\n      dup3\n        /* \"#utility.yul\":21473:21474   */\n      dup2\n        /* \"#utility.yul\":21470:21484   */\n      lt\n        /* \"#utility.yul\":21462:21670   */\n      iszero\n      tag_398\n      jumpi\n        /* \"#utility.yul\":21555:21564   */\n      dup5\n        /* \"#utility.yul\":21550:21553   */\n      dup10\n        /* \"#utility.yul\":21546:21565   */\n      add\n        /* \"#utility.yul\":21540:21566   */\n      mload\n        /* \"#utility.yul\":21532:21538   */\n      dup3\n        /* \"#utility.yul\":21525:21567   */\n      sstore\n        /* \"#utility.yul\":21606:21607   */\n      0x01\n        /* \"#utility.yul\":21598:21604   */\n      dup3\n        /* \"#utility.yul\":21594:21608   */\n      add\n        /* \"#utility.yul\":21584:21608   */\n      swap2\n      pop\n        /* \"#utility.yul\":21653:21655   */\n      0x20\n        /* \"#utility.yul\":21642:21651   */\n      dup6\n        /* \"#utility.yul\":21638:21656   */\n      add\n        /* \"#utility.yul\":21625:21656   */\n      swap5\n      pop\n        /* \"#utility.yul\":21499:21503   */\n      0x20\n        /* \"#utility.yul\":21496:21497   */\n      dup2\n        /* \"#utility.yul\":21492:21504   */\n      add\n        /* \"#utility.yul\":21487:21504   */\n      swap1\n      pop\n        /* \"#utility.yul\":21462:21670   */\n      jump(tag_396)\n    tag_398:\n        /* \"#utility.yul\":21698:21704   */\n      dup7\n        /* \"#utility.yul\":21689:21696   */\n      dup4\n        /* \"#utility.yul\":21686:21705   */\n      lt\n        /* \"#utility.yul\":21683:21862   */\n      iszero\n      tag_399\n      jumpi\n        /* \"#utility.yul\":21756:21765   */\n      dup5\n        /* \"#utility.yul\":21751:21754   */\n      dup10\n        /* \"#utility.yul\":21747:21766   */\n      add\n        /* \"#utility.yul\":21741:21767   */\n      mload\n        /* \"#utility.yul\":21799:21847   */\n      tag_400\n        /* \"#utility.yul\":21841:21845   */\n      0x1f\n        /* \"#utility.yul\":21833:21839   */\n      dup10\n        /* \"#utility.yul\":21829:21846   */\n      and\n        /* \"#utility.yul\":21818:21827   */\n      dup3\n        /* \"#utility.yul\":21799:21847   */\n      tag_178\n      jump\t// in\n    tag_400:\n        /* \"#utility.yul\":21791:21797   */\n      dup4\n        /* \"#utility.yul\":21784:21848   */\n      sstore\n        /* \"#utility.yul\":21706:21862   */\n      pop\n        /* \"#utility.yul\":21683:21862   */\n    tag_399:\n        /* \"#utility.yul\":21908:21909   */\n      0x01\n        /* \"#utility.yul\":21904:21905   */\n      0x02\n        /* \"#utility.yul\":21896:21902   */\n      dup9\n        /* \"#utility.yul\":21892:21906   */\n      mul\n        /* \"#utility.yul\":21888:21910   */\n      add\n        /* \"#utility.yul\":21882:21886   */\n      dup9\n        /* \"#utility.yul\":21875:21911   */\n      sstore\n        /* \"#utility.yul\":21310:21921   */\n      pop\n      pop\n      pop\n        /* \"#utility.yul\":21273:22160   */\n    tag_391:\n      pop\n        /* \"#utility.yul\":20863:22166   */\n      pop\n      pop\n      pop\n        /* \"#utility.yul\":20771:22166   */\n      pop\n      pop\n      jump\t// out\n\n    auxdata: 0xa26469706673582212200af8d18153c288fbb8f2cf416fb1e1364ba742fba806219707f9272042d2944464736f6c63430008170033\n}\n",
				"bytecode": {
					"linkReferences": {},
					"object": "608060405234801561000f575f80fd5b50335f806101000a81548173ffffffffffffffffffffffffffffffffffffffff021916908373ffffffffffffffffffffffffffffffffffffffff1602179055506111dc8061005c5f395ff3fe608060405234801561000f575f80fd5b5060043610610060575f3560e01c806355911cc11461006457806358c6414f1461008257806360df75d4146100a0578063caaa49a6146100d0578063ce3fe641146100ee578063f01ca6b71461010a575b5f80fd5b61006c610126565b604051610079919061072e565b60405180910390f35b61008a6102fb565b604051610097919061072e565b60405180910390f35b6100ba60048036038101906100b5919061088b565b61041e565b6040516100c791906108ea565b60405180910390f35b6100d8610445565b6040516100e59190610a06565b60405180910390f35b6101086004803603810190610103919061088b565b610519565b005b610124600480360381019061011f9190610a50565b61061b565b005b60605f60035f8154811061013d5761013c610ad8565b5b905f5260205f2001805461015090610b32565b80601f016020809104026020016040519081016040528092919081815260200182805461017c90610b32565b80156101c75780601f1061019e576101008083540402835291602001916101c7565b820191905f5260205f20905b8154815290600101906020018083116101aa57829003601f168201915b505050505090505f600190505b6003805490508110156102f3576002600382815481106101f7576101f6610ad8565b5b905f5260205f200160405161020c9190610bfe565b90815260200160405180910390205460028360405161022b9190610c44565b90815260200160405180910390205410156102e6576003818154811061025457610253610ad8565b5b905f5260205f2001805461026790610b32565b80601f016020809104026020016040519081016040528092919081815260200182805461029390610b32565b80156102de5780601f106102b5576101008083540402835291602001916102de565b820191905f5260205f20905b8154815290600101906020018083116102c157829003601f168201915b505050505091505b80806001019150506101d4565b508091505090565b60605f60405180602001604052805f81525090505f5b60038054905081101561041657816003828154811061033357610332610ad8565b5b905f5260205f20016103e66003848154811061035257610351610ad8565b5b905f5260205f2001805461036590610b32565b80601f016020809104026020016040519081016040528092919081815260200182805461039190610b32565b80156103dc5780601f106103b3576101008083540402835291602001916103dc565b820191905f5260205f20905b8154815290600101906020018083116103bf57829003601f168201915b505050505061041e565b6040516020016103f893929190610d58565b60405160208183030381529060405291508080600101915050610311565b508091505090565b5f60028260405161042f9190610c44565b9081526020016040518091039020549050919050565b60606003805480602002602001604051908101604052809291908181526020015f905b82821015610510578382905f5260205f2001805461048590610b32565b80601f01602080910402602001604051908101604052809291908181526020018280546104b190610b32565b80156104fc5780601f106104d3576101008083540402835291602001916104fc565b820191905f5260205f20905b8154815290600101906020018083116104df57829003601f168201915b505050505081526020019060010190610468565b50505050905090565b5f3360405160200161052b9190610e22565b6040516020818303038152906040528051906020012090505f5b6004805490508110156105bd57816004828154811061056757610566610ad8565b5b905f5260205f200154036105b0576040517f08c379a00000000000000000000000000000000000000000000000000000000081526004016105a790610e86565b60405180910390fd5b8080600101915050610545565b50600481908060018154018082558091505060019003905f5260205f20015f90919091909150556002826040516105f49190610c44565b90815260200160405180910390205f81548092919061061290610ed1565b91905055505050565b5f83838360405160200161063193929190610f18565b6040516020818303038152906040528051906020012090508060018560405161065a9190610c44565b908152602001604051809103902081905550600384908060018154018082558091505060019003905f5260205f20015f90919091909150908161069d91906110d7565b5050505050565b5f81519050919050565b5f82825260208201905092915050565b5f5b838110156106db5780820151818401526020810190506106c0565b5f8484015250505050565b5f601f19601f8301169050919050565b5f610700826106a4565b61070a81856106ae565b935061071a8185602086016106be565b610723816106e6565b840191505092915050565b5f6020820190508181035f83015261074681846106f6565b905092915050565b5f604051905090565b5f80fd5b5f80fd5b5f80fd5b5f80fd5b7f4e487b71000000000000000000000000000000000000000000000000000000005f52604160045260245ffd5b61079d826106e6565b810181811067ffffffffffffffff821117156107bc576107bb610767565b5b80604052505050565b5f6107ce61074e565b90506107da8282610794565b919050565b5f67ffffffffffffffff8211156107f9576107f8610767565b5b610802826106e6565b9050602081019050919050565b828183375f83830152505050565b5f61082f61082a846107df565b6107c5565b90508281526020810184848401111561084b5761084a610763565b5b61085684828561080f565b509392505050565b5f82601f8301126108725761087161075f565b5b813561088284826020860161081d565b91505092915050565b5f602082840312156108a05761089f610757565b5b5f82013567ffffffffffffffff8111156108bd576108bc61075b565b5b6108c98482850161085e565b91505092915050565b5f819050919050565b6108e4816108d2565b82525050565b5f6020820190506108fd5f8301846108db565b92915050565b5f81519050919050565b5f82825260208201905092915050565b5f819050602082019050919050565b5f82825260208201905092915050565b5f610946826106a4565b610950818561092c565b93506109608185602086016106be565b610969816106e6565b840191505092915050565b5f61097f838361093c565b905092915050565b5f602082019050919050565b5f61099d82610903565b6109a7818561090d565b9350836020820285016109b98561091d565b805f5b858110156109f457848403895281516109d58582610974565b94506109e083610987565b925060208a019950506001810190506109bc565b50829750879550505050505092915050565b5f6020820190508181035f830152610a1e8184610993565b905092915050565b610a2f816108d2565b8114610a39575f80fd5b50565b5f81359050610a4a81610a26565b92915050565b5f805f60608486031215610a6757610a66610757565b5b5f84013567ffffffffffffffff811115610a8457610a8361075b565b5b610a908682870161085e565b9350506020610aa186828701610a3c565b925050604084013567ffffffffffffffff811115610ac257610ac161075b565b5b610ace8682870161085e565b9150509250925092565b7f4e487b71000000000000000000000000000000000000000000000000000000005f52603260045260245ffd5b7f4e487b71000000000000000000000000000000000000000000000000000000005f52602260045260245ffd5b5f6002820490506001821680610b4957607f821691505b602082108103610b5c57610b5b610b05565b5b50919050565b5f81905092915050565b5f819050815f5260205f209050919050565b5f8154610b8a81610b32565b610b948186610b62565b9450600182165f8114610bae5760018114610bc357610bf5565b60ff1983168652811515820286019350610bf5565b610bcc85610b6c565b5f5b83811015610bed57815481890152600182019150602081019050610bce565b838801955050505b50505092915050565b5f610c098284610b7e565b915081905092915050565b5f610c1e826106a4565b610c288185610b62565b9350610c388185602086016106be565b80840191505092915050565b5f610c4f8284610c14565b915081905092915050565b7f28200000000000000000000000000000000000000000000000000000000000005f82015250565b5f610c8e600283610b62565b9150610c9982610c5a565b600282019050919050565b7f2c200000000000000000000000000000000000000000000000000000000000005f82015250565b5f610cd8600283610b62565b9150610ce382610ca4565b600282019050919050565b5f819050919050565b610d08610d03826108d2565b610cee565b82525050565b7f20292000000000000000000000000000000000000000000000000000000000005f82015250565b5f610d42600383610b62565b9150610d4d82610d0e565b600382019050919050565b5f610d638286610c14565b9150610d6e82610c82565b9150610d7a8285610b7e565b9150610d8582610ccc565b9150610d918284610cf7565b602082019150610da082610d36565b9150819050949350505050565b5f73ffffffffffffffffffffffffffffffffffffffff82169050919050565b5f610dd682610dad565b9050919050565b5f8160601b9050919050565b5f610df382610ddd565b9050919050565b5f610e0482610de9565b9050919050565b610e1c610e1782610dcc565b610dfa565b82525050565b5f610e2d8284610e0b565b60148201915081905092915050565b7f456c20766f74616e746520796120686120766f7461646f0000000000000000005f82015250565b5f610e706017836106ae565b9150610e7b82610e3c565b602082019050919050565b5f6020820190508181035f830152610e9d81610e64565b9050919050565b7f4e487b71000000000000000000000000000000000000000000000000000000005f52601160045260245ffd5b5f610edb826108d2565b91507fffffffffffffffffffffffffffffffffffffffffffffffffffffffffffffffff8203610f0d57610f0c610ea4565b5b600182019050919050565b5f610f238286610c14565b9150610f2f8285610cf7565b602082019150610f3f8284610c14565b9150819050949350505050565b5f6020601f8301049050919050565b5f82821b905092915050565b5f60088302610f967fffffffffffffffffffffffffffffffffffffffffffffffffffffffffffffffff82610f5b565b610fa08683610f5b565b95508019841693508086168417925050509392505050565b5f819050919050565b5f610fdb610fd6610fd1846108d2565b610fb8565b6108d2565b9050919050565b5f819050919050565b610ff483610fc1565b61100861100082610fe2565b848454610f67565b825550505050565b5f90565b61101c611010565b611027818484610feb565b505050565b5b8181101561104a5761103f5f82611014565b60018101905061102d565b5050565b601f82111561108f5761106081610b6c565b61106984610f4c565b81016020851015611078578190505b61108c61108485610f4c565b83018261102c565b50505b505050565b5f82821c905092915050565b5f6110af5f1984600802611094565b1980831691505092915050565b5f6110c783836110a0565b9150826002028217905092915050565b6110e0826106a4565b67ffffffffffffffff8111156110f9576110f8610767565b5b6111038254610b32565b61110e82828561104e565b5f60209050601f83116001811461113f575f841561112d578287015190505b61113785826110bc565b86555061119e565b601f19841661114d86610b6c565b5f5b828110156111745784890151825560018201915060208501945060208101905061114f565b86831015611191578489015161118d601f8916826110a0565b8355505b6001600288020188555050505b50505050505056fea26469706673582212200af8d18153c288fbb8f2cf416fb1e1364ba742fba806219707f9272042d2944464736f6c63430008170033",
					"opcodes": "PUSH1 0x80 PUSH1 0x40 MSTORE CALLVALUE DUP1 ISZERO PUSH2 0xF JUMPI PUSH0 DUP1 REVERT JUMPDEST POP CALLER PUSH0 DUP1 PUSH2 0x100 EXP DUP2 SLOAD DUP2 PUSH20 0xFFFFFFFFFFFFFFFFFFFFFFFFFFFFFFFFFFFFFFFF MUL NOT AND SWAP1 DUP4 PUSH20 0xFFFFFFFFFFFFFFFFFFFFFFFFFFFFFFFFFFFFFFFF AND MUL OR SWAP1 SSTORE POP PUSH2 0x11DC DUP1 PUSH2 0x5C PUSH0 CODECOPY PUSH0 RETURN INVALID PUSH1 0x80 PUSH1 0x40 MSTORE CALLVALUE DUP1 ISZERO PUSH2 0xF JUMPI PUSH0 DUP1 REVERT JUMPDEST POP PUSH1 0x4 CALLDATASIZE LT PUSH2 0x60 JUMPI PUSH0 CALLDATALOAD PUSH1 0xE0 SHR DUP1 PUSH4 0x55911CC1 EQ PUSH2 0x64 JUMPI DUP1 PUSH4 0x58C6414F EQ PUSH2 0x82 JUMPI DUP1 PUSH4 0x60DF75D4 EQ PUSH2 0xA0 JUMPI DUP1 PUSH4 0xCAAA49A6 EQ PUSH2 0xD0 JUMPI DUP1 PUSH4 0xCE3FE641 EQ PUSH2 0xEE JUMPI DUP1 PUSH4 0xF01CA6B7 EQ PUSH2 0x10A JUMPI JUMPDEST PUSH0 DUP1 REVERT JUMPDEST PUSH2 0x6C PUSH2 0x126 JUMP JUMPDEST PUSH1 0x40 MLOAD PUSH2 0x79 SWAP2 SWAP1 PUSH2 0x72E JUMP JUMPDEST PUSH1 0x40 MLOAD DUP1 SWAP2 SUB SWAP1 RETURN JUMPDEST PUSH2 0x8A PUSH2 0x2FB JUMP JUMPDEST PUSH1 0x40 MLOAD PUSH2 0x97 SWAP2 SWAP1 PUSH2 0x72E JUMP JUMPDEST PUSH1 0x40 MLOAD DUP1 SWAP2 SUB SWAP1 RETURN JUMPDEST PUSH2 0xBA PUSH1 0x4 DUP1 CALLDATASIZE SUB DUP2 ADD SWAP1 PUSH2 0xB5 SWAP2 SWAP1 PUSH2 0x88B JUMP JUMPDEST PUSH2 0x41E JUMP JUMPDEST PUSH1 0x40 MLOAD PUSH2 0xC7 SWAP2 SWAP1 PUSH2 0x8EA JUMP JUMPDEST PUSH1 0x40 MLOAD DUP1 SWAP2 SUB SWAP1 RETURN JUMPDEST PUSH2 0xD8 PUSH2 0x445 JUMP JUMPDEST PUSH1 0x40 MLOAD PUSH2 0xE5 SWAP2 SWAP1 PUSH2 0xA06 JUMP JUMPDEST PUSH1 0x40 MLOAD DUP1 SWAP2 SUB SWAP1 RETURN JUMPDEST PUSH2 0x108 PUSH1 0x4 DUP1 CALLDATASIZE SUB DUP2 ADD SWAP1 PUSH2 0x103 SWAP2 SWAP1 PUSH2 0x88B JUMP JUMPDEST PUSH2 0x519 JUMP JUMPDEST STOP JUMPDEST PUSH2 0x124 PUSH1 0x4 DUP1 CALLDATASIZE SUB DUP2 ADD SWAP1 PUSH2 0x11F SWAP2 SWAP1 PUSH2 0xA50 JUMP JUMPDEST PUSH2 0x61B JUMP JUMPDEST STOP JUMPDEST PUSH1 0x60 PUSH0 PUSH1 0x3 PUSH0 DUP2 SLOAD DUP2 LT PUSH2 0x13D JUMPI PUSH2 0x13C PUSH2 0xAD8 JUMP JUMPDEST JUMPDEST SWAP1 PUSH0 MSTORE PUSH1 0x20 PUSH0 KECCAK256 ADD DUP1 SLOAD PUSH2 0x150 SWAP1 PUSH2 0xB32 JUMP JUMPDEST DUP1 PUSH1 0x1F ADD PUSH1 0x20 DUP1 SWAP2 DIV MUL PUSH1 0x20 ADD PUSH1 0x40 MLOAD SWAP1 DUP2 ADD PUSH1 0x40 MSTORE DUP1 SWAP3 SWAP2 SWAP1 DUP2 DUP2 MSTORE PUSH1 0x20 ADD DUP3 DUP1 SLOAD PUSH2 0x17C SWAP1 PUSH2 0xB32 JUMP JUMPDEST DUP1 ISZERO PUSH2 0x1C7 JUMPI DUP1 PUSH1 0x1F LT PUSH2 0x19E JUMPI PUSH2 0x100 DUP1 DUP4 SLOAD DIV MUL DUP4 MSTORE SWAP2 PUSH1 0x20 ADD SWAP2 PUSH2 0x1C7 JUMP JUMPDEST DUP3 ADD SWAP2 SWAP1 PUSH0 MSTORE PUSH1 0x20 PUSH0 KECCAK256 SWAP1 JUMPDEST DUP2 SLOAD DUP2 MSTORE SWAP1 PUSH1 0x1 ADD SWAP1 PUSH1 0x20 ADD DUP1 DUP4 GT PUSH2 0x1AA JUMPI DUP3 SWAP1 SUB PUSH1 0x1F AND DUP3 ADD SWAP2 JUMPDEST POP POP POP POP POP SWAP1 POP PUSH0 PUSH1 0x1 SWAP1 POP JUMPDEST PUSH1 0x3 DUP1 SLOAD SWAP1 POP DUP2 LT ISZERO PUSH2 0x2F3 JUMPI PUSH1 0x2 PUSH1 0x3 DUP3 DUP2 SLOAD DUP2 LT PUSH2 0x1F7 JUMPI PUSH2 0x1F6 PUSH2 0xAD8 JUMP JUMPDEST JUMPDEST SWAP1 PUSH0 MSTORE PUSH1 0x20 PUSH0 KECCAK256 ADD PUSH1 0x40 MLOAD PUSH2 0x20C SWAP2 SWAP1 PUSH2 0xBFE JUMP JUMPDEST SWAP1 DUP2 MSTORE PUSH1 0x20 ADD PUSH1 0x40 MLOAD DUP1 SWAP2 SUB SWAP1 KECCAK256 SLOAD PUSH1 0x2 DUP4 PUSH1 0x40 MLOAD PUSH2 0x22B SWAP2 SWAP1 PUSH2 0xC44 JUMP JUMPDEST SWAP1 DUP2 MSTORE PUSH1 0x20 ADD PUSH1 0x40 MLOAD DUP1 SWAP2 SUB SWAP1 KECCAK256 SLOAD LT ISZERO PUSH2 0x2E6 JUMPI PUSH1 0x3 DUP2 DUP2 SLOAD DUP2 LT PUSH2 0x254 JUMPI PUSH2 0x253 PUSH2 0xAD8 JUMP JUMPDEST JUMPDEST SWAP1 PUSH0 MSTORE PUSH1 0x20 PUSH0 KECCAK256 ADD DUP1 SLOAD PUSH2 0x267 SWAP1 PUSH2 0xB32 JUMP JUMPDEST DUP1 PUSH1 0x1F ADD PUSH1 0x20 DUP1 SWAP2 DIV MUL PUSH1 0x20 ADD PUSH1 0x40 MLOAD SWAP1 DUP2 ADD PUSH1 0x40 MSTORE DUP1 SWAP3 SWAP2 SWAP1 DUP2 DUP2 MSTORE PUSH1 0x20 ADD DUP3 DUP1 SLOAD PUSH2 0x293 SWAP1 PUSH2 0xB32 JUMP JUMPDEST DUP1 ISZERO PUSH2 0x2DE JUMPI DUP1 PUSH1 0x1F LT PUSH2 0x2B5 JUMPI PUSH2 0x100 DUP1 DUP4 SLOAD DIV MUL DUP4 MSTORE SWAP2 PUSH1 0x20 ADD SWAP2 PUSH2 0x2DE JUMP JUMPDEST DUP3 ADD SWAP2 SWAP1 PUSH0 MSTORE PUSH1 0x20 PUSH0 KECCAK256 SWAP1 JUMPDEST DUP2 SLOAD DUP2 MSTORE SWAP1 PUSH1 0x1 ADD SWAP1 PUSH1 0x20 ADD DUP1 DUP4 GT PUSH2 0x2C1 JUMPI DUP3 SWAP1 SUB PUSH1 0x1F AND DUP3 ADD SWAP2 JUMPDEST POP POP POP POP POP SWAP2 POP JUMPDEST DUP1 DUP1 PUSH1 0x1 ADD SWAP2 POP POP PUSH2 0x1D4 JUMP JUMPDEST POP DUP1 SWAP2 POP POP SWAP1 JUMP JUMPDEST PUSH1 0x60 PUSH0 PUSH1 0x40 MLOAD DUP1 PUSH1 0x20 ADD PUSH1 0x40 MSTORE DUP1 PUSH0 DUP2 MSTORE POP SWAP1 POP PUSH0 JUMPDEST PUSH1 0x3 DUP1 SLOAD SWAP1 POP DUP2 LT ISZERO PUSH2 0x416 JUMPI DUP2 PUSH1 0x3 DUP3 DUP2 SLOAD DUP2 LT PUSH2 0x333 JUMPI PUSH2 0x332 PUSH2 0xAD8 JUMP JUMPDEST JUMPDEST SWAP1 PUSH0 MSTORE PUSH1 0x20 PUSH0 KECCAK256 ADD PUSH2 0x3E6 PUSH1 0x3 DUP5 DUP2 SLOAD DUP2 LT PUSH2 0x352 JUMPI PUSH2 0x351 PUSH2 0xAD8 JUMP JUMPDEST JUMPDEST SWAP1 PUSH0 MSTORE PUSH1 0x20 PUSH0 KECCAK256 ADD DUP1 SLOAD PUSH2 0x365 SWAP1 PUSH2 0xB32 JUMP JUMPDEST DUP1 PUSH1 0x1F ADD PUSH1 0x20 DUP1 SWAP2 DIV MUL PUSH1 0x20 ADD PUSH1 0x40 MLOAD SWAP1 DUP2 ADD PUSH1 0x40 MSTORE DUP1 SWAP3 SWAP2 SWAP1 DUP2 DUP2 MSTORE PUSH1 0x20 ADD DUP3 DUP1 SLOAD PUSH2 0x391 SWAP1 PUSH2 0xB32 JUMP JUMPDEST DUP1 ISZERO PUSH2 0x3DC JUMPI DUP1 PUSH1 0x1F LT PUSH2 0x3B3 JUMPI PUSH2 0x100 DUP1 DUP4 SLOAD DIV MUL DUP4 MSTORE SWAP2 PUSH1 0x20 ADD SWAP2 PUSH2 0x3DC JUMP JUMPDEST DUP3 ADD SWAP2 SWAP1 PUSH0 MSTORE PUSH1 0x20 PUSH0 KECCAK256 SWAP1 JUMPDEST DUP2 SLOAD DUP2 MSTORE SWAP1 PUSH1 0x1 ADD SWAP1 PUSH1 0x20 ADD DUP1 DUP4 GT PUSH2 0x3BF JUMPI DUP3 SWAP1 SUB PUSH1 0x1F AND DUP3 ADD SWAP2 JUMPDEST POP POP POP POP POP PUSH2 0x41E JUMP JUMPDEST PUSH1 0x40 MLOAD PUSH1 0x20 ADD PUSH2 0x3F8 SWAP4 SWAP3 SWAP2 SWAP1 PUSH2 0xD58 JUMP JUMPDEST PUSH1 0x40 MLOAD PUSH1 0x20 DUP2 DUP4 SUB SUB DUP2 MSTORE SWAP1 PUSH1 0x40 MSTORE SWAP2 POP DUP1 DUP1 PUSH1 0x1 ADD SWAP2 POP POP PUSH2 0x311 JUMP JUMPDEST POP DUP1 SWAP2 POP POP SWAP1 JUMP JUMPDEST PUSH0 PUSH1 0x2 DUP3 PUSH1 0x40 MLOAD PUSH2 0x42F SWAP2 SWAP1 PUSH2 0xC44 JUMP JUMPDEST SWAP1 DUP2 MSTORE PUSH1 0x20 ADD PUSH1 0x40 MLOAD DUP1 SWAP2 SUB SWAP1 KECCAK256 SLOAD SWAP1 POP SWAP2 SWAP1 POP JUMP JUMPDEST PUSH1 0x60 PUSH1 0x3 DUP1 SLOAD DUP1 PUSH1 0x20 MUL PUSH1 0x20 ADD PUSH1 0x40 MLOAD SWAP1 DUP2 ADD PUSH1 0x40 MSTORE DUP1 SWAP3 SWAP2 SWAP1 DUP2 DUP2 MSTORE PUSH1 0x20 ADD PUSH0 SWAP1 JUMPDEST DUP3 DUP3 LT ISZERO PUSH2 0x510 JUMPI DUP4 DUP3 SWAP1 PUSH0 MSTORE PUSH1 0x20 PUSH0 KECCAK256 ADD DUP1 SLOAD PUSH2 0x485 SWAP1 PUSH2 0xB32 JUMP JUMPDEST DUP1 PUSH1 0x1F ADD PUSH1 0x20 DUP1 SWAP2 DIV MUL PUSH1 0x20 ADD PUSH1 0x40 MLOAD SWAP1 DUP2 ADD PUSH1 0x40 MSTORE DUP1 SWAP3 SWAP2 SWAP1 DUP2 DUP2 MSTORE PUSH1 0x20 ADD DUP3 DUP1 SLOAD PUSH2 0x4B1 SWAP1 PUSH2 0xB32 JUMP JUMPDEST DUP1 ISZERO PUSH2 0x4FC JUMPI DUP1 PUSH1 0x1F LT PUSH2 0x4D3 JUMPI PUSH2 0x100 DUP1 DUP4 SLOAD DIV MUL DUP4 MSTORE SWAP2 PUSH1 0x20 ADD SWAP2 PUSH2 0x4FC JUMP JUMPDEST DUP3 ADD SWAP2 SWAP1 PUSH0 MSTORE PUSH1 0x20 PUSH0 KECCAK256 SWAP1 JUMPDEST DUP2 SLOAD DUP2 MSTORE SWAP1 PUSH1 0x1 ADD SWAP1 PUSH1 0x20 ADD DUP1 DUP4 GT PUSH2 0x4DF JUMPI DUP3 SWAP1 SUB PUSH1 0x1F AND DUP3 ADD SWAP2 JUMPDEST POP POP POP POP POP DUP2 MSTORE PUSH1 0x20 ADD SWAP1 PUSH1 0x1 ADD SWAP1 PUSH2 0x468 JUMP JUMPDEST POP POP POP POP SWAP1 POP SWAP1 JUMP JUMPDEST PUSH0 CALLER PUSH1 0x40 MLOAD PUSH1 0x20 ADD PUSH2 0x52B SWAP2 SWAP1 PUSH2 0xE22 JUMP JUMPDEST PUSH1 0x40 MLOAD PUSH1 0x20 DUP2 DUP4 SUB SUB DUP2 MSTORE SWAP1 PUSH1 0x40 MSTORE DUP1 MLOAD SWAP1 PUSH1 0x20 ADD KECCAK256 SWAP1 POP PUSH0 JUMPDEST PUSH1 0x4 DUP1 SLOAD SWAP1 POP DUP2 LT ISZERO PUSH2 0x5BD JUMPI DUP2 PUSH1 0x4 DUP3 DUP2 SLOAD DUP2 LT PUSH2 0x567 JUMPI PUSH2 0x566 PUSH2 0xAD8 JUMP JUMPDEST JUMPDEST SWAP1 PUSH0 MSTORE PUSH1 0x20 PUSH0 KECCAK256 ADD SLOAD SUB PUSH2 0x5B0 JUMPI PUSH1 0x40 MLOAD PUSH32 0x8C379A000000000000000000000000000000000000000000000000000000000 DUP2 MSTORE PUSH1 0x4 ADD PUSH2 0x5A7 SWAP1 PUSH2 0xE86 JUMP JUMPDEST PUSH1 0x40 MLOAD DUP1 SWAP2 SUB SWAP1 REVERT JUMPDEST DUP1 DUP1 PUSH1 0x1 ADD SWAP2 POP POP PUSH2 0x545 JUMP JUMPDEST POP PUSH1 0x4 DUP2 SWAP1 DUP1 PUSH1 0x1 DUP2 SLOAD ADD DUP1 DUP3 SSTORE DUP1 SWAP2 POP POP PUSH1 0x1 SWAP1 SUB SWAP1 PUSH0 MSTORE PUSH1 0x20 PUSH0 KECCAK256 ADD PUSH0 SWAP1 SWAP2 SWAP1 SWAP2 SWAP1 SWAP2 POP SSTORE PUSH1 0x2 DUP3 PUSH1 0x40 MLOAD PUSH2 0x5F4 SWAP2 SWAP1 PUSH2 0xC44 JUMP JUMPDEST SWAP1 DUP2 MSTORE PUSH1 0x20 ADD PUSH1 0x40 MLOAD DUP1 SWAP2 SUB SWAP1 KECCAK256 PUSH0 DUP2 SLOAD DUP1 SWAP3 SWAP2 SWAP1 PUSH2 0x612 SWAP1 PUSH2 0xED1 JUMP JUMPDEST SWAP2 SWAP1 POP SSTORE POP POP POP JUMP JUMPDEST PUSH0 DUP4 DUP4 DUP4 PUSH1 0x40 MLOAD PUSH1 0x20 ADD PUSH2 0x631 SWAP4 SWAP3 SWAP2 SWAP1 PUSH2 0xF18 JUMP JUMPDEST PUSH1 0x40 MLOAD PUSH1 0x20 DUP2 DUP4 SUB SUB DUP2 MSTORE SWAP1 PUSH1 0x40 MSTORE DUP1 MLOAD SWAP1 PUSH1 0x20 ADD KECCAK256 SWAP1 POP DUP1 PUSH1 0x1 DUP6 PUSH1 0x40 MLOAD PUSH2 0x65A SWAP2 SWAP1 PUSH2 0xC44 JUMP JUMPDEST SWAP1 DUP2 MSTORE PUSH1 0x20 ADD PUSH1 0x40 MLOAD DUP1 SWAP2 SUB SWAP1 KECCAK256 DUP2 SWAP1 SSTORE POP PUSH1 0x3 DUP5 SWAP1 DUP1 PUSH1 0x1 DUP2 SLOAD ADD DUP1 DUP3 SSTORE DUP1 SWAP2 POP POP PUSH1 0x1 SWAP1 SUB SWAP1 PUSH0 MSTORE PUSH1 0x20 PUSH0 KECCAK256 ADD PUSH0 SWAP1 SWAP2 SWAP1 SWAP2 SWAP1 SWAP2 POP SWAP1 DUP2 PUSH2 0x69D SWAP2 SWAP1 PUSH2 0x10D7 JUMP JUMPDEST POP POP POP POP POP JUMP JUMPDEST PUSH0 DUP2 MLOAD SWAP1 POP SWAP2 SWAP1 POP JUMP JUMPDEST PUSH0 DUP3 DUP3 MSTORE PUSH1 0x20 DUP3 ADD SWAP1 POP SWAP3 SWAP2 POP POP JUMP JUMPDEST PUSH0 JUMPDEST DUP4 DUP2 LT ISZERO PUSH2 0x6DB JUMPI DUP1 DUP3 ADD MLOAD DUP2 DUP5 ADD MSTORE PUSH1 0x20 DUP2 ADD SWAP1 POP PUSH2 0x6C0 JUMP JUMPDEST PUSH0 DUP5 DUP5 ADD MSTORE POP POP POP POP JUMP JUMPDEST PUSH0 PUSH1 0x1F NOT PUSH1 0x1F DUP4 ADD AND SWAP1 POP SWAP2 SWAP1 POP JUMP JUMPDEST PUSH0 PUSH2 0x700 DUP3 PUSH2 0x6A4 JUMP JUMPDEST PUSH2 0x70A DUP2 DUP6 PUSH2 0x6AE JUMP JUMPDEST SWAP4 POP PUSH2 0x71A DUP2 DUP6 PUSH1 0x20 DUP7 ADD PUSH2 0x6BE JUMP JUMPDEST PUSH2 0x723 DUP2 PUSH2 0x6E6 JUMP JUMPDEST DUP5 ADD SWAP2 POP POP SWAP3 SWAP2 POP POP JUMP JUMPDEST PUSH0 PUSH1 0x20 DUP3 ADD SWAP1 POP DUP2 DUP2 SUB PUSH0 DUP4 ADD MSTORE PUSH2 0x746 DUP2 DUP5 PUSH2 0x6F6 JUMP JUMPDEST SWAP1 POP SWAP3 SWAP2 POP POP JUMP JUMPDEST PUSH0 PUSH1 0x40 MLOAD SWAP1 POP SWAP1 JUMP JUMPDEST PUSH0 DUP1 REVERT JUMPDEST PUSH0 DUP1 REVERT JUMPDEST PUSH0 DUP1 REVERT JUMPDEST PUSH0 DUP1 REVERT JUMPDEST PUSH32 0x4E487B7100000000000000000000000000000000000000000000000000000000 PUSH0 MSTORE PUSH1 0x41 PUSH1 0x4 MSTORE PUSH1 0x24 PUSH0 REVERT JUMPDEST PUSH2 0x79D DUP3 PUSH2 0x6E6 JUMP JUMPDEST DUP2 ADD DUP2 DUP2 LT PUSH8 0xFFFFFFFFFFFFFFFF DUP3 GT OR ISZERO PUSH2 0x7BC JUMPI PUSH2 0x7BB PUSH2 0x767 JUMP JUMPDEST JUMPDEST DUP1 PUSH1 0x40 MSTORE POP POP POP JUMP JUMPDEST PUSH0 PUSH2 0x7CE PUSH2 0x74E JUMP JUMPDEST SWAP1 POP PUSH2 0x7DA DUP3 DUP3 PUSH2 0x794 JUMP JUMPDEST SWAP2 SWAP1 POP JUMP JUMPDEST PUSH0 PUSH8 0xFFFFFFFFFFFFFFFF DUP3 GT ISZERO PUSH2 0x7F9 JUMPI PUSH2 0x7F8 PUSH2 0x767 JUMP JUMPDEST JUMPDEST PUSH2 0x802 DUP3 PUSH2 0x6E6 JUMP JUMPDEST SWAP1 POP PUSH1 0x20 DUP2 ADD SWAP1 POP SWAP2 SWAP1 POP JUMP JUMPDEST DUP3 DUP2 DUP4 CALLDATACOPY PUSH0 DUP4 DUP4 ADD MSTORE POP POP POP JUMP JUMPDEST PUSH0 PUSH2 0x82F PUSH2 0x82A DUP5 PUSH2 0x7DF JUMP JUMPDEST PUSH2 0x7C5 JUMP JUMPDEST SWAP1 POP DUP3 DUP2 MSTORE PUSH1 0x20 DUP2 ADD DUP5 DUP5 DUP5 ADD GT ISZERO PUSH2 0x84B JUMPI PUSH2 0x84A PUSH2 0x763 JUMP JUMPDEST JUMPDEST PUSH2 0x856 DUP5 DUP3 DUP6 PUSH2 0x80F JUMP JUMPDEST POP SWAP4 SWAP3 POP POP POP JUMP JUMPDEST PUSH0 DUP3 PUSH1 0x1F DUP4 ADD SLT PUSH2 0x872 JUMPI PUSH2 0x871 PUSH2 0x75F JUMP JUMPDEST JUMPDEST DUP2 CALLDATALOAD PUSH2 0x882 DUP5 DUP3 PUSH1 0x20 DUP7 ADD PUSH2 0x81D JUMP JUMPDEST SWAP2 POP POP SWAP3 SWAP2 POP POP JUMP JUMPDEST PUSH0 PUSH1 0x20 DUP3 DUP5 SUB SLT ISZERO PUSH2 0x8A0 JUMPI PUSH2 0x89F PUSH2 0x757 JUMP JUMPDEST JUMPDEST PUSH0 DUP3 ADD CALLDATALOAD PUSH8 0xFFFFFFFFFFFFFFFF DUP2 GT ISZERO PUSH2 0x8BD JUMPI PUSH2 0x8BC PUSH2 0x75B JUMP JUMPDEST JUMPDEST PUSH2 0x8C9 DUP5 DUP3 DUP6 ADD PUSH2 0x85E JUMP JUMPDEST SWAP2 POP POP SWAP3 SWAP2 POP POP JUMP JUMPDEST PUSH0 DUP2 SWAP1 POP SWAP2 SWAP1 POP JUMP JUMPDEST PUSH2 0x8E4 DUP2 PUSH2 0x8D2 JUMP JUMPDEST DUP3 MSTORE POP POP JUMP JUMPDEST PUSH0 PUSH1 0x20 DUP3 ADD SWAP1 POP PUSH2 0x8FD PUSH0 DUP4 ADD DUP5 PUSH2 0x8DB JUMP JUMPDEST SWAP3 SWAP2 POP POP JUMP JUMPDEST PUSH0 DUP2 MLOAD SWAP1 POP SWAP2 SWAP1 POP JUMP JUMPDEST PUSH0 DUP3 DUP3 MSTORE PUSH1 0x20 DUP3 ADD SWAP1 POP SWAP3 SWAP2 POP POP JUMP JUMPDEST PUSH0 DUP2 SWAP1 POP PUSH1 0x20 DUP3 ADD SWAP1 POP SWAP2 SWAP1 POP JUMP JUMPDEST PUSH0 DUP3 DUP3 MSTORE PUSH1 0x20 DUP3 ADD SWAP1 POP SWAP3 SWAP2 POP POP JUMP JUMPDEST PUSH0 PUSH2 0x946 DUP3 PUSH2 0x6A4 JUMP JUMPDEST PUSH2 0x950 DUP2 DUP6 PUSH2 0x92C JUMP JUMPDEST SWAP4 POP PUSH2 0x960 DUP2 DUP6 PUSH1 0x20 DUP7 ADD PUSH2 0x6BE JUMP JUMPDEST PUSH2 0x969 DUP2 PUSH2 0x6E6 JUMP JUMPDEST DUP5 ADD SWAP2 POP POP SWAP3 SWAP2 POP POP JUMP JUMPDEST PUSH0 PUSH2 0x97F DUP4 DUP4 PUSH2 0x93C JUMP JUMPDEST SWAP1 POP SWAP3 SWAP2 POP POP JUMP JUMPDEST PUSH0 PUSH1 0x20 DUP3 ADD SWAP1 POP SWAP2 SWAP1 POP JUMP JUMPDEST PUSH0 PUSH2 0x99D DUP3 PUSH2 0x903 JUMP JUMPDEST PUSH2 0x9A7 DUP2 DUP6 PUSH2 0x90D JUMP JUMPDEST SWAP4 POP DUP4 PUSH1 0x20 DUP3 MUL DUP6 ADD PUSH2 0x9B9 DUP6 PUSH2 0x91D JUMP JUMPDEST DUP1 PUSH0 JUMPDEST DUP6 DUP2 LT ISZERO PUSH2 0x9F4 JUMPI DUP5 DUP5 SUB DUP10 MSTORE DUP2 MLOAD PUSH2 0x9D5 DUP6 DUP3 PUSH2 0x974 JUMP JUMPDEST SWAP5 POP PUSH2 0x9E0 DUP4 PUSH2 0x987 JUMP JUMPDEST SWAP3 POP PUSH1 0x20 DUP11 ADD SWAP10 POP POP PUSH1 0x1 DUP2 ADD SWAP1 POP PUSH2 0x9BC JUMP JUMPDEST POP DUP3 SWAP8 POP DUP8 SWAP6 POP POP POP POP POP POP SWAP3 SWAP2 POP POP JUMP JUMPDEST PUSH0 PUSH1 0x20 DUP3 ADD SWAP1 POP DUP2 DUP2 SUB PUSH0 DUP4 ADD MSTORE PUSH2 0xA1E DUP2 DUP5 PUSH2 0x993 JUMP JUMPDEST SWAP1 POP SWAP3 SWAP2 POP POP JUMP JUMPDEST PUSH2 0xA2F DUP2 PUSH2 0x8D2 JUMP JUMPDEST DUP2 EQ PUSH2 0xA39 JUMPI PUSH0 DUP1 REVERT JUMPDEST POP JUMP JUMPDEST PUSH0 DUP2 CALLDATALOAD SWAP1 POP PUSH2 0xA4A DUP2 PUSH2 0xA26 JUMP JUMPDEST SWAP3 SWAP2 POP POP JUMP JUMPDEST PUSH0 DUP1 PUSH0 PUSH1 0x60 DUP5 DUP7 SUB SLT ISZERO PUSH2 0xA67 JUMPI PUSH2 0xA66 PUSH2 0x757 JUMP JUMPDEST JUMPDEST PUSH0 DUP5 ADD CALLDATALOAD PUSH8 0xFFFFFFFFFFFFFFFF DUP2 GT ISZERO PUSH2 0xA84 JUMPI PUSH2 0xA83 PUSH2 0x75B JUMP JUMPDEST JUMPDEST PUSH2 0xA90 DUP7 DUP3 DUP8 ADD PUSH2 0x85E JUMP JUMPDEST SWAP4 POP POP PUSH1 0x20 PUSH2 0xAA1 DUP7 DUP3 DUP8 ADD PUSH2 0xA3C JUMP JUMPDEST SWAP3 POP POP PUSH1 0x40 DUP5 ADD CALLDATALOAD PUSH8 0xFFFFFFFFFFFFFFFF DUP2 GT ISZERO PUSH2 0xAC2 JUMPI PUSH2 0xAC1 PUSH2 0x75B JUMP JUMPDEST JUMPDEST PUSH2 0xACE DUP7 DUP3 DUP8 ADD PUSH2 0x85E JUMP JUMPDEST SWAP2 POP POP SWAP3 POP SWAP3 POP SWAP3 JUMP JUMPDEST PUSH32 0x4E487B7100000000000000000000000000000000000000000000000000000000 PUSH0 MSTORE PUSH1 0x32 PUSH1 0x4 MSTORE PUSH1 0x24 PUSH0 REVERT JUMPDEST PUSH32 0x4E487B7100000000000000000000000000000000000000000000000000000000 PUSH0 MSTORE PUSH1 0x22 PUSH1 0x4 MSTORE PUSH1 0x24 PUSH0 REVERT JUMPDEST PUSH0 PUSH1 0x2 DUP3 DIV SWAP1 POP PUSH1 0x1 DUP3 AND DUP1 PUSH2 0xB49 JUMPI PUSH1 0x7F DUP3 AND SWAP2 POP JUMPDEST PUSH1 0x20 DUP3 LT DUP2 SUB PUSH2 0xB5C JUMPI PUSH2 0xB5B PUSH2 0xB05 JUMP JUMPDEST JUMPDEST POP SWAP2 SWAP1 POP JUMP JUMPDEST PUSH0 DUP2 SWAP1 POP SWAP3 SWAP2 POP POP JUMP JUMPDEST PUSH0 DUP2 SWAP1 POP DUP2 PUSH0 MSTORE PUSH1 0x20 PUSH0 KECCAK256 SWAP1 POP SWAP2 SWAP1 POP JUMP JUMPDEST PUSH0 DUP2 SLOAD PUSH2 0xB8A DUP2 PUSH2 0xB32 JUMP JUMPDEST PUSH2 0xB94 DUP2 DUP7 PUSH2 0xB62 JUMP JUMPDEST SWAP5 POP PUSH1 0x1 DUP3 AND PUSH0 DUP2 EQ PUSH2 0xBAE JUMPI PUSH1 0x1 DUP2 EQ PUSH2 0xBC3 JUMPI PUSH2 0xBF5 JUMP JUMPDEST PUSH1 0xFF NOT DUP4 AND DUP7 MSTORE DUP2 ISZERO ISZERO DUP3 MUL DUP7 ADD SWAP4 POP PUSH2 0xBF5 JUMP JUMPDEST PUSH2 0xBCC DUP6 PUSH2 0xB6C JUMP JUMPDEST PUSH0 JUMPDEST DUP4 DUP2 LT ISZERO PUSH2 0xBED JUMPI DUP2 SLOAD DUP2 DUP10 ADD MSTORE PUSH1 0x1 DUP3 ADD SWAP2 POP PUSH1 0x20 DUP2 ADD SWAP1 POP PUSH2 0xBCE JUMP JUMPDEST DUP4 DUP9 ADD SWAP6 POP POP POP JUMPDEST POP POP POP SWAP3 SWAP2 POP POP JUMP JUMPDEST PUSH0 PUSH2 0xC09 DUP3 DUP5 PUSH2 0xB7E JUMP JUMPDEST SWAP2 POP DUP2 SWAP1 POP SWAP3 SWAP2 POP POP JUMP JUMPDEST PUSH0 PUSH2 0xC1E DUP3 PUSH2 0x6A4 JUMP JUMPDEST PUSH2 0xC28 DUP2 DUP6 PUSH2 0xB62 JUMP JUMPDEST SWAP4 POP PUSH2 0xC38 DUP2 DUP6 PUSH1 0x20 DUP7 ADD PUSH2 0x6BE JUMP JUMPDEST DUP1 DUP5 ADD SWAP2 POP POP SWAP3 SWAP2 POP POP JUMP JUMPDEST PUSH0 PUSH2 0xC4F DUP3 DUP5 PUSH2 0xC14 JUMP JUMPDEST SWAP2 POP DUP2 SWAP1 POP SWAP3 SWAP2 POP POP JUMP JUMPDEST PUSH32 0x2820000000000000000000000000000000000000000000000000000000000000 PUSH0 DUP3 ADD MSTORE POP JUMP JUMPDEST PUSH0 PUSH2 0xC8E PUSH1 0x2 DUP4 PUSH2 0xB62 JUMP JUMPDEST SWAP2 POP PUSH2 0xC99 DUP3 PUSH2 0xC5A JUMP JUMPDEST PUSH1 0x2 DUP3 ADD SWAP1 POP SWAP2 SWAP1 POP JUMP JUMPDEST PUSH32 0x2C20000000000000000000000000000000000000000000000000000000000000 PUSH0 DUP3 ADD MSTORE POP JUMP JUMPDEST PUSH0 PUSH2 0xCD8 PUSH1 0x2 DUP4 PUSH2 0xB62 JUMP JUMPDEST SWAP2 POP PUSH2 0xCE3 DUP3 PUSH2 0xCA4 JUMP JUMPDEST PUSH1 0x2 DUP3 ADD SWAP1 POP SWAP2 SWAP1 POP JUMP JUMPDEST PUSH0 DUP2 SWAP1 POP SWAP2 SWAP1 POP JUMP JUMPDEST PUSH2 0xD08 PUSH2 0xD03 DUP3 PUSH2 0x8D2 JUMP JUMPDEST PUSH2 0xCEE JUMP JUMPDEST DUP3 MSTORE POP POP JUMP JUMPDEST PUSH32 0x2029200000000000000000000000000000000000000000000000000000000000 PUSH0 DUP3 ADD MSTORE POP JUMP JUMPDEST PUSH0 PUSH2 0xD42 PUSH1 0x3 DUP4 PUSH2 0xB62 JUMP JUMPDEST SWAP2 POP PUSH2 0xD4D DUP3 PUSH2 0xD0E JUMP JUMPDEST PUSH1 0x3 DUP3 ADD SWAP1 POP SWAP2 SWAP1 POP JUMP JUMPDEST PUSH0 PUSH2 0xD63 DUP3 DUP7 PUSH2 0xC14 JUMP JUMPDEST SWAP2 POP PUSH2 0xD6E DUP3 PUSH2 0xC82 JUMP JUMPDEST SWAP2 POP PUSH2 0xD7A DUP3 DUP6 PUSH2 0xB7E JUMP JUMPDEST SWAP2 POP PUSH2 0xD85 DUP3 PUSH2 0xCCC JUMP JUMPDEST SWAP2 POP PUSH2 0xD91 DUP3 DUP5 PUSH2 0xCF7 JUMP JUMPDEST PUSH1 0x20 DUP3 ADD SWAP2 POP PUSH2 0xDA0 DUP3 PUSH2 0xD36 JUMP JUMPDEST SWAP2 POP DUP2 SWAP1 POP SWAP5 SWAP4 POP POP POP POP JUMP JUMPDEST PUSH0 PUSH20 0xFFFFFFFFFFFFFFFFFFFFFFFFFFFFFFFFFFFFFFFF DUP3 AND SWAP1 POP SWAP2 SWAP1 POP JUMP JUMPDEST PUSH0 PUSH2 0xDD6 DUP3 PUSH2 0xDAD JUMP JUMPDEST SWAP1 POP SWAP2 SWAP1 POP JUMP JUMPDEST PUSH0 DUP2 PUSH1 0x60 SHL SWAP1 POP SWAP2 SWAP1 POP JUMP JUMPDEST PUSH0 PUSH2 0xDF3 DUP3 PUSH2 0xDDD JUMP JUMPDEST SWAP1 POP SWAP2 SWAP1 POP JUMP JUMPDEST PUSH0 PUSH2 0xE04 DUP3 PUSH2 0xDE9 JUMP JUMPDEST SWAP1 POP SWAP2 SWAP1 POP JUMP JUMPDEST PUSH2 0xE1C PUSH2 0xE17 DUP3 PUSH2 0xDCC JUMP JUMPDEST PUSH2 0xDFA JUMP JUMPDEST DUP3 MSTORE POP POP JUMP JUMPDEST PUSH0 PUSH2 0xE2D DUP3 DUP5 PUSH2 0xE0B JUMP JUMPDEST PUSH1 0x14 DUP3 ADD SWAP2 POP DUP2 SWAP1 POP SWAP3 SWAP2 POP POP JUMP JUMPDEST PUSH32 0x456C20766F74616E746520796120686120766F7461646F000000000000000000 PUSH0 DUP3 ADD MSTORE POP JUMP JUMPDEST PUSH0 PUSH2 0xE70 PUSH1 0x17 DUP4 PUSH2 0x6AE JUMP JUMPDEST SWAP2 POP PUSH2 0xE7B DUP3 PUSH2 0xE3C JUMP JUMPDEST PUSH1 0x20 DUP3 ADD SWAP1 POP SWAP2 SWAP1 POP JUMP JUMPDEST PUSH0 PUSH1 0x20 DUP3 ADD SWAP1 POP DUP2 DUP2 SUB PUSH0 DUP4 ADD MSTORE PUSH2 0xE9D DUP2 PUSH2 0xE64 JUMP JUMPDEST SWAP1 POP SWAP2 SWAP1 POP JUMP JUMPDEST PUSH32 0x4E487B7100000000000000000000000000000000000000000000000000000000 PUSH0 MSTORE PUSH1 0x11 PUSH1 0x4 MSTORE PUSH1 0x24 PUSH0 REVERT JUMPDEST PUSH0 PUSH2 0xEDB DUP3 PUSH2 0x8D2 JUMP JUMPDEST SWAP2 POP PUSH32 0xFFFFFFFFFFFFFFFFFFFFFFFFFFFFFFFFFFFFFFFFFFFFFFFFFFFFFFFFFFFFFFFF DUP3 SUB PUSH2 0xF0D JUMPI PUSH2 0xF0C PUSH2 0xEA4 JUMP JUMPDEST JUMPDEST PUSH1 0x1 DUP3 ADD SWAP1 POP SWAP2 SWAP1 POP JUMP JUMPDEST PUSH0 PUSH2 0xF23 DUP3 DUP7 PUSH2 0xC14 JUMP JUMPDEST SWAP2 POP PUSH2 0xF2F DUP3 DUP6 PUSH2 0xCF7 JUMP JUMPDEST PUSH1 0x20 DUP3 ADD SWAP2 POP PUSH2 0xF3F DUP3 DUP5 PUSH2 0xC14 JUMP JUMPDEST SWAP2 POP DUP2 SWAP1 POP SWAP5 SWAP4 POP POP POP POP JUMP JUMPDEST PUSH0 PUSH1 0x20 PUSH1 0x1F DUP4 ADD DIV SWAP1 POP SWAP2 SWAP1 POP JUMP JUMPDEST PUSH0 DUP3 DUP3 SHL SWAP1 POP SWAP3 SWAP2 POP POP JUMP JUMPDEST PUSH0 PUSH1 0x8 DUP4 MUL PUSH2 0xF96 PUSH32 0xFFFFFFFFFFFFFFFFFFFFFFFFFFFFFFFFFFFFFFFFFFFFFFFFFFFFFFFFFFFFFFFF DUP3 PUSH2 0xF5B JUMP JUMPDEST PUSH2 0xFA0 DUP7 DUP4 PUSH2 0xF5B JUMP JUMPDEST SWAP6 POP DUP1 NOT DUP5 AND SWAP4 POP DUP1 DUP7 AND DUP5 OR SWAP3 POP POP POP SWAP4 SWAP3 POP POP POP JUMP JUMPDEST PUSH0 DUP2 SWAP1 POP SWAP2 SWAP1 POP JUMP JUMPDEST PUSH0 PUSH2 0xFDB PUSH2 0xFD6 PUSH2 0xFD1 DUP5 PUSH2 0x8D2 JUMP JUMPDEST PUSH2 0xFB8 JUMP JUMPDEST PUSH2 0x8D2 JUMP JUMPDEST SWAP1 POP SWAP2 SWAP1 POP JUMP JUMPDEST PUSH0 DUP2 SWAP1 POP SWAP2 SWAP1 POP JUMP JUMPDEST PUSH2 0xFF4 DUP4 PUSH2 0xFC1 JUMP JUMPDEST PUSH2 0x1008 PUSH2 0x1000 DUP3 PUSH2 0xFE2 JUMP JUMPDEST DUP5 DUP5 SLOAD PUSH2 0xF67 JUMP JUMPDEST DUP3 SSTORE POP POP POP POP JUMP JUMPDEST PUSH0 SWAP1 JUMP JUMPDEST PUSH2 0x101C PUSH2 0x1010 JUMP JUMPDEST PUSH2 0x1027 DUP2 DUP5 DUP5 PUSH2 0xFEB JUMP JUMPDEST POP POP POP JUMP JUMPDEST JUMPDEST DUP2 DUP2 LT ISZERO PUSH2 0x104A JUMPI PUSH2 0x103F PUSH0 DUP3 PUSH2 0x1014 JUMP JUMPDEST PUSH1 0x1 DUP2 ADD SWAP1 POP PUSH2 0x102D JUMP JUMPDEST POP POP JUMP JUMPDEST PUSH1 0x1F DUP3 GT ISZERO PUSH2 0x108F JUMPI PUSH2 0x1060 DUP2 PUSH2 0xB6C JUMP JUMPDEST PUSH2 0x1069 DUP5 PUSH2 0xF4C JUMP JUMPDEST DUP2 ADD PUSH1 0x20 DUP6 LT ISZERO PUSH2 0x1078 JUMPI DUP2 SWAP1 POP JUMPDEST PUSH2 0x108C PUSH2 0x1084 DUP6 PUSH2 0xF4C JUMP JUMPDEST DUP4 ADD DUP3 PUSH2 0x102C JUMP JUMPDEST POP POP JUMPDEST POP POP POP JUMP JUMPDEST PUSH0 DUP3 DUP3 SHR SWAP1 POP SWAP3 SWAP2 POP POP JUMP JUMPDEST PUSH0 PUSH2 0x10AF PUSH0 NOT DUP5 PUSH1 0x8 MUL PUSH2 0x1094 JUMP JUMPDEST NOT DUP1 DUP4 AND SWAP2 POP POP SWAP3 SWAP2 POP POP JUMP JUMPDEST PUSH0 PUSH2 0x10C7 DUP4 DUP4 PUSH2 0x10A0 JUMP JUMPDEST SWAP2 POP DUP3 PUSH1 0x2 MUL DUP3 OR SWAP1 POP SWAP3 SWAP2 POP POP JUMP JUMPDEST PUSH2 0x10E0 DUP3 PUSH2 0x6A4 JUMP JUMPDEST PUSH8 0xFFFFFFFFFFFFFFFF DUP2 GT ISZERO PUSH2 0x10F9 JUMPI PUSH2 0x10F8 PUSH2 0x767 JUMP JUMPDEST JUMPDEST PUSH2 0x1103 DUP3 SLOAD PUSH2 0xB32 JUMP JUMPDEST PUSH2 0x110E DUP3 DUP3 DUP6 PUSH2 0x104E JUMP JUMPDEST PUSH0 PUSH1 0x20 SWAP1 POP PUSH1 0x1F DUP4 GT PUSH1 0x1 DUP2 EQ PUSH2 0x113F JUMPI PUSH0 DUP5 ISZERO PUSH2 0x112D JUMPI DUP3 DUP8 ADD MLOAD SWAP1 POP JUMPDEST PUSH2 0x1137 DUP6 DUP3 PUSH2 0x10BC JUMP JUMPDEST DUP7 SSTORE POP PUSH2 0x119E JUMP JUMPDEST PUSH1 0x1F NOT DUP5 AND PUSH2 0x114D DUP7 PUSH2 0xB6C JUMP JUMPDEST PUSH0 JUMPDEST DUP3 DUP2 LT ISZERO PUSH2 0x1174 JUMPI DUP5 DUP10 ADD MLOAD DUP3 SSTORE PUSH1 0x1 DUP3 ADD SWAP2 POP PUSH1 0x20 DUP6 ADD SWAP5 POP PUSH1 0x20 DUP2 ADD SWAP1 POP PUSH2 0x114F JUMP JUMPDEST DUP7 DUP4 LT ISZERO PUSH2 0x1191 JUMPI DUP5 DUP10 ADD MLOAD PUSH2 0x118D PUSH1 0x1F DUP10 AND DUP3 PUSH2 0x10A0 JUMP JUMPDEST DUP4 SSTORE POP JUMPDEST PUSH1 0x1 PUSH1 0x2 DUP9 MUL ADD DUP9 SSTORE POP POP POP JUMPDEST POP POP POP POP POP POP JUMP INVALID LOG2 PUSH5 0x6970667358 0x22 SLT KECCAK256 EXP 0xF8 0xD1 DUP2 MSTORE8 0xC2 DUP9 0xFB 0xB8 CALLCODE 0xCF COINBASE PUSH16 0xB1E1364BA742FBA806219707F9272042 0xD2 SWAP5 PREVRANDAO PUSH5 0x736F6C6343 STOP ADDMOD OR STOP CALLER "
				},
				"gasEstimates": {
					"creation": {
						"codeDepositCost": "914400",
						"executionCost": "25211",
						"totalCost": "939611"
					},
					"external": {
						"Ganador()": "infinite",
						"Representar(string,uint256,string)": "infinite",
						"verCandidatos()": "infinite",
						"verResultados()": "infinite",
						"verVotos(string)": "infinite",
						"votar(string)": "infinite"
					}
				},
				"methodIdentifiers": {
					"Ganador()": "55911cc1",
					"Representar(string,uint256,string)": "f01ca6b7",
					"verCandidatos()": "caaa49a6",
					"verResultados()": "58c6414f",
					"verVotos(string)": "60df75d4",
					"votar(string)": "ce3fe641"
				}
			},
			"storageLayout": {
				"storage": [
					{
						"astId": 4,
						"contract": "VOTACION/votacion.sol:votacion",
						"label": "owner",
						"offset": 0,
						"slot": "0",
						"type": "t_address"
					},
					{
						"astId": 17,
						"contract": "VOTACION/votacion.sol:votacion",
						"label": "id_candidato",
						"offset": 0,
						"slot": "1",
						"type": "t_mapping(t_string_memory_ptr,t_bytes32)"
					},
					{
						"astId": 21,
						"contract": "VOTACION/votacion.sol:votacion",
						"label": "votos_candidato",
						"offset": 0,
						"slot": "2",
						"type": "t_mapping(t_string_memory_ptr,t_uint256)"
					},
					{
						"astId": 24,
						"contract": "VOTACION/votacion.sol:votacion",
						"label": "candidatos",
						"offset": 0,
						"slot": "3",
						"type": "t_array(t_string_storage)dyn_storage"
					},
					{
						"astId": 27,
						"contract": "VOTACION/votacion.sol:votacion",
						"label": "votantes",
						"offset": 0,
						"slot": "4",
						"type": "t_array(t_bytes32)dyn_storage"
					}
				],
				"types": {
					"t_address": {
						"encoding": "inplace",
						"label": "address",
						"numberOfBytes": "20"
					},
					"t_array(t_bytes32)dyn_storage": {
						"base": "t_bytes32",
						"encoding": "dynamic_array",
						"label": "bytes32[]",
						"numberOfBytes": "32"
					},
					"t_array(t_string_storage)dyn_storage": {
						"base": "t_string_storage",
						"encoding": "dynamic_array",
						"label": "string[]",
						"numberOfBytes": "32"
					},
					"t_bytes32": {
						"encoding": "inplace",
						"label": "bytes32",
						"numberOfBytes": "32"
					},
					"t_mapping(t_string_memory_ptr,t_bytes32)": {
						"encoding": "mapping",
						"key": "t_string_memory_ptr",
						"label": "mapping(string => bytes32)",
						"numberOfBytes": "32",
						"value": "t_bytes32"
					},
					"t_mapping(t_string_memory_ptr,t_uint256)": {
						"encoding": "mapping",
						"key": "t_string_memory_ptr",
						"label": "mapping(string => uint256)",
						"numberOfBytes": "32",
						"value": "t_uint256"
					},
					"t_string_memory_ptr": {
						"encoding": "bytes",
						"label": "string",
						"numberOfBytes": "32"
					},
					"t_string_storage": {
						"encoding": "bytes",
						"label": "string",
						"numberOfBytes": "32"
					},
					"t_uint256": {
						"encoding": "inplace",
						"label": "uint256",
						"numberOfBytes": "32"
					}
				}
			},
			"userdoc": {
				"kind": "user",
				"methods": {},
				"version": 1
			}
		}
	}
}