{
	"enums.sol": {
		"ejemplos_enums": {
			"abi": [
				{
					"inputs": [],
					"name": "apagar",
					"outputs": [],
					"stateMutability": "nonpayable",
					"type": "function"
				},
				{
					"inputs": [],
					"name": "encender",
					"outputs": [],
					"stateMutability": "nonpayable",
					"type": "function"
				},
				{
					"inputs": [],
					"name": "getEstad",
					"outputs": [
						{
							"internalType": "enum ejemplos_enums.estado",
							"name": "",
							"type": "uint8"
						}
					],
					"stateMutability": "view",
					"type": "function"
				}
			],
			"devdoc": {
				"kind": "dev",
				"methods": {},
				"version": 1
			},
			"evm": {
				"assembly": "    /* \"enums.sol\":58:411  contract ejemplos_enums{... */\n  mstore(0x40, 0x80)\n  callvalue\n  dup1\n  iszero\n  tag_1\n  jumpi\n  0x00\n  dup1\n  revert\ntag_1:\n  pop\n  dataSize(sub_0)\n  dup1\n  dataOffset(sub_0)\n  0x00\n  codecopy\n  0x00\n  return\nstop\n\nsub_0: assembly {\n        /* \"enums.sol\":58:411  contract ejemplos_enums{... */\n      mstore(0x40, 0x80)\n      callvalue\n      dup1\n      iszero\n      tag_1\n      jumpi\n      0x00\n      dup1\n      revert\n    tag_1:\n      pop\n      jumpi(tag_2, lt(calldatasize, 0x04))\n      shr(0xe0, calldataload(0x00))\n      dup1\n      0x52e711dc\n      eq\n      tag_3\n      jumpi\n      dup1\n      0x862b7129\n      eq\n      tag_4\n      jumpi\n      dup1\n      0xe9073c33\n      eq\n      tag_5\n      jumpi\n    tag_2:\n      0x00\n      dup1\n      revert\n        /* \"enums.sol\":328:404  function getEstad() public view returns(estado){... */\n    tag_3:\n      tag_6\n      tag_7\n      jump\t// in\n    tag_6:\n      mload(0x40)\n      tag_8\n      swap2\n      swap1\n      tag_9\n      jump\t// in\n    tag_8:\n      mload(0x40)\n      dup1\n      swap2\n      sub\n      swap1\n      return\n        /* \"enums.sol\":264:322  function apagar() public{... */\n    tag_4:\n      tag_10\n      tag_11\n      jump\t// in\n    tag_10:\n      stop\n        /* \"enums.sol\":194:254  function encender() public{... */\n    tag_5:\n      tag_12\n      tag_13\n      jump\t// in\n    tag_12:\n      stop\n        /* \"enums.sol\":328:404  function getEstad() public view returns(estado){... */\n    tag_7:\n        /* \"enums.sol\":368:374  estado */\n      0x00\n        /* \"enums.sol\":392:397  state */\n      dup1\n      0x00\n      swap1\n      sload\n      swap1\n      0x0100\n      exp\n      swap1\n      div\n      0xff\n      and\n        /* \"enums.sol\":385:397  return state */\n      swap1\n      pop\n        /* \"enums.sol\":328:404  function getEstad() public view returns(estado){... */\n      swap1\n      jump\t// out\n        /* \"enums.sol\":264:322  function apagar() public{... */\n    tag_11:\n        /* \"enums.sol\":313:314  1 */\n      0x01\n        /* \"enums.sol\":306:315  estado(1) */\n      dup1\n      dup2\n      gt\n      iszero\n      tag_16\n      jumpi\n      tag_17\n      tag_18\n      jump\t// in\n    tag_17:\n    tag_16:\n        /* \"enums.sol\":298:303  state */\n      0x00\n      dup1\n        /* \"enums.sol\":298:315  state = estado(1) */\n      0x0100\n      exp\n      dup2\n      sload\n      dup2\n      0xff\n      mul\n      not\n      and\n      swap1\n      dup4\n      0x01\n      dup2\n      gt\n      iszero\n      tag_19\n      jumpi\n      tag_20\n      tag_18\n      jump\t// in\n    tag_20:\n    tag_19:\n      mul\n      or\n      swap1\n      sstore\n      pop\n        /* \"enums.sol\":264:322  function apagar() public{... */\n      jump\t// out\n        /* \"enums.sol\":194:254  function encender() public{... */\n    tag_13:\n        /* \"enums.sol\":238:247  estado.ON */\n      0x00\n        /* \"enums.sol\":230:235  state */\n      dup1\n      0x00\n        /* \"enums.sol\":230:247  state = estado.ON */\n      0x0100\n      exp\n      dup2\n      sload\n      dup2\n      0xff\n      mul\n      not\n      and\n      swap1\n      dup4\n      0x01\n      dup2\n      gt\n      iszero\n      tag_22\n      jumpi\n      tag_23\n      tag_18\n      jump\t// in\n    tag_23:\n    tag_22:\n      mul\n      or\n      swap1\n      sstore\n      pop\n        /* \"enums.sol\":194:254  function encender() public{... */\n      jump\t// out\n        /* \"#utility.yul\":7:187   */\n    tag_18:\n        /* \"#utility.yul\":55:132   */\n      0x4e487b7100000000000000000000000000000000000000000000000000000000\n        /* \"#utility.yul\":52:53   */\n      0x00\n        /* \"#utility.yul\":45:133   */\n      mstore\n        /* \"#utility.yul\":152:156   */\n      0x21\n        /* \"#utility.yul\":149:150   */\n      0x04\n        /* \"#utility.yul\":142:157   */\n      mstore\n        /* \"#utility.yul\":176:180   */\n      0x24\n        /* \"#utility.yul\":173:174   */\n      0x00\n        /* \"#utility.yul\":166:181   */\n      revert\n        /* \"#utility.yul\":193:306   */\n    tag_24:\n        /* \"#utility.yul\":274:275   */\n      0x02\n        /* \"#utility.yul\":267:272   */\n      dup2\n        /* \"#utility.yul\":264:276   */\n      lt\n        /* \"#utility.yul\":254:300   */\n      tag_31\n      jumpi\n        /* \"#utility.yul\":280:298   */\n      tag_32\n      tag_18\n      jump\t// in\n    tag_32:\n        /* \"#utility.yul\":254:300   */\n    tag_31:\n        /* \"#utility.yul\":193:306   */\n      pop\n      jump\t// out\n        /* \"#utility.yul\":312:439   */\n    tag_25:\n        /* \"#utility.yul\":357:364   */\n      0x00\n        /* \"#utility.yul\":386:391   */\n      dup2\n        /* \"#utility.yul\":375:391   */\n      swap1\n      pop\n        /* \"#utility.yul\":392:433   */\n      tag_34\n        /* \"#utility.yul\":427:432   */\n      dup3\n        /* \"#utility.yul\":392:433   */\n      tag_24\n      jump\t// in\n    tag_34:\n        /* \"#utility.yul\":312:439   */\n      swap2\n      swap1\n      pop\n      jump\t// out\n        /* \"#utility.yul\":445:572   */\n    tag_26:\n        /* \"#utility.yul\":501:510   */\n      0x00\n        /* \"#utility.yul\":534:566   */\n      tag_36\n        /* \"#utility.yul\":560:565   */\n      dup3\n        /* \"#utility.yul\":534:566   */\n      tag_25\n      jump\t// in\n    tag_36:\n        /* \"#utility.yul\":521:566   */\n      swap1\n      pop\n        /* \"#utility.yul\":445:572   */\n      swap2\n      swap1\n      pop\n      jump\t// out\n        /* \"#utility.yul\":578:721   */\n    tag_27:\n        /* \"#utility.yul\":671:714   */\n      tag_38\n        /* \"#utility.yul\":708:713   */\n      dup2\n        /* \"#utility.yul\":671:714   */\n      tag_26\n      jump\t// in\n    tag_38:\n        /* \"#utility.yul\":666:669   */\n      dup3\n        /* \"#utility.yul\":659:715   */\n      mstore\n        /* \"#utility.yul\":578:721   */\n      pop\n      pop\n      jump\t// out\n        /* \"#utility.yul\":727:961   */\n    tag_9:\n        /* \"#utility.yul\":826:830   */\n      0x00\n        /* \"#utility.yul\":864:866   */\n      0x20\n        /* \"#utility.yul\":853:862   */\n      dup3\n        /* \"#utility.yul\":849:867   */\n      add\n        /* \"#utility.yul\":841:867   */\n      swap1\n      pop\n        /* \"#utility.yul\":877:954   */\n      tag_40\n        /* \"#utility.yul\":951:952   */\n      0x00\n        /* \"#utility.yul\":940:949   */\n      dup4\n        /* \"#utility.yul\":936:953   */\n      add\n        /* \"#utility.yul\":927:933   */\n      dup5\n        /* \"#utility.yul\":877:954   */\n      tag_27\n      jump\t// in\n    tag_40:\n        /* \"#utility.yul\":727:961   */\n      swap3\n      swap2\n      pop\n      pop\n      jump\t// out\n\n    auxdata: 0xa2646970667358221220d9286b32a75955bf26144d4a7ab6a3046a5c24d1a9044201a359c3c2a7714c6f64736f6c63430008170033\n}\n",
				"bytecode": {
					"linkReferences": {},
					"object": "608060405234801561000f575f80fd5b506101b18061001d5f395ff3fe608060405234801561000f575f80fd5b506004361061003f575f3560e01c806352e711dc14610043578063862b712914610061578063e9073c331461006b575b5f80fd5b61004b610075565b6040516100589190610162565b60405180910390f35b610069610089565b005b6100736100c5565b005b5f805f9054906101000a900460ff16905090565b60018081111561009c5761009b6100ef565b5b5f806101000a81548160ff021916908360018111156100be576100bd6100ef565b5b0217905550565b5f805f6101000a81548160ff021916908360018111156100e8576100e76100ef565b5b0217905550565b7f4e487b71000000000000000000000000000000000000000000000000000000005f52602160045260245ffd5b6002811061012d5761012c6100ef565b5b50565b5f81905061013d8261011c565b919050565b5f61014c82610130565b9050919050565b61015c81610142565b82525050565b5f6020820190506101755f830184610153565b9291505056fea2646970667358221220d9286b32a75955bf26144d4a7ab6a3046a5c24d1a9044201a359c3c2a7714c6f64736f6c63430008170033",
					"opcodes": "PUSH1 0x80 PUSH1 0x40 MSTORE CALLVALUE DUP1 ISZERO PUSH2 0xF JUMPI PUSH0 DUP1 REVERT JUMPDEST POP PUSH2 0x1B1 DUP1 PUSH2 0x1D PUSH0 CODECOPY PUSH0 RETURN INVALID PUSH1 0x80 PUSH1 0x40 MSTORE CALLVALUE DUP1 ISZERO PUSH2 0xF JUMPI PUSH0 DUP1 REVERT JUMPDEST POP PUSH1 0x4 CALLDATASIZE LT PUSH2 0x3F JUMPI PUSH0 CALLDATALOAD PUSH1 0xE0 SHR DUP1 PUSH4 0x52E711DC EQ PUSH2 0x43 JUMPI DUP1 PUSH4 0x862B7129 EQ PUSH2 0x61 JUMPI DUP1 PUSH4 0xE9073C33 EQ PUSH2 0x6B JUMPI JUMPDEST PUSH0 DUP1 REVERT JUMPDEST PUSH2 0x4B PUSH2 0x75 JUMP JUMPDEST PUSH1 0x40 MLOAD PUSH2 0x58 SWAP2 SWAP1 PUSH2 0x162 JUMP JUMPDEST PUSH1 0x40 MLOAD DUP1 SWAP2 SUB SWAP1 RETURN JUMPDEST PUSH2 0x69 PUSH2 0x89 JUMP JUMPDEST STOP JUMPDEST PUSH2 0x73 PUSH2 0xC5 JUMP JUMPDEST STOP JUMPDEST PUSH0 DUP1 PUSH0 SWAP1 SLOAD SWAP1 PUSH2 0x100 EXP SWAP1 DIV PUSH1 0xFF AND SWAP1 POP SWAP1 JUMP JUMPDEST PUSH1 0x1 DUP1 DUP2 GT ISZERO PUSH2 0x9C JUMPI PUSH2 0x9B PUSH2 0xEF JUMP JUMPDEST JUMPDEST PUSH0 DUP1 PUSH2 0x100 EXP DUP2 SLOAD DUP2 PUSH1 0xFF MUL NOT AND SWAP1 DUP4 PUSH1 0x1 DUP2 GT ISZERO PUSH2 0xBE JUMPI PUSH2 0xBD PUSH2 0xEF JUMP JUMPDEST JUMPDEST MUL OR SWAP1 SSTORE POP JUMP JUMPDEST PUSH0 DUP1 PUSH0 PUSH2 0x100 EXP DUP2 SLOAD DUP2 PUSH1 0xFF MUL NOT AND SWAP1 DUP4 PUSH1 0x1 DUP2 GT ISZERO PUSH2 0xE8 JUMPI PUSH2 0xE7 PUSH2 0xEF JUMP JUMPDEST JUMPDEST MUL OR SWAP1 SSTORE POP JUMP JUMPDEST PUSH32 0x4E487B7100000000000000000000000000000000000000000000000000000000 PUSH0 MSTORE PUSH1 0x21 PUSH1 0x4 MSTORE PUSH1 0x24 PUSH0 REVERT JUMPDEST PUSH1 0x2 DUP2 LT PUSH2 0x12D JUMPI PUSH2 0x12C PUSH2 0xEF JUMP JUMPDEST JUMPDEST POP JUMP JUMPDEST PUSH0 DUP2 SWAP1 POP PUSH2 0x13D DUP3 PUSH2 0x11C JUMP JUMPDEST SWAP2 SWAP1 POP JUMP JUMPDEST PUSH0 PUSH2 0x14C DUP3 PUSH2 0x130 JUMP JUMPDEST SWAP1 POP SWAP2 SWAP1 POP JUMP JUMPDEST PUSH2 0x15C DUP2 PUSH2 0x142 JUMP JUMPDEST DUP3 MSTORE POP POP JUMP JUMPDEST PUSH0 PUSH1 0x20 DUP3 ADD SWAP1 POP PUSH2 0x175 PUSH0 DUP4 ADD DUP5 PUSH2 0x153 JUMP JUMPDEST SWAP3 SWAP2 POP POP JUMP INVALID LOG2 PUSH5 0x6970667358 0x22 SLT KECCAK256 0xD9 0x28 PUSH12 0x32A75955BF26144D4A7AB6A3 DIV PUSH11 0x5C24D1A9044201A359C3C2 0xA7 PUSH18 0x4C6F64736F6C634300081700330000000000 "
				},
				"gasEstimates": {
					"creation": {
						"codeDepositCost": "86600",
						"executionCost": "133",
						"totalCost": "86733"
					},
					"external": {
						"apagar()": "24455",
						"encender()": "24450",
						"getEstad()": "2539"
					}
				},
				"methodIdentifiers": {
					"apagar()": "862b7129",
					"encender()": "e9073c33",
					"getEstad()": "52e711dc"
				}
			},
			"storageLayout": {
				"storage": [
					{
						"astId": 8,
						"contract": "enums.sol:ejemplos_enums",
						"label": "state",
						"offset": 0,
						"slot": "0",
						"type": "t_enum(estado)5"
					}
				],
				"types": {
					"t_enum(estado)5": {
						"encoding": "inplace",
						"label": "enum ejemplos_enums.estado",
						"numberOfBytes": "1"
					}
				}
			},
			"userdoc": {
				"kind": "user",
				"methods": {},
				"version": 1
			}
		}
	}
}