{
	"Disney/Disney.sol": {
		"Disney": {
			"abi": [
				{
					"inputs": [],
					"stateMutability": "nonpayable",
					"type": "constructor"
				},
				{
					"anonymous": false,
					"inputs": [
						{
							"indexed": false,
							"internalType": "string",
							"name": "",
							"type": "string"
						}
					],
					"name": "baja_atraccion",
					"type": "event"
				},
				{
					"anonymous": false,
					"inputs": [
						{
							"indexed": false,
							"internalType": "string",
							"name": "",
							"type": "string"
						}
					],
					"name": "disfruta_atraccion",
					"type": "event"
				},
				{
					"anonymous": false,
					"inputs": [
						{
							"indexed": false,
							"internalType": "string",
							"name": "",
							"type": "string"
						}
					],
					"name": "nueva_atraccion",
					"type": "event"
				},
				{
					"inputs": [
						{
							"internalType": "address",
							"name": "",
							"type": "address"
						}
					],
					"name": "Clientes",
					"outputs": [
						{
							"internalType": "uint256",
							"name": "tokens_comprados",
							"type": "uint256"
						}
					],
					"stateMutability": "view",
					"type": "function"
				},
				{
					"inputs": [
						{
							"internalType": "uint256",
							"name": "_numTokens",
							"type": "uint256"
						}
					],
					"name": "CompraTokens",
					"outputs": [],
					"stateMutability": "payable",
					"type": "function"
				},
				{
					"inputs": [
						{
							"internalType": "uint256",
							"name": "_numTokens",
							"type": "uint256"
						}
					],
					"name": "GeneraTokens",
					"outputs": [],
					"stateMutability": "nonpayable",
					"type": "function"
				},
				{
					"inputs": [
						{
							"internalType": "string",
							"name": "",
							"type": "string"
						}
					],
					"name": "MappingAtracciones",
					"outputs": [
						{
							"internalType": "string",
							"name": "nombre_atraccion",
							"type": "string"
						},
						{
							"internalType": "uint256",
							"name": "precio_atraccion",
							"type": "uint256"
						},
						{
							"internalType": "bool",
							"name": "estado_atraccion",
							"type": "bool"
						}
					],
					"stateMutability": "view",
					"type": "function"
				},
				{
					"inputs": [],
					"name": "MisTokens",
					"outputs": [
						{
							"internalType": "uint256",
							"name": "",
							"type": "uint256"
						}
					],
					"stateMutability": "view",
					"type": "function"
				},
				{
					"inputs": [],
					"name": "balanceOf",
					"outputs": [
						{
							"internalType": "uint256",
							"name": "",
							"type": "uint256"
						}
					],
					"stateMutability": "view",
					"type": "function"
				},
				{
					"inputs": [],
					"name": "owner",
					"outputs": [
						{
							"internalType": "address payable",
							"name": "",
							"type": "address"
						}
					],
					"stateMutability": "view",
					"type": "function"
				}
			],
			"devdoc": {
				"kind": "dev",
				"methods": {},
				"version": 1
			},
			"evm": {
				"assembly": "    /* \"Disney/Disney.sol\":113:2841  contract Disney{... */\n  mstore(0x40, 0x80)\n    /* \"Disney/Disney.sol\":281:379  constructor () {... */\n  callvalue\n  dup1\n  iszero\n  tag_1\n  jumpi\n  0x00\n  dup1\n  revert\ntag_1:\n  pop\n    /* \"Disney/Disney.sol\":329:334  10000 */\n  0x2710\n    /* \"Disney/Disney.sol\":314:335  new ERC20Basic(10000) */\n  mload(0x40)\n  tag_4\n  swap1\n  tag_5\n  jump\t// in\ntag_4:\n  tag_6\n  swap2\n  swap1\n  tag_7\n  jump\t// in\ntag_6:\n  mload(0x40)\n  dup1\n  swap2\n  sub\n  swap1\n  0x00\n  create\n  dup1\n  iszero\n  dup1\n  iszero\n  tag_8\n  jumpi\n  returndatasize\n  0x00\n  dup1\n  returndatacopy\n  revert(0x00, returndatasize)\ntag_8:\n  pop\n    /* \"Disney/Disney.sol\":306:311  token */\n  0x00\n  dup1\n    /* \"Disney/Disney.sol\":306:335  token = new ERC20Basic(10000) */\n  0x0100\n  exp\n  dup2\n  sload\n  dup2\n  0xffffffffffffffffffffffffffffffffffffffff\n  mul\n  not\n  and\n  swap1\n  dup4\n  0xffffffffffffffffffffffffffffffffffffffff\n  and\n  mul\n  or\n  swap1\n  sstore\n  pop\n    /* \"Disney/Disney.sol\":361:371  msg.sender */\n  caller\n    /* \"Disney/Disney.sol\":345:350  owner */\n  0x01\n  0x00\n    /* \"Disney/Disney.sol\":345:372  owner = payable(msg.sender) */\n  0x0100\n  exp\n  dup2\n  sload\n  dup2\n  0xffffffffffffffffffffffffffffffffffffffff\n  mul\n  not\n  and\n  swap1\n  dup4\n  0xffffffffffffffffffffffffffffffffffffffff\n  and\n  mul\n  or\n  swap1\n  sstore\n  pop\n    /* \"Disney/Disney.sol\":113:2841  contract Disney{... */\n  jump(tag_9)\ntag_5:\n  dataSize(sub_1)\n  dup1\n  dataOffset(sub_1)\n  dup4\n  codecopy\n  add\n  swap1\n  jump\t// out\n    /* \"#utility.yul\":7:96   */\ntag_10:\n    /* \"#utility.yul\":56:63   */\n  0x00\n    /* \"#utility.yul\":85:90   */\n  dup2\n    /* \"#utility.yul\":74:90   */\n  swap1\n  pop\n    /* \"#utility.yul\":7:96   */\n  swap2\n  swap1\n  pop\n  jump\t// out\n    /* \"#utility.yul\":102:179   */\ntag_11:\n    /* \"#utility.yul\":139:146   */\n  0x00\n    /* \"#utility.yul\":168:173   */\n  dup2\n    /* \"#utility.yul\":157:173   */\n  swap1\n  pop\n    /* \"#utility.yul\":102:179   */\n  swap2\n  swap1\n  pop\n  jump\t// out\n    /* \"#utility.yul\":185:245   */\ntag_12:\n    /* \"#utility.yul\":213:216   */\n  0x00\n    /* \"#utility.yul\":234:239   */\n  dup2\n    /* \"#utility.yul\":227:239   */\n  swap1\n  pop\n    /* \"#utility.yul\":185:245   */\n  swap2\n  swap1\n  pop\n  jump\t// out\n    /* \"#utility.yul\":251:417   */\ntag_13:\n    /* \"#utility.yul\":313:322   */\n  0x00\n    /* \"#utility.yul\":346:411   */\n  tag_20\n    /* \"#utility.yul\":364:410   */\n  tag_21\n    /* \"#utility.yul\":373:409   */\n  tag_22\n    /* \"#utility.yul\":403:408   */\n  dup5\n    /* \"#utility.yul\":373:409   */\n  tag_10\n  jump\t// in\ntag_22:\n    /* \"#utility.yul\":364:410   */\n  tag_12\n  jump\t// in\ntag_21:\n    /* \"#utility.yul\":346:411   */\n  tag_11\n  jump\t// in\ntag_20:\n    /* \"#utility.yul\":333:411   */\n  swap1\n  pop\n    /* \"#utility.yul\":251:417   */\n  swap2\n  swap1\n  pop\n  jump\t// out\n    /* \"#utility.yul\":423:578   */\ntag_14:\n    /* \"#utility.yul\":522:571   */\n  tag_24\n    /* \"#utility.yul\":565:570   */\n  dup2\n    /* \"#utility.yul\":522:571   */\n  tag_13\n  jump\t// in\ntag_24:\n    /* \"#utility.yul\":517:520   */\n  dup3\n    /* \"#utility.yul\":510:572   */\n  mstore\n    /* \"#utility.yul\":423:578   */\n  pop\n  pop\n  jump\t// out\n    /* \"#utility.yul\":584:830   */\ntag_7:\n    /* \"#utility.yul\":689:693   */\n  0x00\n    /* \"#utility.yul\":727:729   */\n  0x20\n    /* \"#utility.yul\":716:725   */\n  dup3\n    /* \"#utility.yul\":712:730   */\n  add\n    /* \"#utility.yul\":704:730   */\n  swap1\n  pop\n    /* \"#utility.yul\":740:823   */\n  tag_26\n    /* \"#utility.yul\":820:821   */\n  0x00\n    /* \"#utility.yul\":809:818   */\n  dup4\n    /* \"#utility.yul\":805:822   */\n  add\n    /* \"#utility.yul\":796:802   */\n  dup5\n    /* \"#utility.yul\":740:823   */\n  tag_14\n  jump\t// in\ntag_26:\n    /* \"#utility.yul\":584:830   */\n  swap3\n  swap2\n  pop\n  pop\n  jump\t// out\n    /* \"Disney/Disney.sol\":113:2841  contract Disney{... */\ntag_9:\n  dataSize(sub_0)\n  dup1\n  dataOffset(sub_0)\n  0x00\n  codecopy\n  0x00\n  return\nstop\n\nsub_0: assembly {\n        /* \"Disney/Disney.sol\":113:2841  contract Disney{... */\n      mstore(0x40, 0x80)\n      jumpi(tag_1, lt(calldatasize, 0x04))\n      shr(0xe0, calldataload(0x00))\n      dup1\n      0xce8f2f38\n      gt\n      tag_9\n      jumpi\n      dup1\n      0xce8f2f38\n      eq\n      tag_5\n      jumpi\n      dup1\n      0xd00df296\n      eq\n      tag_6\n      jumpi\n      dup1\n      0xe33f34a0\n      eq\n      tag_7\n      jumpi\n      dup1\n      0xf7774091\n      eq\n      tag_8\n      jumpi\n      jump(tag_1)\n    tag_9:\n      dup1\n      0x1246f6e2\n      eq\n      tag_2\n      jumpi\n      dup1\n      0x722713f7\n      eq\n      tag_3\n      jumpi\n      dup1\n      0x8da5cb5b\n      eq\n      tag_4\n      jumpi\n    tag_1:\n      0x00\n      dup1\n      revert\n        /* \"Disney/Disney.sol\":1973:2095  function GeneraTokens(uint _numTokens) public Unicamente(msg.sender){... */\n    tag_2:\n      callvalue\n      dup1\n      iszero\n      tag_10\n      jumpi\n      0x00\n      dup1\n      revert\n    tag_10:\n      pop\n      tag_11\n      0x04\n      dup1\n      calldatasize\n      sub\n      dup2\n      add\n      swap1\n      tag_12\n      swap2\n      swap1\n      tag_13\n      jump\t// in\n    tag_12:\n      tag_14\n      jump\t// in\n    tag_11:\n      stop\n        /* \"Disney/Disney.sol\":1664:1764  function balanceOf() public view returns(uint){... */\n    tag_3:\n      callvalue\n      dup1\n      iszero\n      tag_15\n      jumpi\n      0x00\n      dup1\n      revert\n    tag_15:\n      pop\n      tag_16\n      tag_17\n      jump\t// in\n    tag_16:\n      mload(0x40)\n      tag_18\n      swap2\n      swap1\n      tag_19\n      jump\t// in\n    tag_18:\n      mload(0x40)\n      dup1\n      swap2\n      sub\n      swap1\n      return\n        /* \"Disney/Disney.sol\":228:256  address payable public owner */\n    tag_4:\n      callvalue\n      dup1\n      iszero\n      tag_20\n      jumpi\n      0x00\n      dup1\n      revert\n    tag_20:\n      pop\n      tag_21\n      tag_22\n      jump\t// in\n    tag_21:\n      mload(0x40)\n      tag_23\n      swap2\n      swap1\n      tag_24\n      jump\t// in\n    tag_23:\n      mload(0x40)\n      dup1\n      swap2\n      sub\n      swap1\n      return\n        /* \"Disney/Disney.sol\":569:610  mapping (address=>cliente)public Clientes */\n    tag_5:\n      callvalue\n      dup1\n      iszero\n      tag_25\n      jumpi\n      0x00\n      dup1\n      revert\n    tag_25:\n      pop\n      tag_26\n      0x04\n      dup1\n      calldatasize\n      sub\n      dup2\n      add\n      swap1\n      tag_27\n      swap2\n      swap1\n      tag_28\n      jump\t// in\n    tag_27:\n      tag_29\n      jump\t// in\n    tag_26:\n      mload(0x40)\n      tag_30\n      swap2\n      swap1\n      tag_19\n      jump\t// in\n    tag_30:\n      mload(0x40)\n      dup1\n      swap2\n      sub\n      swap1\n      return\n        /* \"Disney/Disney.sol\":2609:2660  mapping(string=>atraccion)public MappingAtracciones */\n    tag_6:\n      callvalue\n      dup1\n      iszero\n      tag_31\n      jumpi\n      0x00\n      dup1\n      revert\n    tag_31:\n      pop\n      tag_32\n      0x04\n      dup1\n      calldatasize\n      sub\n      dup2\n      add\n      swap1\n      tag_33\n      swap2\n      swap1\n      tag_34\n      jump\t// in\n    tag_33:\n      tag_35\n      jump\t// in\n    tag_32:\n      mload(0x40)\n      tag_36\n      swap4\n      swap3\n      swap2\n      swap1\n      tag_37\n      jump\t// in\n    tag_36:\n      mload(0x40)\n      dup1\n      swap2\n      sub\n      swap1\n      return\n        /* \"Disney/Disney.sol\":1831:1929  function MisTokens() public view returns (uint){... */\n    tag_7:\n      callvalue\n      dup1\n      iszero\n      tag_38\n      jumpi\n      0x00\n      dup1\n      revert\n    tag_38:\n      pop\n      tag_39\n      tag_40\n      jump\t// in\n    tag_39:\n      mload(0x40)\n      tag_41\n      swap2\n      swap1\n      tag_19\n      jump\t// in\n    tag_41:\n      mload(0x40)\n      dup1\n      swap2\n      sub\n      swap1\n      return\n        /* \"Disney/Disney.sol\":813:1614  function CompraTokens(uint _numTokens) public payable{... */\n    tag_8:\n      tag_42\n      0x04\n      dup1\n      calldatasize\n      sub\n      dup2\n      add\n      swap1\n      tag_43\n      swap2\n      swap1\n      tag_13\n      jump\t// in\n    tag_43:\n      tag_44\n      jump\t// in\n    tag_42:\n      stop\n        /* \"Disney/Disney.sol\":1973:2095  function GeneraTokens(uint _numTokens) public Unicamente(msg.sender){... */\n    tag_14:\n        /* \"Disney/Disney.sol\":2030:2040  msg.sender */\n      caller\n        /* \"Disney/Disney.sol\":2240:2245  owner */\n      0x01\n      0x00\n      swap1\n      sload\n      swap1\n      0x0100\n      exp\n      swap1\n      div\n      0xffffffffffffffffffffffffffffffffffffffff\n      and\n        /* \"Disney/Disney.sol\":2228:2245  _direccion==owner */\n      0xffffffffffffffffffffffffffffffffffffffff\n      and\n        /* \"Disney/Disney.sol\":2228:2238  _direccion */\n      dup2\n        /* \"Disney/Disney.sol\":2228:2245  _direccion==owner */\n      0xffffffffffffffffffffffffffffffffffffffff\n      and\n      eq\n        /* \"Disney/Disney.sol\":2220:2273  require(_direccion==owner,\"Sin permisos de ejcucion\") */\n      tag_46\n      jumpi\n      mload(0x40)\n      0x08c379a000000000000000000000000000000000000000000000000000000000\n      dup2\n      mstore\n      0x04\n      add\n      tag_47\n      swap1\n      tag_48\n      jump\t// in\n    tag_47:\n      mload(0x40)\n      dup1\n      swap2\n      sub\n      swap1\n      revert\n    tag_46:\n        /* \"Disney/Disney.sol\":2051:2056  token */\n      0x00\n      dup1\n      sload\n      swap1\n      0x0100\n      exp\n      swap1\n      div\n      0xffffffffffffffffffffffffffffffffffffffff\n      and\n        /* \"Disney/Disney.sol\":2051:2076  token.increaseTotalSupple */\n      0xffffffffffffffffffffffffffffffffffffffff\n      and\n      0x66e52de5\n        /* \"Disney/Disney.sol\":2077:2087  _numTokens */\n      dup4\n        /* \"Disney/Disney.sol\":2051:2088  token.increaseTotalSupple(_numTokens) */\n      mload(0x40)\n      dup3\n      0xffffffff\n      and\n      0xe0\n      shl\n      dup2\n      mstore\n      0x04\n      add\n      tag_50\n      swap2\n      swap1\n      tag_19\n      jump\t// in\n    tag_50:\n      0x00\n      mload(0x40)\n      dup1\n      dup4\n      sub\n      dup2\n      0x00\n      dup8\n      dup1\n      extcodesize\n      iszero\n      dup1\n      iszero\n      tag_51\n      jumpi\n      0x00\n      dup1\n      revert\n    tag_51:\n      pop\n      gas\n      call\n      iszero\n      dup1\n      iszero\n      tag_53\n      jumpi\n      returndatasize\n      0x00\n      dup1\n      returndatacopy\n      revert(0x00, returndatasize)\n    tag_53:\n      pop\n      pop\n      pop\n      pop\n        /* \"Disney/Disney.sol\":1973:2095  function GeneraTokens(uint _numTokens) public Unicamente(msg.sender){... */\n      pop\n      pop\n      jump\t// out\n        /* \"Disney/Disney.sol\":1664:1764  function balanceOf() public view returns(uint){... */\n    tag_17:\n        /* \"Disney/Disney.sol\":1705:1709  uint */\n      0x00\n        /* \"Disney/Disney.sol\":1727:1732  token */\n      dup1\n      0x00\n      swap1\n      sload\n      swap1\n      0x0100\n      exp\n      swap1\n      div\n      0xffffffffffffffffffffffffffffffffffffffff\n      and\n        /* \"Disney/Disney.sol\":1727:1742  token.balanceOf */\n      0xffffffffffffffffffffffffffffffffffffffff\n      and\n      0x70a08231\n        /* \"Disney/Disney.sol\":1751:1755  this */\n      address\n        /* \"Disney/Disney.sol\":1727:1757  token.balanceOf(address(this)) */\n      mload(0x40)\n      dup3\n      0xffffffff\n      and\n      0xe0\n      shl\n      dup2\n      mstore\n      0x04\n      add\n      tag_55\n      swap2\n      swap1\n      tag_56\n      jump\t// in\n    tag_55:\n      0x20\n      mload(0x40)\n      dup1\n      dup4\n      sub\n      dup2\n      dup7\n      gas\n      staticcall\n      iszero\n      dup1\n      iszero\n      tag_58\n      jumpi\n      returndatasize\n      0x00\n      dup1\n      returndatacopy\n      revert(0x00, returndatasize)\n    tag_58:\n      pop\n      pop\n      pop\n      pop\n      mload(0x40)\n      returndatasize\n      not(0x1f)\n      0x1f\n      dup3\n      add\n      and\n      dup3\n      add\n      dup1\n      0x40\n      mstore\n      pop\n      dup2\n      add\n      swap1\n      tag_59\n      swap2\n      swap1\n      tag_60\n      jump\t// in\n    tag_59:\n        /* \"Disney/Disney.sol\":1720:1757  return token.balanceOf(address(this)) */\n      swap1\n      pop\n        /* \"Disney/Disney.sol\":1664:1764  function balanceOf() public view returns(uint){... */\n      swap1\n      jump\t// out\n        /* \"Disney/Disney.sol\":228:256  address payable public owner */\n    tag_22:\n      0x01\n      0x00\n      swap1\n      sload\n      swap1\n      0x0100\n      exp\n      swap1\n      div\n      0xffffffffffffffffffffffffffffffffffffffff\n      and\n      dup2\n      jump\t// out\n        /* \"Disney/Disney.sol\":569:610  mapping (address=>cliente)public Clientes */\n    tag_29:\n      mstore(0x20, 0x02)\n      dup1\n      0x00\n      mstore\n      keccak256(0x00, 0x40)\n      0x00\n      swap2\n      pop\n      swap1\n      pop\n      dup1\n      0x00\n      add\n      sload\n      swap1\n      pop\n      dup2\n      jump\t// out\n        /* \"Disney/Disney.sol\":2609:2660  mapping(string=>atraccion)public MappingAtracciones */\n    tag_35:\n      0x03\n      dup2\n      dup1\n      mload\n      0x20\n      dup2\n      add\n      dup3\n      add\n      dup1\n      mload\n      dup5\n      dup3\n      mstore\n      0x20\n      dup4\n      add\n      0x20\n      dup6\n      add\n      keccak256\n      dup2\n      dup4\n      mstore\n      dup1\n      swap6\n      pop\n      pop\n      pop\n      pop\n      pop\n      pop\n      0x00\n      swap2\n      pop\n      swap1\n      pop\n      dup1\n      0x00\n      add\n      dup1\n      sload\n      tag_61\n      swap1\n      tag_62\n      jump\t// in\n    tag_61:\n      dup1\n      0x1f\n      add\n      0x20\n      dup1\n      swap2\n      div\n      mul\n      0x20\n      add\n      mload(0x40)\n      swap1\n      dup2\n      add\n      0x40\n      mstore\n      dup1\n      swap3\n      swap2\n      swap1\n      dup2\n      dup2\n      mstore\n      0x20\n      add\n      dup3\n      dup1\n      sload\n      tag_63\n      swap1\n      tag_62\n      jump\t// in\n    tag_63:\n      dup1\n      iszero\n      tag_64\n      jumpi\n      dup1\n      0x1f\n      lt\n      tag_65\n      jumpi\n      0x0100\n      dup1\n      dup4\n      sload\n      div\n      mul\n      dup4\n      mstore\n      swap2\n      0x20\n      add\n      swap2\n      jump(tag_64)\n    tag_65:\n      dup3\n      add\n      swap2\n      swap1\n      0x00\n      mstore\n      keccak256(0x00, 0x20)\n      swap1\n    tag_66:\n      dup2\n      sload\n      dup2\n      mstore\n      swap1\n      0x01\n      add\n      swap1\n      0x20\n      add\n      dup1\n      dup4\n      gt\n      tag_66\n      jumpi\n      dup3\n      swap1\n      sub\n      0x1f\n      and\n      dup3\n      add\n      swap2\n    tag_64:\n      pop\n      pop\n      pop\n      pop\n      pop\n      swap1\n      dup1\n      0x01\n      add\n      sload\n      swap1\n      dup1\n      0x02\n      add\n      0x00\n      swap1\n      sload\n      swap1\n      0x0100\n      exp\n      swap1\n      div\n      0xff\n      and\n      swap1\n      pop\n      dup4\n      jump\t// out\n        /* \"Disney/Disney.sol\":1831:1929  function MisTokens() public view returns (uint){... */\n    tag_40:\n        /* \"Disney/Disney.sol\":1873:1877  uint */\n      0x00\n        /* \"Disney/Disney.sol\":1895:1900  token */\n      dup1\n      0x00\n      swap1\n      sload\n      swap1\n      0x0100\n      exp\n      swap1\n      div\n      0xffffffffffffffffffffffffffffffffffffffff\n      and\n        /* \"Disney/Disney.sol\":1895:1910  token.balanceOf */\n      0xffffffffffffffffffffffffffffffffffffffff\n      and\n      0x70a08231\n        /* \"Disney/Disney.sol\":1911:1921  msg.sender */\n      caller\n        /* \"Disney/Disney.sol\":1895:1922  token.balanceOf(msg.sender) */\n      mload(0x40)\n      dup3\n      0xffffffff\n      and\n      0xe0\n      shl\n      dup2\n      mstore\n      0x04\n      add\n      tag_68\n      swap2\n      swap1\n      tag_56\n      jump\t// in\n    tag_68:\n      0x20\n      mload(0x40)\n      dup1\n      dup4\n      sub\n      dup2\n      dup7\n      gas\n      staticcall\n      iszero\n      dup1\n      iszero\n      tag_70\n      jumpi\n      returndatasize\n      0x00\n      dup1\n      returndatacopy\n      revert(0x00, returndatasize)\n    tag_70:\n      pop\n      pop\n      pop\n      pop\n      mload(0x40)\n      returndatasize\n      not(0x1f)\n      0x1f\n      dup3\n      add\n      and\n      dup3\n      add\n      dup1\n      0x40\n      mstore\n      pop\n      dup2\n      add\n      swap1\n      tag_71\n      swap2\n      swap1\n      tag_60\n      jump\t// in\n    tag_71:\n        /* \"Disney/Disney.sol\":1888:1922  return token.balanceOf(msg.sender) */\n      swap1\n      pop\n        /* \"Disney/Disney.sol\":1831:1929  function MisTokens() public view returns (uint){... */\n      swap1\n      jump\t// out\n        /* \"Disney/Disney.sol\":813:1614  function CompraTokens(uint _numTokens) public payable{... */\n    tag_44:\n        /* \"Disney/Disney.sol\":876:886  uint coste */\n      0x00\n        /* \"Disney/Disney.sol\":889:913  PrecioTokens(_numTokens) */\n      tag_73\n        /* \"Disney/Disney.sol\":902:912  _numTokens */\n      dup3\n        /* \"Disney/Disney.sol\":889:901  PrecioTokens */\n      tag_74\n        /* \"Disney/Disney.sol\":889:913  PrecioTokens(_numTokens) */\n      jump\t// in\n    tag_73:\n        /* \"Disney/Disney.sol\":876:913  uint coste = PrecioTokens(_numTokens) */\n      swap1\n      pop\n        /* \"Disney/Disney.sol\":1010:1015  coste */\n      dup1\n        /* \"Disney/Disney.sol\":999:1008  msg.value */\n      callvalue\n        /* \"Disney/Disney.sol\":999:1015  msg.value>=coste */\n      lt\n      iszero\n        /* \"Disney/Disney.sol\":990:1061  require (msg.value>=coste, \"Compra menos Tokens o paga con mas ethers\") */\n      tag_75\n      jumpi\n      mload(0x40)\n      0x08c379a000000000000000000000000000000000000000000000000000000000\n      dup2\n      mstore\n      0x04\n      add\n      tag_76\n      swap1\n      tag_77\n      jump\t// in\n    tag_76:\n      mload(0x40)\n      dup1\n      swap2\n      sub\n      swap1\n      revert\n    tag_75:\n        /* \"Disney/Disney.sol\":1118:1134  uint returnValue */\n      0x00\n        /* \"Disney/Disney.sol\":1149:1154  coste */\n      dup2\n        /* \"Disney/Disney.sol\":1137:1146  msg.value */\n      callvalue\n        /* \"Disney/Disney.sol\":1137:1154  msg.value - coste */\n      tag_78\n      swap2\n      swap1\n      tag_79\n      jump\t// in\n    tag_78:\n        /* \"Disney/Disney.sol\":1118:1154  uint returnValue = msg.value - coste */\n      swap1\n      pop\n        /* \"Disney/Disney.sol\":1220:1230  msg.sender */\n      caller\n        /* \"Disney/Disney.sol\":1212:1240  payable(msg.sender).transfer */\n      0xffffffffffffffffffffffffffffffffffffffff\n      and\n        /* \"Disney/Disney.sol\":1212:1253  payable(msg.sender).transfer(returnValue) */\n      0x08fc\n        /* \"Disney/Disney.sol\":1241:1252  returnValue */\n      dup3\n        /* \"Disney/Disney.sol\":1212:1253  payable(msg.sender).transfer(returnValue) */\n      swap1\n      dup2\n      iszero\n      mul\n      swap1\n      mload(0x40)\n      0x00\n      mload(0x40)\n      dup1\n      dup4\n      sub\n      dup2\n      dup6\n      dup9\n      dup9\n      call\n      swap4\n      pop\n      pop\n      pop\n      pop\n      iszero\n      dup1\n      iszero\n      tag_81\n      jumpi\n      returndatasize\n      0x00\n      dup1\n      returndatacopy\n      revert(0x00, returndatasize)\n    tag_81:\n      pop\n        /* \"Disney/Disney.sol\":1312:1324  uint Balance */\n      0x00\n        /* \"Disney/Disney.sol\":1327:1338  balanceOf() */\n      tag_82\n        /* \"Disney/Disney.sol\":1327:1336  balanceOf */\n      tag_17\n        /* \"Disney/Disney.sol\":1327:1338  balanceOf() */\n      jump\t// in\n    tag_82:\n        /* \"Disney/Disney.sol\":1312:1338  uint Balance = balanceOf() */\n      swap1\n      pop\n        /* \"Disney/Disney.sol\":1370:1377  Balance */\n      dup1\n        /* \"Disney/Disney.sol\":1356:1366  _numTokens */\n      dup5\n        /* \"Disney/Disney.sol\":1356:1377  _numTokens <= Balance */\n      gt\n      iszero\n        /* \"Disney/Disney.sol\":1348:1414  require(_numTokens <= Balance, \"Compra un numero menor de tokens\") */\n      tag_83\n      jumpi\n      mload(0x40)\n      0x08c379a000000000000000000000000000000000000000000000000000000000\n      dup2\n      mstore\n      0x04\n      add\n      tag_84\n      swap1\n      tag_85\n      jump\t// in\n    tag_84:\n      mload(0x40)\n      dup1\n      swap2\n      sub\n      swap1\n      revert\n    tag_83:\n        /* \"Disney/Disney.sol\":1469:1474  token */\n      0x00\n      dup1\n      sload\n      swap1\n      0x0100\n      exp\n      swap1\n      div\n      0xffffffffffffffffffffffffffffffffffffffff\n      and\n        /* \"Disney/Disney.sol\":1469:1483  token.transfer */\n      0xffffffffffffffffffffffffffffffffffffffff\n      and\n      0xa9059cbb\n        /* \"Disney/Disney.sol\":1484:1494  msg.sender */\n      caller\n        /* \"Disney/Disney.sol\":1496:1506  _numTokens */\n      dup7\n        /* \"Disney/Disney.sol\":1469:1507  token.transfer(msg.sender, _numTokens) */\n      mload(0x40)\n      dup4\n      0xffffffff\n      and\n      0xe0\n      shl\n      dup2\n      mstore\n      0x04\n      add\n      tag_86\n      swap3\n      swap2\n      swap1\n      tag_87\n      jump\t// in\n    tag_86:\n      0x20\n      mload(0x40)\n      dup1\n      dup4\n      sub\n      dup2\n      0x00\n      dup8\n      gas\n      call\n      iszero\n      dup1\n      iszero\n      tag_89\n      jumpi\n      returndatasize\n      0x00\n      dup1\n      returndatacopy\n      revert(0x00, returndatasize)\n    tag_89:\n      pop\n      pop\n      pop\n      pop\n      mload(0x40)\n      returndatasize\n      not(0x1f)\n      0x1f\n      dup3\n      add\n      and\n      dup3\n      add\n      dup1\n      0x40\n      mstore\n      pop\n      dup2\n      add\n      swap1\n      tag_90\n      swap2\n      swap1\n      tag_91\n      jump\t// in\n    tag_90:\n      pop\n        /* \"Disney/Disney.sol\":1597:1607  _numTokens */\n      dup4\n        /* \"Disney/Disney.sol\":1556:1564  Clientes */\n      0x02\n        /* \"Disney/Disney.sol\":1556:1576  Clientes[msg.sender] */\n      0x00\n        /* \"Disney/Disney.sol\":1565:1575  msg.sender */\n      caller\n        /* \"Disney/Disney.sol\":1556:1576  Clientes[msg.sender] */\n      0xffffffffffffffffffffffffffffffffffffffff\n      and\n      0xffffffffffffffffffffffffffffffffffffffff\n      and\n      dup2\n      mstore\n      0x20\n      add\n      swap1\n      dup2\n      mstore\n      0x20\n      add\n      0x00\n      keccak256\n        /* \"Disney/Disney.sol\":1556:1593  Clientes[msg.sender].tokens_comprados */\n      0x00\n      add\n      0x00\n        /* \"Disney/Disney.sol\":1556:1607  Clientes[msg.sender].tokens_comprados += _numTokens */\n      dup3\n      dup3\n      sload\n      tag_92\n      swap2\n      swap1\n      tag_93\n      jump\t// in\n    tag_92:\n      swap3\n      pop\n      pop\n      dup2\n      swap1\n      sstore\n      pop\n        /* \"Disney/Disney.sol\":866:1614  {... */\n      pop\n      pop\n      pop\n        /* \"Disney/Disney.sol\":813:1614  function CompraTokens(uint _numTokens) public payable{... */\n      pop\n      jump\t// out\n        /* \"Disney/Disney.sol\":668:807  function PrecioTokens(uint _numTokens) internal pure returns (uint){... */\n    tag_74:\n        /* \"Disney/Disney.sol\":730:734  uint */\n      0x00\n        /* \"Disney/Disney.sol\":792:799  1 ether */\n      0x0de0b6b3a7640000\n        /* \"Disney/Disney.sol\":780:790  _numTokens */\n      dup3\n        /* \"Disney/Disney.sol\":780:800  _numTokens*(1 ether) */\n      tag_95\n      swap2\n      swap1\n      tag_96\n      jump\t// in\n    tag_95:\n        /* \"Disney/Disney.sol\":772:800  return  _numTokens*(1 ether) */\n      swap1\n      pop\n        /* \"Disney/Disney.sol\":668:807  function PrecioTokens(uint _numTokens) internal pure returns (uint){... */\n      swap2\n      swap1\n      pop\n      jump\t// out\n        /* \"#utility.yul\":7:82   */\n    tag_97:\n        /* \"#utility.yul\":40:46   */\n      0x00\n        /* \"#utility.yul\":73:75   */\n      0x40\n        /* \"#utility.yul\":67:76   */\n      mload\n        /* \"#utility.yul\":57:76   */\n      swap1\n      pop\n        /* \"#utility.yul\":7:82   */\n      swap1\n      jump\t// out\n        /* \"#utility.yul\":88:205   */\n    tag_98:\n        /* \"#utility.yul\":197:198   */\n      0x00\n        /* \"#utility.yul\":194:195   */\n      dup1\n        /* \"#utility.yul\":187:199   */\n      revert\n        /* \"#utility.yul\":211:328   */\n    tag_99:\n        /* \"#utility.yul\":320:321   */\n      0x00\n        /* \"#utility.yul\":317:318   */\n      dup1\n        /* \"#utility.yul\":310:322   */\n      revert\n        /* \"#utility.yul\":334:411   */\n    tag_100:\n        /* \"#utility.yul\":371:378   */\n      0x00\n        /* \"#utility.yul\":400:405   */\n      dup2\n        /* \"#utility.yul\":389:405   */\n      swap1\n      pop\n        /* \"#utility.yul\":334:411   */\n      swap2\n      swap1\n      pop\n      jump\t// out\n        /* \"#utility.yul\":417:539   */\n    tag_101:\n        /* \"#utility.yul\":490:514   */\n      tag_144\n        /* \"#utility.yul\":508:513   */\n      dup2\n        /* \"#utility.yul\":490:514   */\n      tag_100\n      jump\t// in\n    tag_144:\n        /* \"#utility.yul\":483:488   */\n      dup2\n        /* \"#utility.yul\":480:515   */\n      eq\n        /* \"#utility.yul\":470:533   */\n      tag_145\n      jumpi\n        /* \"#utility.yul\":529:530   */\n      0x00\n        /* \"#utility.yul\":526:527   */\n      dup1\n        /* \"#utility.yul\":519:531   */\n      revert\n        /* \"#utility.yul\":470:533   */\n    tag_145:\n        /* \"#utility.yul\":417:539   */\n      pop\n      jump\t// out\n        /* \"#utility.yul\":545:684   */\n    tag_102:\n        /* \"#utility.yul\":591:596   */\n      0x00\n        /* \"#utility.yul\":629:635   */\n      dup2\n        /* \"#utility.yul\":616:636   */\n      calldataload\n        /* \"#utility.yul\":607:636   */\n      swap1\n      pop\n        /* \"#utility.yul\":645:678   */\n      tag_147\n        /* \"#utility.yul\":672:677   */\n      dup2\n        /* \"#utility.yul\":645:678   */\n      tag_101\n      jump\t// in\n    tag_147:\n        /* \"#utility.yul\":545:684   */\n      swap3\n      swap2\n      pop\n      pop\n      jump\t// out\n        /* \"#utility.yul\":690:1019   */\n    tag_13:\n        /* \"#utility.yul\":749:755   */\n      0x00\n        /* \"#utility.yul\":798:800   */\n      0x20\n        /* \"#utility.yul\":786:795   */\n      dup3\n        /* \"#utility.yul\":777:784   */\n      dup5\n        /* \"#utility.yul\":773:796   */\n      sub\n        /* \"#utility.yul\":769:801   */\n      slt\n        /* \"#utility.yul\":766:885   */\n      iszero\n      tag_149\n      jumpi\n        /* \"#utility.yul\":804:883   */\n      tag_150\n      tag_98\n      jump\t// in\n    tag_150:\n        /* \"#utility.yul\":766:885   */\n    tag_149:\n        /* \"#utility.yul\":924:925   */\n      0x00\n        /* \"#utility.yul\":949:1002   */\n      tag_151\n        /* \"#utility.yul\":994:1001   */\n      dup5\n        /* \"#utility.yul\":985:991   */\n      dup3\n        /* \"#utility.yul\":974:983   */\n      dup6\n        /* \"#utility.yul\":970:992   */\n      add\n        /* \"#utility.yul\":949:1002   */\n      tag_102\n      jump\t// in\n    tag_151:\n        /* \"#utility.yul\":939:1002   */\n      swap2\n      pop\n        /* \"#utility.yul\":895:1012   */\n      pop\n        /* \"#utility.yul\":690:1019   */\n      swap3\n      swap2\n      pop\n      pop\n      jump\t// out\n        /* \"#utility.yul\":1025:1143   */\n    tag_103:\n        /* \"#utility.yul\":1112:1136   */\n      tag_153\n        /* \"#utility.yul\":1130:1135   */\n      dup2\n        /* \"#utility.yul\":1112:1136   */\n      tag_100\n      jump\t// in\n    tag_153:\n        /* \"#utility.yul\":1107:1110   */\n      dup3\n        /* \"#utility.yul\":1100:1137   */\n      mstore\n        /* \"#utility.yul\":1025:1143   */\n      pop\n      pop\n      jump\t// out\n        /* \"#utility.yul\":1149:1371   */\n    tag_19:\n        /* \"#utility.yul\":1242:1246   */\n      0x00\n        /* \"#utility.yul\":1280:1282   */\n      0x20\n        /* \"#utility.yul\":1269:1278   */\n      dup3\n        /* \"#utility.yul\":1265:1283   */\n      add\n        /* \"#utility.yul\":1257:1283   */\n      swap1\n      pop\n        /* \"#utility.yul\":1293:1364   */\n      tag_155\n        /* \"#utility.yul\":1361:1362   */\n      0x00\n        /* \"#utility.yul\":1350:1359   */\n      dup4\n        /* \"#utility.yul\":1346:1363   */\n      add\n        /* \"#utility.yul\":1337:1343   */\n      dup5\n        /* \"#utility.yul\":1293:1364   */\n      tag_103\n      jump\t// in\n    tag_155:\n        /* \"#utility.yul\":1149:1371   */\n      swap3\n      swap2\n      pop\n      pop\n      jump\t// out\n        /* \"#utility.yul\":1377:1503   */\n    tag_104:\n        /* \"#utility.yul\":1414:1421   */\n      0x00\n        /* \"#utility.yul\":1454:1496   */\n      0xffffffffffffffffffffffffffffffffffffffff\n        /* \"#utility.yul\":1447:1452   */\n      dup3\n        /* \"#utility.yul\":1443:1497   */\n      and\n        /* \"#utility.yul\":1432:1497   */\n      swap1\n      pop\n        /* \"#utility.yul\":1377:1503   */\n      swap2\n      swap1\n      pop\n      jump\t// out\n        /* \"#utility.yul\":1509:1613   */\n    tag_105:\n        /* \"#utility.yul\":1554:1561   */\n      0x00\n        /* \"#utility.yul\":1583:1607   */\n      tag_158\n        /* \"#utility.yul\":1601:1606   */\n      dup3\n        /* \"#utility.yul\":1583:1607   */\n      tag_104\n      jump\t// in\n    tag_158:\n        /* \"#utility.yul\":1572:1607   */\n      swap1\n      pop\n        /* \"#utility.yul\":1509:1613   */\n      swap2\n      swap1\n      pop\n      jump\t// out\n        /* \"#utility.yul\":1619:1761   */\n    tag_106:\n        /* \"#utility.yul\":1722:1754   */\n      tag_160\n        /* \"#utility.yul\":1748:1753   */\n      dup2\n        /* \"#utility.yul\":1722:1754   */\n      tag_105\n      jump\t// in\n    tag_160:\n        /* \"#utility.yul\":1717:1720   */\n      dup3\n        /* \"#utility.yul\":1710:1755   */\n      mstore\n        /* \"#utility.yul\":1619:1761   */\n      pop\n      pop\n      jump\t// out\n        /* \"#utility.yul\":1767:2021   */\n    tag_24:\n        /* \"#utility.yul\":1876:1880   */\n      0x00\n        /* \"#utility.yul\":1914:1916   */\n      0x20\n        /* \"#utility.yul\":1903:1912   */\n      dup3\n        /* \"#utility.yul\":1899:1917   */\n      add\n        /* \"#utility.yul\":1891:1917   */\n      swap1\n      pop\n        /* \"#utility.yul\":1927:2014   */\n      tag_162\n        /* \"#utility.yul\":2011:2012   */\n      0x00\n        /* \"#utility.yul\":2000:2009   */\n      dup4\n        /* \"#utility.yul\":1996:2013   */\n      add\n        /* \"#utility.yul\":1987:1993   */\n      dup5\n        /* \"#utility.yul\":1927:2014   */\n      tag_106\n      jump\t// in\n    tag_162:\n        /* \"#utility.yul\":1767:2021   */\n      swap3\n      swap2\n      pop\n      pop\n      jump\t// out\n        /* \"#utility.yul\":2027:2123   */\n    tag_107:\n        /* \"#utility.yul\":2064:2071   */\n      0x00\n        /* \"#utility.yul\":2093:2117   */\n      tag_164\n        /* \"#utility.yul\":2111:2116   */\n      dup3\n        /* \"#utility.yul\":2093:2117   */\n      tag_104\n      jump\t// in\n    tag_164:\n        /* \"#utility.yul\":2082:2117   */\n      swap1\n      pop\n        /* \"#utility.yul\":2027:2123   */\n      swap2\n      swap1\n      pop\n      jump\t// out\n        /* \"#utility.yul\":2129:2251   */\n    tag_108:\n        /* \"#utility.yul\":2202:2226   */\n      tag_166\n        /* \"#utility.yul\":2220:2225   */\n      dup2\n        /* \"#utility.yul\":2202:2226   */\n      tag_107\n      jump\t// in\n    tag_166:\n        /* \"#utility.yul\":2195:2200   */\n      dup2\n        /* \"#utility.yul\":2192:2227   */\n      eq\n        /* \"#utility.yul\":2182:2245   */\n      tag_167\n      jumpi\n        /* \"#utility.yul\":2241:2242   */\n      0x00\n        /* \"#utility.yul\":2238:2239   */\n      dup1\n        /* \"#utility.yul\":2231:2243   */\n      revert\n        /* \"#utility.yul\":2182:2245   */\n    tag_167:\n        /* \"#utility.yul\":2129:2251   */\n      pop\n      jump\t// out\n        /* \"#utility.yul\":2257:2396   */\n    tag_109:\n        /* \"#utility.yul\":2303:2308   */\n      0x00\n        /* \"#utility.yul\":2341:2347   */\n      dup2\n        /* \"#utility.yul\":2328:2348   */\n      calldataload\n        /* \"#utility.yul\":2319:2348   */\n      swap1\n      pop\n        /* \"#utility.yul\":2357:2390   */\n      tag_169\n        /* \"#utility.yul\":2384:2389   */\n      dup2\n        /* \"#utility.yul\":2357:2390   */\n      tag_108\n      jump\t// in\n    tag_169:\n        /* \"#utility.yul\":2257:2396   */\n      swap3\n      swap2\n      pop\n      pop\n      jump\t// out\n        /* \"#utility.yul\":2402:2731   */\n    tag_28:\n        /* \"#utility.yul\":2461:2467   */\n      0x00\n        /* \"#utility.yul\":2510:2512   */\n      0x20\n        /* \"#utility.yul\":2498:2507   */\n      dup3\n        /* \"#utility.yul\":2489:2496   */\n      dup5\n        /* \"#utility.yul\":2485:2508   */\n      sub\n        /* \"#utility.yul\":2481:2513   */\n      slt\n        /* \"#utility.yul\":2478:2597   */\n      iszero\n      tag_171\n      jumpi\n        /* \"#utility.yul\":2516:2595   */\n      tag_172\n      tag_98\n      jump\t// in\n    tag_172:\n        /* \"#utility.yul\":2478:2597   */\n    tag_171:\n        /* \"#utility.yul\":2636:2637   */\n      0x00\n        /* \"#utility.yul\":2661:2714   */\n      tag_173\n        /* \"#utility.yul\":2706:2713   */\n      dup5\n        /* \"#utility.yul\":2697:2703   */\n      dup3\n        /* \"#utility.yul\":2686:2695   */\n      dup6\n        /* \"#utility.yul\":2682:2704   */\n      add\n        /* \"#utility.yul\":2661:2714   */\n      tag_109\n      jump\t// in\n    tag_173:\n        /* \"#utility.yul\":2651:2714   */\n      swap2\n      pop\n        /* \"#utility.yul\":2607:2724   */\n      pop\n        /* \"#utility.yul\":2402:2731   */\n      swap3\n      swap2\n      pop\n      pop\n      jump\t// out\n        /* \"#utility.yul\":2737:2854   */\n    tag_110:\n        /* \"#utility.yul\":2846:2847   */\n      0x00\n        /* \"#utility.yul\":2843:2844   */\n      dup1\n        /* \"#utility.yul\":2836:2848   */\n      revert\n        /* \"#utility.yul\":2860:2977   */\n    tag_111:\n        /* \"#utility.yul\":2969:2970   */\n      0x00\n        /* \"#utility.yul\":2966:2967   */\n      dup1\n        /* \"#utility.yul\":2959:2971   */\n      revert\n        /* \"#utility.yul\":2983:3085   */\n    tag_112:\n        /* \"#utility.yul\":3024:3030   */\n      0x00\n        /* \"#utility.yul\":3075:3077   */\n      0x1f\n        /* \"#utility.yul\":3071:3078   */\n      not\n        /* \"#utility.yul\":3066:3068   */\n      0x1f\n        /* \"#utility.yul\":3059:3064   */\n      dup4\n        /* \"#utility.yul\":3055:3069   */\n      add\n        /* \"#utility.yul\":3051:3079   */\n      and\n        /* \"#utility.yul\":3041:3079   */\n      swap1\n      pop\n        /* \"#utility.yul\":2983:3085   */\n      swap2\n      swap1\n      pop\n      jump\t// out\n        /* \"#utility.yul\":3091:3271   */\n    tag_113:\n        /* \"#utility.yul\":3139:3216   */\n      0x4e487b7100000000000000000000000000000000000000000000000000000000\n        /* \"#utility.yul\":3136:3137   */\n      0x00\n        /* \"#utility.yul\":3129:3217   */\n      mstore\n        /* \"#utility.yul\":3236:3240   */\n      0x41\n        /* \"#utility.yul\":3233:3234   */\n      0x04\n        /* \"#utility.yul\":3226:3241   */\n      mstore\n        /* \"#utility.yul\":3260:3264   */\n      0x24\n        /* \"#utility.yul\":3257:3258   */\n      0x00\n        /* \"#utility.yul\":3250:3265   */\n      revert\n        /* \"#utility.yul\":3277:3558   */\n    tag_114:\n        /* \"#utility.yul\":3360:3387   */\n      tag_179\n        /* \"#utility.yul\":3382:3386   */\n      dup3\n        /* \"#utility.yul\":3360:3387   */\n      tag_112\n      jump\t// in\n    tag_179:\n        /* \"#utility.yul\":3352:3358   */\n      dup2\n        /* \"#utility.yul\":3348:3388   */\n      add\n        /* \"#utility.yul\":3490:3496   */\n      dup2\n        /* \"#utility.yul\":3478:3488   */\n      dup2\n        /* \"#utility.yul\":3475:3497   */\n      lt\n        /* \"#utility.yul\":3454:3472   */\n      0xffffffffffffffff\n        /* \"#utility.yul\":3442:3452   */\n      dup3\n        /* \"#utility.yul\":3439:3473   */\n      gt\n        /* \"#utility.yul\":3436:3498   */\n      or\n        /* \"#utility.yul\":3433:3521   */\n      iszero\n      tag_180\n      jumpi\n        /* \"#utility.yul\":3501:3519   */\n      tag_181\n      tag_113\n      jump\t// in\n    tag_181:\n        /* \"#utility.yul\":3433:3521   */\n    tag_180:\n        /* \"#utility.yul\":3541:3551   */\n      dup1\n        /* \"#utility.yul\":3537:3539   */\n      0x40\n        /* \"#utility.yul\":3530:3552   */\n      mstore\n        /* \"#utility.yul\":3320:3558   */\n      pop\n        /* \"#utility.yul\":3277:3558   */\n      pop\n      pop\n      jump\t// out\n        /* \"#utility.yul\":3564:3693   */\n    tag_115:\n        /* \"#utility.yul\":3598:3604   */\n      0x00\n        /* \"#utility.yul\":3625:3645   */\n      tag_183\n      tag_97\n      jump\t// in\n    tag_183:\n        /* \"#utility.yul\":3615:3645   */\n      swap1\n      pop\n        /* \"#utility.yul\":3654:3687   */\n      tag_184\n        /* \"#utility.yul\":3682:3686   */\n      dup3\n        /* \"#utility.yul\":3674:3680   */\n      dup3\n        /* \"#utility.yul\":3654:3687   */\n      tag_114\n      jump\t// in\n    tag_184:\n        /* \"#utility.yul\":3564:3693   */\n      swap2\n      swap1\n      pop\n      jump\t// out\n        /* \"#utility.yul\":3699:4007   */\n    tag_116:\n        /* \"#utility.yul\":3761:3765   */\n      0x00\n        /* \"#utility.yul\":3851:3869   */\n      0xffffffffffffffff\n        /* \"#utility.yul\":3843:3849   */\n      dup3\n        /* \"#utility.yul\":3840:3870   */\n      gt\n        /* \"#utility.yul\":3837:3893   */\n      iszero\n      tag_186\n      jumpi\n        /* \"#utility.yul\":3873:3891   */\n      tag_187\n      tag_113\n      jump\t// in\n    tag_187:\n        /* \"#utility.yul\":3837:3893   */\n    tag_186:\n        /* \"#utility.yul\":3911:3940   */\n      tag_188\n        /* \"#utility.yul\":3933:3939   */\n      dup3\n        /* \"#utility.yul\":3911:3940   */\n      tag_112\n      jump\t// in\n    tag_188:\n        /* \"#utility.yul\":3903:3940   */\n      swap1\n      pop\n        /* \"#utility.yul\":3995:3999   */\n      0x20\n        /* \"#utility.yul\":3989:3993   */\n      dup2\n        /* \"#utility.yul\":3985:4000   */\n      add\n        /* \"#utility.yul\":3977:4000   */\n      swap1\n      pop\n        /* \"#utility.yul\":3699:4007   */\n      swap2\n      swap1\n      pop\n      jump\t// out\n        /* \"#utility.yul\":4013:4159   */\n    tag_117:\n        /* \"#utility.yul\":4110:4116   */\n      dup3\n        /* \"#utility.yul\":4105:4108   */\n      dup2\n        /* \"#utility.yul\":4100:4103   */\n      dup4\n        /* \"#utility.yul\":4087:4117   */\n      calldatacopy\n        /* \"#utility.yul\":4151:4152   */\n      0x00\n        /* \"#utility.yul\":4142:4148   */\n      dup4\n        /* \"#utility.yul\":4137:4140   */\n      dup4\n        /* \"#utility.yul\":4133:4149   */\n      add\n        /* \"#utility.yul\":4126:4153   */\n      mstore\n        /* \"#utility.yul\":4013:4159   */\n      pop\n      pop\n      pop\n      jump\t// out\n        /* \"#utility.yul\":4165:4590   */\n    tag_118:\n        /* \"#utility.yul\":4243:4248   */\n      0x00\n        /* \"#utility.yul\":4268:4334   */\n      tag_191\n        /* \"#utility.yul\":4284:4333   */\n      tag_192\n        /* \"#utility.yul\":4326:4332   */\n      dup5\n        /* \"#utility.yul\":4284:4333   */\n      tag_116\n      jump\t// in\n    tag_192:\n        /* \"#utility.yul\":4268:4334   */\n      tag_115\n      jump\t// in\n    tag_191:\n        /* \"#utility.yul\":4259:4334   */\n      swap1\n      pop\n        /* \"#utility.yul\":4357:4363   */\n      dup3\n        /* \"#utility.yul\":4350:4355   */\n      dup2\n        /* \"#utility.yul\":4343:4364   */\n      mstore\n        /* \"#utility.yul\":4395:4399   */\n      0x20\n        /* \"#utility.yul\":4388:4393   */\n      dup2\n        /* \"#utility.yul\":4384:4400   */\n      add\n        /* \"#utility.yul\":4433:4436   */\n      dup5\n        /* \"#utility.yul\":4424:4430   */\n      dup5\n        /* \"#utility.yul\":4419:4422   */\n      dup5\n        /* \"#utility.yul\":4415:4431   */\n      add\n        /* \"#utility.yul\":4412:4437   */\n      gt\n        /* \"#utility.yul\":4409:4521   */\n      iszero\n      tag_193\n      jumpi\n        /* \"#utility.yul\":4440:4519   */\n      tag_194\n      tag_111\n      jump\t// in\n    tag_194:\n        /* \"#utility.yul\":4409:4521   */\n    tag_193:\n        /* \"#utility.yul\":4530:4584   */\n      tag_195\n        /* \"#utility.yul\":4577:4583   */\n      dup5\n        /* \"#utility.yul\":4572:4575   */\n      dup3\n        /* \"#utility.yul\":4567:4570   */\n      dup6\n        /* \"#utility.yul\":4530:4584   */\n      tag_117\n      jump\t// in\n    tag_195:\n        /* \"#utility.yul\":4249:4590   */\n      pop\n        /* \"#utility.yul\":4165:4590   */\n      swap4\n      swap3\n      pop\n      pop\n      pop\n      jump\t// out\n        /* \"#utility.yul\":4610:4950   */\n    tag_119:\n        /* \"#utility.yul\":4666:4671   */\n      0x00\n        /* \"#utility.yul\":4715:4718   */\n      dup3\n        /* \"#utility.yul\":4708:4712   */\n      0x1f\n        /* \"#utility.yul\":4700:4706   */\n      dup4\n        /* \"#utility.yul\":4696:4713   */\n      add\n        /* \"#utility.yul\":4692:4719   */\n      slt\n        /* \"#utility.yul\":4682:4804   */\n      tag_197\n      jumpi\n        /* \"#utility.yul\":4723:4802   */\n      tag_198\n      tag_110\n      jump\t// in\n    tag_198:\n        /* \"#utility.yul\":4682:4804   */\n    tag_197:\n        /* \"#utility.yul\":4840:4846   */\n      dup2\n        /* \"#utility.yul\":4827:4847   */\n      calldataload\n        /* \"#utility.yul\":4865:4944   */\n      tag_199\n        /* \"#utility.yul\":4940:4943   */\n      dup5\n        /* \"#utility.yul\":4932:4938   */\n      dup3\n        /* \"#utility.yul\":4925:4929   */\n      0x20\n        /* \"#utility.yul\":4917:4923   */\n      dup7\n        /* \"#utility.yul\":4913:4930   */\n      add\n        /* \"#utility.yul\":4865:4944   */\n      tag_118\n      jump\t// in\n    tag_199:\n        /* \"#utility.yul\":4856:4944   */\n      swap2\n      pop\n        /* \"#utility.yul\":4672:4950   */\n      pop\n        /* \"#utility.yul\":4610:4950   */\n      swap3\n      swap2\n      pop\n      pop\n      jump\t// out\n        /* \"#utility.yul\":4956:5465   */\n    tag_34:\n        /* \"#utility.yul\":5025:5031   */\n      0x00\n        /* \"#utility.yul\":5074:5076   */\n      0x20\n        /* \"#utility.yul\":5062:5071   */\n      dup3\n        /* \"#utility.yul\":5053:5060   */\n      dup5\n        /* \"#utility.yul\":5049:5072   */\n      sub\n        /* \"#utility.yul\":5045:5077   */\n      slt\n        /* \"#utility.yul\":5042:5161   */\n      iszero\n      tag_201\n      jumpi\n        /* \"#utility.yul\":5080:5159   */\n      tag_202\n      tag_98\n      jump\t// in\n    tag_202:\n        /* \"#utility.yul\":5042:5161   */\n    tag_201:\n        /* \"#utility.yul\":5228:5229   */\n      0x00\n        /* \"#utility.yul\":5217:5226   */\n      dup3\n        /* \"#utility.yul\":5213:5230   */\n      add\n        /* \"#utility.yul\":5200:5231   */\n      calldataload\n        /* \"#utility.yul\":5258:5276   */\n      0xffffffffffffffff\n        /* \"#utility.yul\":5250:5256   */\n      dup2\n        /* \"#utility.yul\":5247:5277   */\n      gt\n        /* \"#utility.yul\":5244:5361   */\n      iszero\n      tag_203\n      jumpi\n        /* \"#utility.yul\":5280:5359   */\n      tag_204\n      tag_99\n      jump\t// in\n    tag_204:\n        /* \"#utility.yul\":5244:5361   */\n    tag_203:\n        /* \"#utility.yul\":5385:5448   */\n      tag_205\n        /* \"#utility.yul\":5440:5447   */\n      dup5\n        /* \"#utility.yul\":5431:5437   */\n      dup3\n        /* \"#utility.yul\":5420:5429   */\n      dup6\n        /* \"#utility.yul\":5416:5438   */\n      add\n        /* \"#utility.yul\":5385:5448   */\n      tag_119\n      jump\t// in\n    tag_205:\n        /* \"#utility.yul\":5375:5448   */\n      swap2\n      pop\n        /* \"#utility.yul\":5171:5458   */\n      pop\n        /* \"#utility.yul\":4956:5465   */\n      swap3\n      swap2\n      pop\n      pop\n      jump\t// out\n        /* \"#utility.yul\":5471:5570   */\n    tag_120:\n        /* \"#utility.yul\":5523:5529   */\n      0x00\n        /* \"#utility.yul\":5557:5562   */\n      dup2\n        /* \"#utility.yul\":5551:5563   */\n      mload\n        /* \"#utility.yul\":5541:5563   */\n      swap1\n      pop\n        /* \"#utility.yul\":5471:5570   */\n      swap2\n      swap1\n      pop\n      jump\t// out\n        /* \"#utility.yul\":5576:5745   */\n    tag_121:\n        /* \"#utility.yul\":5660:5671   */\n      0x00\n        /* \"#utility.yul\":5694:5700   */\n      dup3\n        /* \"#utility.yul\":5689:5692   */\n      dup3\n        /* \"#utility.yul\":5682:5701   */\n      mstore\n        /* \"#utility.yul\":5734:5738   */\n      0x20\n        /* \"#utility.yul\":5729:5732   */\n      dup3\n        /* \"#utility.yul\":5725:5739   */\n      add\n        /* \"#utility.yul\":5710:5739   */\n      swap1\n      pop\n        /* \"#utility.yul\":5576:5745   */\n      swap3\n      swap2\n      pop\n      pop\n      jump\t// out\n        /* \"#utility.yul\":5751:5997   */\n    tag_122:\n        /* \"#utility.yul\":5832:5833   */\n      0x00\n        /* \"#utility.yul\":5842:5955   */\n    tag_209:\n        /* \"#utility.yul\":5856:5862   */\n      dup4\n        /* \"#utility.yul\":5853:5854   */\n      dup2\n        /* \"#utility.yul\":5850:5863   */\n      lt\n        /* \"#utility.yul\":5842:5955   */\n      iszero\n      tag_211\n      jumpi\n        /* \"#utility.yul\":5941:5942   */\n      dup1\n        /* \"#utility.yul\":5936:5939   */\n      dup3\n        /* \"#utility.yul\":5932:5943   */\n      add\n        /* \"#utility.yul\":5926:5944   */\n      mload\n        /* \"#utility.yul\":5922:5923   */\n      dup2\n        /* \"#utility.yul\":5917:5920   */\n      dup5\n        /* \"#utility.yul\":5913:5924   */\n      add\n        /* \"#utility.yul\":5906:5945   */\n      mstore\n        /* \"#utility.yul\":5878:5880   */\n      0x20\n        /* \"#utility.yul\":5875:5876   */\n      dup2\n        /* \"#utility.yul\":5871:5881   */\n      add\n        /* \"#utility.yul\":5866:5881   */\n      swap1\n      pop\n        /* \"#utility.yul\":5842:5955   */\n      jump(tag_209)\n    tag_211:\n        /* \"#utility.yul\":5989:5990   */\n      0x00\n        /* \"#utility.yul\":5980:5986   */\n      dup5\n        /* \"#utility.yul\":5975:5978   */\n      dup5\n        /* \"#utility.yul\":5971:5987   */\n      add\n        /* \"#utility.yul\":5964:5991   */\n      mstore\n        /* \"#utility.yul\":5813:5997   */\n      pop\n        /* \"#utility.yul\":5751:5997   */\n      pop\n      pop\n      pop\n      jump\t// out\n        /* \"#utility.yul\":6003:6380   */\n    tag_123:\n        /* \"#utility.yul\":6091:6094   */\n      0x00\n        /* \"#utility.yul\":6119:6158   */\n      tag_213\n        /* \"#utility.yul\":6152:6157   */\n      dup3\n        /* \"#utility.yul\":6119:6158   */\n      tag_120\n      jump\t// in\n    tag_213:\n        /* \"#utility.yul\":6174:6245   */\n      tag_214\n        /* \"#utility.yul\":6238:6244   */\n      dup2\n        /* \"#utility.yul\":6233:6236   */\n      dup6\n        /* \"#utility.yul\":6174:6245   */\n      tag_121\n      jump\t// in\n    tag_214:\n        /* \"#utility.yul\":6167:6245   */\n      swap4\n      pop\n        /* \"#utility.yul\":6254:6319   */\n      tag_215\n        /* \"#utility.yul\":6312:6318   */\n      dup2\n        /* \"#utility.yul\":6307:6310   */\n      dup6\n        /* \"#utility.yul\":6300:6304   */\n      0x20\n        /* \"#utility.yul\":6293:6298   */\n      dup7\n        /* \"#utility.yul\":6289:6305   */\n      add\n        /* \"#utility.yul\":6254:6319   */\n      tag_122\n      jump\t// in\n    tag_215:\n        /* \"#utility.yul\":6344:6373   */\n      tag_216\n        /* \"#utility.yul\":6366:6372   */\n      dup2\n        /* \"#utility.yul\":6344:6373   */\n      tag_112\n      jump\t// in\n    tag_216:\n        /* \"#utility.yul\":6339:6342   */\n      dup5\n        /* \"#utility.yul\":6335:6374   */\n      add\n        /* \"#utility.yul\":6328:6374   */\n      swap2\n      pop\n        /* \"#utility.yul\":6095:6380   */\n      pop\n        /* \"#utility.yul\":6003:6380   */\n      swap3\n      swap2\n      pop\n      pop\n      jump\t// out\n        /* \"#utility.yul\":6386:6476   */\n    tag_124:\n        /* \"#utility.yul\":6420:6427   */\n      0x00\n        /* \"#utility.yul\":6463:6468   */\n      dup2\n        /* \"#utility.yul\":6456:6469   */\n      iszero\n        /* \"#utility.yul\":6449:6470   */\n      iszero\n        /* \"#utility.yul\":6438:6470   */\n      swap1\n      pop\n        /* \"#utility.yul\":6386:6476   */\n      swap2\n      swap1\n      pop\n      jump\t// out\n        /* \"#utility.yul\":6482:6591   */\n    tag_125:\n        /* \"#utility.yul\":6563:6584   */\n      tag_219\n        /* \"#utility.yul\":6578:6583   */\n      dup2\n        /* \"#utility.yul\":6563:6584   */\n      tag_124\n      jump\t// in\n    tag_219:\n        /* \"#utility.yul\":6558:6561   */\n      dup3\n        /* \"#utility.yul\":6551:6585   */\n      mstore\n        /* \"#utility.yul\":6482:6591   */\n      pop\n      pop\n      jump\t// out\n        /* \"#utility.yul\":6597:7118   */\n    tag_37:\n        /* \"#utility.yul\":6760:6764   */\n      0x00\n        /* \"#utility.yul\":6798:6800   */\n      0x60\n        /* \"#utility.yul\":6787:6796   */\n      dup3\n        /* \"#utility.yul\":6783:6801   */\n      add\n        /* \"#utility.yul\":6775:6801   */\n      swap1\n      pop\n        /* \"#utility.yul\":6847:6856   */\n      dup2\n        /* \"#utility.yul\":6841:6845   */\n      dup2\n        /* \"#utility.yul\":6837:6857   */\n      sub\n        /* \"#utility.yul\":6833:6834   */\n      0x00\n        /* \"#utility.yul\":6822:6831   */\n      dup4\n        /* \"#utility.yul\":6818:6835   */\n      add\n        /* \"#utility.yul\":6811:6858   */\n      mstore\n        /* \"#utility.yul\":6875:6953   */\n      tag_221\n        /* \"#utility.yul\":6948:6952   */\n      dup2\n        /* \"#utility.yul\":6939:6945   */\n      dup7\n        /* \"#utility.yul\":6875:6953   */\n      tag_123\n      jump\t// in\n    tag_221:\n        /* \"#utility.yul\":6867:6953   */\n      swap1\n      pop\n        /* \"#utility.yul\":6963:7035   */\n      tag_222\n        /* \"#utility.yul\":7031:7033   */\n      0x20\n        /* \"#utility.yul\":7020:7029   */\n      dup4\n        /* \"#utility.yul\":7016:7034   */\n      add\n        /* \"#utility.yul\":7007:7013   */\n      dup6\n        /* \"#utility.yul\":6963:7035   */\n      tag_103\n      jump\t// in\n    tag_222:\n        /* \"#utility.yul\":7045:7111   */\n      tag_223\n        /* \"#utility.yul\":7107:7109   */\n      0x40\n        /* \"#utility.yul\":7096:7105   */\n      dup4\n        /* \"#utility.yul\":7092:7110   */\n      add\n        /* \"#utility.yul\":7083:7089   */\n      dup5\n        /* \"#utility.yul\":7045:7111   */\n      tag_125\n      jump\t// in\n    tag_223:\n        /* \"#utility.yul\":6597:7118   */\n      swap5\n      swap4\n      pop\n      pop\n      pop\n      pop\n      jump\t// out\n        /* \"#utility.yul\":7124:7298   */\n    tag_126:\n        /* \"#utility.yul\":7264:7290   */\n      0x53696e207065726d69736f7320646520656a637563696f6e0000000000000000\n        /* \"#utility.yul\":7260:7261   */\n      0x00\n        /* \"#utility.yul\":7252:7258   */\n      dup3\n        /* \"#utility.yul\":7248:7262   */\n      add\n        /* \"#utility.yul\":7241:7291   */\n      mstore\n        /* \"#utility.yul\":7124:7298   */\n      pop\n      jump\t// out\n        /* \"#utility.yul\":7304:7670   */\n    tag_127:\n        /* \"#utility.yul\":7446:7449   */\n      0x00\n        /* \"#utility.yul\":7467:7534   */\n      tag_226\n        /* \"#utility.yul\":7531:7533   */\n      0x18\n        /* \"#utility.yul\":7526:7529   */\n      dup4\n        /* \"#utility.yul\":7467:7534   */\n      tag_121\n      jump\t// in\n    tag_226:\n        /* \"#utility.yul\":7460:7534   */\n      swap2\n      pop\n        /* \"#utility.yul\":7543:7636   */\n      tag_227\n        /* \"#utility.yul\":7632:7635   */\n      dup3\n        /* \"#utility.yul\":7543:7636   */\n      tag_126\n      jump\t// in\n    tag_227:\n        /* \"#utility.yul\":7661:7663   */\n      0x20\n        /* \"#utility.yul\":7656:7659   */\n      dup3\n        /* \"#utility.yul\":7652:7664   */\n      add\n        /* \"#utility.yul\":7645:7664   */\n      swap1\n      pop\n        /* \"#utility.yul\":7304:7670   */\n      swap2\n      swap1\n      pop\n      jump\t// out\n        /* \"#utility.yul\":7676:8095   */\n    tag_48:\n        /* \"#utility.yul\":7842:7846   */\n      0x00\n        /* \"#utility.yul\":7880:7882   */\n      0x20\n        /* \"#utility.yul\":7869:7878   */\n      dup3\n        /* \"#utility.yul\":7865:7883   */\n      add\n        /* \"#utility.yul\":7857:7883   */\n      swap1\n      pop\n        /* \"#utility.yul\":7929:7938   */\n      dup2\n        /* \"#utility.yul\":7923:7927   */\n      dup2\n        /* \"#utility.yul\":7919:7939   */\n      sub\n        /* \"#utility.yul\":7915:7916   */\n      0x00\n        /* \"#utility.yul\":7904:7913   */\n      dup4\n        /* \"#utility.yul\":7900:7917   */\n      add\n        /* \"#utility.yul\":7893:7940   */\n      mstore\n        /* \"#utility.yul\":7957:8088   */\n      tag_229\n        /* \"#utility.yul\":8083:8087   */\n      dup2\n        /* \"#utility.yul\":7957:8088   */\n      tag_127\n      jump\t// in\n    tag_229:\n        /* \"#utility.yul\":7949:8088   */\n      swap1\n      pop\n        /* \"#utility.yul\":7676:8095   */\n      swap2\n      swap1\n      pop\n      jump\t// out\n        /* \"#utility.yul\":8101:8219   */\n    tag_128:\n        /* \"#utility.yul\":8188:8212   */\n      tag_231\n        /* \"#utility.yul\":8206:8211   */\n      dup2\n        /* \"#utility.yul\":8188:8212   */\n      tag_107\n      jump\t// in\n    tag_231:\n        /* \"#utility.yul\":8183:8186   */\n      dup3\n        /* \"#utility.yul\":8176:8213   */\n      mstore\n        /* \"#utility.yul\":8101:8219   */\n      pop\n      pop\n      jump\t// out\n        /* \"#utility.yul\":8225:8447   */\n    tag_56:\n        /* \"#utility.yul\":8318:8322   */\n      0x00\n        /* \"#utility.yul\":8356:8358   */\n      0x20\n        /* \"#utility.yul\":8345:8354   */\n      dup3\n        /* \"#utility.yul\":8341:8359   */\n      add\n        /* \"#utility.yul\":8333:8359   */\n      swap1\n      pop\n        /* \"#utility.yul\":8369:8440   */\n      tag_233\n        /* \"#utility.yul\":8437:8438   */\n      0x00\n        /* \"#utility.yul\":8426:8435   */\n      dup4\n        /* \"#utility.yul\":8422:8439   */\n      add\n        /* \"#utility.yul\":8413:8419   */\n      dup5\n        /* \"#utility.yul\":8369:8440   */\n      tag_128\n      jump\t// in\n    tag_233:\n        /* \"#utility.yul\":8225:8447   */\n      swap3\n      swap2\n      pop\n      pop\n      jump\t// out\n        /* \"#utility.yul\":8453:8596   */\n    tag_129:\n        /* \"#utility.yul\":8510:8515   */\n      0x00\n        /* \"#utility.yul\":8541:8547   */\n      dup2\n        /* \"#utility.yul\":8535:8548   */\n      mload\n        /* \"#utility.yul\":8526:8548   */\n      swap1\n      pop\n        /* \"#utility.yul\":8557:8590   */\n      tag_235\n        /* \"#utility.yul\":8584:8589   */\n      dup2\n        /* \"#utility.yul\":8557:8590   */\n      tag_101\n      jump\t// in\n    tag_235:\n        /* \"#utility.yul\":8453:8596   */\n      swap3\n      swap2\n      pop\n      pop\n      jump\t// out\n        /* \"#utility.yul\":8602:8953   */\n    tag_60:\n        /* \"#utility.yul\":8672:8678   */\n      0x00\n        /* \"#utility.yul\":8721:8723   */\n      0x20\n        /* \"#utility.yul\":8709:8718   */\n      dup3\n        /* \"#utility.yul\":8700:8707   */\n      dup5\n        /* \"#utility.yul\":8696:8719   */\n      sub\n        /* \"#utility.yul\":8692:8724   */\n      slt\n        /* \"#utility.yul\":8689:8808   */\n      iszero\n      tag_237\n      jumpi\n        /* \"#utility.yul\":8727:8806   */\n      tag_238\n      tag_98\n      jump\t// in\n    tag_238:\n        /* \"#utility.yul\":8689:8808   */\n    tag_237:\n        /* \"#utility.yul\":8847:8848   */\n      0x00\n        /* \"#utility.yul\":8872:8936   */\n      tag_239\n        /* \"#utility.yul\":8928:8935   */\n      dup5\n        /* \"#utility.yul\":8919:8925   */\n      dup3\n        /* \"#utility.yul\":8908:8917   */\n      dup6\n        /* \"#utility.yul\":8904:8926   */\n      add\n        /* \"#utility.yul\":8872:8936   */\n      tag_129\n      jump\t// in\n    tag_239:\n        /* \"#utility.yul\":8862:8936   */\n      swap2\n      pop\n        /* \"#utility.yul\":8818:8946   */\n      pop\n        /* \"#utility.yul\":8602:8953   */\n      swap3\n      swap2\n      pop\n      pop\n      jump\t// out\n        /* \"#utility.yul\":8959:9139   */\n    tag_130:\n        /* \"#utility.yul\":9007:9084   */\n      0x4e487b7100000000000000000000000000000000000000000000000000000000\n        /* \"#utility.yul\":9004:9005   */\n      0x00\n        /* \"#utility.yul\":8997:9085   */\n      mstore\n        /* \"#utility.yul\":9104:9108   */\n      0x22\n        /* \"#utility.yul\":9101:9102   */\n      0x04\n        /* \"#utility.yul\":9094:9109   */\n      mstore\n        /* \"#utility.yul\":9128:9132   */\n      0x24\n        /* \"#utility.yul\":9125:9126   */\n      0x00\n        /* \"#utility.yul\":9118:9133   */\n      revert\n        /* \"#utility.yul\":9145:9465   */\n    tag_62:\n        /* \"#utility.yul\":9189:9195   */\n      0x00\n        /* \"#utility.yul\":9226:9227   */\n      0x02\n        /* \"#utility.yul\":9220:9224   */\n      dup3\n        /* \"#utility.yul\":9216:9228   */\n      div\n        /* \"#utility.yul\":9206:9228   */\n      swap1\n      pop\n        /* \"#utility.yul\":9273:9274   */\n      0x01\n        /* \"#utility.yul\":9267:9271   */\n      dup3\n        /* \"#utility.yul\":9263:9275   */\n      and\n        /* \"#utility.yul\":9294:9312   */\n      dup1\n        /* \"#utility.yul\":9284:9365   */\n      tag_242\n      jumpi\n        /* \"#utility.yul\":9350:9354   */\n      0x7f\n        /* \"#utility.yul\":9342:9348   */\n      dup3\n        /* \"#utility.yul\":9338:9355   */\n      and\n        /* \"#utility.yul\":9328:9355   */\n      swap2\n      pop\n        /* \"#utility.yul\":9284:9365   */\n    tag_242:\n        /* \"#utility.yul\":9412:9414   */\n      0x20\n        /* \"#utility.yul\":9404:9410   */\n      dup3\n        /* \"#utility.yul\":9401:9415   */\n      lt\n        /* \"#utility.yul\":9381:9399   */\n      dup2\n        /* \"#utility.yul\":9378:9416   */\n      sub\n        /* \"#utility.yul\":9375:9459   */\n      tag_243\n      jumpi\n        /* \"#utility.yul\":9431:9449   */\n      tag_244\n      tag_130\n      jump\t// in\n    tag_244:\n        /* \"#utility.yul\":9375:9459   */\n    tag_243:\n        /* \"#utility.yul\":9196:9465   */\n      pop\n        /* \"#utility.yul\":9145:9465   */\n      swap2\n      swap1\n      pop\n      jump\t// out\n        /* \"#utility.yul\":9471:9699   */\n    tag_131:\n        /* \"#utility.yul\":9611:9645   */\n      0x436f6d707261206d656e6f7320546f6b656e73206f207061676120636f6e206d\n        /* \"#utility.yul\":9607:9608   */\n      0x00\n        /* \"#utility.yul\":9599:9605   */\n      dup3\n        /* \"#utility.yul\":9595:9609   */\n      add\n        /* \"#utility.yul\":9588:9646   */\n      mstore\n        /* \"#utility.yul\":9680:9691   */\n      0x6173206574686572730000000000000000000000000000000000000000000000\n        /* \"#utility.yul\":9675:9677   */\n      0x20\n        /* \"#utility.yul\":9667:9673   */\n      dup3\n        /* \"#utility.yul\":9663:9678   */\n      add\n        /* \"#utility.yul\":9656:9692   */\n      mstore\n        /* \"#utility.yul\":9471:9699   */\n      pop\n      jump\t// out\n        /* \"#utility.yul\":9705:10071   */\n    tag_132:\n        /* \"#utility.yul\":9847:9850   */\n      0x00\n        /* \"#utility.yul\":9868:9935   */\n      tag_247\n        /* \"#utility.yul\":9932:9934   */\n      0x29\n        /* \"#utility.yul\":9927:9930   */\n      dup4\n        /* \"#utility.yul\":9868:9935   */\n      tag_121\n      jump\t// in\n    tag_247:\n        /* \"#utility.yul\":9861:9935   */\n      swap2\n      pop\n        /* \"#utility.yul\":9944:10037   */\n      tag_248\n        /* \"#utility.yul\":10033:10036   */\n      dup3\n        /* \"#utility.yul\":9944:10037   */\n      tag_131\n      jump\t// in\n    tag_248:\n        /* \"#utility.yul\":10062:10064   */\n      0x40\n        /* \"#utility.yul\":10057:10060   */\n      dup3\n        /* \"#utility.yul\":10053:10065   */\n      add\n        /* \"#utility.yul\":10046:10065   */\n      swap1\n      pop\n        /* \"#utility.yul\":9705:10071   */\n      swap2\n      swap1\n      pop\n      jump\t// out\n        /* \"#utility.yul\":10077:10496   */\n    tag_77:\n        /* \"#utility.yul\":10243:10247   */\n      0x00\n        /* \"#utility.yul\":10281:10283   */\n      0x20\n        /* \"#utility.yul\":10270:10279   */\n      dup3\n        /* \"#utility.yul\":10266:10284   */\n      add\n        /* \"#utility.yul\":10258:10284   */\n      swap1\n      pop\n        /* \"#utility.yul\":10330:10339   */\n      dup2\n        /* \"#utility.yul\":10324:10328   */\n      dup2\n        /* \"#utility.yul\":10320:10340   */\n      sub\n        /* \"#utility.yul\":10316:10317   */\n      0x00\n        /* \"#utility.yul\":10305:10314   */\n      dup4\n        /* \"#utility.yul\":10301:10318   */\n      add\n        /* \"#utility.yul\":10294:10341   */\n      mstore\n        /* \"#utility.yul\":10358:10489   */\n      tag_250\n        /* \"#utility.yul\":10484:10488   */\n      dup2\n        /* \"#utility.yul\":10358:10489   */\n      tag_132\n      jump\t// in\n    tag_250:\n        /* \"#utility.yul\":10350:10489   */\n      swap1\n      pop\n        /* \"#utility.yul\":10077:10496   */\n      swap2\n      swap1\n      pop\n      jump\t// out\n        /* \"#utility.yul\":10502:10682   */\n    tag_133:\n        /* \"#utility.yul\":10550:10627   */\n      0x4e487b7100000000000000000000000000000000000000000000000000000000\n        /* \"#utility.yul\":10547:10548   */\n      0x00\n        /* \"#utility.yul\":10540:10628   */\n      mstore\n        /* \"#utility.yul\":10647:10651   */\n      0x11\n        /* \"#utility.yul\":10644:10645   */\n      0x04\n        /* \"#utility.yul\":10637:10652   */\n      mstore\n        /* \"#utility.yul\":10671:10675   */\n      0x24\n        /* \"#utility.yul\":10668:10669   */\n      0x00\n        /* \"#utility.yul\":10661:10676   */\n      revert\n        /* \"#utility.yul\":10688:10882   */\n    tag_79:\n        /* \"#utility.yul\":10728:10732   */\n      0x00\n        /* \"#utility.yul\":10748:10768   */\n      tag_253\n        /* \"#utility.yul\":10766:10767   */\n      dup3\n        /* \"#utility.yul\":10748:10768   */\n      tag_100\n      jump\t// in\n    tag_253:\n        /* \"#utility.yul\":10743:10768   */\n      swap2\n      pop\n        /* \"#utility.yul\":10782:10802   */\n      tag_254\n        /* \"#utility.yul\":10800:10801   */\n      dup4\n        /* \"#utility.yul\":10782:10802   */\n      tag_100\n      jump\t// in\n    tag_254:\n        /* \"#utility.yul\":10777:10802   */\n      swap3\n      pop\n        /* \"#utility.yul\":10826:10827   */\n      dup3\n        /* \"#utility.yul\":10823:10824   */\n      dup3\n        /* \"#utility.yul\":10819:10828   */\n      sub\n        /* \"#utility.yul\":10811:10828   */\n      swap1\n      pop\n        /* \"#utility.yul\":10850:10851   */\n      dup2\n        /* \"#utility.yul\":10844:10848   */\n      dup2\n        /* \"#utility.yul\":10841:10852   */\n      gt\n        /* \"#utility.yul\":10838:10875   */\n      iszero\n      tag_255\n      jumpi\n        /* \"#utility.yul\":10855:10873   */\n      tag_256\n      tag_133\n      jump\t// in\n    tag_256:\n        /* \"#utility.yul\":10838:10875   */\n    tag_255:\n        /* \"#utility.yul\":10688:10882   */\n      swap3\n      swap2\n      pop\n      pop\n      jump\t// out\n        /* \"#utility.yul\":10888:11070   */\n    tag_134:\n        /* \"#utility.yul\":11028:11062   */\n      0x436f6d70726120756e206e756d65726f206d656e6f7220646520746f6b656e73\n        /* \"#utility.yul\":11024:11025   */\n      0x00\n        /* \"#utility.yul\":11016:11022   */\n      dup3\n        /* \"#utility.yul\":11012:11026   */\n      add\n        /* \"#utility.yul\":11005:11063   */\n      mstore\n        /* \"#utility.yul\":10888:11070   */\n      pop\n      jump\t// out\n        /* \"#utility.yul\":11076:11442   */\n    tag_135:\n        /* \"#utility.yul\":11218:11221   */\n      0x00\n        /* \"#utility.yul\":11239:11306   */\n      tag_259\n        /* \"#utility.yul\":11303:11305   */\n      0x20\n        /* \"#utility.yul\":11298:11301   */\n      dup4\n        /* \"#utility.yul\":11239:11306   */\n      tag_121\n      jump\t// in\n    tag_259:\n        /* \"#utility.yul\":11232:11306   */\n      swap2\n      pop\n        /* \"#utility.yul\":11315:11408   */\n      tag_260\n        /* \"#utility.yul\":11404:11407   */\n      dup3\n        /* \"#utility.yul\":11315:11408   */\n      tag_134\n      jump\t// in\n    tag_260:\n        /* \"#utility.yul\":11433:11435   */\n      0x20\n        /* \"#utility.yul\":11428:11431   */\n      dup3\n        /* \"#utility.yul\":11424:11436   */\n      add\n        /* \"#utility.yul\":11417:11436   */\n      swap1\n      pop\n        /* \"#utility.yul\":11076:11442   */\n      swap2\n      swap1\n      pop\n      jump\t// out\n        /* \"#utility.yul\":11448:11867   */\n    tag_85:\n        /* \"#utility.yul\":11614:11618   */\n      0x00\n        /* \"#utility.yul\":11652:11654   */\n      0x20\n        /* \"#utility.yul\":11641:11650   */\n      dup3\n        /* \"#utility.yul\":11637:11655   */\n      add\n        /* \"#utility.yul\":11629:11655   */\n      swap1\n      pop\n        /* \"#utility.yul\":11701:11710   */\n      dup2\n        /* \"#utility.yul\":11695:11699   */\n      dup2\n        /* \"#utility.yul\":11691:11711   */\n      sub\n        /* \"#utility.yul\":11687:11688   */\n      0x00\n        /* \"#utility.yul\":11676:11685   */\n      dup4\n        /* \"#utility.yul\":11672:11689   */\n      add\n        /* \"#utility.yul\":11665:11712   */\n      mstore\n        /* \"#utility.yul\":11729:11860   */\n      tag_262\n        /* \"#utility.yul\":11855:11859   */\n      dup2\n        /* \"#utility.yul\":11729:11860   */\n      tag_135\n      jump\t// in\n    tag_262:\n        /* \"#utility.yul\":11721:11860   */\n      swap1\n      pop\n        /* \"#utility.yul\":11448:11867   */\n      swap2\n      swap1\n      pop\n      jump\t// out\n        /* \"#utility.yul\":11873:12205   */\n    tag_87:\n        /* \"#utility.yul\":11994:11998   */\n      0x00\n        /* \"#utility.yul\":12032:12034   */\n      0x40\n        /* \"#utility.yul\":12021:12030   */\n      dup3\n        /* \"#utility.yul\":12017:12035   */\n      add\n        /* \"#utility.yul\":12009:12035   */\n      swap1\n      pop\n        /* \"#utility.yul\":12045:12116   */\n      tag_264\n        /* \"#utility.yul\":12113:12114   */\n      0x00\n        /* \"#utility.yul\":12102:12111   */\n      dup4\n        /* \"#utility.yul\":12098:12115   */\n      add\n        /* \"#utility.yul\":12089:12095   */\n      dup6\n        /* \"#utility.yul\":12045:12116   */\n      tag_128\n      jump\t// in\n    tag_264:\n        /* \"#utility.yul\":12126:12198   */\n      tag_265\n        /* \"#utility.yul\":12194:12196   */\n      0x20\n        /* \"#utility.yul\":12183:12192   */\n      dup4\n        /* \"#utility.yul\":12179:12197   */\n      add\n        /* \"#utility.yul\":12170:12176   */\n      dup5\n        /* \"#utility.yul\":12126:12198   */\n      tag_103\n      jump\t// in\n    tag_265:\n        /* \"#utility.yul\":11873:12205   */\n      swap4\n      swap3\n      pop\n      pop\n      pop\n      jump\t// out\n        /* \"#utility.yul\":12211:12327   */\n    tag_136:\n        /* \"#utility.yul\":12281:12302   */\n      tag_267\n        /* \"#utility.yul\":12296:12301   */\n      dup2\n        /* \"#utility.yul\":12281:12302   */\n      tag_124\n      jump\t// in\n    tag_267:\n        /* \"#utility.yul\":12274:12279   */\n      dup2\n        /* \"#utility.yul\":12271:12303   */\n      eq\n        /* \"#utility.yul\":12261:12321   */\n      tag_268\n      jumpi\n        /* \"#utility.yul\":12317:12318   */\n      0x00\n        /* \"#utility.yul\":12314:12315   */\n      dup1\n        /* \"#utility.yul\":12307:12319   */\n      revert\n        /* \"#utility.yul\":12261:12321   */\n    tag_268:\n        /* \"#utility.yul\":12211:12327   */\n      pop\n      jump\t// out\n        /* \"#utility.yul\":12333:12470   */\n    tag_137:\n        /* \"#utility.yul\":12387:12392   */\n      0x00\n        /* \"#utility.yul\":12418:12424   */\n      dup2\n        /* \"#utility.yul\":12412:12425   */\n      mload\n        /* \"#utility.yul\":12403:12425   */\n      swap1\n      pop\n        /* \"#utility.yul\":12434:12464   */\n      tag_270\n        /* \"#utility.yul\":12458:12463   */\n      dup2\n        /* \"#utility.yul\":12434:12464   */\n      tag_136\n      jump\t// in\n    tag_270:\n        /* \"#utility.yul\":12333:12470   */\n      swap3\n      swap2\n      pop\n      pop\n      jump\t// out\n        /* \"#utility.yul\":12476:12821   */\n    tag_91:\n        /* \"#utility.yul\":12543:12549   */\n      0x00\n        /* \"#utility.yul\":12592:12594   */\n      0x20\n        /* \"#utility.yul\":12580:12589   */\n      dup3\n        /* \"#utility.yul\":12571:12578   */\n      dup5\n        /* \"#utility.yul\":12567:12590   */\n      sub\n        /* \"#utility.yul\":12563:12595   */\n      slt\n        /* \"#utility.yul\":12560:12679   */\n      iszero\n      tag_272\n      jumpi\n        /* \"#utility.yul\":12598:12677   */\n      tag_273\n      tag_98\n      jump\t// in\n    tag_273:\n        /* \"#utility.yul\":12560:12679   */\n    tag_272:\n        /* \"#utility.yul\":12718:12719   */\n      0x00\n        /* \"#utility.yul\":12743:12804   */\n      tag_274\n        /* \"#utility.yul\":12796:12803   */\n      dup5\n        /* \"#utility.yul\":12787:12793   */\n      dup3\n        /* \"#utility.yul\":12776:12785   */\n      dup6\n        /* \"#utility.yul\":12772:12794   */\n      add\n        /* \"#utility.yul\":12743:12804   */\n      tag_137\n      jump\t// in\n    tag_274:\n        /* \"#utility.yul\":12733:12804   */\n      swap2\n      pop\n        /* \"#utility.yul\":12689:12814   */\n      pop\n        /* \"#utility.yul\":12476:12821   */\n      swap3\n      swap2\n      pop\n      pop\n      jump\t// out\n        /* \"#utility.yul\":12827:13018   */\n    tag_93:\n        /* \"#utility.yul\":12867:12870   */\n      0x00\n        /* \"#utility.yul\":12886:12906   */\n      tag_276\n        /* \"#utility.yul\":12904:12905   */\n      dup3\n        /* \"#utility.yul\":12886:12906   */\n      tag_100\n      jump\t// in\n    tag_276:\n        /* \"#utility.yul\":12881:12906   */\n      swap2\n      pop\n        /* \"#utility.yul\":12920:12940   */\n      tag_277\n        /* \"#utility.yul\":12938:12939   */\n      dup4\n        /* \"#utility.yul\":12920:12940   */\n      tag_100\n      jump\t// in\n    tag_277:\n        /* \"#utility.yul\":12915:12940   */\n      swap3\n      pop\n        /* \"#utility.yul\":12963:12964   */\n      dup3\n        /* \"#utility.yul\":12960:12961   */\n      dup3\n        /* \"#utility.yul\":12956:12965   */\n      add\n        /* \"#utility.yul\":12949:12965   */\n      swap1\n      pop\n        /* \"#utility.yul\":12984:12987   */\n      dup1\n        /* \"#utility.yul\":12981:12982   */\n      dup3\n        /* \"#utility.yul\":12978:12988   */\n      gt\n        /* \"#utility.yul\":12975:13011   */\n      iszero\n      tag_278\n      jumpi\n        /* \"#utility.yul\":12991:13009   */\n      tag_279\n      tag_133\n      jump\t// in\n    tag_279:\n        /* \"#utility.yul\":12975:13011   */\n    tag_278:\n        /* \"#utility.yul\":12827:13018   */\n      swap3\n      swap2\n      pop\n      pop\n      jump\t// out\n        /* \"#utility.yul\":13024:13434   */\n    tag_96:\n        /* \"#utility.yul\":13064:13071   */\n      0x00\n        /* \"#utility.yul\":13087:13107   */\n      tag_281\n        /* \"#utility.yul\":13105:13106   */\n      dup3\n        /* \"#utility.yul\":13087:13107   */\n      tag_100\n      jump\t// in\n    tag_281:\n        /* \"#utility.yul\":13082:13107   */\n      swap2\n      pop\n        /* \"#utility.yul\":13121:13141   */\n      tag_282\n        /* \"#utility.yul\":13139:13140   */\n      dup4\n        /* \"#utility.yul\":13121:13141   */\n      tag_100\n      jump\t// in\n    tag_282:\n        /* \"#utility.yul\":13116:13141   */\n      swap3\n      pop\n        /* \"#utility.yul\":13176:13177   */\n      dup3\n        /* \"#utility.yul\":13173:13174   */\n      dup3\n        /* \"#utility.yul\":13169:13178   */\n      mul\n        /* \"#utility.yul\":13198:13228   */\n      tag_283\n        /* \"#utility.yul\":13216:13227   */\n      dup2\n        /* \"#utility.yul\":13198:13228   */\n      tag_100\n      jump\t// in\n    tag_283:\n        /* \"#utility.yul\":13187:13228   */\n      swap2\n      pop\n        /* \"#utility.yul\":13377:13378   */\n      dup3\n        /* \"#utility.yul\":13368:13375   */\n      dup3\n        /* \"#utility.yul\":13364:13379   */\n      div\n        /* \"#utility.yul\":13361:13362   */\n      dup5\n        /* \"#utility.yul\":13358:13380   */\n      eq\n        /* \"#utility.yul\":13338:13339   */\n      dup4\n        /* \"#utility.yul\":13331:13340   */\n      iszero\n        /* \"#utility.yul\":13311:13394   */\n      or\n        /* \"#utility.yul\":13288:13427   */\n      tag_284\n      jumpi\n        /* \"#utility.yul\":13407:13425   */\n      tag_285\n      tag_133\n      jump\t// in\n    tag_285:\n        /* \"#utility.yul\":13288:13427   */\n    tag_284:\n        /* \"#utility.yul\":13072:13434   */\n      pop\n        /* \"#utility.yul\":13024:13434   */\n      swap3\n      swap2\n      pop\n      pop\n      jump\t// out\n\n    auxdata: 0xa2646970667358221220c2d84532c7da130ad916a7b6b2bde55dc32dd24d8491363889aace542e7750d164736f6c63430008160033\n}\n\nsub_1: assembly {\n        /* \"Disney/ERC20.sol\":1505:3829  contract ERC20Basic is IERC20 {... */\n      mstore(0x40, 0x80)\n        /* \"Disney/ERC20.sol\":1941:2066  constructor(uint256 initialSupply) {... */\n      callvalue\n      dup1\n      iszero\n      tag_1\n      jumpi\n      0x00\n      dup1\n      revert\n    tag_1:\n      pop\n      mload(0x40)\n      sub(codesize, bytecodeSize)\n      dup1\n      bytecodeSize\n      dup4\n      codecopy\n      dup2\n      dup2\n      add\n      0x40\n      mstore\n      dup2\n      add\n      swap1\n      tag_2\n      swap2\n      swap1\n      tag_3\n      jump\t// in\n    tag_2:\n        /* \"Disney/ERC20.sol\":2001:2014  initialSupply */\n      dup1\n        /* \"Disney/ERC20.sol\":1986:1998  totalSupply_ */\n      0x02\n        /* \"Disney/ERC20.sol\":1986:2014  totalSupply_ = initialSupply */\n      dup2\n      swap1\n      sstore\n      pop\n        /* \"Disney/ERC20.sol\":2047:2059  totalSupply_ */\n      sload(0x02)\n        /* \"Disney/ERC20.sol\":2024:2032  balances */\n      0x00\n        /* \"Disney/ERC20.sol\":2024:2044  balances[msg.sender] */\n      dup1\n        /* \"Disney/ERC20.sol\":2033:2043  msg.sender */\n      caller\n        /* \"Disney/ERC20.sol\":2024:2044  balances[msg.sender] */\n      0xffffffffffffffffffffffffffffffffffffffff\n      and\n      0xffffffffffffffffffffffffffffffffffffffff\n      and\n      dup2\n      mstore\n      0x20\n      add\n      swap1\n      dup2\n      mstore\n      0x20\n      add\n      0x00\n      keccak256\n        /* \"Disney/ERC20.sol\":2024:2059  balances[msg.sender] = totalSupply_ */\n      dup2\n      swap1\n      sstore\n      pop\n        /* \"Disney/ERC20.sol\":1941:2066  constructor(uint256 initialSupply) {... */\n      pop\n        /* \"Disney/ERC20.sol\":1505:3829  contract ERC20Basic is IERC20 {... */\n      jump(tag_6)\n        /* \"#utility.yul\":88:205   */\n    tag_8:\n        /* \"#utility.yul\":197:198   */\n      0x00\n        /* \"#utility.yul\":194:195   */\n      dup1\n        /* \"#utility.yul\":187:199   */\n      revert\n        /* \"#utility.yul\":334:411   */\n    tag_10:\n        /* \"#utility.yul\":371:378   */\n      0x00\n        /* \"#utility.yul\":400:405   */\n      dup2\n        /* \"#utility.yul\":389:405   */\n      swap1\n      pop\n        /* \"#utility.yul\":334:411   */\n      swap2\n      swap1\n      pop\n      jump\t// out\n        /* \"#utility.yul\":417:539   */\n    tag_11:\n        /* \"#utility.yul\":490:514   */\n      tag_19\n        /* \"#utility.yul\":508:513   */\n      dup2\n        /* \"#utility.yul\":490:514   */\n      tag_10\n      jump\t// in\n    tag_19:\n        /* \"#utility.yul\":483:488   */\n      dup2\n        /* \"#utility.yul\":480:515   */\n      eq\n        /* \"#utility.yul\":470:533   */\n      tag_20\n      jumpi\n        /* \"#utility.yul\":529:530   */\n      0x00\n        /* \"#utility.yul\":526:527   */\n      dup1\n        /* \"#utility.yul\":519:531   */\n      revert\n        /* \"#utility.yul\":470:533   */\n    tag_20:\n        /* \"#utility.yul\":417:539   */\n      pop\n      jump\t// out\n        /* \"#utility.yul\":545:688   */\n    tag_12:\n        /* \"#utility.yul\":602:607   */\n      0x00\n        /* \"#utility.yul\":633:639   */\n      dup2\n        /* \"#utility.yul\":627:640   */\n      mload\n        /* \"#utility.yul\":618:640   */\n      swap1\n      pop\n        /* \"#utility.yul\":649:682   */\n      tag_22\n        /* \"#utility.yul\":676:681   */\n      dup2\n        /* \"#utility.yul\":649:682   */\n      tag_11\n      jump\t// in\n    tag_22:\n        /* \"#utility.yul\":545:688   */\n      swap3\n      swap2\n      pop\n      pop\n      jump\t// out\n        /* \"#utility.yul\":694:1045   */\n    tag_3:\n        /* \"#utility.yul\":764:770   */\n      0x00\n        /* \"#utility.yul\":813:815   */\n      0x20\n        /* \"#utility.yul\":801:810   */\n      dup3\n        /* \"#utility.yul\":792:799   */\n      dup5\n        /* \"#utility.yul\":788:811   */\n      sub\n        /* \"#utility.yul\":784:816   */\n      slt\n        /* \"#utility.yul\":781:900   */\n      iszero\n      tag_24\n      jumpi\n        /* \"#utility.yul\":819:898   */\n      tag_25\n      tag_8\n      jump\t// in\n    tag_25:\n        /* \"#utility.yul\":781:900   */\n    tag_24:\n        /* \"#utility.yul\":939:940   */\n      0x00\n        /* \"#utility.yul\":964:1028   */\n      tag_26\n        /* \"#utility.yul\":1020:1027   */\n      dup5\n        /* \"#utility.yul\":1011:1017   */\n      dup3\n        /* \"#utility.yul\":1000:1009   */\n      dup6\n        /* \"#utility.yul\":996:1018   */\n      add\n        /* \"#utility.yul\":964:1028   */\n      tag_12\n      jump\t// in\n    tag_26:\n        /* \"#utility.yul\":954:1028   */\n      swap2\n      pop\n        /* \"#utility.yul\":910:1038   */\n      pop\n        /* \"#utility.yul\":694:1045   */\n      swap3\n      swap2\n      pop\n      pop\n      jump\t// out\n        /* \"Disney/ERC20.sol\":1505:3829  contract ERC20Basic is IERC20 {... */\n    tag_6:\n      dataSize(sub_0)\n      dup1\n      dataOffset(sub_0)\n      0x00\n      codecopy\n      0x00\n      return\n    stop\n\n    sub_0: assembly {\n            /* \"Disney/ERC20.sol\":1505:3829  contract ERC20Basic is IERC20 {... */\n          mstore(0x40, 0x80)\n          callvalue\n          dup1\n          iszero\n          tag_1\n          jumpi\n          0x00\n          dup1\n          revert\n        tag_1:\n          pop\n          jumpi(tag_2, lt(calldatasize, 0x04))\n          shr(0xe0, calldataload(0x00))\n          dup1\n          0x70a08231\n          gt\n          tag_13\n          jumpi\n          dup1\n          0x70a08231\n          eq\n          tag_8\n          jumpi\n          dup1\n          0x95d89b41\n          eq\n          tag_9\n          jumpi\n          dup1\n          0xa44b47f7\n          eq\n          tag_10\n          jumpi\n          dup1\n          0xa9059cbb\n          eq\n          tag_11\n          jumpi\n          dup1\n          0xdd62ed3e\n          eq\n          tag_12\n          jumpi\n          jump(tag_2)\n        tag_13:\n          dup1\n          0x06fdde03\n          eq\n          tag_3\n          jumpi\n          dup1\n          0x095ea7b3\n          eq\n          tag_4\n          jumpi\n          dup1\n          0x23b872dd\n          eq\n          tag_5\n          jumpi\n          dup1\n          0x313ce567\n          eq\n          tag_6\n          jumpi\n          dup1\n          0x66e52de5\n          eq\n          tag_7\n          jumpi\n        tag_2:\n          0x00\n          dup1\n          revert\n            /* \"Disney/ERC20.sol\":1597:1646  string public constant name = \"ERC20BlockchainAZ\" */\n        tag_3:\n          tag_14\n          tag_15\n          jump\t// in\n        tag_14:\n          mload(0x40)\n          tag_16\n          swap2\n          swap1\n          tag_17\n          jump\t// in\n        tag_16:\n          mload(0x40)\n          dup1\n          swap2\n          sub\n          swap1\n          return\n            /* \"Disney/ERC20.sol\":3062:3310  function approve(address delegate, uint256 numTokens)... */\n        tag_4:\n          tag_18\n          0x04\n          dup1\n          calldatasize\n          sub\n          dup2\n          add\n          swap1\n          tag_19\n          swap2\n          swap1\n          tag_20\n          jump\t// in\n        tag_19:\n          tag_21\n          jump\t// in\n        tag_18:\n          mload(0x40)\n          tag_22\n          swap2\n          swap1\n          tag_23\n          jump\t// in\n        tag_22:\n          mload(0x40)\n          dup1\n          swap2\n          sub\n          swap1\n          return\n            /* \"Disney/ERC20.sol\":3316:3827  function transferFrom(... */\n        tag_5:\n          tag_24\n          0x04\n          dup1\n          calldatasize\n          sub\n          dup2\n          add\n          swap1\n          tag_25\n          swap2\n          swap1\n          tag_26\n          jump\t// in\n        tag_25:\n          tag_27\n          jump\t// in\n        tag_24:\n          mload(0x40)\n          tag_28\n          swap2\n          swap1\n          tag_23\n          jump\t// in\n        tag_28:\n          mload(0x40)\n          dup1\n          swap2\n          sub\n          swap1\n          return\n            /* \"Disney/ERC20.sol\":1769:1804  uint8 public constant decimals = 18 */\n        tag_6:\n          tag_29\n          tag_30\n          jump\t// in\n        tag_29:\n          mload(0x40)\n          tag_31\n          swap2\n          swap1\n          tag_32\n          jump\t// in\n        tag_31:\n          mload(0x40)\n          dup1\n          swap2\n          sub\n          swap1\n          return\n            /* \"Disney/ERC20.sol\":2176:2334  function increaseTotalSupple(uint256 newTokensAmount) public {... */\n        tag_7:\n          tag_33\n          0x04\n          dup1\n          calldatasize\n          sub\n          dup2\n          add\n          swap1\n          tag_34\n          swap2\n          swap1\n          tag_35\n          jump\t// in\n        tag_34:\n          tag_36\n          jump\t// in\n        tag_33:\n          stop\n            /* \"Disney/ERC20.sol\":2340:2498  function balanceOf(address tokenOwner)... */\n        tag_8:\n          tag_37\n          0x04\n          dup1\n          calldatasize\n          sub\n          dup2\n          add\n          swap1\n          tag_38\n          swap2\n          swap1\n          tag_39\n          jump\t// in\n        tag_38:\n          tag_40\n          jump\t// in\n        tag_37:\n          mload(0x40)\n          tag_41\n          swap2\n          swap1\n          tag_42\n          jump\t// in\n        tag_41:\n          mload(0x40)\n          dup1\n          swap2\n          sub\n          swap1\n          return\n            /* \"Disney/ERC20.sol\":1691:1730  string public constant symbol = \"ERCAZ\" */\n        tag_9:\n          tag_43\n          tag_44\n          jump\t// in\n        tag_43:\n          mload(0x40)\n          tag_45\n          swap2\n          swap1\n          tag_17\n          jump\t// in\n        tag_45:\n          mload(0x40)\n          dup1\n          swap2\n          sub\n          swap1\n          return\n            /* \"Disney/ERC20.sol\":2072:2170  function TotalSupply() public view override returns (uint256) {... */\n        tag_10:\n          tag_46\n          tag_47\n          jump\t// in\n        tag_46:\n          mload(0x40)\n          tag_48\n          swap2\n          swap1\n          tag_42\n          jump\t// in\n        tag_48:\n          mload(0x40)\n          dup1\n          swap2\n          sub\n          swap1\n          return\n            /* \"Disney/ERC20.sol\":2670:3056  function transfer(address recipient, uint256 numTokens)... */\n        tag_11:\n          tag_49\n          0x04\n          dup1\n          calldatasize\n          sub\n          dup2\n          add\n          swap1\n          tag_50\n          swap2\n          swap1\n          tag_20\n          jump\t// in\n        tag_50:\n          tag_51\n          jump\t// in\n        tag_49:\n          mload(0x40)\n          tag_52\n          swap2\n          swap1\n          tag_23\n          jump\t// in\n        tag_52:\n          mload(0x40)\n          dup1\n          swap2\n          sub\n          swap1\n          return\n            /* \"Disney/ERC20.sol\":2504:2664  function allowance(address owner, address delegate)... */\n        tag_12:\n          tag_53\n          0x04\n          dup1\n          calldatasize\n          sub\n          dup2\n          add\n          swap1\n          tag_54\n          swap2\n          swap1\n          tag_55\n          jump\t// in\n        tag_54:\n          tag_56\n          jump\t// in\n        tag_53:\n          mload(0x40)\n          tag_57\n          swap2\n          swap1\n          tag_42\n          jump\t// in\n        tag_57:\n          mload(0x40)\n          dup1\n          swap2\n          sub\n          swap1\n          return\n            /* \"Disney/ERC20.sol\":1597:1646  string public constant name = \"ERC20BlockchainAZ\" */\n        tag_15:\n          mload(0x40)\n          dup1\n          0x40\n          add\n          0x40\n          mstore\n          dup1\n          0x11\n          dup2\n          mstore\n          0x20\n          add\n          0x4552433230426c6f636b636861696e415a000000000000000000000000000000\n          dup2\n          mstore\n          pop\n          dup2\n          jump\t// out\n            /* \"Disney/ERC20.sol\":3062:3310  function approve(address delegate, uint256 numTokens)... */\n        tag_21:\n            /* \"Disney/ERC20.sol\":3165:3169  bool */\n          0x00\n            /* \"Disney/ERC20.sol\":3217:3226  numTokens */\n          dup2\n            /* \"Disney/ERC20.sol\":3185:3192  allowed */\n          0x01\n            /* \"Disney/ERC20.sol\":3185:3204  allowed[msg.sender] */\n          0x00\n            /* \"Disney/ERC20.sol\":3193:3203  msg.sender */\n          caller\n            /* \"Disney/ERC20.sol\":3185:3204  allowed[msg.sender] */\n          0xffffffffffffffffffffffffffffffffffffffff\n          and\n          0xffffffffffffffffffffffffffffffffffffffff\n          and\n          dup2\n          mstore\n          0x20\n          add\n          swap1\n          dup2\n          mstore\n          0x20\n          add\n          0x00\n          keccak256\n            /* \"Disney/ERC20.sol\":3185:3214  allowed[msg.sender][delegate] */\n          0x00\n            /* \"Disney/ERC20.sol\":3205:3213  delegate */\n          dup6\n            /* \"Disney/ERC20.sol\":3185:3214  allowed[msg.sender][delegate] */\n          0xffffffffffffffffffffffffffffffffffffffff\n          and\n          0xffffffffffffffffffffffffffffffffffffffff\n          and\n          dup2\n          mstore\n          0x20\n          add\n          swap1\n          dup2\n          mstore\n          0x20\n          add\n          0x00\n          keccak256\n            /* \"Disney/ERC20.sol\":3185:3226  allowed[msg.sender][delegate] = numTokens */\n          dup2\n          swap1\n          sstore\n          pop\n            /* \"Disney/ERC20.sol\":3262:3270  delegate */\n          dup3\n            /* \"Disney/ERC20.sol\":3241:3282  Approval(msg.sender, delegate, numTokens) */\n          0xffffffffffffffffffffffffffffffffffffffff\n          and\n            /* \"Disney/ERC20.sol\":3250:3260  msg.sender */\n          caller\n            /* \"Disney/ERC20.sol\":3241:3282  Approval(msg.sender, delegate, numTokens) */\n          0xffffffffffffffffffffffffffffffffffffffff\n          and\n          0x8c5be1e5ebec7d5bd14f71427d1e84f3dd0314c0f7b2291e5b200ac8c7c3b925\n            /* \"Disney/ERC20.sol\":3272:3281  numTokens */\n          dup5\n            /* \"Disney/ERC20.sol\":3241:3282  Approval(msg.sender, delegate, numTokens) */\n          mload(0x40)\n          tag_59\n          swap2\n          swap1\n          tag_42\n          jump\t// in\n        tag_59:\n          mload(0x40)\n          dup1\n          swap2\n          sub\n          swap1\n          log3\n            /* \"Disney/ERC20.sol\":3299:3303  true */\n          0x01\n            /* \"Disney/ERC20.sol\":3292:3303  return true */\n          swap1\n          pop\n            /* \"Disney/ERC20.sol\":3062:3310  function approve(address delegate, uint256 numTokens)... */\n          swap3\n          swap2\n          pop\n          pop\n          jump\t// out\n            /* \"Disney/ERC20.sol\":3316:3827  function transferFrom(... */\n        tag_27:\n            /* \"Disney/ERC20.sol\":3442:3446  bool */\n          0x00\n            /* \"Disney/ERC20.sol\":3479:3487  balances */\n          dup1\n            /* \"Disney/ERC20.sol\":3479:3494  balances[owner] */\n          0x00\n            /* \"Disney/ERC20.sol\":3488:3493  owner */\n          dup6\n            /* \"Disney/ERC20.sol\":3479:3494  balances[owner] */\n          0xffffffffffffffffffffffffffffffffffffffff\n          and\n          0xffffffffffffffffffffffffffffffffffffffff\n          and\n          dup2\n          mstore\n          0x20\n          add\n          swap1\n          dup2\n          mstore\n          0x20\n          add\n          0x00\n          keccak256\n          sload\n            /* \"Disney/ERC20.sol\":3466:3475  numTokens */\n          dup3\n            /* \"Disney/ERC20.sol\":3466:3494  numTokens <= balances[owner] */\n          gt\n          iszero\n            /* \"Disney/ERC20.sol\":3458:3495  require(numTokens <= balances[owner]) */\n          tag_61\n          jumpi\n          0x00\n          dup1\n          revert\n        tag_61:\n            /* \"Disney/ERC20.sol\":3526:3533  allowed */\n          0x01\n            /* \"Disney/ERC20.sol\":3526:3540  allowed[owner] */\n          0x00\n            /* \"Disney/ERC20.sol\":3534:3539  owner */\n          dup6\n            /* \"Disney/ERC20.sol\":3526:3540  allowed[owner] */\n          0xffffffffffffffffffffffffffffffffffffffff\n          and\n          0xffffffffffffffffffffffffffffffffffffffff\n          and\n          dup2\n          mstore\n          0x20\n          add\n          swap1\n          dup2\n          mstore\n          0x20\n          add\n          0x00\n          keccak256\n            /* \"Disney/ERC20.sol\":3526:3552  allowed[owner][msg.sender] */\n          0x00\n            /* \"Disney/ERC20.sol\":3541:3551  msg.sender */\n          caller\n            /* \"Disney/ERC20.sol\":3526:3552  allowed[owner][msg.sender] */\n          0xffffffffffffffffffffffffffffffffffffffff\n          and\n          0xffffffffffffffffffffffffffffffffffffffff\n          and\n          dup2\n          mstore\n          0x20\n          add\n          swap1\n          dup2\n          mstore\n          0x20\n          add\n          0x00\n          keccak256\n          sload\n            /* \"Disney/ERC20.sol\":3513:3522  numTokens */\n          dup3\n            /* \"Disney/ERC20.sol\":3513:3552  numTokens <= allowed[owner][msg.sender] */\n          gt\n          iszero\n            /* \"Disney/ERC20.sol\":3505:3553  require(numTokens <= allowed[owner][msg.sender]) */\n          tag_62\n          jumpi\n          0x00\n          dup1\n          revert\n        tag_62:\n            /* \"Disney/ERC20.sol\":3582:3612  balances[owner].sub(numTokens) */\n          tag_63\n            /* \"Disney/ERC20.sol\":3602:3611  numTokens */\n          dup3\n            /* \"Disney/ERC20.sol\":3582:3590  balances */\n          0x00\n            /* \"Disney/ERC20.sol\":3582:3597  balances[owner] */\n          dup1\n            /* \"Disney/ERC20.sol\":3591:3596  owner */\n          dup8\n            /* \"Disney/ERC20.sol\":3582:3597  balances[owner] */\n          0xffffffffffffffffffffffffffffffffffffffff\n          and\n          0xffffffffffffffffffffffffffffffffffffffff\n          and\n          dup2\n          mstore\n          0x20\n          add\n          swap1\n          dup2\n          mstore\n          0x20\n          add\n          0x00\n          keccak256\n          sload\n            /* \"Disney/ERC20.sol\":3582:3601  balances[owner].sub */\n          tag_64\n          swap1\n            /* \"Disney/ERC20.sol\":3582:3612  balances[owner].sub(numTokens) */\n          swap2\n          swap1\n          0xffffffff\n          and\n          jump\t// in\n        tag_63:\n            /* \"Disney/ERC20.sol\":3564:3572  balances */\n          0x00\n            /* \"Disney/ERC20.sol\":3564:3579  balances[owner] */\n          dup1\n            /* \"Disney/ERC20.sol\":3573:3578  owner */\n          dup7\n            /* \"Disney/ERC20.sol\":3564:3579  balances[owner] */\n          0xffffffffffffffffffffffffffffffffffffffff\n          and\n          0xffffffffffffffffffffffffffffffffffffffff\n          and\n          dup2\n          mstore\n          0x20\n          add\n          swap1\n          dup2\n          mstore\n          0x20\n          add\n          0x00\n          keccak256\n            /* \"Disney/ERC20.sol\":3564:3612  balances[owner] = balances[owner].sub(numTokens) */\n          dup2\n          swap1\n          sstore\n          pop\n            /* \"Disney/ERC20.sol\":3651:3692  allowed[owner][msg.sender].sub(numTokens) */\n          tag_65\n            /* \"Disney/ERC20.sol\":3682:3691  numTokens */\n          dup3\n            /* \"Disney/ERC20.sol\":3651:3658  allowed */\n          0x01\n            /* \"Disney/ERC20.sol\":3651:3665  allowed[owner] */\n          0x00\n            /* \"Disney/ERC20.sol\":3659:3664  owner */\n          dup8\n            /* \"Disney/ERC20.sol\":3651:3665  allowed[owner] */\n          0xffffffffffffffffffffffffffffffffffffffff\n          and\n          0xffffffffffffffffffffffffffffffffffffffff\n          and\n          dup2\n          mstore\n          0x20\n          add\n          swap1\n          dup2\n          mstore\n          0x20\n          add\n          0x00\n          keccak256\n            /* \"Disney/ERC20.sol\":3651:3677  allowed[owner][msg.sender] */\n          0x00\n            /* \"Disney/ERC20.sol\":3666:3676  msg.sender */\n          caller\n            /* \"Disney/ERC20.sol\":3651:3677  allowed[owner][msg.sender] */\n          0xffffffffffffffffffffffffffffffffffffffff\n          and\n          0xffffffffffffffffffffffffffffffffffffffff\n          and\n          dup2\n          mstore\n          0x20\n          add\n          swap1\n          dup2\n          mstore\n          0x20\n          add\n          0x00\n          keccak256\n          sload\n            /* \"Disney/ERC20.sol\":3651:3681  allowed[owner][msg.sender].sub */\n          tag_64\n          swap1\n            /* \"Disney/ERC20.sol\":3651:3692  allowed[owner][msg.sender].sub(numTokens) */\n          swap2\n          swap1\n          0xffffffff\n          and\n          jump\t// in\n        tag_65:\n            /* \"Disney/ERC20.sol\":3622:3629  allowed */\n          0x01\n            /* \"Disney/ERC20.sol\":3622:3636  allowed[owner] */\n          0x00\n            /* \"Disney/ERC20.sol\":3630:3635  owner */\n          dup7\n            /* \"Disney/ERC20.sol\":3622:3636  allowed[owner] */\n          0xffffffffffffffffffffffffffffffffffffffff\n          and\n          0xffffffffffffffffffffffffffffffffffffffff\n          and\n          dup2\n          mstore\n          0x20\n          add\n          swap1\n          dup2\n          mstore\n          0x20\n          add\n          0x00\n          keccak256\n            /* \"Disney/ERC20.sol\":3622:3648  allowed[owner][msg.sender] */\n          0x00\n            /* \"Disney/ERC20.sol\":3637:3647  msg.sender */\n          caller\n            /* \"Disney/ERC20.sol\":3622:3648  allowed[owner][msg.sender] */\n          0xffffffffffffffffffffffffffffffffffffffff\n          and\n          0xffffffffffffffffffffffffffffffffffffffff\n          and\n          dup2\n          mstore\n          0x20\n          add\n          swap1\n          dup2\n          mstore\n          0x20\n          add\n          0x00\n          keccak256\n            /* \"Disney/ERC20.sol\":3622:3692  allowed[owner][msg.sender] = allowed[owner][msg.sender].sub(numTokens) */\n          dup2\n          swap1\n          sstore\n          pop\n            /* \"Disney/ERC20.sol\":3720:3750  balances[buyer].add(numTokens) */\n          tag_66\n            /* \"Disney/ERC20.sol\":3740:3749  numTokens */\n          dup3\n            /* \"Disney/ERC20.sol\":3720:3728  balances */\n          0x00\n            /* \"Disney/ERC20.sol\":3720:3735  balances[buyer] */\n          dup1\n            /* \"Disney/ERC20.sol\":3729:3734  buyer */\n          dup7\n            /* \"Disney/ERC20.sol\":3720:3735  balances[buyer] */\n          0xffffffffffffffffffffffffffffffffffffffff\n          and\n          0xffffffffffffffffffffffffffffffffffffffff\n          and\n          dup2\n          mstore\n          0x20\n          add\n          swap1\n          dup2\n          mstore\n          0x20\n          add\n          0x00\n          keccak256\n          sload\n            /* \"Disney/ERC20.sol\":3720:3739  balances[buyer].add */\n          tag_67\n          swap1\n            /* \"Disney/ERC20.sol\":3720:3750  balances[buyer].add(numTokens) */\n          swap2\n          swap1\n          0xffffffff\n          and\n          jump\t// in\n        tag_66:\n            /* \"Disney/ERC20.sol\":3702:3710  balances */\n          0x00\n            /* \"Disney/ERC20.sol\":3702:3717  balances[buyer] */\n          dup1\n            /* \"Disney/ERC20.sol\":3711:3716  buyer */\n          dup6\n            /* \"Disney/ERC20.sol\":3702:3717  balances[buyer] */\n          0xffffffffffffffffffffffffffffffffffffffff\n          and\n          0xffffffffffffffffffffffffffffffffffffffff\n          and\n          dup2\n          mstore\n          0x20\n          add\n          swap1\n          dup2\n          mstore\n          0x20\n          add\n          0x00\n          keccak256\n            /* \"Disney/ERC20.sol\":3702:3750  balances[buyer] = balances[buyer].add(numTokens) */\n          dup2\n          swap1\n          sstore\n          pop\n            /* \"Disney/ERC20.sol\":3781:3786  buyer */\n          dup3\n            /* \"Disney/ERC20.sol\":3765:3798  Transfer(owner, buyer, numTokens) */\n          0xffffffffffffffffffffffffffffffffffffffff\n          and\n            /* \"Disney/ERC20.sol\":3774:3779  owner */\n          dup5\n            /* \"Disney/ERC20.sol\":3765:3798  Transfer(owner, buyer, numTokens) */\n          0xffffffffffffffffffffffffffffffffffffffff\n          and\n          0xddf252ad1be2c89b69c2b068fc378daa952ba7f163c4a11628f55a4df523b3ef\n            /* \"Disney/ERC20.sol\":3788:3797  numTokens */\n          dup5\n            /* \"Disney/ERC20.sol\":3765:3798  Transfer(owner, buyer, numTokens) */\n          mload(0x40)\n          tag_68\n          swap2\n          swap1\n          tag_42\n          jump\t// in\n        tag_68:\n          mload(0x40)\n          dup1\n          swap2\n          sub\n          swap1\n          log3\n            /* \"Disney/ERC20.sol\":3815:3820  false */\n          0x00\n            /* \"Disney/ERC20.sol\":3808:3820  return false */\n          swap1\n          pop\n            /* \"Disney/ERC20.sol\":3316:3827  function transferFrom(... */\n          swap4\n          swap3\n          pop\n          pop\n          pop\n          jump\t// out\n            /* \"Disney/ERC20.sol\":1769:1804  uint8 public constant decimals = 18 */\n        tag_30:\n            /* \"Disney/ERC20.sol\":1802:1804  18 */\n          0x12\n            /* \"Disney/ERC20.sol\":1769:1804  uint8 public constant decimals = 18 */\n          dup2\n          jump\t// out\n            /* \"Disney/ERC20.sol\":2176:2334  function increaseTotalSupple(uint256 newTokensAmount) public {... */\n        tag_36:\n            /* \"Disney/ERC20.sol\":2263:2278  newTokensAmount */\n          dup1\n            /* \"Disney/ERC20.sol\":2247:2259  totalSupply_ */\n          0x02\n          0x00\n            /* \"Disney/ERC20.sol\":2247:2278  totalSupply_ += newTokensAmount */\n          dup3\n          dup3\n          sload\n          tag_70\n          swap2\n          swap1\n          tag_71\n          jump\t// in\n        tag_70:\n          swap3\n          pop\n          pop\n          dup2\n          swap1\n          sstore\n          pop\n            /* \"Disney/ERC20.sol\":2312:2327  newTokensAmount */\n          dup1\n            /* \"Disney/ERC20.sol\":2288:2296  balances */\n          0x00\n            /* \"Disney/ERC20.sol\":2288:2308  balances[msg.sender] */\n          dup1\n            /* \"Disney/ERC20.sol\":2297:2307  msg.sender */\n          caller\n            /* \"Disney/ERC20.sol\":2288:2308  balances[msg.sender] */\n          0xffffffffffffffffffffffffffffffffffffffff\n          and\n          0xffffffffffffffffffffffffffffffffffffffff\n          and\n          dup2\n          mstore\n          0x20\n          add\n          swap1\n          dup2\n          mstore\n          0x20\n          add\n          0x00\n          keccak256\n          0x00\n            /* \"Disney/ERC20.sol\":2288:2327  balances[msg.sender] += newTokensAmount */\n          dup3\n          dup3\n          sload\n          tag_72\n          swap2\n          swap1\n          tag_71\n          jump\t// in\n        tag_72:\n          swap3\n          pop\n          pop\n          dup2\n          swap1\n          sstore\n          pop\n            /* \"Disney/ERC20.sol\":2176:2334  function increaseTotalSupple(uint256 newTokensAmount) public {... */\n          pop\n          jump\t// out\n            /* \"Disney/ERC20.sol\":2340:2498  function balanceOf(address tokenOwner)... */\n        tag_40:\n            /* \"Disney/ERC20.sol\":2441:2448  uint256 */\n          0x00\n            /* \"Disney/ERC20.sol\":2471:2479  balances */\n          dup1\n            /* \"Disney/ERC20.sol\":2471:2491  balances[tokenOwner] */\n          0x00\n            /* \"Disney/ERC20.sol\":2480:2490  tokenOwner */\n          dup4\n            /* \"Disney/ERC20.sol\":2471:2491  balances[tokenOwner] */\n          0xffffffffffffffffffffffffffffffffffffffff\n          and\n          0xffffffffffffffffffffffffffffffffffffffff\n          and\n          dup2\n          mstore\n          0x20\n          add\n          swap1\n          dup2\n          mstore\n          0x20\n          add\n          0x00\n          keccak256\n          sload\n            /* \"Disney/ERC20.sol\":2464:2491  return balances[tokenOwner] */\n          swap1\n          pop\n            /* \"Disney/ERC20.sol\":2340:2498  function balanceOf(address tokenOwner)... */\n          swap2\n          swap1\n          pop\n          jump\t// out\n            /* \"Disney/ERC20.sol\":1691:1730  string public constant symbol = \"ERCAZ\" */\n        tag_44:\n          mload(0x40)\n          dup1\n          0x40\n          add\n          0x40\n          mstore\n          dup1\n          0x05\n          dup2\n          mstore\n          0x20\n          add\n          0x455243415a000000000000000000000000000000000000000000000000000000\n          dup2\n          mstore\n          pop\n          dup2\n          jump\t// out\n            /* \"Disney/ERC20.sol\":2072:2170  function TotalSupply() public view override returns (uint256) {... */\n        tag_47:\n            /* \"Disney/ERC20.sol\":2125:2132  uint256 */\n          0x00\n            /* \"Disney/ERC20.sol\":2151:2163  totalSupply_ */\n          sload(0x02)\n            /* \"Disney/ERC20.sol\":2144:2163  return totalSupply_ */\n          swap1\n          pop\n            /* \"Disney/ERC20.sol\":2072:2170  function TotalSupply() public view override returns (uint256) {... */\n          swap1\n          jump\t// out\n            /* \"Disney/ERC20.sol\":2670:3056  function transfer(address recipient, uint256 numTokens)... */\n        tag_51:\n            /* \"Disney/ERC20.sol\":2775:2779  bool */\n          0x00\n            /* \"Disney/ERC20.sol\":2816:2824  balances */\n          dup1\n            /* \"Disney/ERC20.sol\":2816:2836  balances[msg.sender] */\n          0x00\n            /* \"Disney/ERC20.sol\":2825:2835  msg.sender */\n          caller\n            /* \"Disney/ERC20.sol\":2816:2836  balances[msg.sender] */\n          0xffffffffffffffffffffffffffffffffffffffff\n          and\n          0xffffffffffffffffffffffffffffffffffffffff\n          and\n          dup2\n          mstore\n          0x20\n          add\n          swap1\n          dup2\n          mstore\n          0x20\n          add\n          0x00\n          keccak256\n          sload\n            /* \"Disney/ERC20.sol\":2803:2812  numTokens */\n          dup3\n            /* \"Disney/ERC20.sol\":2803:2836  numTokens <= balances[msg.sender] */\n          gt\n          iszero\n            /* \"Disney/ERC20.sol\":2795:2837  require(numTokens <= balances[msg.sender]) */\n          tag_76\n          jumpi\n          0x00\n          dup1\n          revert\n        tag_76:\n            /* \"Disney/ERC20.sol\":2870:2905  balances[msg.sender].sub(numTokens) */\n          tag_77\n            /* \"Disney/ERC20.sol\":2895:2904  numTokens */\n          dup3\n            /* \"Disney/ERC20.sol\":2870:2878  balances */\n          0x00\n            /* \"Disney/ERC20.sol\":2870:2890  balances[msg.sender] */\n          dup1\n            /* \"Disney/ERC20.sol\":2879:2889  msg.sender */\n          caller\n            /* \"Disney/ERC20.sol\":2870:2890  balances[msg.sender] */\n          0xffffffffffffffffffffffffffffffffffffffff\n          and\n          0xffffffffffffffffffffffffffffffffffffffff\n          and\n          dup2\n          mstore\n          0x20\n          add\n          swap1\n          dup2\n          mstore\n          0x20\n          add\n          0x00\n          keccak256\n          sload\n            /* \"Disney/ERC20.sol\":2870:2894  balances[msg.sender].sub */\n          tag_64\n          swap1\n            /* \"Disney/ERC20.sol\":2870:2905  balances[msg.sender].sub(numTokens) */\n          swap2\n          swap1\n          0xffffffff\n          and\n          jump\t// in\n        tag_77:\n            /* \"Disney/ERC20.sol\":2847:2855  balances */\n          0x00\n            /* \"Disney/ERC20.sol\":2847:2867  balances[msg.sender] */\n          dup1\n            /* \"Disney/ERC20.sol\":2856:2866  msg.sender */\n          caller\n            /* \"Disney/ERC20.sol\":2847:2867  balances[msg.sender] */\n          0xffffffffffffffffffffffffffffffffffffffff\n          and\n          0xffffffffffffffffffffffffffffffffffffffff\n          and\n          dup2\n          mstore\n          0x20\n          add\n          swap1\n          dup2\n          mstore\n          0x20\n          add\n          0x00\n          keccak256\n            /* \"Disney/ERC20.sol\":2847:2905  balances[msg.sender] = balances[msg.sender].sub(numTokens) */\n          dup2\n          swap1\n          sstore\n          pop\n            /* \"Disney/ERC20.sol\":2937:2971  balances[recipient].add(numTokens) */\n          tag_78\n            /* \"Disney/ERC20.sol\":2961:2970  numTokens */\n          dup3\n            /* \"Disney/ERC20.sol\":2937:2945  balances */\n          0x00\n            /* \"Disney/ERC20.sol\":2937:2956  balances[recipient] */\n          dup1\n            /* \"Disney/ERC20.sol\":2946:2955  recipient */\n          dup7\n            /* \"Disney/ERC20.sol\":2937:2956  balances[recipient] */\n          0xffffffffffffffffffffffffffffffffffffffff\n          and\n          0xffffffffffffffffffffffffffffffffffffffff\n          and\n          dup2\n          mstore\n          0x20\n          add\n          swap1\n          dup2\n          mstore\n          0x20\n          add\n          0x00\n          keccak256\n          sload\n            /* \"Disney/ERC20.sol\":2937:2960  balances[recipient].add */\n          tag_67\n          swap1\n            /* \"Disney/ERC20.sol\":2937:2971  balances[recipient].add(numTokens) */\n          swap2\n          swap1\n          0xffffffff\n          and\n          jump\t// in\n        tag_78:\n            /* \"Disney/ERC20.sol\":2915:2923  balances */\n          0x00\n            /* \"Disney/ERC20.sol\":2915:2934  balances[recipient] */\n          dup1\n            /* \"Disney/ERC20.sol\":2924:2933  recipient */\n          dup6\n            /* \"Disney/ERC20.sol\":2915:2934  balances[recipient] */\n          0xffffffffffffffffffffffffffffffffffffffff\n          and\n          0xffffffffffffffffffffffffffffffffffffffff\n          and\n          dup2\n          mstore\n          0x20\n          add\n          swap1\n          dup2\n          mstore\n          0x20\n          add\n          0x00\n          keccak256\n            /* \"Disney/ERC20.sol\":2915:2971  balances[recipient] = balances[recipient].add(numTokens) */\n          dup2\n          swap1\n          sstore\n          pop\n            /* \"Disney/ERC20.sol\":3007:3016  recipient */\n          dup3\n            /* \"Disney/ERC20.sol\":2986:3028  Transfer(msg.sender, recipient, numTokens) */\n          0xffffffffffffffffffffffffffffffffffffffff\n          and\n            /* \"Disney/ERC20.sol\":2995:3005  msg.sender */\n          caller\n            /* \"Disney/ERC20.sol\":2986:3028  Transfer(msg.sender, recipient, numTokens) */\n          0xffffffffffffffffffffffffffffffffffffffff\n          and\n          0xddf252ad1be2c89b69c2b068fc378daa952ba7f163c4a11628f55a4df523b3ef\n            /* \"Disney/ERC20.sol\":3018:3027  numTokens */\n          dup5\n            /* \"Disney/ERC20.sol\":2986:3028  Transfer(msg.sender, recipient, numTokens) */\n          mload(0x40)\n          tag_79\n          swap2\n          swap1\n          tag_42\n          jump\t// in\n        tag_79:\n          mload(0x40)\n          dup1\n          swap2\n          sub\n          swap1\n          log3\n            /* \"Disney/ERC20.sol\":3045:3049  true */\n          0x01\n            /* \"Disney/ERC20.sol\":3038:3049  return true */\n          swap1\n          pop\n            /* \"Disney/ERC20.sol\":2670:3056  function transfer(address recipient, uint256 numTokens)... */\n          swap3\n          swap2\n          pop\n          pop\n          jump\t// out\n            /* \"Disney/ERC20.sol\":2504:2664  function allowance(address owner, address delegate)... */\n        tag_56:\n            /* \"Disney/ERC20.sol\":2603:2610  uint256 */\n          0x00\n            /* \"Disney/ERC20.sol\":2633:2640  allowed */\n          0x01\n            /* \"Disney/ERC20.sol\":2633:2647  allowed[owner] */\n          0x00\n            /* \"Disney/ERC20.sol\":2641:2646  owner */\n          dup5\n            /* \"Disney/ERC20.sol\":2633:2647  allowed[owner] */\n          0xffffffffffffffffffffffffffffffffffffffff\n          and\n          0xffffffffffffffffffffffffffffffffffffffff\n          and\n          dup2\n          mstore\n          0x20\n          add\n          swap1\n          dup2\n          mstore\n          0x20\n          add\n          0x00\n          keccak256\n            /* \"Disney/ERC20.sol\":2633:2657  allowed[owner][delegate] */\n          0x00\n            /* \"Disney/ERC20.sol\":2648:2656  delegate */\n          dup4\n            /* \"Disney/ERC20.sol\":2633:2657  allowed[owner][delegate] */\n          0xffffffffffffffffffffffffffffffffffffffff\n          and\n          0xffffffffffffffffffffffffffffffffffffffff\n          and\n          dup2\n          mstore\n          0x20\n          add\n          swap1\n          dup2\n          mstore\n          0x20\n          add\n          0x00\n          keccak256\n          sload\n            /* \"Disney/ERC20.sol\":2626:2657  return allowed[owner][delegate] */\n          swap1\n          pop\n            /* \"Disney/ERC20.sol\":2504:2664  function allowance(address owner, address delegate)... */\n          swap3\n          swap2\n          pop\n          pop\n          jump\t// out\n            /* \"Disney/SafeMath.sol\":308:424  function sub(uint256 a, uint256 b) internal pure returns (uint256) {... */\n        tag_64:\n            /* \"Disney/SafeMath.sol\":366:373  uint256 */\n          0x00\n            /* \"Disney/SafeMath.sol\":395:396  a */\n          dup3\n            /* \"Disney/SafeMath.sol\":390:391  b */\n          dup3\n            /* \"Disney/SafeMath.sol\":390:396  b <= a */\n          gt\n          iszero\n            /* \"Disney/SafeMath.sol\":383:397  assert(b <= a) */\n          tag_82\n          jumpi\n          tag_83\n          tag_84\n          jump\t// in\n        tag_83:\n        tag_82:\n            /* \"Disney/SafeMath.sol\":416:417  b */\n          dup2\n            /* \"Disney/SafeMath.sol\":412:413  a */\n          dup4\n            /* \"Disney/SafeMath.sol\":412:417  a - b */\n          tag_85\n          swap2\n          swap1\n          tag_86\n          jump\t// in\n        tag_85:\n            /* \"Disney/SafeMath.sol\":405:417  return a - b */\n          swap1\n          pop\n            /* \"Disney/SafeMath.sol\":308:424  function sub(uint256 a, uint256 b) internal pure returns (uint256) {... */\n          swap3\n          swap2\n          pop\n          pop\n          jump\t// out\n            /* \"Disney/SafeMath.sol\":447:584  function add(uint256 a, uint256 b) internal pure returns (uint256) {... */\n        tag_67:\n            /* \"Disney/SafeMath.sol\":505:512  uint256 */\n          0x00\n            /* \"Disney/SafeMath.sol\":522:531  uint256 c */\n          dup1\n            /* \"Disney/SafeMath.sol\":538:539  b */\n          dup3\n            /* \"Disney/SafeMath.sol\":534:535  a */\n          dup5\n            /* \"Disney/SafeMath.sol\":534:539  a + b */\n          tag_88\n          swap2\n          swap1\n          tag_71\n          jump\t// in\n        tag_88:\n            /* \"Disney/SafeMath.sol\":522:539  uint256 c = a + b */\n          swap1\n          pop\n            /* \"Disney/SafeMath.sol\":559:560  a */\n          dup4\n            /* \"Disney/SafeMath.sol\":554:555  c */\n          dup2\n            /* \"Disney/SafeMath.sol\":554:560  c >= a */\n          lt\n          iszero\n            /* \"Disney/SafeMath.sol\":547:561  assert(c >= a) */\n          tag_89\n          jumpi\n          tag_90\n          tag_84\n          jump\t// in\n        tag_90:\n        tag_89:\n            /* \"Disney/SafeMath.sol\":576:577  c */\n          dup1\n            /* \"Disney/SafeMath.sol\":569:577  return c */\n          swap2\n          pop\n          pop\n            /* \"Disney/SafeMath.sol\":447:584  function add(uint256 a, uint256 b) internal pure returns (uint256) {... */\n          swap3\n          swap2\n          pop\n          pop\n          jump\t// out\n            /* \"#utility.yul\":7:106   */\n        tag_91:\n            /* \"#utility.yul\":59:65   */\n          0x00\n            /* \"#utility.yul\":93:98   */\n          dup2\n            /* \"#utility.yul\":87:99   */\n          mload\n            /* \"#utility.yul\":77:99   */\n          swap1\n          pop\n            /* \"#utility.yul\":7:106   */\n          swap2\n          swap1\n          pop\n          jump\t// out\n            /* \"#utility.yul\":112:281   */\n        tag_92:\n            /* \"#utility.yul\":196:207   */\n          0x00\n            /* \"#utility.yul\":230:236   */\n          dup3\n            /* \"#utility.yul\":225:228   */\n          dup3\n            /* \"#utility.yul\":218:237   */\n          mstore\n            /* \"#utility.yul\":270:274   */\n          0x20\n            /* \"#utility.yul\":265:268   */\n          dup3\n            /* \"#utility.yul\":261:275   */\n          add\n            /* \"#utility.yul\":246:275   */\n          swap1\n          pop\n            /* \"#utility.yul\":112:281   */\n          swap3\n          swap2\n          pop\n          pop\n          jump\t// out\n            /* \"#utility.yul\":287:533   */\n        tag_93:\n            /* \"#utility.yul\":368:369   */\n          0x00\n            /* \"#utility.yul\":378:491   */\n        tag_116:\n            /* \"#utility.yul\":392:398   */\n          dup4\n            /* \"#utility.yul\":389:390   */\n          dup2\n            /* \"#utility.yul\":386:399   */\n          lt\n            /* \"#utility.yul\":378:491   */\n          iszero\n          tag_118\n          jumpi\n            /* \"#utility.yul\":477:478   */\n          dup1\n            /* \"#utility.yul\":472:475   */\n          dup3\n            /* \"#utility.yul\":468:479   */\n          add\n            /* \"#utility.yul\":462:480   */\n          mload\n            /* \"#utility.yul\":458:459   */\n          dup2\n            /* \"#utility.yul\":453:456   */\n          dup5\n            /* \"#utility.yul\":449:460   */\n          add\n            /* \"#utility.yul\":442:481   */\n          mstore\n            /* \"#utility.yul\":414:416   */\n          0x20\n            /* \"#utility.yul\":411:412   */\n          dup2\n            /* \"#utility.yul\":407:417   */\n          add\n            /* \"#utility.yul\":402:417   */\n          swap1\n          pop\n            /* \"#utility.yul\":378:491   */\n          jump(tag_116)\n        tag_118:\n            /* \"#utility.yul\":525:526   */\n          0x00\n            /* \"#utility.yul\":516:522   */\n          dup5\n            /* \"#utility.yul\":511:514   */\n          dup5\n            /* \"#utility.yul\":507:523   */\n          add\n            /* \"#utility.yul\":500:527   */\n          mstore\n            /* \"#utility.yul\":349:533   */\n          pop\n            /* \"#utility.yul\":287:533   */\n          pop\n          pop\n          pop\n          jump\t// out\n            /* \"#utility.yul\":539:641   */\n        tag_94:\n            /* \"#utility.yul\":580:586   */\n          0x00\n            /* \"#utility.yul\":631:633   */\n          0x1f\n            /* \"#utility.yul\":627:634   */\n          not\n            /* \"#utility.yul\":622:624   */\n          0x1f\n            /* \"#utility.yul\":615:620   */\n          dup4\n            /* \"#utility.yul\":611:625   */\n          add\n            /* \"#utility.yul\":607:635   */\n          and\n            /* \"#utility.yul\":597:635   */\n          swap1\n          pop\n            /* \"#utility.yul\":539:641   */\n          swap2\n          swap1\n          pop\n          jump\t// out\n            /* \"#utility.yul\":647:1024   */\n        tag_95:\n            /* \"#utility.yul\":735:738   */\n          0x00\n            /* \"#utility.yul\":763:802   */\n          tag_121\n            /* \"#utility.yul\":796:801   */\n          dup3\n            /* \"#utility.yul\":763:802   */\n          tag_91\n          jump\t// in\n        tag_121:\n            /* \"#utility.yul\":818:889   */\n          tag_122\n            /* \"#utility.yul\":882:888   */\n          dup2\n            /* \"#utility.yul\":877:880   */\n          dup6\n            /* \"#utility.yul\":818:889   */\n          tag_92\n          jump\t// in\n        tag_122:\n            /* \"#utility.yul\":811:889   */\n          swap4\n          pop\n            /* \"#utility.yul\":898:963   */\n          tag_123\n            /* \"#utility.yul\":956:962   */\n          dup2\n            /* \"#utility.yul\":951:954   */\n          dup6\n            /* \"#utility.yul\":944:948   */\n          0x20\n            /* \"#utility.yul\":937:942   */\n          dup7\n            /* \"#utility.yul\":933:949   */\n          add\n            /* \"#utility.yul\":898:963   */\n          tag_93\n          jump\t// in\n        tag_123:\n            /* \"#utility.yul\":988:1017   */\n          tag_124\n            /* \"#utility.yul\":1010:1016   */\n          dup2\n            /* \"#utility.yul\":988:1017   */\n          tag_94\n          jump\t// in\n        tag_124:\n            /* \"#utility.yul\":983:986   */\n          dup5\n            /* \"#utility.yul\":979:1018   */\n          add\n            /* \"#utility.yul\":972:1018   */\n          swap2\n          pop\n            /* \"#utility.yul\":739:1024   */\n          pop\n            /* \"#utility.yul\":647:1024   */\n          swap3\n          swap2\n          pop\n          pop\n          jump\t// out\n            /* \"#utility.yul\":1030:1343   */\n        tag_17:\n            /* \"#utility.yul\":1143:1147   */\n          0x00\n            /* \"#utility.yul\":1181:1183   */\n          0x20\n            /* \"#utility.yul\":1170:1179   */\n          dup3\n            /* \"#utility.yul\":1166:1184   */\n          add\n            /* \"#utility.yul\":1158:1184   */\n          swap1\n          pop\n            /* \"#utility.yul\":1230:1239   */\n          dup2\n            /* \"#utility.yul\":1224:1228   */\n          dup2\n            /* \"#utility.yul\":1220:1240   */\n          sub\n            /* \"#utility.yul\":1216:1217   */\n          0x00\n            /* \"#utility.yul\":1205:1214   */\n          dup4\n            /* \"#utility.yul\":1201:1218   */\n          add\n            /* \"#utility.yul\":1194:1241   */\n          mstore\n            /* \"#utility.yul\":1258:1336   */\n          tag_126\n            /* \"#utility.yul\":1331:1335   */\n          dup2\n            /* \"#utility.yul\":1322:1328   */\n          dup5\n            /* \"#utility.yul\":1258:1336   */\n          tag_95\n          jump\t// in\n        tag_126:\n            /* \"#utility.yul\":1250:1336   */\n          swap1\n          pop\n            /* \"#utility.yul\":1030:1343   */\n          swap3\n          swap2\n          pop\n          pop\n          jump\t// out\n            /* \"#utility.yul\":1430:1547   */\n        tag_97:\n            /* \"#utility.yul\":1539:1540   */\n          0x00\n            /* \"#utility.yul\":1536:1537   */\n          dup1\n            /* \"#utility.yul\":1529:1541   */\n          revert\n            /* \"#utility.yul\":1676:1802   */\n        tag_99:\n            /* \"#utility.yul\":1713:1720   */\n          0x00\n            /* \"#utility.yul\":1753:1795   */\n          0xffffffffffffffffffffffffffffffffffffffff\n            /* \"#utility.yul\":1746:1751   */\n          dup3\n            /* \"#utility.yul\":1742:1796   */\n          and\n            /* \"#utility.yul\":1731:1796   */\n          swap1\n          pop\n            /* \"#utility.yul\":1676:1802   */\n          swap2\n          swap1\n          pop\n          jump\t// out\n            /* \"#utility.yul\":1808:1904   */\n        tag_100:\n            /* \"#utility.yul\":1845:1852   */\n          0x00\n            /* \"#utility.yul\":1874:1898   */\n          tag_132\n            /* \"#utility.yul\":1892:1897   */\n          dup3\n            /* \"#utility.yul\":1874:1898   */\n          tag_99\n          jump\t// in\n        tag_132:\n            /* \"#utility.yul\":1863:1898   */\n          swap1\n          pop\n            /* \"#utility.yul\":1808:1904   */\n          swap2\n          swap1\n          pop\n          jump\t// out\n            /* \"#utility.yul\":1910:2032   */\n        tag_101:\n            /* \"#utility.yul\":1983:2007   */\n          tag_134\n            /* \"#utility.yul\":2001:2006   */\n          dup2\n            /* \"#utility.yul\":1983:2007   */\n          tag_100\n          jump\t// in\n        tag_134:\n            /* \"#utility.yul\":1976:1981   */\n          dup2\n            /* \"#utility.yul\":1973:2008   */\n          eq\n            /* \"#utility.yul\":1963:2026   */\n          tag_135\n          jumpi\n            /* \"#utility.yul\":2022:2023   */\n          0x00\n            /* \"#utility.yul\":2019:2020   */\n          dup1\n            /* \"#utility.yul\":2012:2024   */\n          revert\n            /* \"#utility.yul\":1963:2026   */\n        tag_135:\n            /* \"#utility.yul\":1910:2032   */\n          pop\n          jump\t// out\n            /* \"#utility.yul\":2038:2177   */\n        tag_102:\n            /* \"#utility.yul\":2084:2089   */\n          0x00\n            /* \"#utility.yul\":2122:2128   */\n          dup2\n            /* \"#utility.yul\":2109:2129   */\n          calldataload\n            /* \"#utility.yul\":2100:2129   */\n          swap1\n          pop\n            /* \"#utility.yul\":2138:2171   */\n          tag_137\n            /* \"#utility.yul\":2165:2170   */\n          dup2\n            /* \"#utility.yul\":2138:2171   */\n          tag_101\n          jump\t// in\n        tag_137:\n            /* \"#utility.yul\":2038:2177   */\n          swap3\n          swap2\n          pop\n          pop\n          jump\t// out\n            /* \"#utility.yul\":2183:2260   */\n        tag_103:\n            /* \"#utility.yul\":2220:2227   */\n          0x00\n            /* \"#utility.yul\":2249:2254   */\n          dup2\n            /* \"#utility.yul\":2238:2254   */\n          swap1\n          pop\n            /* \"#utility.yul\":2183:2260   */\n          swap2\n          swap1\n          pop\n          jump\t// out\n            /* \"#utility.yul\":2266:2388   */\n        tag_104:\n            /* \"#utility.yul\":2339:2363   */\n          tag_140\n            /* \"#utility.yul\":2357:2362   */\n          dup2\n            /* \"#utility.yul\":2339:2363   */\n          tag_103\n          jump\t// in\n        tag_140:\n            /* \"#utility.yul\":2332:2337   */\n          dup2\n            /* \"#utility.yul\":2329:2364   */\n          eq\n            /* \"#utility.yul\":2319:2382   */\n          tag_141\n          jumpi\n            /* \"#utility.yul\":2378:2379   */\n          0x00\n            /* \"#utility.yul\":2375:2376   */\n          dup1\n            /* \"#utility.yul\":2368:2380   */\n          revert\n            /* \"#utility.yul\":2319:2382   */\n        tag_141:\n            /* \"#utility.yul\":2266:2388   */\n          pop\n          jump\t// out\n            /* \"#utility.yul\":2394:2533   */\n        tag_105:\n            /* \"#utility.yul\":2440:2445   */\n          0x00\n            /* \"#utility.yul\":2478:2484   */\n          dup2\n            /* \"#utility.yul\":2465:2485   */\n          calldataload\n            /* \"#utility.yul\":2456:2485   */\n          swap1\n          pop\n            /* \"#utility.yul\":2494:2527   */\n          tag_143\n            /* \"#utility.yul\":2521:2526   */\n          dup2\n            /* \"#utility.yul\":2494:2527   */\n          tag_104\n          jump\t// in\n        tag_143:\n            /* \"#utility.yul\":2394:2533   */\n          swap3\n          swap2\n          pop\n          pop\n          jump\t// out\n            /* \"#utility.yul\":2539:3013   */\n        tag_20:\n            /* \"#utility.yul\":2607:2613   */\n          0x00\n            /* \"#utility.yul\":2615:2621   */\n          dup1\n            /* \"#utility.yul\":2664:2666   */\n          0x40\n            /* \"#utility.yul\":2652:2661   */\n          dup4\n            /* \"#utility.yul\":2643:2650   */\n          dup6\n            /* \"#utility.yul\":2639:2662   */\n          sub\n            /* \"#utility.yul\":2635:2667   */\n          slt\n            /* \"#utility.yul\":2632:2751   */\n          iszero\n          tag_145\n          jumpi\n            /* \"#utility.yul\":2670:2749   */\n          tag_146\n          tag_97\n          jump\t// in\n        tag_146:\n            /* \"#utility.yul\":2632:2751   */\n        tag_145:\n            /* \"#utility.yul\":2790:2791   */\n          0x00\n            /* \"#utility.yul\":2815:2868   */\n          tag_147\n            /* \"#utility.yul\":2860:2867   */\n          dup6\n            /* \"#utility.yul\":2851:2857   */\n          dup3\n            /* \"#utility.yul\":2840:2849   */\n          dup7\n            /* \"#utility.yul\":2836:2858   */\n          add\n            /* \"#utility.yul\":2815:2868   */\n          tag_102\n          jump\t// in\n        tag_147:\n            /* \"#utility.yul\":2805:2868   */\n          swap3\n          pop\n            /* \"#utility.yul\":2761:2878   */\n          pop\n            /* \"#utility.yul\":2917:2919   */\n          0x20\n            /* \"#utility.yul\":2943:2996   */\n          tag_148\n            /* \"#utility.yul\":2988:2995   */\n          dup6\n            /* \"#utility.yul\":2979:2985   */\n          dup3\n            /* \"#utility.yul\":2968:2977   */\n          dup7\n            /* \"#utility.yul\":2964:2986   */\n          add\n            /* \"#utility.yul\":2943:2996   */\n          tag_105\n          jump\t// in\n        tag_148:\n            /* \"#utility.yul\":2933:2996   */\n          swap2\n          pop\n            /* \"#utility.yul\":2888:3006   */\n          pop\n            /* \"#utility.yul\":2539:3013   */\n          swap3\n          pop\n          swap3\n          swap1\n          pop\n          jump\t// out\n            /* \"#utility.yul\":3019:3109   */\n        tag_106:\n            /* \"#utility.yul\":3053:3060   */\n          0x00\n            /* \"#utility.yul\":3096:3101   */\n          dup2\n            /* \"#utility.yul\":3089:3102   */\n          iszero\n            /* \"#utility.yul\":3082:3103   */\n          iszero\n            /* \"#utility.yul\":3071:3103   */\n          swap1\n          pop\n            /* \"#utility.yul\":3019:3109   */\n          swap2\n          swap1\n          pop\n          jump\t// out\n            /* \"#utility.yul\":3115:3224   */\n        tag_107:\n            /* \"#utility.yul\":3196:3217   */\n          tag_151\n            /* \"#utility.yul\":3211:3216   */\n          dup2\n            /* \"#utility.yul\":3196:3217   */\n          tag_106\n          jump\t// in\n        tag_151:\n            /* \"#utility.yul\":3191:3194   */\n          dup3\n            /* \"#utility.yul\":3184:3218   */\n          mstore\n            /* \"#utility.yul\":3115:3224   */\n          pop\n          pop\n          jump\t// out\n            /* \"#utility.yul\":3230:3440   */\n        tag_23:\n            /* \"#utility.yul\":3317:3321   */\n          0x00\n            /* \"#utility.yul\":3355:3357   */\n          0x20\n            /* \"#utility.yul\":3344:3353   */\n          dup3\n            /* \"#utility.yul\":3340:3358   */\n          add\n            /* \"#utility.yul\":3332:3358   */\n          swap1\n          pop\n            /* \"#utility.yul\":3368:3433   */\n          tag_153\n            /* \"#utility.yul\":3430:3431   */\n          0x00\n            /* \"#utility.yul\":3419:3428   */\n          dup4\n            /* \"#utility.yul\":3415:3432   */\n          add\n            /* \"#utility.yul\":3406:3412   */\n          dup5\n            /* \"#utility.yul\":3368:3433   */\n          tag_107\n          jump\t// in\n        tag_153:\n            /* \"#utility.yul\":3230:3440   */\n          swap3\n          swap2\n          pop\n          pop\n          jump\t// out\n            /* \"#utility.yul\":3446:4065   */\n        tag_26:\n            /* \"#utility.yul\":3523:3529   */\n          0x00\n            /* \"#utility.yul\":3531:3537   */\n          dup1\n            /* \"#utility.yul\":3539:3545   */\n          0x00\n            /* \"#utility.yul\":3588:3590   */\n          0x60\n            /* \"#utility.yul\":3576:3585   */\n          dup5\n            /* \"#utility.yul\":3567:3574   */\n          dup7\n            /* \"#utility.yul\":3563:3586   */\n          sub\n            /* \"#utility.yul\":3559:3591   */\n          slt\n            /* \"#utility.yul\":3556:3675   */\n          iszero\n          tag_155\n          jumpi\n            /* \"#utility.yul\":3594:3673   */\n          tag_156\n          tag_97\n          jump\t// in\n        tag_156:\n            /* \"#utility.yul\":3556:3675   */\n        tag_155:\n            /* \"#utility.yul\":3714:3715   */\n          0x00\n            /* \"#utility.yul\":3739:3792   */\n          tag_157\n            /* \"#utility.yul\":3784:3791   */\n          dup7\n            /* \"#utility.yul\":3775:3781   */\n          dup3\n            /* \"#utility.yul\":3764:3773   */\n          dup8\n            /* \"#utility.yul\":3760:3782   */\n          add\n            /* \"#utility.yul\":3739:3792   */\n          tag_102\n          jump\t// in\n        tag_157:\n            /* \"#utility.yul\":3729:3792   */\n          swap4\n          pop\n            /* \"#utility.yul\":3685:3802   */\n          pop\n            /* \"#utility.yul\":3841:3843   */\n          0x20\n            /* \"#utility.yul\":3867:3920   */\n          tag_158\n            /* \"#utility.yul\":3912:3919   */\n          dup7\n            /* \"#utility.yul\":3903:3909   */\n          dup3\n            /* \"#utility.yul\":3892:3901   */\n          dup8\n            /* \"#utility.yul\":3888:3910   */\n          add\n            /* \"#utility.yul\":3867:3920   */\n          tag_102\n          jump\t// in\n        tag_158:\n            /* \"#utility.yul\":3857:3920   */\n          swap3\n          pop\n            /* \"#utility.yul\":3812:3930   */\n          pop\n            /* \"#utility.yul\":3969:3971   */\n          0x40\n            /* \"#utility.yul\":3995:4048   */\n          tag_159\n            /* \"#utility.yul\":4040:4047   */\n          dup7\n            /* \"#utility.yul\":4031:4037   */\n          dup3\n            /* \"#utility.yul\":4020:4029   */\n          dup8\n            /* \"#utility.yul\":4016:4038   */\n          add\n            /* \"#utility.yul\":3995:4048   */\n          tag_105\n          jump\t// in\n        tag_159:\n            /* \"#utility.yul\":3985:4048   */\n          swap2\n          pop\n            /* \"#utility.yul\":3940:4058   */\n          pop\n            /* \"#utility.yul\":3446:4065   */\n          swap3\n          pop\n          swap3\n          pop\n          swap3\n          jump\t// out\n            /* \"#utility.yul\":4071:4157   */\n        tag_108:\n            /* \"#utility.yul\":4106:4113   */\n          0x00\n            /* \"#utility.yul\":4146:4150   */\n          0xff\n            /* \"#utility.yul\":4139:4144   */\n          dup3\n            /* \"#utility.yul\":4135:4151   */\n          and\n            /* \"#utility.yul\":4124:4151   */\n          swap1\n          pop\n            /* \"#utility.yul\":4071:4157   */\n          swap2\n          swap1\n          pop\n          jump\t// out\n            /* \"#utility.yul\":4163:4275   */\n        tag_109:\n            /* \"#utility.yul\":4246:4268   */\n          tag_162\n            /* \"#utility.yul\":4262:4267   */\n          dup2\n            /* \"#utility.yul\":4246:4268   */\n          tag_108\n          jump\t// in\n        tag_162:\n            /* \"#utility.yul\":4241:4244   */\n          dup3\n            /* \"#utility.yul\":4234:4269   */\n          mstore\n            /* \"#utility.yul\":4163:4275   */\n          pop\n          pop\n          jump\t// out\n            /* \"#utility.yul\":4281:4495   */\n        tag_32:\n            /* \"#utility.yul\":4370:4374   */\n          0x00\n            /* \"#utility.yul\":4408:4410   */\n          0x20\n            /* \"#utility.yul\":4397:4406   */\n          dup3\n            /* \"#utility.yul\":4393:4411   */\n          add\n            /* \"#utility.yul\":4385:4411   */\n          swap1\n          pop\n            /* \"#utility.yul\":4421:4488   */\n          tag_164\n            /* \"#utility.yul\":4485:4486   */\n          0x00\n            /* \"#utility.yul\":4474:4483   */\n          dup4\n            /* \"#utility.yul\":4470:4487   */\n          add\n            /* \"#utility.yul\":4461:4467   */\n          dup5\n            /* \"#utility.yul\":4421:4488   */\n          tag_109\n          jump\t// in\n        tag_164:\n            /* \"#utility.yul\":4281:4495   */\n          swap3\n          swap2\n          pop\n          pop\n          jump\t// out\n            /* \"#utility.yul\":4501:4830   */\n        tag_35:\n            /* \"#utility.yul\":4560:4566   */\n          0x00\n            /* \"#utility.yul\":4609:4611   */\n          0x20\n            /* \"#utility.yul\":4597:4606   */\n          dup3\n            /* \"#utility.yul\":4588:4595   */\n          dup5\n            /* \"#utility.yul\":4584:4607   */\n          sub\n            /* \"#utility.yul\":4580:4612   */\n          slt\n            /* \"#utility.yul\":4577:4696   */\n          iszero\n          tag_166\n          jumpi\n            /* \"#utility.yul\":4615:4694   */\n          tag_167\n          tag_97\n          jump\t// in\n        tag_167:\n            /* \"#utility.yul\":4577:4696   */\n        tag_166:\n            /* \"#utility.yul\":4735:4736   */\n          0x00\n            /* \"#utility.yul\":4760:4813   */\n          tag_168\n            /* \"#utility.yul\":4805:4812   */\n          dup5\n            /* \"#utility.yul\":4796:4802   */\n          dup3\n            /* \"#utility.yul\":4785:4794   */\n          dup6\n            /* \"#utility.yul\":4781:4803   */\n          add\n            /* \"#utility.yul\":4760:4813   */\n          tag_105\n          jump\t// in\n        tag_168:\n            /* \"#utility.yul\":4750:4813   */\n          swap2\n          pop\n            /* \"#utility.yul\":4706:4823   */\n          pop\n            /* \"#utility.yul\":4501:4830   */\n          swap3\n          swap2\n          pop\n          pop\n          jump\t// out\n            /* \"#utility.yul\":4836:5165   */\n        tag_39:\n            /* \"#utility.yul\":4895:4901   */\n          0x00\n            /* \"#utility.yul\":4944:4946   */\n          0x20\n            /* \"#utility.yul\":4932:4941   */\n          dup3\n            /* \"#utility.yul\":4923:4930   */\n          dup5\n            /* \"#utility.yul\":4919:4942   */\n          sub\n            /* \"#utility.yul\":4915:4947   */\n          slt\n            /* \"#utility.yul\":4912:5031   */\n          iszero\n          tag_170\n          jumpi\n            /* \"#utility.yul\":4950:5029   */\n          tag_171\n          tag_97\n          jump\t// in\n        tag_171:\n            /* \"#utility.yul\":4912:5031   */\n        tag_170:\n            /* \"#utility.yul\":5070:5071   */\n          0x00\n            /* \"#utility.yul\":5095:5148   */\n          tag_172\n            /* \"#utility.yul\":5140:5147   */\n          dup5\n            /* \"#utility.yul\":5131:5137   */\n          dup3\n            /* \"#utility.yul\":5120:5129   */\n          dup6\n            /* \"#utility.yul\":5116:5138   */\n          add\n            /* \"#utility.yul\":5095:5148   */\n          tag_102\n          jump\t// in\n        tag_172:\n            /* \"#utility.yul\":5085:5148   */\n          swap2\n          pop\n            /* \"#utility.yul\":5041:5158   */\n          pop\n            /* \"#utility.yul\":4836:5165   */\n          swap3\n          swap2\n          pop\n          pop\n          jump\t// out\n            /* \"#utility.yul\":5171:5289   */\n        tag_110:\n            /* \"#utility.yul\":5258:5282   */\n          tag_174\n            /* \"#utility.yul\":5276:5281   */\n          dup2\n            /* \"#utility.yul\":5258:5282   */\n          tag_103\n          jump\t// in\n        tag_174:\n            /* \"#utility.yul\":5253:5256   */\n          dup3\n            /* \"#utility.yul\":5246:5283   */\n          mstore\n            /* \"#utility.yul\":5171:5289   */\n          pop\n          pop\n          jump\t// out\n            /* \"#utility.yul\":5295:5517   */\n        tag_42:\n            /* \"#utility.yul\":5388:5392   */\n          0x00\n            /* \"#utility.yul\":5426:5428   */\n          0x20\n            /* \"#utility.yul\":5415:5424   */\n          dup3\n            /* \"#utility.yul\":5411:5429   */\n          add\n            /* \"#utility.yul\":5403:5429   */\n          swap1\n          pop\n            /* \"#utility.yul\":5439:5510   */\n          tag_176\n            /* \"#utility.yul\":5507:5508   */\n          0x00\n            /* \"#utility.yul\":5496:5505   */\n          dup4\n            /* \"#utility.yul\":5492:5509   */\n          add\n            /* \"#utility.yul\":5483:5489   */\n          dup5\n            /* \"#utility.yul\":5439:5510   */\n          tag_110\n          jump\t// in\n        tag_176:\n            /* \"#utility.yul\":5295:5517   */\n          swap3\n          swap2\n          pop\n          pop\n          jump\t// out\n            /* \"#utility.yul\":5523:5997   */\n        tag_55:\n            /* \"#utility.yul\":5591:5597   */\n          0x00\n            /* \"#utility.yul\":5599:5605   */\n          dup1\n            /* \"#utility.yul\":5648:5650   */\n          0x40\n            /* \"#utility.yul\":5636:5645   */\n          dup4\n            /* \"#utility.yul\":5627:5634   */\n          dup6\n            /* \"#utility.yul\":5623:5646   */\n          sub\n            /* \"#utility.yul\":5619:5651   */\n          slt\n            /* \"#utility.yul\":5616:5735   */\n          iszero\n          tag_178\n          jumpi\n            /* \"#utility.yul\":5654:5733   */\n          tag_179\n          tag_97\n          jump\t// in\n        tag_179:\n            /* \"#utility.yul\":5616:5735   */\n        tag_178:\n            /* \"#utility.yul\":5774:5775   */\n          0x00\n            /* \"#utility.yul\":5799:5852   */\n          tag_180\n            /* \"#utility.yul\":5844:5851   */\n          dup6\n            /* \"#utility.yul\":5835:5841   */\n          dup3\n            /* \"#utility.yul\":5824:5833   */\n          dup7\n            /* \"#utility.yul\":5820:5842   */\n          add\n            /* \"#utility.yul\":5799:5852   */\n          tag_102\n          jump\t// in\n        tag_180:\n            /* \"#utility.yul\":5789:5852   */\n          swap3\n          pop\n            /* \"#utility.yul\":5745:5862   */\n          pop\n            /* \"#utility.yul\":5901:5903   */\n          0x20\n            /* \"#utility.yul\":5927:5980   */\n          tag_181\n            /* \"#utility.yul\":5972:5979   */\n          dup6\n            /* \"#utility.yul\":5963:5969   */\n          dup3\n            /* \"#utility.yul\":5952:5961   */\n          dup7\n            /* \"#utility.yul\":5948:5970   */\n          add\n            /* \"#utility.yul\":5927:5980   */\n          tag_102\n          jump\t// in\n        tag_181:\n            /* \"#utility.yul\":5917:5980   */\n          swap2\n          pop\n            /* \"#utility.yul\":5872:5990   */\n          pop\n            /* \"#utility.yul\":5523:5997   */\n          swap3\n          pop\n          swap3\n          swap1\n          pop\n          jump\t// out\n            /* \"#utility.yul\":6003:6183   */\n        tag_111:\n            /* \"#utility.yul\":6051:6128   */\n          0x4e487b7100000000000000000000000000000000000000000000000000000000\n            /* \"#utility.yul\":6048:6049   */\n          0x00\n            /* \"#utility.yul\":6041:6129   */\n          mstore\n            /* \"#utility.yul\":6148:6152   */\n          0x11\n            /* \"#utility.yul\":6145:6146   */\n          0x04\n            /* \"#utility.yul\":6138:6153   */\n          mstore\n            /* \"#utility.yul\":6172:6176   */\n          0x24\n            /* \"#utility.yul\":6169:6170   */\n          0x00\n            /* \"#utility.yul\":6162:6177   */\n          revert\n            /* \"#utility.yul\":6189:6380   */\n        tag_71:\n            /* \"#utility.yul\":6229:6232   */\n          0x00\n            /* \"#utility.yul\":6248:6268   */\n          tag_184\n            /* \"#utility.yul\":6266:6267   */\n          dup3\n            /* \"#utility.yul\":6248:6268   */\n          tag_103\n          jump\t// in\n        tag_184:\n            /* \"#utility.yul\":6243:6268   */\n          swap2\n          pop\n            /* \"#utility.yul\":6282:6302   */\n          tag_185\n            /* \"#utility.yul\":6300:6301   */\n          dup4\n            /* \"#utility.yul\":6282:6302   */\n          tag_103\n          jump\t// in\n        tag_185:\n            /* \"#utility.yul\":6277:6302   */\n          swap3\n          pop\n            /* \"#utility.yul\":6325:6326   */\n          dup3\n            /* \"#utility.yul\":6322:6323   */\n          dup3\n            /* \"#utility.yul\":6318:6327   */\n          add\n            /* \"#utility.yul\":6311:6327   */\n          swap1\n          pop\n            /* \"#utility.yul\":6346:6349   */\n          dup1\n            /* \"#utility.yul\":6343:6344   */\n          dup3\n            /* \"#utility.yul\":6340:6350   */\n          gt\n            /* \"#utility.yul\":6337:6373   */\n          iszero\n          tag_186\n          jumpi\n            /* \"#utility.yul\":6353:6371   */\n          tag_187\n          tag_111\n          jump\t// in\n        tag_187:\n            /* \"#utility.yul\":6337:6373   */\n        tag_186:\n            /* \"#utility.yul\":6189:6380   */\n          swap3\n          swap2\n          pop\n          pop\n          jump\t// out\n            /* \"#utility.yul\":6386:6566   */\n        tag_84:\n            /* \"#utility.yul\":6434:6511   */\n          0x4e487b7100000000000000000000000000000000000000000000000000000000\n            /* \"#utility.yul\":6431:6432   */\n          0x00\n            /* \"#utility.yul\":6424:6512   */\n          mstore\n            /* \"#utility.yul\":6531:6535   */\n          0x01\n            /* \"#utility.yul\":6528:6529   */\n          0x04\n            /* \"#utility.yul\":6521:6536   */\n          mstore\n            /* \"#utility.yul\":6555:6559   */\n          0x24\n            /* \"#utility.yul\":6552:6553   */\n          0x00\n            /* \"#utility.yul\":6545:6560   */\n          revert\n            /* \"#utility.yul\":6572:6766   */\n        tag_86:\n            /* \"#utility.yul\":6612:6616   */\n          0x00\n            /* \"#utility.yul\":6632:6652   */\n          tag_190\n            /* \"#utility.yul\":6650:6651   */\n          dup3\n            /* \"#utility.yul\":6632:6652   */\n          tag_103\n          jump\t// in\n        tag_190:\n            /* \"#utility.yul\":6627:6652   */\n          swap2\n          pop\n            /* \"#utility.yul\":6666:6686   */\n          tag_191\n            /* \"#utility.yul\":6684:6685   */\n          dup4\n            /* \"#utility.yul\":6666:6686   */\n          tag_103\n          jump\t// in\n        tag_191:\n            /* \"#utility.yul\":6661:6686   */\n          swap3\n          pop\n            /* \"#utility.yul\":6710:6711   */\n          dup3\n            /* \"#utility.yul\":6707:6708   */\n          dup3\n            /* \"#utility.yul\":6703:6712   */\n          sub\n            /* \"#utility.yul\":6695:6712   */\n          swap1\n          pop\n            /* \"#utility.yul\":6734:6735   */\n          dup2\n            /* \"#utility.yul\":6728:6732   */\n          dup2\n            /* \"#utility.yul\":6725:6736   */\n          gt\n            /* \"#utility.yul\":6722:6759   */\n          iszero\n          tag_192\n          jumpi\n            /* \"#utility.yul\":6739:6757   */\n          tag_193\n          tag_111\n          jump\t// in\n        tag_193:\n            /* \"#utility.yul\":6722:6759   */\n        tag_192:\n            /* \"#utility.yul\":6572:6766   */\n          swap3\n          swap2\n          pop\n          pop\n          jump\t// out\n\n        auxdata: 0xa26469706673582212203c0c4e7746da1cc3e0cc4b6d1fdcdeb2349bfff365991df6abd8431c8cf9aa2564736f6c63430008160033\n    }\n}\n",
				"bytecode": {
					"linkReferences": {},
					"object": "608060405234801562000010575f80fd5b506127106040516200002290620000cd565b6200002e91906200012e565b604051809103905ff08015801562000048573d5f803e3d5ffd5b505f806101000a81548173ffffffffffffffffffffffffffffffffffffffff021916908373ffffffffffffffffffffffffffffffffffffffff1602179055503360015f6101000a81548173ffffffffffffffffffffffffffffffffffffffff021916908373ffffffffffffffffffffffffffffffffffffffff16021790555062000149565b610f1f8062000fbc83390190565b5f819050919050565b5f819050919050565b5f819050919050565b5f62000116620001106200010a84620000db565b620000ed565b620000e4565b9050919050565b6200012881620000f6565b82525050565b5f602082019050620001435f8301846200011d565b92915050565b610e6580620001575f395ff3fe60806040526004361061006f575f3560e01c8063ce8f2f381161004d578063ce8f2f38146100ef578063d00df2961461012b578063e33f34a014610169578063f7774091146101935761006f565b80631246f6e214610073578063722713f71461009b5780638da5cb5b146100c5575b5f80fd5b34801561007e575f80fd5b5061009960048036038101906100949190610759565b6101af565b005b3480156100a6575f80fd5b506100af6102c8565b6040516100bc9190610793565b60405180910390f35b3480156100d0575f80fd5b506100d9610366565b6040516100e691906107eb565b60405180910390f35b3480156100fa575f80fd5b506101156004803603810190610110919061083f565b61038b565b6040516101229190610793565b60405180910390f35b348015610136575f80fd5b50610151600480360381019061014c91906109a6565b6103a5565b60405161016093929190610a81565b60405180910390f35b348015610174575f80fd5b5061017d610475565b60405161018a9190610793565b60405180910390f35b6101ad60048036038101906101a89190610759565b610513565b005b3360015f9054906101000a900473ffffffffffffffffffffffffffffffffffffffff1673ffffffffffffffffffffffffffffffffffffffff168173ffffffffffffffffffffffffffffffffffffffff161461023f576040517f08c379a000000000000000000000000000000000000000000000000000000000815260040161023690610b07565b60405180910390fd5b5f8054906101000a900473ffffffffffffffffffffffffffffffffffffffff1673ffffffffffffffffffffffffffffffffffffffff166366e52de5836040518263ffffffff1660e01b81526004016102979190610793565b5f604051808303815f87803b1580156102ae575f80fd5b505af11580156102c0573d5f803e3d5ffd5b505050505050565b5f805f9054906101000a900473ffffffffffffffffffffffffffffffffffffffff1673ffffffffffffffffffffffffffffffffffffffff166370a08231306040518263ffffffff1660e01b81526004016103229190610b34565b602060405180830381865afa15801561033d573d5f803e3d5ffd5b505050506040513d601f19601f820116820180604052508101906103619190610b61565b905090565b60015f9054906101000a900473ffffffffffffffffffffffffffffffffffffffff1681565b6002602052805f5260405f205f91509050805f0154905081565b6003818051602081018201805184825260208301602085012081835280955050505050505f91509050805f0180546103dc90610bb9565b80601f016020809104026020016040519081016040528092919081815260200182805461040890610bb9565b80156104535780601f1061042a57610100808354040283529160200191610453565b820191905f5260205f20905b81548152906001019060200180831161043657829003601f168201915b505050505090806001015490806002015f9054906101000a900460ff16905083565b5f805f9054906101000a900473ffffffffffffffffffffffffffffffffffffffff1673ffffffffffffffffffffffffffffffffffffffff166370a08231336040518263ffffffff1660e01b81526004016104cf9190610b34565b602060405180830381865afa1580156104ea573d5f803e3d5ffd5b505050506040513d601f19601f8201168201806040525081019061050e9190610b61565b905090565b5f61051d826106f9565b905080341015610562576040517f08c379a000000000000000000000000000000000000000000000000000000000815260040161055990610c59565b60405180910390fd5b5f813461056f9190610ca4565b90503373ffffffffffffffffffffffffffffffffffffffff166108fc8290811502906040515f60405180830381858888f193505050501580156105b4573d5f803e3d5ffd5b505f6105be6102c8565b905080841115610603576040517f08c379a00000000000000000000000000000000000000000000000000000000081526004016105fa90610d21565b60405180910390fd5b5f8054906101000a900473ffffffffffffffffffffffffffffffffffffffff1673ffffffffffffffffffffffffffffffffffffffff1663a9059cbb33866040518363ffffffff1660e01b815260040161065d929190610d3f565b6020604051808303815f875af1158015610679573d5f803e3d5ffd5b505050506040513d601f19601f8201168201806040525081019061069d9190610d90565b508360025f3373ffffffffffffffffffffffffffffffffffffffff1673ffffffffffffffffffffffffffffffffffffffff1681526020019081526020015f205f015f8282546106ec9190610dbb565b9250508190555050505050565b5f670de0b6b3a76400008261070e9190610dee565b9050919050565b5f604051905090565b5f80fd5b5f80fd5b5f819050919050565b61073881610726565b8114610742575f80fd5b50565b5f813590506107538161072f565b92915050565b5f6020828403121561076e5761076d61071e565b5b5f61077b84828501610745565b91505092915050565b61078d81610726565b82525050565b5f6020820190506107a65f830184610784565b92915050565b5f73ffffffffffffffffffffffffffffffffffffffff82169050919050565b5f6107d5826107ac565b9050919050565b6107e5816107cb565b82525050565b5f6020820190506107fe5f8301846107dc565b92915050565b5f61080e826107ac565b9050919050565b61081e81610804565b8114610828575f80fd5b50565b5f8135905061083981610815565b92915050565b5f602082840312156108545761085361071e565b5b5f6108618482850161082b565b91505092915050565b5f80fd5b5f80fd5b5f601f19601f8301169050919050565b7f4e487b71000000000000000000000000000000000000000000000000000000005f52604160045260245ffd5b6108b882610872565b810181811067ffffffffffffffff821117156108d7576108d6610882565b5b80604052505050565b5f6108e9610715565b90506108f582826108af565b919050565b5f67ffffffffffffffff82111561091457610913610882565b5b61091d82610872565b9050602081019050919050565b828183375f83830152505050565b5f61094a610945846108fa565b6108e0565b9050828152602081018484840111156109665761096561086e565b5b61097184828561092a565b509392505050565b5f82601f83011261098d5761098c61086a565b5b813561099d848260208601610938565b91505092915050565b5f602082840312156109bb576109ba61071e565b5b5f82013567ffffffffffffffff8111156109d8576109d7610722565b5b6109e484828501610979565b91505092915050565b5f81519050919050565b5f82825260208201905092915050565b5f5b83811015610a24578082015181840152602081019050610a09565b5f8484015250505050565b5f610a39826109ed565b610a4381856109f7565b9350610a53818560208601610a07565b610a5c81610872565b840191505092915050565b5f8115159050919050565b610a7b81610a67565b82525050565b5f6060820190508181035f830152610a998186610a2f565b9050610aa86020830185610784565b610ab56040830184610a72565b949350505050565b7f53696e207065726d69736f7320646520656a637563696f6e00000000000000005f82015250565b5f610af16018836109f7565b9150610afc82610abd565b602082019050919050565b5f6020820190508181035f830152610b1e81610ae5565b9050919050565b610b2e81610804565b82525050565b5f602082019050610b475f830184610b25565b92915050565b5f81519050610b5b8161072f565b92915050565b5f60208284031215610b7657610b7561071e565b5b5f610b8384828501610b4d565b91505092915050565b7f4e487b71000000000000000000000000000000000000000000000000000000005f52602260045260245ffd5b5f6002820490506001821680610bd057607f821691505b602082108103610be357610be2610b8c565b5b50919050565b7f436f6d707261206d656e6f7320546f6b656e73206f207061676120636f6e206d5f8201527f6173206574686572730000000000000000000000000000000000000000000000602082015250565b5f610c436029836109f7565b9150610c4e82610be9565b604082019050919050565b5f6020820190508181035f830152610c7081610c37565b9050919050565b7f4e487b71000000000000000000000000000000000000000000000000000000005f52601160045260245ffd5b5f610cae82610726565b9150610cb983610726565b9250828203905081811115610cd157610cd0610c77565b5b92915050565b7f436f6d70726120756e206e756d65726f206d656e6f7220646520746f6b656e735f82015250565b5f610d0b6020836109f7565b9150610d1682610cd7565b602082019050919050565b5f6020820190508181035f830152610d3881610cff565b9050919050565b5f604082019050610d525f830185610b25565b610d5f6020830184610784565b9392505050565b610d6f81610a67565b8114610d79575f80fd5b50565b5f81519050610d8a81610d66565b92915050565b5f60208284031215610da557610da461071e565b5b5f610db284828501610d7c565b91505092915050565b5f610dc582610726565b9150610dd083610726565b9250828201905080821115610de857610de7610c77565b5b92915050565b5f610df882610726565b9150610e0383610726565b9250828202610e1181610726565b91508282048414831517610e2857610e27610c77565b5b509291505056fea2646970667358221220c2d84532c7da130ad916a7b6b2bde55dc32dd24d8491363889aace542e7750d164736f6c63430008160033608060405234801561000f575f80fd5b50604051610f1f380380610f1f833981810160405281019061003191906100b8565b806002819055506002545f803373ffffffffffffffffffffffffffffffffffffffff1673ffffffffffffffffffffffffffffffffffffffff1681526020019081526020015f2081905550506100e3565b5f80fd5b5f819050919050565b61009781610085565b81146100a1575f80fd5b50565b5f815190506100b28161008e565b92915050565b5f602082840312156100cd576100cc610081565b5b5f6100da848285016100a4565b91505092915050565b610e2f806100f05f395ff3fe608060405234801561000f575f80fd5b506004361061009c575f3560e01c806370a082311161006457806370a082311461015857806395d89b4114610188578063a44b47f7146101a6578063a9059cbb146101c4578063dd62ed3e146101f45761009c565b806306fdde03146100a0578063095ea7b3146100be57806323b872dd146100ee578063313ce5671461011e57806366e52de51461013c575b5f80fd5b6100a8610224565b6040516100b59190610ad7565b60405180910390f35b6100d860048036038101906100d39190610b88565b61025d565b6040516100e59190610be0565b60405180910390f35b61010860048036038101906101039190610bf9565b61034a565b6040516101159190610be0565b60405180910390f35b6101266106ab565b6040516101339190610c64565b60405180910390f35b61015660048036038101906101519190610c7d565b6106b0565b005b610172600480360381019061016d9190610ca8565b61071d565b60405161017f9190610ce2565b60405180910390f35b610190610762565b60405161019d9190610ad7565b60405180910390f35b6101ae61079b565b6040516101bb9190610ce2565b60405180910390f35b6101de60048036038101906101d99190610b88565b6107a4565b6040516101eb9190610be0565b60405180910390f35b61020e60048036038101906102099190610cfb565b61097a565b60405161021b9190610ce2565b60405180910390f35b6040518060400160405280601181526020017f4552433230426c6f636b636861696e415a00000000000000000000000000000081525081565b5f8160015f3373ffffffffffffffffffffffffffffffffffffffff1673ffffffffffffffffffffffffffffffffffffffff1681526020019081526020015f205f8573ffffffffffffffffffffffffffffffffffffffff1673ffffffffffffffffffffffffffffffffffffffff1681526020019081526020015f20819055508273ffffffffffffffffffffffffffffffffffffffff163373ffffffffffffffffffffffffffffffffffffffff167f8c5be1e5ebec7d5bd14f71427d1e84f3dd0314c0f7b2291e5b200ac8c7c3b925846040516103389190610ce2565b60405180910390a36001905092915050565b5f805f8573ffffffffffffffffffffffffffffffffffffffff1673ffffffffffffffffffffffffffffffffffffffff1681526020019081526020015f2054821115610393575f80fd5b60015f8573ffffffffffffffffffffffffffffffffffffffff1673ffffffffffffffffffffffffffffffffffffffff1681526020019081526020015f205f3373ffffffffffffffffffffffffffffffffffffffff1673ffffffffffffffffffffffffffffffffffffffff1681526020019081526020015f2054821115610417575f80fd5b610466825f808773ffffffffffffffffffffffffffffffffffffffff1673ffffffffffffffffffffffffffffffffffffffff1681526020019081526020015f20546109fc90919063ffffffff16565b5f808673ffffffffffffffffffffffffffffffffffffffff1673ffffffffffffffffffffffffffffffffffffffff1681526020019081526020015f20819055506105318260015f8773ffffffffffffffffffffffffffffffffffffffff1673ffffffffffffffffffffffffffffffffffffffff1681526020019081526020015f205f3373ffffffffffffffffffffffffffffffffffffffff1673ffffffffffffffffffffffffffffffffffffffff1681526020019081526020015f20546109fc90919063ffffffff16565b60015f8673ffffffffffffffffffffffffffffffffffffffff1673ffffffffffffffffffffffffffffffffffffffff1681526020019081526020015f205f3373ffffffffffffffffffffffffffffffffffffffff1673ffffffffffffffffffffffffffffffffffffffff1681526020019081526020015f20819055506105fc825f808673ffffffffffffffffffffffffffffffffffffffff1673ffffffffffffffffffffffffffffffffffffffff1681526020019081526020015f2054610a2290919063ffffffff16565b5f808573ffffffffffffffffffffffffffffffffffffffff1673ffffffffffffffffffffffffffffffffffffffff1681526020019081526020015f20819055508273ffffffffffffffffffffffffffffffffffffffff168473ffffffffffffffffffffffffffffffffffffffff167fddf252ad1be2c89b69c2b068fc378daa952ba7f163c4a11628f55a4df523b3ef846040516106999190610ce2565b60405180910390a35f90509392505050565b601281565b8060025f8282546106c19190610d66565b92505081905550805f803373ffffffffffffffffffffffffffffffffffffffff1673ffffffffffffffffffffffffffffffffffffffff1681526020019081526020015f205f8282546107139190610d66565b9250508190555050565b5f805f8373ffffffffffffffffffffffffffffffffffffffff1673ffffffffffffffffffffffffffffffffffffffff1681526020019081526020015f20549050919050565b6040518060400160405280600581526020017f455243415a00000000000000000000000000000000000000000000000000000081525081565b5f600254905090565b5f805f3373ffffffffffffffffffffffffffffffffffffffff1673ffffffffffffffffffffffffffffffffffffffff1681526020019081526020015f20548211156107ed575f80fd5b61083c825f803373ffffffffffffffffffffffffffffffffffffffff1673ffffffffffffffffffffffffffffffffffffffff1681526020019081526020015f20546109fc90919063ffffffff16565b5f803373ffffffffffffffffffffffffffffffffffffffff1673ffffffffffffffffffffffffffffffffffffffff1681526020019081526020015f20819055506108cb825f808673ffffffffffffffffffffffffffffffffffffffff1673ffffffffffffffffffffffffffffffffffffffff1681526020019081526020015f2054610a2290919063ffffffff16565b5f808573ffffffffffffffffffffffffffffffffffffffff1673ffffffffffffffffffffffffffffffffffffffff1681526020019081526020015f20819055508273ffffffffffffffffffffffffffffffffffffffff163373ffffffffffffffffffffffffffffffffffffffff167fddf252ad1be2c89b69c2b068fc378daa952ba7f163c4a11628f55a4df523b3ef846040516109689190610ce2565b60405180910390a36001905092915050565b5f60015f8473ffffffffffffffffffffffffffffffffffffffff1673ffffffffffffffffffffffffffffffffffffffff1681526020019081526020015f205f8373ffffffffffffffffffffffffffffffffffffffff1673ffffffffffffffffffffffffffffffffffffffff1681526020019081526020015f2054905092915050565b5f82821115610a0e57610a0d610d99565b5b8183610a1a9190610dc6565b905092915050565b5f808284610a309190610d66565b905083811015610a4357610a42610d99565b5b8091505092915050565b5f81519050919050565b5f82825260208201905092915050565b5f5b83811015610a84578082015181840152602081019050610a69565b5f8484015250505050565b5f601f19601f8301169050919050565b5f610aa982610a4d565b610ab38185610a57565b9350610ac3818560208601610a67565b610acc81610a8f565b840191505092915050565b5f6020820190508181035f830152610aef8184610a9f565b905092915050565b5f80fd5b5f73ffffffffffffffffffffffffffffffffffffffff82169050919050565b5f610b2482610afb565b9050919050565b610b3481610b1a565b8114610b3e575f80fd5b50565b5f81359050610b4f81610b2b565b92915050565b5f819050919050565b610b6781610b55565b8114610b71575f80fd5b50565b5f81359050610b8281610b5e565b92915050565b5f8060408385031215610b9e57610b9d610af7565b5b5f610bab85828601610b41565b9250506020610bbc85828601610b74565b9150509250929050565b5f8115159050919050565b610bda81610bc6565b82525050565b5f602082019050610bf35f830184610bd1565b92915050565b5f805f60608486031215610c1057610c0f610af7565b5b5f610c1d86828701610b41565b9350506020610c2e86828701610b41565b9250506040610c3f86828701610b74565b9150509250925092565b5f60ff82169050919050565b610c5e81610c49565b82525050565b5f602082019050610c775f830184610c55565b92915050565b5f60208284031215610c9257610c91610af7565b5b5f610c9f84828501610b74565b91505092915050565b5f60208284031215610cbd57610cbc610af7565b5b5f610cca84828501610b41565b91505092915050565b610cdc81610b55565b82525050565b5f602082019050610cf55f830184610cd3565b92915050565b5f8060408385031215610d1157610d10610af7565b5b5f610d1e85828601610b41565b9250506020610d2f85828601610b41565b9150509250929050565b7f4e487b71000000000000000000000000000000000000000000000000000000005f52601160045260245ffd5b5f610d7082610b55565b9150610d7b83610b55565b9250828201905080821115610d9357610d92610d39565b5b92915050565b7f4e487b71000000000000000000000000000000000000000000000000000000005f52600160045260245ffd5b5f610dd082610b55565b9150610ddb83610b55565b9250828203905081811115610df357610df2610d39565b5b9291505056fea26469706673582212203c0c4e7746da1cc3e0cc4b6d1fdcdeb2349bfff365991df6abd8431c8cf9aa2564736f6c63430008160033",
					"opcodes": "PUSH1 0x80 PUSH1 0x40 MSTORE CALLVALUE DUP1 ISZERO PUSH3 0x10 JUMPI PUSH0 DUP1 REVERT JUMPDEST POP PUSH2 0x2710 PUSH1 0x40 MLOAD PUSH3 0x22 SWAP1 PUSH3 0xCD JUMP JUMPDEST PUSH3 0x2E SWAP2 SWAP1 PUSH3 0x12E JUMP JUMPDEST PUSH1 0x40 MLOAD DUP1 SWAP2 SUB SWAP1 PUSH0 CREATE DUP1 ISZERO DUP1 ISZERO PUSH3 0x48 JUMPI RETURNDATASIZE PUSH0 DUP1 RETURNDATACOPY RETURNDATASIZE PUSH0 REVERT JUMPDEST POP PUSH0 DUP1 PUSH2 0x100 EXP DUP2 SLOAD DUP2 PUSH20 0xFFFFFFFFFFFFFFFFFFFFFFFFFFFFFFFFFFFFFFFF MUL NOT AND SWAP1 DUP4 PUSH20 0xFFFFFFFFFFFFFFFFFFFFFFFFFFFFFFFFFFFFFFFF AND MUL OR SWAP1 SSTORE POP CALLER PUSH1 0x1 PUSH0 PUSH2 0x100 EXP DUP2 SLOAD DUP2 PUSH20 0xFFFFFFFFFFFFFFFFFFFFFFFFFFFFFFFFFFFFFFFF MUL NOT AND SWAP1 DUP4 PUSH20 0xFFFFFFFFFFFFFFFFFFFFFFFFFFFFFFFFFFFFFFFF AND MUL OR SWAP1 SSTORE POP PUSH3 0x149 JUMP JUMPDEST PUSH2 0xF1F DUP1 PUSH3 0xFBC DUP4 CODECOPY ADD SWAP1 JUMP JUMPDEST PUSH0 DUP2 SWAP1 POP SWAP2 SWAP1 POP JUMP JUMPDEST PUSH0 DUP2 SWAP1 POP SWAP2 SWAP1 POP JUMP JUMPDEST PUSH0 DUP2 SWAP1 POP SWAP2 SWAP1 POP JUMP JUMPDEST PUSH0 PUSH3 0x116 PUSH3 0x110 PUSH3 0x10A DUP5 PUSH3 0xDB JUMP JUMPDEST PUSH3 0xED JUMP JUMPDEST PUSH3 0xE4 JUMP JUMPDEST SWAP1 POP SWAP2 SWAP1 POP JUMP JUMPDEST PUSH3 0x128 DUP2 PUSH3 0xF6 JUMP JUMPDEST DUP3 MSTORE POP POP JUMP JUMPDEST PUSH0 PUSH1 0x20 DUP3 ADD SWAP1 POP PUSH3 0x143 PUSH0 DUP4 ADD DUP5 PUSH3 0x11D JUMP JUMPDEST SWAP3 SWAP2 POP POP JUMP JUMPDEST PUSH2 0xE65 DUP1 PUSH3 0x157 PUSH0 CODECOPY PUSH0 RETURN INVALID PUSH1 0x80 PUSH1 0x40 MSTORE PUSH1 0x4 CALLDATASIZE LT PUSH2 0x6F JUMPI PUSH0 CALLDATALOAD PUSH1 0xE0 SHR DUP1 PUSH4 0xCE8F2F38 GT PUSH2 0x4D JUMPI DUP1 PUSH4 0xCE8F2F38 EQ PUSH2 0xEF JUMPI DUP1 PUSH4 0xD00DF296 EQ PUSH2 0x12B JUMPI DUP1 PUSH4 0xE33F34A0 EQ PUSH2 0x169 JUMPI DUP1 PUSH4 0xF7774091 EQ PUSH2 0x193 JUMPI PUSH2 0x6F JUMP JUMPDEST DUP1 PUSH4 0x1246F6E2 EQ PUSH2 0x73 JUMPI DUP1 PUSH4 0x722713F7 EQ PUSH2 0x9B JUMPI DUP1 PUSH4 0x8DA5CB5B EQ PUSH2 0xC5 JUMPI JUMPDEST PUSH0 DUP1 REVERT JUMPDEST CALLVALUE DUP1 ISZERO PUSH2 0x7E JUMPI PUSH0 DUP1 REVERT JUMPDEST POP PUSH2 0x99 PUSH1 0x4 DUP1 CALLDATASIZE SUB DUP2 ADD SWAP1 PUSH2 0x94 SWAP2 SWAP1 PUSH2 0x759 JUMP JUMPDEST PUSH2 0x1AF JUMP JUMPDEST STOP JUMPDEST CALLVALUE DUP1 ISZERO PUSH2 0xA6 JUMPI PUSH0 DUP1 REVERT JUMPDEST POP PUSH2 0xAF PUSH2 0x2C8 JUMP JUMPDEST PUSH1 0x40 MLOAD PUSH2 0xBC SWAP2 SWAP1 PUSH2 0x793 JUMP JUMPDEST PUSH1 0x40 MLOAD DUP1 SWAP2 SUB SWAP1 RETURN JUMPDEST CALLVALUE DUP1 ISZERO PUSH2 0xD0 JUMPI PUSH0 DUP1 REVERT JUMPDEST POP PUSH2 0xD9 PUSH2 0x366 JUMP JUMPDEST PUSH1 0x40 MLOAD PUSH2 0xE6 SWAP2 SWAP1 PUSH2 0x7EB JUMP JUMPDEST PUSH1 0x40 MLOAD DUP1 SWAP2 SUB SWAP1 RETURN JUMPDEST CALLVALUE DUP1 ISZERO PUSH2 0xFA JUMPI PUSH0 DUP1 REVERT JUMPDEST POP PUSH2 0x115 PUSH1 0x4 DUP1 CALLDATASIZE SUB DUP2 ADD SWAP1 PUSH2 0x110 SWAP2 SWAP1 PUSH2 0x83F JUMP JUMPDEST PUSH2 0x38B JUMP JUMPDEST PUSH1 0x40 MLOAD PUSH2 0x122 SWAP2 SWAP1 PUSH2 0x793 JUMP JUMPDEST PUSH1 0x40 MLOAD DUP1 SWAP2 SUB SWAP1 RETURN JUMPDEST CALLVALUE DUP1 ISZERO PUSH2 0x136 JUMPI PUSH0 DUP1 REVERT JUMPDEST POP PUSH2 0x151 PUSH1 0x4 DUP1 CALLDATASIZE SUB DUP2 ADD SWAP1 PUSH2 0x14C SWAP2 SWAP1 PUSH2 0x9A6 JUMP JUMPDEST PUSH2 0x3A5 JUMP JUMPDEST PUSH1 0x40 MLOAD PUSH2 0x160 SWAP4 SWAP3 SWAP2 SWAP1 PUSH2 0xA81 JUMP JUMPDEST PUSH1 0x40 MLOAD DUP1 SWAP2 SUB SWAP1 RETURN JUMPDEST CALLVALUE DUP1 ISZERO PUSH2 0x174 JUMPI PUSH0 DUP1 REVERT JUMPDEST POP PUSH2 0x17D PUSH2 0x475 JUMP JUMPDEST PUSH1 0x40 MLOAD PUSH2 0x18A SWAP2 SWAP1 PUSH2 0x793 JUMP JUMPDEST PUSH1 0x40 MLOAD DUP1 SWAP2 SUB SWAP1 RETURN JUMPDEST PUSH2 0x1AD PUSH1 0x4 DUP1 CALLDATASIZE SUB DUP2 ADD SWAP1 PUSH2 0x1A8 SWAP2 SWAP1 PUSH2 0x759 JUMP JUMPDEST PUSH2 0x513 JUMP JUMPDEST STOP JUMPDEST CALLER PUSH1 0x1 PUSH0 SWAP1 SLOAD SWAP1 PUSH2 0x100 EXP SWAP1 DIV PUSH20 0xFFFFFFFFFFFFFFFFFFFFFFFFFFFFFFFFFFFFFFFF AND PUSH20 0xFFFFFFFFFFFFFFFFFFFFFFFFFFFFFFFFFFFFFFFF AND DUP2 PUSH20 0xFFFFFFFFFFFFFFFFFFFFFFFFFFFFFFFFFFFFFFFF AND EQ PUSH2 0x23F JUMPI PUSH1 0x40 MLOAD PUSH32 0x8C379A000000000000000000000000000000000000000000000000000000000 DUP2 MSTORE PUSH1 0x4 ADD PUSH2 0x236 SWAP1 PUSH2 0xB07 JUMP JUMPDEST PUSH1 0x40 MLOAD DUP1 SWAP2 SUB SWAP1 REVERT JUMPDEST PUSH0 DUP1 SLOAD SWAP1 PUSH2 0x100 EXP SWAP1 DIV PUSH20 0xFFFFFFFFFFFFFFFFFFFFFFFFFFFFFFFFFFFFFFFF AND PUSH20 0xFFFFFFFFFFFFFFFFFFFFFFFFFFFFFFFFFFFFFFFF AND PUSH4 0x66E52DE5 DUP4 PUSH1 0x40 MLOAD DUP3 PUSH4 0xFFFFFFFF AND PUSH1 0xE0 SHL DUP2 MSTORE PUSH1 0x4 ADD PUSH2 0x297 SWAP2 SWAP1 PUSH2 0x793 JUMP JUMPDEST PUSH0 PUSH1 0x40 MLOAD DUP1 DUP4 SUB DUP2 PUSH0 DUP8 DUP1 EXTCODESIZE ISZERO DUP1 ISZERO PUSH2 0x2AE JUMPI PUSH0 DUP1 REVERT JUMPDEST POP GAS CALL ISZERO DUP1 ISZERO PUSH2 0x2C0 JUMPI RETURNDATASIZE PUSH0 DUP1 RETURNDATACOPY RETURNDATASIZE PUSH0 REVERT JUMPDEST POP POP POP POP POP POP JUMP JUMPDEST PUSH0 DUP1 PUSH0 SWAP1 SLOAD SWAP1 PUSH2 0x100 EXP SWAP1 DIV PUSH20 0xFFFFFFFFFFFFFFFFFFFFFFFFFFFFFFFFFFFFFFFF AND PUSH20 0xFFFFFFFFFFFFFFFFFFFFFFFFFFFFFFFFFFFFFFFF AND PUSH4 0x70A08231 ADDRESS PUSH1 0x40 MLOAD DUP3 PUSH4 0xFFFFFFFF AND PUSH1 0xE0 SHL DUP2 MSTORE PUSH1 0x4 ADD PUSH2 0x322 SWAP2 SWAP1 PUSH2 0xB34 JUMP JUMPDEST PUSH1 0x20 PUSH1 0x40 MLOAD DUP1 DUP4 SUB DUP2 DUP7 GAS STATICCALL ISZERO DUP1 ISZERO PUSH2 0x33D JUMPI RETURNDATASIZE PUSH0 DUP1 RETURNDATACOPY RETURNDATASIZE PUSH0 REVERT JUMPDEST POP POP POP POP PUSH1 0x40 MLOAD RETURNDATASIZE PUSH1 0x1F NOT PUSH1 0x1F DUP3 ADD AND DUP3 ADD DUP1 PUSH1 0x40 MSTORE POP DUP2 ADD SWAP1 PUSH2 0x361 SWAP2 SWAP1 PUSH2 0xB61 JUMP JUMPDEST SWAP1 POP SWAP1 JUMP JUMPDEST PUSH1 0x1 PUSH0 SWAP1 SLOAD SWAP1 PUSH2 0x100 EXP SWAP1 DIV PUSH20 0xFFFFFFFFFFFFFFFFFFFFFFFFFFFFFFFFFFFFFFFF AND DUP2 JUMP JUMPDEST PUSH1 0x2 PUSH1 0x20 MSTORE DUP1 PUSH0 MSTORE PUSH1 0x40 PUSH0 KECCAK256 PUSH0 SWAP2 POP SWAP1 POP DUP1 PUSH0 ADD SLOAD SWAP1 POP DUP2 JUMP JUMPDEST PUSH1 0x3 DUP2 DUP1 MLOAD PUSH1 0x20 DUP2 ADD DUP3 ADD DUP1 MLOAD DUP5 DUP3 MSTORE PUSH1 0x20 DUP4 ADD PUSH1 0x20 DUP6 ADD KECCAK256 DUP2 DUP4 MSTORE DUP1 SWAP6 POP POP POP POP POP POP PUSH0 SWAP2 POP SWAP1 POP DUP1 PUSH0 ADD DUP1 SLOAD PUSH2 0x3DC SWAP1 PUSH2 0xBB9 JUMP JUMPDEST DUP1 PUSH1 0x1F ADD PUSH1 0x20 DUP1 SWAP2 DIV MUL PUSH1 0x20 ADD PUSH1 0x40 MLOAD SWAP1 DUP2 ADD PUSH1 0x40 MSTORE DUP1 SWAP3 SWAP2 SWAP1 DUP2 DUP2 MSTORE PUSH1 0x20 ADD DUP3 DUP1 SLOAD PUSH2 0x408 SWAP1 PUSH2 0xBB9 JUMP JUMPDEST DUP1 ISZERO PUSH2 0x453 JUMPI DUP1 PUSH1 0x1F LT PUSH2 0x42A JUMPI PUSH2 0x100 DUP1 DUP4 SLOAD DIV MUL DUP4 MSTORE SWAP2 PUSH1 0x20 ADD SWAP2 PUSH2 0x453 JUMP JUMPDEST DUP3 ADD SWAP2 SWAP1 PUSH0 MSTORE PUSH1 0x20 PUSH0 KECCAK256 SWAP1 JUMPDEST DUP2 SLOAD DUP2 MSTORE SWAP1 PUSH1 0x1 ADD SWAP1 PUSH1 0x20 ADD DUP1 DUP4 GT PUSH2 0x436 JUMPI DUP3 SWAP1 SUB PUSH1 0x1F AND DUP3 ADD SWAP2 JUMPDEST POP POP POP POP POP SWAP1 DUP1 PUSH1 0x1 ADD SLOAD SWAP1 DUP1 PUSH1 0x2 ADD PUSH0 SWAP1 SLOAD SWAP1 PUSH2 0x100 EXP SWAP1 DIV PUSH1 0xFF AND SWAP1 POP DUP4 JUMP JUMPDEST PUSH0 DUP1 PUSH0 SWAP1 SLOAD SWAP1 PUSH2 0x100 EXP SWAP1 DIV PUSH20 0xFFFFFFFFFFFFFFFFFFFFFFFFFFFFFFFFFFFFFFFF AND PUSH20 0xFFFFFFFFFFFFFFFFFFFFFFFFFFFFFFFFFFFFFFFF AND PUSH4 0x70A08231 CALLER PUSH1 0x40 MLOAD DUP3 PUSH4 0xFFFFFFFF AND PUSH1 0xE0 SHL DUP2 MSTORE PUSH1 0x4 ADD PUSH2 0x4CF SWAP2 SWAP1 PUSH2 0xB34 JUMP JUMPDEST PUSH1 0x20 PUSH1 0x40 MLOAD DUP1 DUP4 SUB DUP2 DUP7 GAS STATICCALL ISZERO DUP1 ISZERO PUSH2 0x4EA JUMPI RETURNDATASIZE PUSH0 DUP1 RETURNDATACOPY RETURNDATASIZE PUSH0 REVERT JUMPDEST POP POP POP POP PUSH1 0x40 MLOAD RETURNDATASIZE PUSH1 0x1F NOT PUSH1 0x1F DUP3 ADD AND DUP3 ADD DUP1 PUSH1 0x40 MSTORE POP DUP2 ADD SWAP1 PUSH2 0x50E SWAP2 SWAP1 PUSH2 0xB61 JUMP JUMPDEST SWAP1 POP SWAP1 JUMP JUMPDEST PUSH0 PUSH2 0x51D DUP3 PUSH2 0x6F9 JUMP JUMPDEST SWAP1 POP DUP1 CALLVALUE LT ISZERO PUSH2 0x562 JUMPI PUSH1 0x40 MLOAD PUSH32 0x8C379A000000000000000000000000000000000000000000000000000000000 DUP2 MSTORE PUSH1 0x4 ADD PUSH2 0x559 SWAP1 PUSH2 0xC59 JUMP JUMPDEST PUSH1 0x40 MLOAD DUP1 SWAP2 SUB SWAP1 REVERT JUMPDEST PUSH0 DUP2 CALLVALUE PUSH2 0x56F SWAP2 SWAP1 PUSH2 0xCA4 JUMP JUMPDEST SWAP1 POP CALLER PUSH20 0xFFFFFFFFFFFFFFFFFFFFFFFFFFFFFFFFFFFFFFFF AND PUSH2 0x8FC DUP3 SWAP1 DUP2 ISZERO MUL SWAP1 PUSH1 0x40 MLOAD PUSH0 PUSH1 0x40 MLOAD DUP1 DUP4 SUB DUP2 DUP6 DUP9 DUP9 CALL SWAP4 POP POP POP POP ISZERO DUP1 ISZERO PUSH2 0x5B4 JUMPI RETURNDATASIZE PUSH0 DUP1 RETURNDATACOPY RETURNDATASIZE PUSH0 REVERT JUMPDEST POP PUSH0 PUSH2 0x5BE PUSH2 0x2C8 JUMP JUMPDEST SWAP1 POP DUP1 DUP5 GT ISZERO PUSH2 0x603 JUMPI PUSH1 0x40 MLOAD PUSH32 0x8C379A000000000000000000000000000000000000000000000000000000000 DUP2 MSTORE PUSH1 0x4 ADD PUSH2 0x5FA SWAP1 PUSH2 0xD21 JUMP JUMPDEST PUSH1 0x40 MLOAD DUP1 SWAP2 SUB SWAP1 REVERT JUMPDEST PUSH0 DUP1 SLOAD SWAP1 PUSH2 0x100 EXP SWAP1 DIV PUSH20 0xFFFFFFFFFFFFFFFFFFFFFFFFFFFFFFFFFFFFFFFF AND PUSH20 0xFFFFFFFFFFFFFFFFFFFFFFFFFFFFFFFFFFFFFFFF AND PUSH4 0xA9059CBB CALLER DUP7 PUSH1 0x40 MLOAD DUP4 PUSH4 0xFFFFFFFF AND PUSH1 0xE0 SHL DUP2 MSTORE PUSH1 0x4 ADD PUSH2 0x65D SWAP3 SWAP2 SWAP1 PUSH2 0xD3F JUMP JUMPDEST PUSH1 0x20 PUSH1 0x40 MLOAD DUP1 DUP4 SUB DUP2 PUSH0 DUP8 GAS CALL ISZERO DUP1 ISZERO PUSH2 0x679 JUMPI RETURNDATASIZE PUSH0 DUP1 RETURNDATACOPY RETURNDATASIZE PUSH0 REVERT JUMPDEST POP POP POP POP PUSH1 0x40 MLOAD RETURNDATASIZE PUSH1 0x1F NOT PUSH1 0x1F DUP3 ADD AND DUP3 ADD DUP1 PUSH1 0x40 MSTORE POP DUP2 ADD SWAP1 PUSH2 0x69D SWAP2 SWAP1 PUSH2 0xD90 JUMP JUMPDEST POP DUP4 PUSH1 0x2 PUSH0 CALLER PUSH20 0xFFFFFFFFFFFFFFFFFFFFFFFFFFFFFFFFFFFFFFFF AND PUSH20 0xFFFFFFFFFFFFFFFFFFFFFFFFFFFFFFFFFFFFFFFF AND DUP2 MSTORE PUSH1 0x20 ADD SWAP1 DUP2 MSTORE PUSH1 0x20 ADD PUSH0 KECCAK256 PUSH0 ADD PUSH0 DUP3 DUP3 SLOAD PUSH2 0x6EC SWAP2 SWAP1 PUSH2 0xDBB JUMP JUMPDEST SWAP3 POP POP DUP2 SWAP1 SSTORE POP POP POP POP POP JUMP JUMPDEST PUSH0 PUSH8 0xDE0B6B3A7640000 DUP3 PUSH2 0x70E SWAP2 SWAP1 PUSH2 0xDEE JUMP JUMPDEST SWAP1 POP SWAP2 SWAP1 POP JUMP JUMPDEST PUSH0 PUSH1 0x40 MLOAD SWAP1 POP SWAP1 JUMP JUMPDEST PUSH0 DUP1 REVERT JUMPDEST PUSH0 DUP1 REVERT JUMPDEST PUSH0 DUP2 SWAP1 POP SWAP2 SWAP1 POP JUMP JUMPDEST PUSH2 0x738 DUP2 PUSH2 0x726 JUMP JUMPDEST DUP2 EQ PUSH2 0x742 JUMPI PUSH0 DUP1 REVERT JUMPDEST POP JUMP JUMPDEST PUSH0 DUP2 CALLDATALOAD SWAP1 POP PUSH2 0x753 DUP2 PUSH2 0x72F JUMP JUMPDEST SWAP3 SWAP2 POP POP JUMP JUMPDEST PUSH0 PUSH1 0x20 DUP3 DUP5 SUB SLT ISZERO PUSH2 0x76E JUMPI PUSH2 0x76D PUSH2 0x71E JUMP JUMPDEST JUMPDEST PUSH0 PUSH2 0x77B DUP5 DUP3 DUP6 ADD PUSH2 0x745 JUMP JUMPDEST SWAP2 POP POP SWAP3 SWAP2 POP POP JUMP JUMPDEST PUSH2 0x78D DUP2 PUSH2 0x726 JUMP JUMPDEST DUP3 MSTORE POP POP JUMP JUMPDEST PUSH0 PUSH1 0x20 DUP3 ADD SWAP1 POP PUSH2 0x7A6 PUSH0 DUP4 ADD DUP5 PUSH2 0x784 JUMP JUMPDEST SWAP3 SWAP2 POP POP JUMP JUMPDEST PUSH0 PUSH20 0xFFFFFFFFFFFFFFFFFFFFFFFFFFFFFFFFFFFFFFFF DUP3 AND SWAP1 POP SWAP2 SWAP1 POP JUMP JUMPDEST PUSH0 PUSH2 0x7D5 DUP3 PUSH2 0x7AC JUMP JUMPDEST SWAP1 POP SWAP2 SWAP1 POP JUMP JUMPDEST PUSH2 0x7E5 DUP2 PUSH2 0x7CB JUMP JUMPDEST DUP3 MSTORE POP POP JUMP JUMPDEST PUSH0 PUSH1 0x20 DUP3 ADD SWAP1 POP PUSH2 0x7FE PUSH0 DUP4 ADD DUP5 PUSH2 0x7DC JUMP JUMPDEST SWAP3 SWAP2 POP POP JUMP JUMPDEST PUSH0 PUSH2 0x80E DUP3 PUSH2 0x7AC JUMP JUMPDEST SWAP1 POP SWAP2 SWAP1 POP JUMP JUMPDEST PUSH2 0x81E DUP2 PUSH2 0x804 JUMP JUMPDEST DUP2 EQ PUSH2 0x828 JUMPI PUSH0 DUP1 REVERT JUMPDEST POP JUMP JUMPDEST PUSH0 DUP2 CALLDATALOAD SWAP1 POP PUSH2 0x839 DUP2 PUSH2 0x815 JUMP JUMPDEST SWAP3 SWAP2 POP POP JUMP JUMPDEST PUSH0 PUSH1 0x20 DUP3 DUP5 SUB SLT ISZERO PUSH2 0x854 JUMPI PUSH2 0x853 PUSH2 0x71E JUMP JUMPDEST JUMPDEST PUSH0 PUSH2 0x861 DUP5 DUP3 DUP6 ADD PUSH2 0x82B JUMP JUMPDEST SWAP2 POP POP SWAP3 SWAP2 POP POP JUMP JUMPDEST PUSH0 DUP1 REVERT JUMPDEST PUSH0 DUP1 REVERT JUMPDEST PUSH0 PUSH1 0x1F NOT PUSH1 0x1F DUP4 ADD AND SWAP1 POP SWAP2 SWAP1 POP JUMP JUMPDEST PUSH32 0x4E487B7100000000000000000000000000000000000000000000000000000000 PUSH0 MSTORE PUSH1 0x41 PUSH1 0x4 MSTORE PUSH1 0x24 PUSH0 REVERT JUMPDEST PUSH2 0x8B8 DUP3 PUSH2 0x872 JUMP JUMPDEST DUP2 ADD DUP2 DUP2 LT PUSH8 0xFFFFFFFFFFFFFFFF DUP3 GT OR ISZERO PUSH2 0x8D7 JUMPI PUSH2 0x8D6 PUSH2 0x882 JUMP JUMPDEST JUMPDEST DUP1 PUSH1 0x40 MSTORE POP POP POP JUMP JUMPDEST PUSH0 PUSH2 0x8E9 PUSH2 0x715 JUMP JUMPDEST SWAP1 POP PUSH2 0x8F5 DUP3 DUP3 PUSH2 0x8AF JUMP JUMPDEST SWAP2 SWAP1 POP JUMP JUMPDEST PUSH0 PUSH8 0xFFFFFFFFFFFFFFFF DUP3 GT ISZERO PUSH2 0x914 JUMPI PUSH2 0x913 PUSH2 0x882 JUMP JUMPDEST JUMPDEST PUSH2 0x91D DUP3 PUSH2 0x872 JUMP JUMPDEST SWAP1 POP PUSH1 0x20 DUP2 ADD SWAP1 POP SWAP2 SWAP1 POP JUMP JUMPDEST DUP3 DUP2 DUP4 CALLDATACOPY PUSH0 DUP4 DUP4 ADD MSTORE POP POP POP JUMP JUMPDEST PUSH0 PUSH2 0x94A PUSH2 0x945 DUP5 PUSH2 0x8FA JUMP JUMPDEST PUSH2 0x8E0 JUMP JUMPDEST SWAP1 POP DUP3 DUP2 MSTORE PUSH1 0x20 DUP2 ADD DUP5 DUP5 DUP5 ADD GT ISZERO PUSH2 0x966 JUMPI PUSH2 0x965 PUSH2 0x86E JUMP JUMPDEST JUMPDEST PUSH2 0x971 DUP5 DUP3 DUP6 PUSH2 0x92A JUMP JUMPDEST POP SWAP4 SWAP3 POP POP POP JUMP JUMPDEST PUSH0 DUP3 PUSH1 0x1F DUP4 ADD SLT PUSH2 0x98D JUMPI PUSH2 0x98C PUSH2 0x86A JUMP JUMPDEST JUMPDEST DUP2 CALLDATALOAD PUSH2 0x99D DUP5 DUP3 PUSH1 0x20 DUP7 ADD PUSH2 0x938 JUMP JUMPDEST SWAP2 POP POP SWAP3 SWAP2 POP POP JUMP JUMPDEST PUSH0 PUSH1 0x20 DUP3 DUP5 SUB SLT ISZERO PUSH2 0x9BB JUMPI PUSH2 0x9BA PUSH2 0x71E JUMP JUMPDEST JUMPDEST PUSH0 DUP3 ADD CALLDATALOAD PUSH8 0xFFFFFFFFFFFFFFFF DUP2 GT ISZERO PUSH2 0x9D8 JUMPI PUSH2 0x9D7 PUSH2 0x722 JUMP JUMPDEST JUMPDEST PUSH2 0x9E4 DUP5 DUP3 DUP6 ADD PUSH2 0x979 JUMP JUMPDEST SWAP2 POP POP SWAP3 SWAP2 POP POP JUMP JUMPDEST PUSH0 DUP2 MLOAD SWAP1 POP SWAP2 SWAP1 POP JUMP JUMPDEST PUSH0 DUP3 DUP3 MSTORE PUSH1 0x20 DUP3 ADD SWAP1 POP SWAP3 SWAP2 POP POP JUMP JUMPDEST PUSH0 JUMPDEST DUP4 DUP2 LT ISZERO PUSH2 0xA24 JUMPI DUP1 DUP3 ADD MLOAD DUP2 DUP5 ADD MSTORE PUSH1 0x20 DUP2 ADD SWAP1 POP PUSH2 0xA09 JUMP JUMPDEST PUSH0 DUP5 DUP5 ADD MSTORE POP POP POP POP JUMP JUMPDEST PUSH0 PUSH2 0xA39 DUP3 PUSH2 0x9ED JUMP JUMPDEST PUSH2 0xA43 DUP2 DUP6 PUSH2 0x9F7 JUMP JUMPDEST SWAP4 POP PUSH2 0xA53 DUP2 DUP6 PUSH1 0x20 DUP7 ADD PUSH2 0xA07 JUMP JUMPDEST PUSH2 0xA5C DUP2 PUSH2 0x872 JUMP JUMPDEST DUP5 ADD SWAP2 POP POP SWAP3 SWAP2 POP POP JUMP JUMPDEST PUSH0 DUP2 ISZERO ISZERO SWAP1 POP SWAP2 SWAP1 POP JUMP JUMPDEST PUSH2 0xA7B DUP2 PUSH2 0xA67 JUMP JUMPDEST DUP3 MSTORE POP POP JUMP JUMPDEST PUSH0 PUSH1 0x60 DUP3 ADD SWAP1 POP DUP2 DUP2 SUB PUSH0 DUP4 ADD MSTORE PUSH2 0xA99 DUP2 DUP7 PUSH2 0xA2F JUMP JUMPDEST SWAP1 POP PUSH2 0xAA8 PUSH1 0x20 DUP4 ADD DUP6 PUSH2 0x784 JUMP JUMPDEST PUSH2 0xAB5 PUSH1 0x40 DUP4 ADD DUP5 PUSH2 0xA72 JUMP JUMPDEST SWAP5 SWAP4 POP POP POP POP JUMP JUMPDEST PUSH32 0x53696E207065726D69736F7320646520656A637563696F6E0000000000000000 PUSH0 DUP3 ADD MSTORE POP JUMP JUMPDEST PUSH0 PUSH2 0xAF1 PUSH1 0x18 DUP4 PUSH2 0x9F7 JUMP JUMPDEST SWAP2 POP PUSH2 0xAFC DUP3 PUSH2 0xABD JUMP JUMPDEST PUSH1 0x20 DUP3 ADD SWAP1 POP SWAP2 SWAP1 POP JUMP JUMPDEST PUSH0 PUSH1 0x20 DUP3 ADD SWAP1 POP DUP2 DUP2 SUB PUSH0 DUP4 ADD MSTORE PUSH2 0xB1E DUP2 PUSH2 0xAE5 JUMP JUMPDEST SWAP1 POP SWAP2 SWAP1 POP JUMP JUMPDEST PUSH2 0xB2E DUP2 PUSH2 0x804 JUMP JUMPDEST DUP3 MSTORE POP POP JUMP JUMPDEST PUSH0 PUSH1 0x20 DUP3 ADD SWAP1 POP PUSH2 0xB47 PUSH0 DUP4 ADD DUP5 PUSH2 0xB25 JUMP JUMPDEST SWAP3 SWAP2 POP POP JUMP JUMPDEST PUSH0 DUP2 MLOAD SWAP1 POP PUSH2 0xB5B DUP2 PUSH2 0x72F JUMP JUMPDEST SWAP3 SWAP2 POP POP JUMP JUMPDEST PUSH0 PUSH1 0x20 DUP3 DUP5 SUB SLT ISZERO PUSH2 0xB76 JUMPI PUSH2 0xB75 PUSH2 0x71E JUMP JUMPDEST JUMPDEST PUSH0 PUSH2 0xB83 DUP5 DUP3 DUP6 ADD PUSH2 0xB4D JUMP JUMPDEST SWAP2 POP POP SWAP3 SWAP2 POP POP JUMP JUMPDEST PUSH32 0x4E487B7100000000000000000000000000000000000000000000000000000000 PUSH0 MSTORE PUSH1 0x22 PUSH1 0x4 MSTORE PUSH1 0x24 PUSH0 REVERT JUMPDEST PUSH0 PUSH1 0x2 DUP3 DIV SWAP1 POP PUSH1 0x1 DUP3 AND DUP1 PUSH2 0xBD0 JUMPI PUSH1 0x7F DUP3 AND SWAP2 POP JUMPDEST PUSH1 0x20 DUP3 LT DUP2 SUB PUSH2 0xBE3 JUMPI PUSH2 0xBE2 PUSH2 0xB8C JUMP JUMPDEST JUMPDEST POP SWAP2 SWAP1 POP JUMP JUMPDEST PUSH32 0x436F6D707261206D656E6F7320546F6B656E73206F207061676120636F6E206D PUSH0 DUP3 ADD MSTORE PUSH32 0x6173206574686572730000000000000000000000000000000000000000000000 PUSH1 0x20 DUP3 ADD MSTORE POP JUMP JUMPDEST PUSH0 PUSH2 0xC43 PUSH1 0x29 DUP4 PUSH2 0x9F7 JUMP JUMPDEST SWAP2 POP PUSH2 0xC4E DUP3 PUSH2 0xBE9 JUMP JUMPDEST PUSH1 0x40 DUP3 ADD SWAP1 POP SWAP2 SWAP1 POP JUMP JUMPDEST PUSH0 PUSH1 0x20 DUP3 ADD SWAP1 POP DUP2 DUP2 SUB PUSH0 DUP4 ADD MSTORE PUSH2 0xC70 DUP2 PUSH2 0xC37 JUMP JUMPDEST SWAP1 POP SWAP2 SWAP1 POP JUMP JUMPDEST PUSH32 0x4E487B7100000000000000000000000000000000000000000000000000000000 PUSH0 MSTORE PUSH1 0x11 PUSH1 0x4 MSTORE PUSH1 0x24 PUSH0 REVERT JUMPDEST PUSH0 PUSH2 0xCAE DUP3 PUSH2 0x726 JUMP JUMPDEST SWAP2 POP PUSH2 0xCB9 DUP4 PUSH2 0x726 JUMP JUMPDEST SWAP3 POP DUP3 DUP3 SUB SWAP1 POP DUP2 DUP2 GT ISZERO PUSH2 0xCD1 JUMPI PUSH2 0xCD0 PUSH2 0xC77 JUMP JUMPDEST JUMPDEST SWAP3 SWAP2 POP POP JUMP JUMPDEST PUSH32 0x436F6D70726120756E206E756D65726F206D656E6F7220646520746F6B656E73 PUSH0 DUP3 ADD MSTORE POP JUMP JUMPDEST PUSH0 PUSH2 0xD0B PUSH1 0x20 DUP4 PUSH2 0x9F7 JUMP JUMPDEST SWAP2 POP PUSH2 0xD16 DUP3 PUSH2 0xCD7 JUMP JUMPDEST PUSH1 0x20 DUP3 ADD SWAP1 POP SWAP2 SWAP1 POP JUMP JUMPDEST PUSH0 PUSH1 0x20 DUP3 ADD SWAP1 POP DUP2 DUP2 SUB PUSH0 DUP4 ADD MSTORE PUSH2 0xD38 DUP2 PUSH2 0xCFF JUMP JUMPDEST SWAP1 POP SWAP2 SWAP1 POP JUMP JUMPDEST PUSH0 PUSH1 0x40 DUP3 ADD SWAP1 POP PUSH2 0xD52 PUSH0 DUP4 ADD DUP6 PUSH2 0xB25 JUMP JUMPDEST PUSH2 0xD5F PUSH1 0x20 DUP4 ADD DUP5 PUSH2 0x784 JUMP JUMPDEST SWAP4 SWAP3 POP POP POP JUMP JUMPDEST PUSH2 0xD6F DUP2 PUSH2 0xA67 JUMP JUMPDEST DUP2 EQ PUSH2 0xD79 JUMPI PUSH0 DUP1 REVERT JUMPDEST POP JUMP JUMPDEST PUSH0 DUP2 MLOAD SWAP1 POP PUSH2 0xD8A DUP2 PUSH2 0xD66 JUMP JUMPDEST SWAP3 SWAP2 POP POP JUMP JUMPDEST PUSH0 PUSH1 0x20 DUP3 DUP5 SUB SLT ISZERO PUSH2 0xDA5 JUMPI PUSH2 0xDA4 PUSH2 0x71E JUMP JUMPDEST JUMPDEST PUSH0 PUSH2 0xDB2 DUP5 DUP3 DUP6 ADD PUSH2 0xD7C JUMP JUMPDEST SWAP2 POP POP SWAP3 SWAP2 POP POP JUMP JUMPDEST PUSH0 PUSH2 0xDC5 DUP3 PUSH2 0x726 JUMP JUMPDEST SWAP2 POP PUSH2 0xDD0 DUP4 PUSH2 0x726 JUMP JUMPDEST SWAP3 POP DUP3 DUP3 ADD SWAP1 POP DUP1 DUP3 GT ISZERO PUSH2 0xDE8 JUMPI PUSH2 0xDE7 PUSH2 0xC77 JUMP JUMPDEST JUMPDEST SWAP3 SWAP2 POP POP JUMP JUMPDEST PUSH0 PUSH2 0xDF8 DUP3 PUSH2 0x726 JUMP JUMPDEST SWAP2 POP PUSH2 0xE03 DUP4 PUSH2 0x726 JUMP JUMPDEST SWAP3 POP DUP3 DUP3 MUL PUSH2 0xE11 DUP2 PUSH2 0x726 JUMP JUMPDEST SWAP2 POP DUP3 DUP3 DIV DUP5 EQ DUP4 ISZERO OR PUSH2 0xE28 JUMPI PUSH2 0xE27 PUSH2 0xC77 JUMP JUMPDEST JUMPDEST POP SWAP3 SWAP2 POP POP JUMP INVALID LOG2 PUSH5 0x6970667358 0x22 SLT KECCAK256 0xC2 0xD8 GASLIMIT ORIGIN 0xC7 0xDA SGT EXP 0xD9 AND 0xA7 0xB6 0xB2 0xBD 0xE5 0x5D 0xC3 0x2D 0xD2 0x4D DUP5 SWAP2 CALLDATASIZE CODESIZE DUP10 0xAA 0xCE SLOAD 0x2E PUSH24 0x50D164736F6C63430008160033608060405234801561000F JUMPI PUSH0 DUP1 REVERT JUMPDEST POP PUSH1 0x40 MLOAD PUSH2 0xF1F CODESIZE SUB DUP1 PUSH2 0xF1F DUP4 CODECOPY DUP2 DUP2 ADD PUSH1 0x40 MSTORE DUP2 ADD SWAP1 PUSH2 0x31 SWAP2 SWAP1 PUSH2 0xB8 JUMP JUMPDEST DUP1 PUSH1 0x2 DUP2 SWAP1 SSTORE POP PUSH1 0x2 SLOAD PUSH0 DUP1 CALLER PUSH20 0xFFFFFFFFFFFFFFFFFFFFFFFFFFFFFFFFFFFFFFFF AND PUSH20 0xFFFFFFFFFFFFFFFFFFFFFFFFFFFFFFFFFFFFFFFF AND DUP2 MSTORE PUSH1 0x20 ADD SWAP1 DUP2 MSTORE PUSH1 0x20 ADD PUSH0 KECCAK256 DUP2 SWAP1 SSTORE POP POP PUSH2 0xE3 JUMP JUMPDEST PUSH0 DUP1 REVERT JUMPDEST PUSH0 DUP2 SWAP1 POP SWAP2 SWAP1 POP JUMP JUMPDEST PUSH2 0x97 DUP2 PUSH2 0x85 JUMP JUMPDEST DUP2 EQ PUSH2 0xA1 JUMPI PUSH0 DUP1 REVERT JUMPDEST POP JUMP JUMPDEST PUSH0 DUP2 MLOAD SWAP1 POP PUSH2 0xB2 DUP2 PUSH2 0x8E JUMP JUMPDEST SWAP3 SWAP2 POP POP JUMP JUMPDEST PUSH0 PUSH1 0x20 DUP3 DUP5 SUB SLT ISZERO PUSH2 0xCD JUMPI PUSH2 0xCC PUSH2 0x81 JUMP JUMPDEST JUMPDEST PUSH0 PUSH2 0xDA DUP5 DUP3 DUP6 ADD PUSH2 0xA4 JUMP JUMPDEST SWAP2 POP POP SWAP3 SWAP2 POP POP JUMP JUMPDEST PUSH2 0xE2F DUP1 PUSH2 0xF0 PUSH0 CODECOPY PUSH0 RETURN INVALID PUSH1 0x80 PUSH1 0x40 MSTORE CALLVALUE DUP1 ISZERO PUSH2 0xF JUMPI PUSH0 DUP1 REVERT JUMPDEST POP PUSH1 0x4 CALLDATASIZE LT PUSH2 0x9C JUMPI PUSH0 CALLDATALOAD PUSH1 0xE0 SHR DUP1 PUSH4 0x70A08231 GT PUSH2 0x64 JUMPI DUP1 PUSH4 0x70A08231 EQ PUSH2 0x158 JUMPI DUP1 PUSH4 0x95D89B41 EQ PUSH2 0x188 JUMPI DUP1 PUSH4 0xA44B47F7 EQ PUSH2 0x1A6 JUMPI DUP1 PUSH4 0xA9059CBB EQ PUSH2 0x1C4 JUMPI DUP1 PUSH4 0xDD62ED3E EQ PUSH2 0x1F4 JUMPI PUSH2 0x9C JUMP JUMPDEST DUP1 PUSH4 0x6FDDE03 EQ PUSH2 0xA0 JUMPI DUP1 PUSH4 0x95EA7B3 EQ PUSH2 0xBE JUMPI DUP1 PUSH4 0x23B872DD EQ PUSH2 0xEE JUMPI DUP1 PUSH4 0x313CE567 EQ PUSH2 0x11E JUMPI DUP1 PUSH4 0x66E52DE5 EQ PUSH2 0x13C JUMPI JUMPDEST PUSH0 DUP1 REVERT JUMPDEST PUSH2 0xA8 PUSH2 0x224 JUMP JUMPDEST PUSH1 0x40 MLOAD PUSH2 0xB5 SWAP2 SWAP1 PUSH2 0xAD7 JUMP JUMPDEST PUSH1 0x40 MLOAD DUP1 SWAP2 SUB SWAP1 RETURN JUMPDEST PUSH2 0xD8 PUSH1 0x4 DUP1 CALLDATASIZE SUB DUP2 ADD SWAP1 PUSH2 0xD3 SWAP2 SWAP1 PUSH2 0xB88 JUMP JUMPDEST PUSH2 0x25D JUMP JUMPDEST PUSH1 0x40 MLOAD PUSH2 0xE5 SWAP2 SWAP1 PUSH2 0xBE0 JUMP JUMPDEST PUSH1 0x40 MLOAD DUP1 SWAP2 SUB SWAP1 RETURN JUMPDEST PUSH2 0x108 PUSH1 0x4 DUP1 CALLDATASIZE SUB DUP2 ADD SWAP1 PUSH2 0x103 SWAP2 SWAP1 PUSH2 0xBF9 JUMP JUMPDEST PUSH2 0x34A JUMP JUMPDEST PUSH1 0x40 MLOAD PUSH2 0x115 SWAP2 SWAP1 PUSH2 0xBE0 JUMP JUMPDEST PUSH1 0x40 MLOAD DUP1 SWAP2 SUB SWAP1 RETURN JUMPDEST PUSH2 0x126 PUSH2 0x6AB JUMP JUMPDEST PUSH1 0x40 MLOAD PUSH2 0x133 SWAP2 SWAP1 PUSH2 0xC64 JUMP JUMPDEST PUSH1 0x40 MLOAD DUP1 SWAP2 SUB SWAP1 RETURN JUMPDEST PUSH2 0x156 PUSH1 0x4 DUP1 CALLDATASIZE SUB DUP2 ADD SWAP1 PUSH2 0x151 SWAP2 SWAP1 PUSH2 0xC7D JUMP JUMPDEST PUSH2 0x6B0 JUMP JUMPDEST STOP JUMPDEST PUSH2 0x172 PUSH1 0x4 DUP1 CALLDATASIZE SUB DUP2 ADD SWAP1 PUSH2 0x16D SWAP2 SWAP1 PUSH2 0xCA8 JUMP JUMPDEST PUSH2 0x71D JUMP JUMPDEST PUSH1 0x40 MLOAD PUSH2 0x17F SWAP2 SWAP1 PUSH2 0xCE2 JUMP JUMPDEST PUSH1 0x40 MLOAD DUP1 SWAP2 SUB SWAP1 RETURN JUMPDEST PUSH2 0x190 PUSH2 0x762 JUMP JUMPDEST PUSH1 0x40 MLOAD PUSH2 0x19D SWAP2 SWAP1 PUSH2 0xAD7 JUMP JUMPDEST PUSH1 0x40 MLOAD DUP1 SWAP2 SUB SWAP1 RETURN JUMPDEST PUSH2 0x1AE PUSH2 0x79B JUMP JUMPDEST PUSH1 0x40 MLOAD PUSH2 0x1BB SWAP2 SWAP1 PUSH2 0xCE2 JUMP JUMPDEST PUSH1 0x40 MLOAD DUP1 SWAP2 SUB SWAP1 RETURN JUMPDEST PUSH2 0x1DE PUSH1 0x4 DUP1 CALLDATASIZE SUB DUP2 ADD SWAP1 PUSH2 0x1D9 SWAP2 SWAP1 PUSH2 0xB88 JUMP JUMPDEST PUSH2 0x7A4 JUMP JUMPDEST PUSH1 0x40 MLOAD PUSH2 0x1EB SWAP2 SWAP1 PUSH2 0xBE0 JUMP JUMPDEST PUSH1 0x40 MLOAD DUP1 SWAP2 SUB SWAP1 RETURN JUMPDEST PUSH2 0x20E PUSH1 0x4 DUP1 CALLDATASIZE SUB DUP2 ADD SWAP1 PUSH2 0x209 SWAP2 SWAP1 PUSH2 0xCFB JUMP JUMPDEST PUSH2 0x97A JUMP JUMPDEST PUSH1 0x40 MLOAD PUSH2 0x21B SWAP2 SWAP1 PUSH2 0xCE2 JUMP JUMPDEST PUSH1 0x40 MLOAD DUP1 SWAP2 SUB SWAP1 RETURN JUMPDEST PUSH1 0x40 MLOAD DUP1 PUSH1 0x40 ADD PUSH1 0x40 MSTORE DUP1 PUSH1 0x11 DUP2 MSTORE PUSH1 0x20 ADD PUSH32 0x4552433230426C6F636B636861696E415A000000000000000000000000000000 DUP2 MSTORE POP DUP2 JUMP JUMPDEST PUSH0 DUP2 PUSH1 0x1 PUSH0 CALLER PUSH20 0xFFFFFFFFFFFFFFFFFFFFFFFFFFFFFFFFFFFFFFFF AND PUSH20 0xFFFFFFFFFFFFFFFFFFFFFFFFFFFFFFFFFFFFFFFF AND DUP2 MSTORE PUSH1 0x20 ADD SWAP1 DUP2 MSTORE PUSH1 0x20 ADD PUSH0 KECCAK256 PUSH0 DUP6 PUSH20 0xFFFFFFFFFFFFFFFFFFFFFFFFFFFFFFFFFFFFFFFF AND PUSH20 0xFFFFFFFFFFFFFFFFFFFFFFFFFFFFFFFFFFFFFFFF AND DUP2 MSTORE PUSH1 0x20 ADD SWAP1 DUP2 MSTORE PUSH1 0x20 ADD PUSH0 KECCAK256 DUP2 SWAP1 SSTORE POP DUP3 PUSH20 0xFFFFFFFFFFFFFFFFFFFFFFFFFFFFFFFFFFFFFFFF AND CALLER PUSH20 0xFFFFFFFFFFFFFFFFFFFFFFFFFFFFFFFFFFFFFFFF AND PUSH32 0x8C5BE1E5EBEC7D5BD14F71427D1E84F3DD0314C0F7B2291E5B200AC8C7C3B925 DUP5 PUSH1 0x40 MLOAD PUSH2 0x338 SWAP2 SWAP1 PUSH2 0xCE2 JUMP JUMPDEST PUSH1 0x40 MLOAD DUP1 SWAP2 SUB SWAP1 LOG3 PUSH1 0x1 SWAP1 POP SWAP3 SWAP2 POP POP JUMP JUMPDEST PUSH0 DUP1 PUSH0 DUP6 PUSH20 0xFFFFFFFFFFFFFFFFFFFFFFFFFFFFFFFFFFFFFFFF AND PUSH20 0xFFFFFFFFFFFFFFFFFFFFFFFFFFFFFFFFFFFFFFFF AND DUP2 MSTORE PUSH1 0x20 ADD SWAP1 DUP2 MSTORE PUSH1 0x20 ADD PUSH0 KECCAK256 SLOAD DUP3 GT ISZERO PUSH2 0x393 JUMPI PUSH0 DUP1 REVERT JUMPDEST PUSH1 0x1 PUSH0 DUP6 PUSH20 0xFFFFFFFFFFFFFFFFFFFFFFFFFFFFFFFFFFFFFFFF AND PUSH20 0xFFFFFFFFFFFFFFFFFFFFFFFFFFFFFFFFFFFFFFFF AND DUP2 MSTORE PUSH1 0x20 ADD SWAP1 DUP2 MSTORE PUSH1 0x20 ADD PUSH0 KECCAK256 PUSH0 CALLER PUSH20 0xFFFFFFFFFFFFFFFFFFFFFFFFFFFFFFFFFFFFFFFF AND PUSH20 0xFFFFFFFFFFFFFFFFFFFFFFFFFFFFFFFFFFFFFFFF AND DUP2 MSTORE PUSH1 0x20 ADD SWAP1 DUP2 MSTORE PUSH1 0x20 ADD PUSH0 KECCAK256 SLOAD DUP3 GT ISZERO PUSH2 0x417 JUMPI PUSH0 DUP1 REVERT JUMPDEST PUSH2 0x466 DUP3 PUSH0 DUP1 DUP8 PUSH20 0xFFFFFFFFFFFFFFFFFFFFFFFFFFFFFFFFFFFFFFFF AND PUSH20 0xFFFFFFFFFFFFFFFFFFFFFFFFFFFFFFFFFFFFFFFF AND DUP2 MSTORE PUSH1 0x20 ADD SWAP1 DUP2 MSTORE PUSH1 0x20 ADD PUSH0 KECCAK256 SLOAD PUSH2 0x9FC SWAP1 SWAP2 SWAP1 PUSH4 0xFFFFFFFF AND JUMP JUMPDEST PUSH0 DUP1 DUP7 PUSH20 0xFFFFFFFFFFFFFFFFFFFFFFFFFFFFFFFFFFFFFFFF AND PUSH20 0xFFFFFFFFFFFFFFFFFFFFFFFFFFFFFFFFFFFFFFFF AND DUP2 MSTORE PUSH1 0x20 ADD SWAP1 DUP2 MSTORE PUSH1 0x20 ADD PUSH0 KECCAK256 DUP2 SWAP1 SSTORE POP PUSH2 0x531 DUP3 PUSH1 0x1 PUSH0 DUP8 PUSH20 0xFFFFFFFFFFFFFFFFFFFFFFFFFFFFFFFFFFFFFFFF AND PUSH20 0xFFFFFFFFFFFFFFFFFFFFFFFFFFFFFFFFFFFFFFFF AND DUP2 MSTORE PUSH1 0x20 ADD SWAP1 DUP2 MSTORE PUSH1 0x20 ADD PUSH0 KECCAK256 PUSH0 CALLER PUSH20 0xFFFFFFFFFFFFFFFFFFFFFFFFFFFFFFFFFFFFFFFF AND PUSH20 0xFFFFFFFFFFFFFFFFFFFFFFFFFFFFFFFFFFFFFFFF AND DUP2 MSTORE PUSH1 0x20 ADD SWAP1 DUP2 MSTORE PUSH1 0x20 ADD PUSH0 KECCAK256 SLOAD PUSH2 0x9FC SWAP1 SWAP2 SWAP1 PUSH4 0xFFFFFFFF AND JUMP JUMPDEST PUSH1 0x1 PUSH0 DUP7 PUSH20 0xFFFFFFFFFFFFFFFFFFFFFFFFFFFFFFFFFFFFFFFF AND PUSH20 0xFFFFFFFFFFFFFFFFFFFFFFFFFFFFFFFFFFFFFFFF AND DUP2 MSTORE PUSH1 0x20 ADD SWAP1 DUP2 MSTORE PUSH1 0x20 ADD PUSH0 KECCAK256 PUSH0 CALLER PUSH20 0xFFFFFFFFFFFFFFFFFFFFFFFFFFFFFFFFFFFFFFFF AND PUSH20 0xFFFFFFFFFFFFFFFFFFFFFFFFFFFFFFFFFFFFFFFF AND DUP2 MSTORE PUSH1 0x20 ADD SWAP1 DUP2 MSTORE PUSH1 0x20 ADD PUSH0 KECCAK256 DUP2 SWAP1 SSTORE POP PUSH2 0x5FC DUP3 PUSH0 DUP1 DUP7 PUSH20 0xFFFFFFFFFFFFFFFFFFFFFFFFFFFFFFFFFFFFFFFF AND PUSH20 0xFFFFFFFFFFFFFFFFFFFFFFFFFFFFFFFFFFFFFFFF AND DUP2 MSTORE PUSH1 0x20 ADD SWAP1 DUP2 MSTORE PUSH1 0x20 ADD PUSH0 KECCAK256 SLOAD PUSH2 0xA22 SWAP1 SWAP2 SWAP1 PUSH4 0xFFFFFFFF AND JUMP JUMPDEST PUSH0 DUP1 DUP6 PUSH20 0xFFFFFFFFFFFFFFFFFFFFFFFFFFFFFFFFFFFFFFFF AND PUSH20 0xFFFFFFFFFFFFFFFFFFFFFFFFFFFFFFFFFFFFFFFF AND DUP2 MSTORE PUSH1 0x20 ADD SWAP1 DUP2 MSTORE PUSH1 0x20 ADD PUSH0 KECCAK256 DUP2 SWAP1 SSTORE POP DUP3 PUSH20 0xFFFFFFFFFFFFFFFFFFFFFFFFFFFFFFFFFFFFFFFF AND DUP5 PUSH20 0xFFFFFFFFFFFFFFFFFFFFFFFFFFFFFFFFFFFFFFFF AND PUSH32 0xDDF252AD1BE2C89B69C2B068FC378DAA952BA7F163C4A11628F55A4DF523B3EF DUP5 PUSH1 0x40 MLOAD PUSH2 0x699 SWAP2 SWAP1 PUSH2 0xCE2 JUMP JUMPDEST PUSH1 0x40 MLOAD DUP1 SWAP2 SUB SWAP1 LOG3 PUSH0 SWAP1 POP SWAP4 SWAP3 POP POP POP JUMP JUMPDEST PUSH1 0x12 DUP2 JUMP JUMPDEST DUP1 PUSH1 0x2 PUSH0 DUP3 DUP3 SLOAD PUSH2 0x6C1 SWAP2 SWAP1 PUSH2 0xD66 JUMP JUMPDEST SWAP3 POP POP DUP2 SWAP1 SSTORE POP DUP1 PUSH0 DUP1 CALLER PUSH20 0xFFFFFFFFFFFFFFFFFFFFFFFFFFFFFFFFFFFFFFFF AND PUSH20 0xFFFFFFFFFFFFFFFFFFFFFFFFFFFFFFFFFFFFFFFF AND DUP2 MSTORE PUSH1 0x20 ADD SWAP1 DUP2 MSTORE PUSH1 0x20 ADD PUSH0 KECCAK256 PUSH0 DUP3 DUP3 SLOAD PUSH2 0x713 SWAP2 SWAP1 PUSH2 0xD66 JUMP JUMPDEST SWAP3 POP POP DUP2 SWAP1 SSTORE POP POP JUMP JUMPDEST PUSH0 DUP1 PUSH0 DUP4 PUSH20 0xFFFFFFFFFFFFFFFFFFFFFFFFFFFFFFFFFFFFFFFF AND PUSH20 0xFFFFFFFFFFFFFFFFFFFFFFFFFFFFFFFFFFFFFFFF AND DUP2 MSTORE PUSH1 0x20 ADD SWAP1 DUP2 MSTORE PUSH1 0x20 ADD PUSH0 KECCAK256 SLOAD SWAP1 POP SWAP2 SWAP1 POP JUMP JUMPDEST PUSH1 0x40 MLOAD DUP1 PUSH1 0x40 ADD PUSH1 0x40 MSTORE DUP1 PUSH1 0x5 DUP2 MSTORE PUSH1 0x20 ADD PUSH32 0x455243415A000000000000000000000000000000000000000000000000000000 DUP2 MSTORE POP DUP2 JUMP JUMPDEST PUSH0 PUSH1 0x2 SLOAD SWAP1 POP SWAP1 JUMP JUMPDEST PUSH0 DUP1 PUSH0 CALLER PUSH20 0xFFFFFFFFFFFFFFFFFFFFFFFFFFFFFFFFFFFFFFFF AND PUSH20 0xFFFFFFFFFFFFFFFFFFFFFFFFFFFFFFFFFFFFFFFF AND DUP2 MSTORE PUSH1 0x20 ADD SWAP1 DUP2 MSTORE PUSH1 0x20 ADD PUSH0 KECCAK256 SLOAD DUP3 GT ISZERO PUSH2 0x7ED JUMPI PUSH0 DUP1 REVERT JUMPDEST PUSH2 0x83C DUP3 PUSH0 DUP1 CALLER PUSH20 0xFFFFFFFFFFFFFFFFFFFFFFFFFFFFFFFFFFFFFFFF AND PUSH20 0xFFFFFFFFFFFFFFFFFFFFFFFFFFFFFFFFFFFFFFFF AND DUP2 MSTORE PUSH1 0x20 ADD SWAP1 DUP2 MSTORE PUSH1 0x20 ADD PUSH0 KECCAK256 SLOAD PUSH2 0x9FC SWAP1 SWAP2 SWAP1 PUSH4 0xFFFFFFFF AND JUMP JUMPDEST PUSH0 DUP1 CALLER PUSH20 0xFFFFFFFFFFFFFFFFFFFFFFFFFFFFFFFFFFFFFFFF AND PUSH20 0xFFFFFFFFFFFFFFFFFFFFFFFFFFFFFFFFFFFFFFFF AND DUP2 MSTORE PUSH1 0x20 ADD SWAP1 DUP2 MSTORE PUSH1 0x20 ADD PUSH0 KECCAK256 DUP2 SWAP1 SSTORE POP PUSH2 0x8CB DUP3 PUSH0 DUP1 DUP7 PUSH20 0xFFFFFFFFFFFFFFFFFFFFFFFFFFFFFFFFFFFFFFFF AND PUSH20 0xFFFFFFFFFFFFFFFFFFFFFFFFFFFFFFFFFFFFFFFF AND DUP2 MSTORE PUSH1 0x20 ADD SWAP1 DUP2 MSTORE PUSH1 0x20 ADD PUSH0 KECCAK256 SLOAD PUSH2 0xA22 SWAP1 SWAP2 SWAP1 PUSH4 0xFFFFFFFF AND JUMP JUMPDEST PUSH0 DUP1 DUP6 PUSH20 0xFFFFFFFFFFFFFFFFFFFFFFFFFFFFFFFFFFFFFFFF AND PUSH20 0xFFFFFFFFFFFFFFFFFFFFFFFFFFFFFFFFFFFFFFFF AND DUP2 MSTORE PUSH1 0x20 ADD SWAP1 DUP2 MSTORE PUSH1 0x20 ADD PUSH0 KECCAK256 DUP2 SWAP1 SSTORE POP DUP3 PUSH20 0xFFFFFFFFFFFFFFFFFFFFFFFFFFFFFFFFFFFFFFFF AND CALLER PUSH20 0xFFFFFFFFFFFFFFFFFFFFFFFFFFFFFFFFFFFFFFFF AND PUSH32 0xDDF252AD1BE2C89B69C2B068FC378DAA952BA7F163C4A11628F55A4DF523B3EF DUP5 PUSH1 0x40 MLOAD PUSH2 0x968 SWAP2 SWAP1 PUSH2 0xCE2 JUMP JUMPDEST PUSH1 0x40 MLOAD DUP1 SWAP2 SUB SWAP1 LOG3 PUSH1 0x1 SWAP1 POP SWAP3 SWAP2 POP POP JUMP JUMPDEST PUSH0 PUSH1 0x1 PUSH0 DUP5 PUSH20 0xFFFFFFFFFFFFFFFFFFFFFFFFFFFFFFFFFFFFFFFF AND PUSH20 0xFFFFFFFFFFFFFFFFFFFFFFFFFFFFFFFFFFFFFFFF AND DUP2 MSTORE PUSH1 0x20 ADD SWAP1 DUP2 MSTORE PUSH1 0x20 ADD PUSH0 KECCAK256 PUSH0 DUP4 PUSH20 0xFFFFFFFFFFFFFFFFFFFFFFFFFFFFFFFFFFFFFFFF AND PUSH20 0xFFFFFFFFFFFFFFFFFFFFFFFFFFFFFFFFFFFFFFFF AND DUP2 MSTORE PUSH1 0x20 ADD SWAP1 DUP2 MSTORE PUSH1 0x20 ADD PUSH0 KECCAK256 SLOAD SWAP1 POP SWAP3 SWAP2 POP POP JUMP JUMPDEST PUSH0 DUP3 DUP3 GT ISZERO PUSH2 0xA0E JUMPI PUSH2 0xA0D PUSH2 0xD99 JUMP JUMPDEST JUMPDEST DUP2 DUP4 PUSH2 0xA1A SWAP2 SWAP1 PUSH2 0xDC6 JUMP JUMPDEST SWAP1 POP SWAP3 SWAP2 POP POP JUMP JUMPDEST PUSH0 DUP1 DUP3 DUP5 PUSH2 0xA30 SWAP2 SWAP1 PUSH2 0xD66 JUMP JUMPDEST SWAP1 POP DUP4 DUP2 LT ISZERO PUSH2 0xA43 JUMPI PUSH2 0xA42 PUSH2 0xD99 JUMP JUMPDEST JUMPDEST DUP1 SWAP2 POP POP SWAP3 SWAP2 POP POP JUMP JUMPDEST PUSH0 DUP2 MLOAD SWAP1 POP SWAP2 SWAP1 POP JUMP JUMPDEST PUSH0 DUP3 DUP3 MSTORE PUSH1 0x20 DUP3 ADD SWAP1 POP SWAP3 SWAP2 POP POP JUMP JUMPDEST PUSH0 JUMPDEST DUP4 DUP2 LT ISZERO PUSH2 0xA84 JUMPI DUP1 DUP3 ADD MLOAD DUP2 DUP5 ADD MSTORE PUSH1 0x20 DUP2 ADD SWAP1 POP PUSH2 0xA69 JUMP JUMPDEST PUSH0 DUP5 DUP5 ADD MSTORE POP POP POP POP JUMP JUMPDEST PUSH0 PUSH1 0x1F NOT PUSH1 0x1F DUP4 ADD AND SWAP1 POP SWAP2 SWAP1 POP JUMP JUMPDEST PUSH0 PUSH2 0xAA9 DUP3 PUSH2 0xA4D JUMP JUMPDEST PUSH2 0xAB3 DUP2 DUP6 PUSH2 0xA57 JUMP JUMPDEST SWAP4 POP PUSH2 0xAC3 DUP2 DUP6 PUSH1 0x20 DUP7 ADD PUSH2 0xA67 JUMP JUMPDEST PUSH2 0xACC DUP2 PUSH2 0xA8F JUMP JUMPDEST DUP5 ADD SWAP2 POP POP SWAP3 SWAP2 POP POP JUMP JUMPDEST PUSH0 PUSH1 0x20 DUP3 ADD SWAP1 POP DUP2 DUP2 SUB PUSH0 DUP4 ADD MSTORE PUSH2 0xAEF DUP2 DUP5 PUSH2 0xA9F JUMP JUMPDEST SWAP1 POP SWAP3 SWAP2 POP POP JUMP JUMPDEST PUSH0 DUP1 REVERT JUMPDEST PUSH0 PUSH20 0xFFFFFFFFFFFFFFFFFFFFFFFFFFFFFFFFFFFFFFFF DUP3 AND SWAP1 POP SWAP2 SWAP1 POP JUMP JUMPDEST PUSH0 PUSH2 0xB24 DUP3 PUSH2 0xAFB JUMP JUMPDEST SWAP1 POP SWAP2 SWAP1 POP JUMP JUMPDEST PUSH2 0xB34 DUP2 PUSH2 0xB1A JUMP JUMPDEST DUP2 EQ PUSH2 0xB3E JUMPI PUSH0 DUP1 REVERT JUMPDEST POP JUMP JUMPDEST PUSH0 DUP2 CALLDATALOAD SWAP1 POP PUSH2 0xB4F DUP2 PUSH2 0xB2B JUMP JUMPDEST SWAP3 SWAP2 POP POP JUMP JUMPDEST PUSH0 DUP2 SWAP1 POP SWAP2 SWAP1 POP JUMP JUMPDEST PUSH2 0xB67 DUP2 PUSH2 0xB55 JUMP JUMPDEST DUP2 EQ PUSH2 0xB71 JUMPI PUSH0 DUP1 REVERT JUMPDEST POP JUMP JUMPDEST PUSH0 DUP2 CALLDATALOAD SWAP1 POP PUSH2 0xB82 DUP2 PUSH2 0xB5E JUMP JUMPDEST SWAP3 SWAP2 POP POP JUMP JUMPDEST PUSH0 DUP1 PUSH1 0x40 DUP4 DUP6 SUB SLT ISZERO PUSH2 0xB9E JUMPI PUSH2 0xB9D PUSH2 0xAF7 JUMP JUMPDEST JUMPDEST PUSH0 PUSH2 0xBAB DUP6 DUP3 DUP7 ADD PUSH2 0xB41 JUMP JUMPDEST SWAP3 POP POP PUSH1 0x20 PUSH2 0xBBC DUP6 DUP3 DUP7 ADD PUSH2 0xB74 JUMP JUMPDEST SWAP2 POP POP SWAP3 POP SWAP3 SWAP1 POP JUMP JUMPDEST PUSH0 DUP2 ISZERO ISZERO SWAP1 POP SWAP2 SWAP1 POP JUMP JUMPDEST PUSH2 0xBDA DUP2 PUSH2 0xBC6 JUMP JUMPDEST DUP3 MSTORE POP POP JUMP JUMPDEST PUSH0 PUSH1 0x20 DUP3 ADD SWAP1 POP PUSH2 0xBF3 PUSH0 DUP4 ADD DUP5 PUSH2 0xBD1 JUMP JUMPDEST SWAP3 SWAP2 POP POP JUMP JUMPDEST PUSH0 DUP1 PUSH0 PUSH1 0x60 DUP5 DUP7 SUB SLT ISZERO PUSH2 0xC10 JUMPI PUSH2 0xC0F PUSH2 0xAF7 JUMP JUMPDEST JUMPDEST PUSH0 PUSH2 0xC1D DUP7 DUP3 DUP8 ADD PUSH2 0xB41 JUMP JUMPDEST SWAP4 POP POP PUSH1 0x20 PUSH2 0xC2E DUP7 DUP3 DUP8 ADD PUSH2 0xB41 JUMP JUMPDEST SWAP3 POP POP PUSH1 0x40 PUSH2 0xC3F DUP7 DUP3 DUP8 ADD PUSH2 0xB74 JUMP JUMPDEST SWAP2 POP POP SWAP3 POP SWAP3 POP SWAP3 JUMP JUMPDEST PUSH0 PUSH1 0xFF DUP3 AND SWAP1 POP SWAP2 SWAP1 POP JUMP JUMPDEST PUSH2 0xC5E DUP2 PUSH2 0xC49 JUMP JUMPDEST DUP3 MSTORE POP POP JUMP JUMPDEST PUSH0 PUSH1 0x20 DUP3 ADD SWAP1 POP PUSH2 0xC77 PUSH0 DUP4 ADD DUP5 PUSH2 0xC55 JUMP JUMPDEST SWAP3 SWAP2 POP POP JUMP JUMPDEST PUSH0 PUSH1 0x20 DUP3 DUP5 SUB SLT ISZERO PUSH2 0xC92 JUMPI PUSH2 0xC91 PUSH2 0xAF7 JUMP JUMPDEST JUMPDEST PUSH0 PUSH2 0xC9F DUP5 DUP3 DUP6 ADD PUSH2 0xB74 JUMP JUMPDEST SWAP2 POP POP SWAP3 SWAP2 POP POP JUMP JUMPDEST PUSH0 PUSH1 0x20 DUP3 DUP5 SUB SLT ISZERO PUSH2 0xCBD JUMPI PUSH2 0xCBC PUSH2 0xAF7 JUMP JUMPDEST JUMPDEST PUSH0 PUSH2 0xCCA DUP5 DUP3 DUP6 ADD PUSH2 0xB41 JUMP JUMPDEST SWAP2 POP POP SWAP3 SWAP2 POP POP JUMP JUMPDEST PUSH2 0xCDC DUP2 PUSH2 0xB55 JUMP JUMPDEST DUP3 MSTORE POP POP JUMP JUMPDEST PUSH0 PUSH1 0x20 DUP3 ADD SWAP1 POP PUSH2 0xCF5 PUSH0 DUP4 ADD DUP5 PUSH2 0xCD3 JUMP JUMPDEST SWAP3 SWAP2 POP POP JUMP JUMPDEST PUSH0 DUP1 PUSH1 0x40 DUP4 DUP6 SUB SLT ISZERO PUSH2 0xD11 JUMPI PUSH2 0xD10 PUSH2 0xAF7 JUMP JUMPDEST JUMPDEST PUSH0 PUSH2 0xD1E DUP6 DUP3 DUP7 ADD PUSH2 0xB41 JUMP JUMPDEST SWAP3 POP POP PUSH1 0x20 PUSH2 0xD2F DUP6 DUP3 DUP7 ADD PUSH2 0xB41 JUMP JUMPDEST SWAP2 POP POP SWAP3 POP SWAP3 SWAP1 POP JUMP JUMPDEST PUSH32 0x4E487B7100000000000000000000000000000000000000000000000000000000 PUSH0 MSTORE PUSH1 0x11 PUSH1 0x4 MSTORE PUSH1 0x24 PUSH0 REVERT JUMPDEST PUSH0 PUSH2 0xD70 DUP3 PUSH2 0xB55 JUMP JUMPDEST SWAP2 POP PUSH2 0xD7B DUP4 PUSH2 0xB55 JUMP JUMPDEST SWAP3 POP DUP3 DUP3 ADD SWAP1 POP DUP1 DUP3 GT ISZERO PUSH2 0xD93 JUMPI PUSH2 0xD92 PUSH2 0xD39 JUMP JUMPDEST JUMPDEST SWAP3 SWAP2 POP POP JUMP JUMPDEST PUSH32 0x4E487B7100000000000000000000000000000000000000000000000000000000 PUSH0 MSTORE PUSH1 0x1 PUSH1 0x4 MSTORE PUSH1 0x24 PUSH0 REVERT JUMPDEST PUSH0 PUSH2 0xDD0 DUP3 PUSH2 0xB55 JUMP JUMPDEST SWAP2 POP PUSH2 0xDDB DUP4 PUSH2 0xB55 JUMP JUMPDEST SWAP3 POP DUP3 DUP3 SUB SWAP1 POP DUP2 DUP2 GT ISZERO PUSH2 0xDF3 JUMPI PUSH2 0xDF2 PUSH2 0xD39 JUMP JUMPDEST JUMPDEST SWAP3 SWAP2 POP POP JUMP INVALID LOG2 PUSH5 0x6970667358 0x22 SLT KECCAK256 EXTCODECOPY 0xC 0x4E PUSH24 0x46DA1CC3E0CC4B6D1FDCDEB2349BFFF365991DF6ABD8431C DUP13 0xF9 0xAA 0x25 PUSH5 0x736F6C6343 STOP ADDMOD AND STOP CALLER "
				},
				"gasEstimates": {
					"creation": {
						"codeDepositCost": "737000",
						"executionCost": "infinite",
						"totalCost": "infinite"
					},
					"external": {
						"Clientes(address)": "2815",
						"CompraTokens(uint256)": "infinite",
						"GeneraTokens(uint256)": "infinite",
						"MappingAtracciones(string)": "infinite",
						"MisTokens()": "infinite",
						"balanceOf()": "infinite",
						"owner()": "2553"
					},
					"internal": {
						"PrecioTokens(uint256)": "infinite"
					}
				},
				"methodIdentifiers": {
					"Clientes(address)": "ce8f2f38",
					"CompraTokens(uint256)": "f7774091",
					"GeneraTokens(uint256)": "1246f6e2",
					"MappingAtracciones(string)": "d00df296",
					"MisTokens()": "e33f34a0",
					"balanceOf()": "722713f7",
					"owner()": "8da5cb5b"
				}
			},
			"storageLayout": {
				"storage": [
					{
						"astId": 6,
						"contract": "Disney/Disney.sol:Disney",
						"label": "token",
						"offset": 0,
						"slot": "0",
						"type": "t_contract(ERC20Basic)535"
					},
					{
						"astId": 8,
						"contract": "Disney/Disney.sol:Disney",
						"label": "owner",
						"offset": 0,
						"slot": "1",
						"type": "t_address_payable"
					},
					{
						"astId": 39,
						"contract": "Disney/Disney.sol:Disney",
						"label": "Clientes",
						"offset": 0,
						"slot": "2",
						"type": "t_mapping(t_address,t_struct(cliente)34_storage)"
					},
					{
						"astId": 195,
						"contract": "Disney/Disney.sol:Disney",
						"label": "MappingAtracciones",
						"offset": 0,
						"slot": "3",
						"type": "t_mapping(t_string_memory_ptr,t_struct(atraccion)190_storage)"
					},
					{
						"astId": 198,
						"contract": "Disney/Disney.sol:Disney",
						"label": "Atracciones",
						"offset": 0,
						"slot": "4",
						"type": "t_array(t_string_storage)dyn_storage"
					},
					{
						"astId": 203,
						"contract": "Disney/Disney.sol:Disney",
						"label": "HistorialAtracciones",
						"offset": 0,
						"slot": "5",
						"type": "t_mapping(t_address,t_array(t_string_storage)dyn_storage)"
					}
				],
				"types": {
					"t_address": {
						"encoding": "inplace",
						"label": "address",
						"numberOfBytes": "20"
					},
					"t_address_payable": {
						"encoding": "inplace",
						"label": "address payable",
						"numberOfBytes": "20"
					},
					"t_array(t_string_storage)dyn_storage": {
						"base": "t_string_storage",
						"encoding": "dynamic_array",
						"label": "string[]",
						"numberOfBytes": "32"
					},
					"t_bool": {
						"encoding": "inplace",
						"label": "bool",
						"numberOfBytes": "1"
					},
					"t_contract(ERC20Basic)535": {
						"encoding": "inplace",
						"label": "contract ERC20Basic",
						"numberOfBytes": "20"
					},
					"t_mapping(t_address,t_array(t_string_storage)dyn_storage)": {
						"encoding": "mapping",
						"key": "t_address",
						"label": "mapping(address => string[])",
						"numberOfBytes": "32",
						"value": "t_array(t_string_storage)dyn_storage"
					},
					"t_mapping(t_address,t_struct(cliente)34_storage)": {
						"encoding": "mapping",
						"key": "t_address",
						"label": "mapping(address => struct Disney.cliente)",
						"numberOfBytes": "32",
						"value": "t_struct(cliente)34_storage"
					},
					"t_mapping(t_string_memory_ptr,t_struct(atraccion)190_storage)": {
						"encoding": "mapping",
						"key": "t_string_memory_ptr",
						"label": "mapping(string => struct Disney.atraccion)",
						"numberOfBytes": "32",
						"value": "t_struct(atraccion)190_storage"
					},
					"t_string_memory_ptr": {
						"encoding": "bytes",
						"label": "string",
						"numberOfBytes": "32"
					},
					"t_string_storage": {
						"encoding": "bytes",
						"label": "string",
						"numberOfBytes": "32"
					},
					"t_struct(atraccion)190_storage": {
						"encoding": "inplace",
						"label": "struct Disney.atraccion",
						"members": [
							{
								"astId": 185,
								"contract": "Disney/Disney.sol:Disney",
								"label": "nombre_atraccion",
								"offset": 0,
								"slot": "0",
								"type": "t_string_storage"
							},
							{
								"astId": 187,
								"contract": "Disney/Disney.sol:Disney",
								"label": "precio_atraccion",
								"offset": 0,
								"slot": "1",
								"type": "t_uint256"
							},
							{
								"astId": 189,
								"contract": "Disney/Disney.sol:Disney",
								"label": "estado_atraccion",
								"offset": 0,
								"slot": "2",
								"type": "t_bool"
							}
						],
						"numberOfBytes": "96"
					},
					"t_struct(cliente)34_storage": {
						"encoding": "inplace",
						"label": "struct Disney.cliente",
						"members": [
							{
								"astId": 30,
								"contract": "Disney/Disney.sol:Disney",
								"label": "tokens_comprados",
								"offset": 0,
								"slot": "0",
								"type": "t_uint256"
							},
							{
								"astId": 33,
								"contract": "Disney/Disney.sol:Disney",
								"label": "atracciones_disfrutadas",
								"offset": 0,
								"slot": "1",
								"type": "t_array(t_string_storage)dyn_storage"
							}
						],
						"numberOfBytes": "64"
					},
					"t_uint256": {
						"encoding": "inplace",
						"label": "uint256",
						"numberOfBytes": "32"
					}
				}
			},
			"userdoc": {
				"kind": "user",
				"methods": {},
				"version": 1
			}
		}
	}
}