{
	"data": {
		"bytecode": {
			"linkReferences": {},
			"object": "608060405234801561000f575f80fd5b506101048061001d5f395ff3fe6080604052348015600e575f80fd5b50600436106030575f3560e01c8063862b7129146034578063e9073c3314603c575b5f80fd5b603a6044565b005b6042607a565b005b600180811115605457605360a1565b5b5f806101000a81548160ff02191690836001811115607357607260a1565b5b0217905550565b5f805f6101000a81548160ff02191690836001811115609a57609960a1565b5b0217905550565b7f4e487b71000000000000000000000000000000000000000000000000000000005f52602160045260245ffdfea2646970667358221220e6deb251ba3b827d33f2c0e20dc2f3a1b5d54900a5bc352d5ce8b23d07b94d3a64736f6c63430008170033",
			"opcodes": "PUSH1 0x80 PUSH1 0x40 MSTORE CALLVALUE DUP1 ISZERO PUSH2 0xF JUMPI PUSH0 DUP1 REVERT JUMPDEST POP PUSH2 0x104 DUP1 PUSH2 0x1D PUSH0 CODECOPY PUSH0 RETURN INVALID PUSH1 0x80 PUSH1 0x40 MSTORE CALLVALUE DUP1 ISZERO PUSH1 0xE JUMPI PUSH0 DUP1 REVERT JUMPDEST POP PUSH1 0x4 CALLDATASIZE LT PUSH1 0x30 JUMPI PUSH0 CALLDATALOAD PUSH1 0xE0 SHR DUP1 PUSH4 0x862B7129 EQ PUSH1 0x34 JUMPI DUP1 PUSH4 0xE9073C33 EQ PUSH1 0x3C JUMPI JUMPDEST PUSH0 DUP1 REVERT JUMPDEST PUSH1 0x3A PUSH1 0x44 JUMP JUMPDEST STOP JUMPDEST PUSH1 0x42 PUSH1 0x7A JUMP JUMPDEST STOP JUMPDEST PUSH1 0x1 DUP1 DUP2 GT ISZERO PUSH1 0x54 JUMPI PUSH1 0x53 PUSH1 0xA1 JUMP JUMPDEST JUMPDEST PUSH0 DUP1 PUSH2 0x100 EXP DUP2 SLOAD DUP2 PUSH1 0xFF MUL NOT AND SWAP1 DUP4 PUSH1 0x1 DUP2 GT ISZERO PUSH1 0x73 JUMPI PUSH1 0x72 PUSH1 0xA1 JUMP JUMPDEST JUMPDEST MUL OR SWAP1 SSTORE POP JUMP JUMPDEST PUSH0 DUP1 PUSH0 PUSH2 0x100 EXP DUP2 SLOAD DUP2 PUSH1 0xFF MUL NOT AND SWAP1 DUP4 PUSH1 0x1 DUP2 GT ISZERO PUSH1 0x9A JUMPI PUSH1 0x99 PUSH1 0xA1 JUMP JUMPDEST JUMPDEST MUL OR SWAP1 SSTORE POP JUMP JUMPDEST PUSH32 0x4E487B7100000000000000000000000000000000000000000000000000000000 PUSH0 MSTORE PUSH1 0x21 PUSH1 0x4 MSTORE PUSH1 0x24 PUSH0 REVERT INVALID LOG2 PUSH5 0x6970667358 0x22 SLT KECCAK256 0xE6 0xDE 0xB2 MLOAD 0xBA EXTCODESIZE DUP3 PUSH30 0x33F2C0E20DC2F3A1B5D54900A5BC352D5CE8B23D07B94D3A64736F6C6343 STOP ADDMOD OR STOP CALLER "
		},
		"gasEstimates": {
			"creation": {
				"codeDepositCost": "52000",
				"executionCost": "103",
				"totalCost": "52103"
			},
			"external": {
				"apagar()": "24433",
				"encender()": "24428"
			}
		},
		"methodIdentifiers": {
			"apagar()": "862b7129",
			"encender()": "e9073c33"
		}
	},
	"abi": [
		{
			"inputs": [],
			"name": "apagar",
			"outputs": [],
			"stateMutability": "nonpayable",
			"type": "function"
		},
		{
			"inputs": [],
			"name": "encender",
			"outputs": [],
			"stateMutability": "nonpayable",
			"type": "function"
		}
	]
}