{
	"data": {
		"bytecode": {
			"linkReferences": {},
			"object": "6080604052425f55603c600155611c206002556241eb0060035562093a8060045534801561002b575f80fd5b50610173806100395f395ff3fe608060405234801561000f575f80fd5b5060043610610055575f3560e01c8063172f11fc14610059578063183289fc146100775780634f0cea83146100955780635a9606a4146100b3578063e8b1ed29146100d1575b5f80fd5b6100616100ef565b60405161006e9190610124565b60405180910390f35b61007f6100f5565b60405161008c9190610124565b60405180910390f35b61009d6100fb565b6040516100aa9190610124565b60405180910390f35b6100bb610101565b6040516100c89190610124565b60405180910390f35b6100d9610106565b6040516100e69190610124565b60405180910390f35b60015481565b60045481565b60035481565b5f5481565b60025481565b5f819050919050565b61011e8161010c565b82525050565b5f6020820190506101375f830184610115565b9291505056fea2646970667358221220c267380cd708aa8618edfe4cb57e996fa81714f253e54f695f32280aaa9e81cf64736f6c63430008160033",
			"opcodes": "PUSH1 0x80 PUSH1 0x40 MSTORE TIMESTAMP PUSH0 SSTORE PUSH1 0x3C PUSH1 0x1 SSTORE PUSH2 0x1C20 PUSH1 0x2 SSTORE PUSH3 0x41EB00 PUSH1 0x3 SSTORE PUSH3 0x93A80 PUSH1 0x4 SSTORE CALLVALUE DUP1 ISZERO PUSH2 0x2B JUMPI PUSH0 DUP1 REVERT JUMPDEST POP PUSH2 0x173 DUP1 PUSH2 0x39 PUSH0 CODECOPY PUSH0 RETURN INVALID PUSH1 0x80 PUSH1 0x40 MSTORE CALLVALUE DUP1 ISZERO PUSH2 0xF JUMPI PUSH0 DUP1 REVERT JUMPDEST POP PUSH1 0x4 CALLDATASIZE LT PUSH2 0x55 JUMPI PUSH0 CALLDATALOAD PUSH1 0xE0 SHR DUP1 PUSH4 0x172F11FC EQ PUSH2 0x59 JUMPI DUP1 PUSH4 0x183289FC EQ PUSH2 0x77 JUMPI DUP1 PUSH4 0x4F0CEA83 EQ PUSH2 0x95 JUMPI DUP1 PUSH4 0x5A9606A4 EQ PUSH2 0xB3 JUMPI DUP1 PUSH4 0xE8B1ED29 EQ PUSH2 0xD1 JUMPI JUMPDEST PUSH0 DUP1 REVERT JUMPDEST PUSH2 0x61 PUSH2 0xEF JUMP JUMPDEST PUSH1 0x40 MLOAD PUSH2 0x6E SWAP2 SWAP1 PUSH2 0x124 JUMP JUMPDEST PUSH1 0x40 MLOAD DUP1 SWAP2 SUB SWAP1 RETURN JUMPDEST PUSH2 0x7F PUSH2 0xF5 JUMP JUMPDEST PUSH1 0x40 MLOAD PUSH2 0x8C SWAP2 SWAP1 PUSH2 0x124 JUMP JUMPDEST PUSH1 0x40 MLOAD DUP1 SWAP2 SUB SWAP1 RETURN JUMPDEST PUSH2 0x9D PUSH2 0xFB JUMP JUMPDEST PUSH1 0x40 MLOAD PUSH2 0xAA SWAP2 SWAP1 PUSH2 0x124 JUMP JUMPDEST PUSH1 0x40 MLOAD DUP1 SWAP2 SUB SWAP1 RETURN JUMPDEST PUSH2 0xBB PUSH2 0x101 JUMP JUMPDEST PUSH1 0x40 MLOAD PUSH2 0xC8 SWAP2 SWAP1 PUSH2 0x124 JUMP JUMPDEST PUSH1 0x40 MLOAD DUP1 SWAP2 SUB SWAP1 RETURN JUMPDEST PUSH2 0xD9 PUSH2 0x106 JUMP JUMPDEST PUSH1 0x40 MLOAD PUSH2 0xE6 SWAP2 SWAP1 PUSH2 0x124 JUMP JUMPDEST PUSH1 0x40 MLOAD DUP1 SWAP2 SUB SWAP1 RETURN JUMPDEST PUSH1 0x1 SLOAD DUP2 JUMP JUMPDEST PUSH1 0x4 SLOAD DUP2 JUMP JUMPDEST PUSH1 0x3 SLOAD DUP2 JUMP JUMPDEST PUSH0 SLOAD DUP2 JUMP JUMPDEST PUSH1 0x2 SLOAD DUP2 JUMP JUMPDEST PUSH0 DUP2 SWAP1 POP SWAP2 SWAP1 POP JUMP JUMPDEST PUSH2 0x11E DUP2 PUSH2 0x10C JUMP JUMPDEST DUP3 MSTORE POP POP JUMP JUMPDEST PUSH0 PUSH1 0x20 DUP3 ADD SWAP1 POP PUSH2 0x137 PUSH0 DUP4 ADD DUP5 PUSH2 0x115 JUMP JUMPDEST SWAP3 SWAP2 POP POP JUMP INVALID LOG2 PUSH5 0x6970667358 0x22 SLT KECCAK256 0xC2 PUSH8 0x380CD708AA8618ED INVALID 0x4C 0xB5 PUSH31 0x996FA81714F253E54F695F32280AAA9E81CF64736F6C634300081600330000 "
		},
		"gasEstimates": {
			"creation": {
				"codeDepositCost": "74200",
				"executionCost": "110649",
				"totalCost": "184849"
			},
			"external": {
				"cincuenta_dias()": "2447",
				"dos_horas()": "2491",
				"tiempo_actual()": "2468",
				"un_minuto()": "2403",
				"una_semana()": "2425"
			}
		},
		"methodIdentifiers": {
			"cincuenta_dias()": "4f0cea83",
			"dos_horas()": "e8b1ed29",
			"tiempo_actual()": "5a9606a4",
			"un_minuto()": "172f11fc",
			"una_semana()": "183289fc"
		}
	},
	"abi": [
		{
			"inputs": [],
			"name": "cincuenta_dias",
			"outputs": [
				{
					"internalType": "uint256",
					"name": "",
					"type": "uint256"
				}
			],
			"stateMutability": "view",
			"type": "function"
		},
		{
			"inputs": [],
			"name": "dos_horas",
			"outputs": [
				{
					"internalType": "uint256",
					"name": "",
					"type": "uint256"
				}
			],
			"stateMutability": "view",
			"type": "function"
		},
		{
			"inputs": [],
			"name": "tiempo_actual",
			"outputs": [
				{
					"internalType": "uint256",
					"name": "",
					"type": "uint256"
				}
			],
			"stateMutability": "view",
			"type": "function"
		},
		{
			"inputs": [],
			"name": "un_minuto",
			"outputs": [
				{
					"internalType": "uint256",
					"name": "",
					"type": "uint256"
				}
			],
			"stateMutability": "view",
			"type": "function"
		},
		{
			"inputs": [],
			"name": "una_semana",
			"outputs": [
				{
					"internalType": "uint256",
					"name": "",
					"type": "uint256"
				}
			],
			"stateMutability": "view",
			"type": "function"
		}
	]
}